:100000000C9428010C9459010C9459010C94590139
:100010000C9459010C9459010C9459010C945901F8
:100020000C9459010C9459010C9459010C945901E8
:100030000C9459010C9459010C9459010C945901D8
:100040000C9459010C9459010C9459010C945901C8
:100050000C9459010C9459010C9459010C943005DD
:100060000C9459010C94FA040C94D0040C9459018A
:100070000C9459010C9459010C9459010C94590198
:100080000C9459010C9459010C9459010C94590188
:100090000C9459010C9459010C9459010C94590178
:1000A0000C9459010C9459010C9459010C94590168
:1000B0000C9459010C9459010C9459010C94590158
:1000C0000C9459010C9459010C9459010C94590148
:1000D0000C9459010C9459010C9459010C94590138
:1000E0000C9459010C94DA020C94F9020C943E021F
:1000F0000C94FD020C945B010C9415030C947A058E
:100100000C9407030C94BF020C94D6020C94EF02DB
:100110000C94B9010C94DE020C94F1010C940B03C5
:100120000C9411030C9403030C94E2020C94C4028B
:100130000C9488010C94EB020C94F5020C9497013A
:100140000C94E5020C94AB01000021002400270070
:100150002A002D00300033000101000004010701D6
:100160000A0100002200250028002B002E0031008B
:10017000340002010000050108010B010505050519
:10018000070508080808020202020A0A080804040F
:10019000040401010101010101010303030303033D
:1001A0000303040707070C0C0C0C0C0C0C0C0202CC
:1001B000020206060606060606060B0B0B0B0B0BC9
:1001C0000B0B010210202008081020401020408056
:1001D000020102010804020101020408102040800B
:1001E0008040201008040201800402018040201099
:1001F00008040201080402010102040810204080E2
:10020000010204081020408000000A0B02090C0DB6
:100210000E080703040100000000000000000000B9
:1002200000000000000000000000000000000000CE
:10023000000000001211100000000000000000008B
:1002400000000000000000000000000000007A052F
:1002500011241FBECFEFD1E2DEBFCDBF00E00CBF47
:1002600013E0A0E0B2E0E8E2F0E100E00BBF02C082
:1002700007900D92A233B107D9F724E0A2E3B3E0CF
:1002800001C01D92A03BB207E1F711E0C8E2D1E046
:1002900000E006C021970109802FFE010E940A0894
:1002A000C732D10780E00807A9F70E942E060C94F8
:1002B00012080C940000AF92BF92CF92DF92EF929F
:1002C000FF920F931F93CF93DF936C017B018B0100
:1002D000040F151FEB015E01AE18BF08C017D10750
:1002E00059F06991D601ED91FC910190F081E02DDA
:1002F000C6011995892B79F7C501DF91CF911F911F
:100300000F91FF90EF90DF90CF90BF90AF90089546
:10031000FC01538D448D252F30E0842F90E0821B0B
:10032000930B541710F0CF96089501970895FC0190
:10033000918D828D981761F0A28DAE0FBF2FB11DE8
:100340005D968C91928D9F5F9F73928F90E0089540
:100350008FEF9FEF0895FC01918D828D981731F0FA
:10036000828DE80FF11D858D90E008958FEF9FEF4E
:100370000895FC01918D228D892F90E0805C9F4F24
:10038000821B91098F73992708958BEB93E00E944C
:10039000B90121E0892B09F420E0822F0895FC01A6
:1003A000A48DA80FB92FB11DA35ABF4F2C91848DD6
:1003B00090E001968F739927848FA689B7892C9333
:1003C000A089B1898C91837080648C93938D848D86
:1003D000981306C00288F389E02D80818F7D808389
:1003E0000895EF92FF920F931F93CF93DF93EC0149
:1003F00081E0888F9B8D8C8D98131AC0E889F989CC
:10040000808185FF15C09FB7F894EE89FF896083CE
:10041000E889F98980818370806480839FBF81E04F
:1004200090E0DF91CF911F910F91FF90EF90089591
:10043000F62E0B8D10E00F5F1F4F0F731127E02E6C
:100440008C8D8E110CC00FB607FCFACFE889F989A4
:10045000808185FFF5CFCE010E94CF01F1CFEB8DDA
:10046000EC0FFD2FF11DE35AFF4FF0829FB7F89478
:100470000B8FEA89FB8980818062CFCFCF93DF9396
:10048000EC01888D8823B9F0AA89BB89E889F989AC
:100490008C9185FD03C0808186FD0DC00FB607FCE1
:1004A000F7CF8C9185FFF2CF808185FFEDCFCE0114
:1004B0000E94CF01E9CFDF91CF91089580E090E0D5
:1004C000892B29F00E94C50181110E94000080E063
:1004D00090E0892B49F080E090E0892B29F00E9480
:1004E000000081110E94000080E090E0892B49F01B
:1004F00080E090E0892B29F00E94000081110E9489
:10050000000080E090E0892B49F080E090E0892BAA
:1005100029F00E94000081110C9400000895282FFA
:1005200030E0F901E85FFD4F9491F901EE53FE4F81
:10053000449124583E4FF9012491222309F435C0F7
:10054000992311F191509231F8F4E92FF0E08827C6
:10055000E355FD4F8F4F0C940A08DE02E202BF0202
:10056000D602DA02C402E502EB02EF02F502F9025A
:10057000FD0203030703C4020B031103150380915B
:1005800080008F7780938000E22FF0E0EE0FFF1F56
:10059000EE59FE4FA591B4918FB7F894EC9161118B
:1005A00048C040954E234C938FBF089580918000A2
:1005B0008F7DE8CF80918000877FE4CF84B58F77EF
:1005C00084BDE2CF84B58F7DFBCF8091B0008F7763
:1005D0008093B000D9CF8091B0008F7DF9CF80910A
:1005E00090008F7780939000CFCF809190008F7D87
:1005F000F9CF80919000877FF5CF8091A0008F7711
:100600008093A000C1CF8091A0008F7DF9CF809111
:10061000A000877FF5CF809120018F778093200104
:10062000B3CF809120018F7DF9CF80912001877F0A
:10063000F5CF4E2BB8CFCF93DF9390E0FC01EE5374
:10064000FE4F249184589E4FFC0184918823D1F061
:1006500090E0880F991FFC01E85BFE4FA591B491D3
:10066000FC01EE59FE4FC591D49161110EC09FB7A8
:10067000F8948C91E22FE0958E238C932881E223CD
:10068000E8839FBFDF91CF9108958FB7F894EC91E5
:10069000E22BEC938FBFF6CF3FB7F89480913703EE
:1006A00090913803A0913903B0913A0326B5A89BE5
:1006B00005C02F3F19F00196A11DB11D3FBFBA2FF4
:1006C000A92F982F8827BC01CD01620F711D811DB4
:1006D000911D42E0660F771F881F991F4A95D1F739
:1006E00008958F929F92AF92BF92CF92DF92EF9236
:1006F000FF924B015C010E944C036B017C010E9444
:100700004C036C197D098E099F09683E7340810571
:100710009105A8F321E0821A9108A108B10888EE9A
:10072000C80E83E0D81EE11CF11C81149104A104C1
:10073000B10429F7FF90EF90DF90CF90BF90AF907A
:100740009F908F900895CF92DF92EF92FF920F9338
:100750001F93CF93DF9380E0E82E82E0F82E0BE327
:1007600013E090E2C92E92E0D92ED0E0C0E0F8016B
:10077000EC0FFD1F80819181019739F460E0FE014B
:10078000E05FFD4F80810E948F022296C031D1052B
:1007900071F764E070E080E090E00E947103F7017F
:1007A0008081F2E0EF0EF11C60E00E948F02C0E158
:1007B000D2E08881229661E00E948F02CC16DD068D
:1007C000C1F7005F1F4F83E00B3B180771F6DF9105
:1007D000CF911F910F91FF90EF90DF90CF900895F0
:1007E000CF92DF92EF92FF920F931F93CF93DF93FD
:1007F0001F921F92CDB7DEB769834A83880F991F76
:100800000091AE041091AF04000F111FE8E5F4E071
:100810009F01285534402017310714F41192F8CF66
:100820002981FC01E85AFB4F21838A81808360E0A3
:100830008091AC040E948F021016110604F501503D
:100840001109F801E85AFB4FE080D090AA04C0904B
:10085000A80488E0F82E6E2D661F6627661F8C2D73
:100860000E948F02EE0C61E08D2D0E948F0260E0ED
:100870008D2D0E948F02FA94F110EDCFDDCF61E053
:100880008091AC040F900F90DF91CF911F910F9149
:10089000FF90EF90DF90CF900C948F02EF92FF9239
:1008A0000F931F93CF937C018C0183E0000F111FE6
:1008B0008A95E1F708591B4FC1E0F80111928F01A9
:1008C00040E06C2FC7010E94F003CF5FC930A9F749
:1008D000CF911F910F91FF90EF9008959F92AF924B
:1008E000BF92CF92DF92EF92FF920F931F93CF931D
:1008F000DF9320E0E22E22E0F22EC8E5D4E00BE305
:1009000013E09924939430E8C32ED12CF701808111
:10091000F2E0EF0EF11C61E00E948F02B12CA12CDD
:100920008091AE049091AF0418161906E4F4C60144
:100930000A2C02C0959587950A94E2F72889F5015B
:1009400094E0EE0FFF1F9A95E1F7E00FF11F408151
:100950005181452B11F1822B888B4889692D90E0BC
:1009600080E00E94F0038FEFA81AB80A98E0A91659
:10097000B104B1F6219693940E5F1F4FE9E09E12E9
:10098000C5CFDF91CF911F910F91FF90EF90DF9036
:10099000CF90BF90AF909F90089580958223DCCF39
:1009A0001F920F920FB60F9211240BB60F922F9336
:1009B0003F934F935F936F937F938F939F93AF93E7
:1009C000BF93EF93FF938BEB93E00E94CF01FF91D6
:1009D000EF91BF91AF919F918F917F916F915F91B7
:1009E0004F913F912F910F900BBE0F900FBE0F9024
:1009F0001F9018951F920F920FB60F9211240BB6ED
:100A00000F922F938F939F93EF93FF93E091CB03DC
:100A1000F091CC038081E091D103F091D20382FD6B
:100A20001DC090818091D4038F5F8F732091D50377
:100A3000821741F0E091D403F0E0E554FC4F958F2C
:100A40008093D403FF91EF919F918F912F910F90FD
:100A50000BBE0F900FBE0F901F9018958081F2CFA4
:100A60001F920F920FB60F9211242F933F938F93E3
:100A70009F93AF93BF938091330390913403A091E0
:100A80003503B09136033091320323E0230F2D3725
:100A900058F50196A11DB11D2093320380933303B5
:100AA00090933403A0933503B093360380913703BA
:100AB00090913803A0913903B0913A030196A11D9A
:100AC000B11D8093370390933803A0933903B093FB
:100AD0003A03BF91AF919F918F913F912F910F90CA
:100AE0000FBE0F901F90189526E8230F0296A11DA8
:100AF000B11DD2CFCF93DF931092BE031092BD03EE
:100B000088EE93E0A0E0B0E08093BF039093C00331
:100B1000A093C103B093C20384E293E09093BC031B
:100B20008093BB0385EC90E09093C8038093C70348
:100B300084EC90E09093CA038093C90380EC90E02A
:100B40009093CC038093CB0381EC90E09093CE0301
:100B50008093CD0382EC90E09093D0038093CF03F9
:100B600086EC90E09093D2038093D1031092D4034B
:100B70001092D5031092D6031092D703C3E3D0E0AE
:100B8000D093A904C093A80484E390E09093AB04AD
:100B90008093AA0485E390E09093AD048093AC0425
:100BA00081E090E09093AF048093AE0461E083E332
:100BB0000E941B0361E08091AA040E941B0361E074
:100BC0008091AC040E941B0361E08091AC040E9400
:100BD0008F02D093A904C093A804E8E6F4E0119230
:100BE00084E0E83AF807D9F7D0E0C0E08091AE049D
:100BF0009091AF04C817D90774F540E06FE0CE01BB
:100C00000E94F0038091AE049091AF04C817D907F9
:100C10002CF447E06BE0CE010E94F00340E069E075
:100C2000CE010E94F0038091AE049091AF04C817EA
:100C3000D9071CF4CE010E944E048091AE0490911D
:100C4000AF04C817D9072CF440E06CE0CE010E9435
:100C5000F0032196CBCFDF91CF910895789484B59E
:100C6000826084BD84B5816084BD85B5826085BDA8
:100C700085B5816085BD80916E00816080936E0036
:100C80001092810080918100826080938100809128
:100C900081008160809381008091800081608093D9
:100CA00080008091B10084608093B1008091B00099
:100CB00081608093B0008091910082608093910068
:100CC000809191008160809391008091900081607B
:100CD000809390008091A10082608093A100809118
:100CE000A10081608093A1008091A0008160809329
:100CF000A0008091210182608093210180912101D7
:100D00008160809321018091200181608093200186
:100D100080917A00846080937A0080917A0082606A
:100D200080937A0080917A00816080937A0080912C
:100D30007A00806880937A001092C100E091CB0322
:100D4000F091CC0382E08083E091C703F091C80367
:100D50001082E091C903F091CA038FEC8083109256
:100D6000D303E091CF03F091D00386E08083E0913C
:100D7000CD03F091CE03808180618083E091CD032B
:100D8000F091CE03808188608083E091CD03F09163
:100D9000CE03808180688083E091CD03F091CE0303
:100DA00080818F7D80838091AE049091AF0418166E
:100DB000190634F441E06CE090E080E00E94F0031A
:100DC0008091AE049091AF041816190634F44FE0E8
:100DD0006AE090E080E00E94F0038091AE04909180
:100DE000AF041816190624F490E080E00E944E0427
:100DF000C0E1D2E070E0E72E72E0F72E67018E01CD
:100E0000F80180810E5F1F4F61E00E941B03F60115
:100E10008081F2E0CF0ED11C61E00E941B0382E0D2
:100E20000032180769F78881229661E00E948F02DC
:100E3000F7018081F2E0EF0EF11C60E00E948F026A
:100E400082E0C032D80779F760E08FE20E941B038E
:100E500061E4762E80917B00877F80937B00709287
:100E60007C0080917A00806480937A0080917A007F
:100E700086FDFCCF90917800809179008927982792
:100E80008927892B09F0C3C0C0E0D2E040EAC42E14
:100E900042E0D42E5BE3E52E53E0F52E57014601E8
:100EA0008E01F80180810E5F1F4F61E00E948F026A
:100EB00090E080E0F501E80FF91FD401A80FB91FF9
:100EC0002D913C913183208340968038910591F794
:100ED000F2E08F0E911C82E0A80EB11C92E000316E
:100EE0001907F9F60E946E0464EF71E080E090E06B
:100EF0000E94710320E2822E22E0922E3BE3A32E79
:100F000033E0B32E00E012E0F80180810E5F1F4F46
:100F100061E00E948F0290E080E0F501E80FF91F88
:100F2000D401A80FB91F2D913C91318320834096A5
:100F30008038910591F7F2E08F0E911C82E0A80EA7
:100F4000B11C92E000311907F9F60E946E0464EFBB
:100F500071E080E090E00E9471038BE3A82E83E0B3
:100F6000B82E90EA892E92E0992E00E012E0F80166
:100F700080810E5F1F4F61E00E948F0290E080E051
:100F8000F501E80FF91FD401A80FB91F2D913C916D
:100F90003183208340968038910591F7F2E08F0EDF
:100FA000911C82E0A80EB11C92E000311907F9F6FD
:100FB0000E94A30364EF71E080E090E00E9471035F
:100FC0008881229661E00E948F0290E080E0F70124
:100FD000E80FF91FD601A80FB91F2D913C9131835D
:100FE000208340968038910591F7E2E0CE0ED11C27
:100FF000F2E0EF0EF11C82E0C031D80709F70E9441
:10100000A30364EF71E080E090E00E9471030E940E
:101010005E0220CFEE0FFF1F881F8BBF0790F69157
:08102000E02D1994F894FFCFB4
:10102800200021002200230024002500260027009C
:1010380016001700180019001A001B001C001D00DC
:101048000000000000000000000000000000000098
:101058000000000000000000000000000000000088
:101068000000000001000100010000000000000075
:101078000000010001000000000001000000000065
:101088000000010000000100000001000000000055
:101098000000010000000000010001000000000045
:1010A8000000000001000100010000000000000035
:1010B8000000000000000000000000000000000028
:1010C8000000000000000000000000000000000018
:1010D8000000000000000000000000000000000008
:1010E80001000100000000000000000000000000F6
:1010F80000000000010000000000000000000000E7
:1011080001000000010000000000000000000000D5
:1011180000000100010000000000000000000000C5
:1011280001000100000000000000000000000000B5
:1011380000000000000000000000000000000000A7
:1011480000000000F1015B0188013E02B90197012E
:02115800AB01E9
:00000001FF
