:100000000C9428010C9459010C9459010C94590139
:100010000C9459010C9459010C9459010C945901F8
:100020000C9459010C9459010C9459010C945901E8
:100030000C9459010C9459010C9459010C945901D8
:100040000C9459010C9459010C9459010C945901C8
:100050000C9459010C9459010C9459010C94CA0345
:100060000C9459010C943E040C9414040C94590102
:100070000C9459010C9459010C9459010C94590198
:100080000C9459010C9459010C9459010C94590188
:100090000C9459010C9459010C9459010C94590178
:1000A0000C9459010C9459010C9459010C94590168
:1000B0000C9459010C9459010C9459010C94590158
:1000C0000C9459010C9459010C9459010C94590148
:1000D0000C9459010C9459010C9459010C94590138
:1000E0000C9459010C94B9010C9488010C941503DB
:1000F0000C94E2020C94EF020C94F9020C94AB0104
:100100000C94EB020C9407030C9403030C949701DA
:100110000C943E020C94DA020C94DE020C947404EB
:100120000C945B010C9411030C94F5020C94E50201
:100130000C94F1010C940B030C94FD020C94C4027A
:100140000C94D6020C94BF0200002100240027006A
:100150002A002D00300033000101000004010701D6
:100160000A0100002200250028002B002E0031008B
:10017000340002010000050108010B010505050519
:10018000070508080808020202020A0A080804040F
:10019000040401010101010101010303030303033D
:1001A0000303040707070C0C0C0C0C0C0C0C0202CC
:1001B000020206060606060606060B0B0B0B0B0BC9
:1001C0000B0B010210202008081020401020408056
:1001D000020102010804020101020408102040800B
:1001E0008040201008040201800402018040201099
:1001F00008040201080402010102040810204080E2
:10020000010204081020408000000A0B02090C0DB6
:100210000E080703040100000000000000000000B9
:1002200000000000000000000000000000000000CE
:10023000000000001211100000000000000000008B
:100240000000000000000000000000000000740436
:1002500011241FBECFEFD1E2DEBFCDBF00E00CBF47
:1002600012E0A0E0B2E0EEE5FCE000E00BBF02C06F
:1002700007900D92A233B107D9F723E0A2E3B2E0D1
:1002800001C01D92A033B207E1F711E0C8E2D1E04E
:1002900000E006C021970109802FFE010E9425067B
:1002A000C732D10780E00807A9F70E9428050C94FF
:1002B0002D060C940000AF92BF92CF92DF92EF9286
:1002C000FF920F931F93CF93DF936C017B018B0100
:1002D000040F151FEB015E01AE18BF08C017D10750
:1002E00059F06991D601ED91FC910190F081E02DDA
:1002F000C6011995892B79F7C501DF91CF911F911F
:100300000F91FF90EF90DF90CF90BF90AF90089546
:10031000FC01538D448D252F30E0842F90E0821B0B
:10032000930B541710F0CF96089501970895FC0190
:10033000918D828D981761F0A28DAE0FBF2FB11DE8
:100340005D968C91928D9F5F9F73928F90E0089540
:100350008FEF9FEF0895FC01918D828D981731F0FA
:10036000828DE80FF11D858D90E008958FEF9FEF4E
:100370000895FC01918D228D892F90E0805C9F4F24
:10038000821B91098F73992708958BE392E00E9455
:10039000B90121E0892B09F420E0822F0895FC01A6
:1003A000A48DA80FB92FB11DA35ABF4F2C91848DD6
:1003B00090E001968F739927848FA689B7892C9333
:1003C000A089B1898C91837080648C93938D848D86
:1003D000981306C00288F389E02D80818F7D808389
:1003E0000895EF92FF920F931F93CF93DF93EC0149
:1003F00081E0888F9B8D8C8D98131AC0E889F989CC
:10040000808185FF15C09FB7F894EE89FF896083CE
:10041000E889F98980818370806480839FBF81E04F
:1004200090E0DF91CF911F910F91FF90EF90089591
:10043000F62E0B8D10E00F5F1F4F0F731127E02E6C
:100440008C8D8E110CC00FB607FCFACFE889F989A4
:10045000808185FFF5CFCE010E94CF01F1CFEB8DDA
:10046000EC0FFD2FF11DE35AFF4FF0829FB7F89478
:100470000B8FEA89FB8980818062CFCFCF93DF9396
:10048000EC01888D8823B9F0AA89BB89E889F989AC
:100490008C9185FD03C0808186FD0DC00FB607FCE1
:1004A000F7CF8C9185FFF2CF808185FFEDCFCE0114
:1004B0000E94CF01E9CFDF91CF91089580E090E0D5
:1004C000892B29F00E94C50181110E94000080E063
:1004D00090E0892B49F080E090E0892B29F00E9480
:1004E000000081110E94000080E090E0892B49F01B
:1004F00080E090E0892B29F00E94000081110E9489
:10050000000080E090E0892B49F080E090E0892BAA
:1005100029F00E94000081110C9400000895282FFA
:1005200030E0F901E85FFD4F9491F901EE53FE4F81
:10053000449124583E4FF9012491222309F435C0F7
:10054000992311F191509231F8F4E92FF0E08827C6
:10055000E355FD4F8F4F0C942506DE02E202BF02E9
:10056000D602DA02C402E502EB02EF02F502F9025A
:10057000FD0203030703C4020B031103150380915B
:1005800080008F7780938000E22FF0E0EE0FFF1F56
:10059000EE59FE4FA591B4918FB7F894EC9161118B
:1005A00048C040954E234C938FBF089580918000A2
:1005B0008F7DE8CF80918000877FE4CF84B58F77EF
:1005C00084BDE2CF84B58F7DFBCF8091B0008F7763
:1005D0008093B000D9CF8091B0008F7DF9CF80910A
:1005E00090008F7780939000CFCF809190008F7D87
:1005F000F9CF80919000877FF5CF8091A0008F7711
:100600008093A000C1CF8091A0008F7DF9CF809111
:10061000A000877FF5CF809120018F778093200104
:10062000B3CF809120018F7DF9CF80912001877F0A
:10063000F5CF4E2BB8CFCF93DF9390E0FC01EE5374
:10064000FE4F249184589E4FFC0184918823D1F061
:1006500090E0880F991FFC01E85BFE4FA591B491D3
:10066000FC01EE59FE4FC591D49161110EC09FB7A8
:10067000F8948C91E22FE0958E238C932881E223CD
:10068000E8839FBFDF91CF9108958FB7F894EC91E5
:10069000E22BEC938FBFF6CFCF92DF92EF92FF92D7
:1006A0000F931F93CF93DF931F921F92CDB7DEB7A7
:1006B00069834A83880F991F00912E0310912F039D
:1006C000000F111FE8EDF2E09F01285D3240201776
:1006D000310714F41192F8CF2981FC01E852FD4F43
:1006E00021838A81808360E080912C030E948F02A5
:1006F0001016110604F501501109F801E852FD4FDA
:10070000E080D0902A03C090280388E0F82E6E2D58
:10071000661F6627661F8C2D0E948F02EE0C61E01B
:100720008D2D0E948F0260E08D2D0E948F02FA9421
:10073000F110EDCFDDCF61E080912C030F900F9091
:10074000DF91CF911F910F91FF90EF90DF90CF90AD
:100750000C948F02EF92FF920F931F93CF937C0123
:100760008C0183E0000F111F8A95E1F708511D4F9E
:10077000C1E0F80111928F0140E06C2FC7010E9487
:100780004C03CF5FC930A9F7CF911F910F91FF9014
:10079000EF9008951F920F920FB60F9211242F938E
:1007A0003F938F939F93AF93BF9380913702909124
:1007B0003802A0913902B0913A023091360223E01A
:1007C000230F2D3758F50196A11DB11D2093360238
:1007D0008093370290933802A0933902B0933A0283
:1007E0008091320290913302A0913402B09135028F
:1007F0000196A11DB11D8093320290933302A09304
:100800003402B0933502BF91AF919F918F913F9188
:100810002F910F900FBE0F901F90189526E8230F71
:100820000296A11DB11DD2CF1F920F920FB60F924B
:1008300011240BB60F922F933F934F935F936F93B7
:100840007F938F939F93AF93BF93EF93FF938BE32C
:1008500092E00E94CF01FF91EF91BF91AF919F91E4
:100860008F917F916F915F914F913F912F910F9059
:100870000BBE0F900FBE0F901F9018951F920F92F6
:100880000FB60F9211240BB60F922F938F939F9355
:10089000EF93FF93E0914B02F0914C028081E09145
:1008A0005102F091520282FD1DC09081809154024C
:1008B0008F5F8F7320915502821741F0E0915402AF
:1008C000F0E0E55CFD4F958F80935402FF91EF912E
:1008D0009F918F912F910F900BBE0F900FBE0F9095
:1008E0001F9018958081F2CFCF93DF9310923E0234
:1008F00010923D0288EE93E0A0E0B0E080933F02CA
:1009000090934002A0934102B093420284E292E0AD
:1009100090933C0280933B0285EC90E090934802D8
:100920008093470284EC90E090934A0280934902BE
:1009300080EC90E090934C0280934B0281EC90E02D
:1009400090934E0280934D0282EC90E0909350027F
:1009500080934F0286EC90E0909352028093510274
:1009600010925402109255021092560210925702A1
:10097000C3E3D0E0D0932903C093280384E390E03D
:1009800090932B0380932A0385E390E090932D03AB
:1009900080932C0381E090E090932F0380932E03AB
:1009A00061E083E30E941B0361E080912A030E94BF
:1009B0001B0361E080912C030E941B0361E0809186
:1009C0002C030E948F02D0932903C0932803E8EEE2
:1009D000F2E0119283E0E832F807D9F7D0E0C0E006
:1009E00080912E0390912F03C817D90774F540E02A
:1009F0006FE0CE010E944C0380912E0390912F0353
:100A0000C817D9072CF447E06BE0CE010E944C03D5
:100A100040E069E0CE010E944C0380912E0390914A
:100A20002F03C817D9071CF4CE010E94AA03809196
:100A30002E0390912F03C817D9072CF440E06CE0E7
:100A4000CE010E944C032196CBCFDF91CF91089528
:100A5000789484B5826084BD84B5816084BD85B599
:100A6000826085BD85B5816085BD80916E008160A5
:100A700080936E001092810080918100826080934B
:100A8000810080918100816080938100809180004D
:100A90008160809380008091B10084608093B10078
:100AA0008091B00081608093B0008091910082605D
:100AB000809391008091910081608093910080915A
:100AC00090008160809390008091A100826080936B
:100AD000A1008091A10081608093A1008091A0007D
:100AE00081608093A0008091210182608093210128
:100AF000809121018160809321018091200181609A
:100B00008093200180917A00846080937A008091A4
:100B10007A00826080937A0080917A00816080936D
:100B20007A0080917A00806880937A001092C100E8
:100B3000E0914B02F0914C0282E08083E091470209
:100B4000F09148021082E0914902F0914A028FEC44
:100B5000808310925302E0914F02F091500286E0A0
:100B60008083E0914D02F0914E028081806180830C
:100B7000E0914D02F0914E02808188608083E09187
:100B80004D02F0914E02808180688083E0914D0299
:100B9000F0914E0280818F7D808380912E03909111
:100BA0002F031816190634F441E06CE090E080E061
:100BB0000E944C0380912E0390912F031816190662
:100BC00034F44FE06AE090E080E00E944C038091B2
:100BD0002E0390912F031816190624F490E080E05C
:100BE0000E94AA03C0E1D2E080E0E82E82E0F82E65
:100BF00067018E01F80180810E5F1F4F61E00E9446
:100C00001B03F6018081F2E0CF0ED11C61E00E944F
:100C10001B0382E00032180769F78881229661E0A1
:100C20000E948F02F7018081F2E0EF0EF11C60E07C
:100C30000E948F0282E0C032D80779F760E08FE22D
:100C40000E941B030E945E02FDCFEE0FFF1F881F54
:0E0C50008BBF0790F691E02D1994F894FFCF1A
:100C5E00200021002200230024002500260027006A
:100C6E0016001700180019001A001B001C001D00AA
:100C7E0000000000F1015B0188013E02B9019701FD
:020C8E00AB01B8
:00000001FF
