:100000000C9428010C9459010C9459010C94590139
:100010000C9459010C9459010C9459010C945901F8
:100020000C9459010C9459010C9459010C945901E8
:100030000C9459010C9459010C9459010C945901D8
:100040000C9459010C9459010C9459010C945901C8
:100050000C9459010C9459010C9459010C945F05AE
:100060000C9459010C9429050C94FF040C9459012B
:100070000C9459010C9459010C9459010C94590198
:100080000C9459010C9459010C9459010C94590188
:100090000C9459010C9459010C9459010C94590178
:1000A0000C9459010C9459010C9459010C94590168
:1000B0000C9459010C9459010C9459010C94590158
:1000C0000C9459010C9459010C9459010C94590148
:1000D0000C9459010C9459010C9459010C94590138
:1000E0000C9459010C94E5020C94DA020C94A905C5
:1000F0000C9415030C94B9010C94F5020C94BF02F6
:100100000C94D6020C9411030C94DE020C945B0147
:100110000C94EB020C94F1010C9488010C94FD02F8
:100120000C9407030C9497010C940B030C94C402D9
:100130000C94AB010C94E2020C94EF020C94F902C3
:100140000C9403030C943E020000210024002700BD
:100150002A002D00300033000101000004010701D6
:100160000A0100002200250028002B002E0031008B
:10017000340002010000050108010B010505050519
:10018000070508080808020202020A0A080804040F
:10019000040401010101010101010303030303033D
:1001A0000303040707070C0C0C0C0C0C0C0C0202CC
:1001B000020206060606060606060B0B0B0B0B0BC9
:1001C0000B0B010210202008081020401020408056
:1001D000020102010804020101020408102040800B
:1001E0008040201008040201800402018040201099
:1001F00008040201080402010102040810204080E2
:10020000010204081020408000000A0B02090C0DB6
:100210000E080703040100000000000000000000B9
:1002200000000000000000000000000000000000CE
:10023000000000001211100000000000000000008B
:100240000000000000000000000000000000A90500
:1002500011241FBECFEFD1E2DEBFCDBF00E00CBF47
:1002600012E1A0E0B2E0E0E8F5E100E00BBF02C07F
:1002700007900D92A233B107D9F723E1A2E3B2E1CF
:1002800001C01D92A23BB207E1F711E0C8E2D1E044
:1002900000E006C021970109802FFE010E94B60AE6
:1002A000C732D10780E00807A9F70E945D060C94C9
:1002B000BE0A0C940000AF92BF92CF92DF92EF92F1
:1002C000FF920F931F93CF93DF936C017B018B0100
:1002D000040F151FEB015E01AE18BF08C017D10750
:1002E00059F06991D601ED91FC910190F081E02DDA
:1002F000C6011995892B79F7C501DF91CF911F911F
:100300000F91FF90EF90DF90CF90BF90AF90089546
:10031000FC01538D448D252F30E0842F90E0821B0B
:10032000930B541710F0CF96089501970895FC0190
:10033000918D828D981761F0A28DAE0FBF2FB11DE8
:100340005D968C91928D9F5F9F73928F90E0089540
:100350008FEF9FEF0895FC01918D828D981731F0FA
:10036000828DE80FF11D858D90E008958FEF9FEF4E
:100370000895FC01918D228D892F90E0805C9F4F24
:10038000821B91098F73992708958DEB92E10E944A
:10039000B90121E0892B09F420E0822F0895FC01A6
:1003A000A48DA80FB92FB11DA35ABF4F2C91848DD6
:1003B00090E001968F739927848FA689B7892C9333
:1003C000A089B1898C91837080648C93938D848D86
:1003D000981306C00288F389E02D80818F7D808389
:1003E0000895EF92FF920F931F93CF93DF93EC0149
:1003F00081E0888F9B8D8C8D98131AC0E889F989CC
:10040000808185FF15C09FB7F894EE89FF896083CE
:10041000E889F98980818370806480839FBF81E04F
:1004200090E0DF91CF911F910F91FF90EF90089591
:10043000F62E0B8D10E00F5F1F4F0F731127E02E6C
:100440008C8D8E110CC00FB607FCFACFE889F989A4
:10045000808185FFF5CFCE010E94CF01F1CFEB8DDA
:10046000EC0FFD2FF11DE35AFF4FF0829FB7F89478
:100470000B8FEA89FB8980818062CFCFCF93DF9396
:10048000EC01888D8823B9F0AA89BB89E889F989AC
:100490008C9185FD03C0808186FD0DC00FB607FCE1
:1004A000F7CF8C9185FFF2CF808185FFEDCFCE0114
:1004B0000E94CF01E9CFDF91CF91089580E090E0D5
:1004C000892B29F00E94C50181110E94000080E063
:1004D00090E0892B49F080E090E0892B29F00E9480
:1004E000000081110E94000080E090E0892B49F01B
:1004F00080E090E0892B29F00E94000081110E9489
:10050000000080E090E0892B49F080E090E0892BAA
:1005100029F00E94000081110C9400000895282FFA
:1005200030E0F901E85FFD4F9491F901EE53FE4F81
:10053000449124583E4FF9012491222309F435C0F7
:10054000992311F191509231F8F4E92FF0E08827C6
:10055000E355FD4F8F4F0C94B60ADE02E202BF0254
:10056000D602DA02C402E502EB02EF02F502F9025A
:10057000FD0203030703C4020B031103150380915B
:1005800080008F7780938000E22FF0E0EE0FFF1F56
:10059000EE59FE4FA591B4918FB7F894EC9161118B
:1005A00048C040954E234C938FBF089580918000A2
:1005B0008F7DE8CF80918000877FE4CF84B58F77EF
:1005C00084BDE2CF84B58F7DFBCF8091B0008F7763
:1005D0008093B000D9CF8091B0008F7DF9CF80910A
:1005E00090008F7780939000CFCF809190008F7D87
:1005F000F9CF80919000877FF5CF8091A0008F7711
:100600008093A000C1CF8091A0008F7DF9CF809111
:10061000A000877FF5CF809120018F778093200104
:10062000B3CF809120018F7DF9CF80912001877F0A
:10063000F5CF4E2BB8CFCF93DF9390E0FC01EE5374
:10064000FE4F249184589E4FFC0184918823D1F061
:1006500090E0880F991FFC01E85BFE4FA591B491D3
:10066000FC01EE59FE4FC591D49161110EC09FB7A8
:10067000F8948C91E22FE0958E238C932881E223CD
:10068000E8839FBFDF91CF9108958FB7F894EC91E5
:10069000E22BEC938FBFF6CF3FB7F89480913712DF
:1006A00090913812A0913912B0913A1226B5A89BB8
:1006B00005C02F3F19F00196A11DB11D3FBFBA2FF4
:1006C000A92F982F8827BC01CD01620F711D811DB4
:1006D000911D42E0660F771F881F991F4A95D1F739
:1006E00008958F929F92AF92BF92CF92DF92EF9236
:1006F000FF926B017C010E944C034B015C01C11411
:10070000D104E104F104B9F00E944C03681979099D
:100710008A099B09683E73408105910580F321E0B9
:10072000C21AD108E108F10888EE880E83E0981E0D
:10073000A11CB11CE4CFFF90EF90DF90CF90BF9051
:10074000AF909F908F9008955F926F927F928F925B
:100750009F92AF92BF92CF92DF92EF92FF920F9350
:100760001F93CF93DF93782E692E3EE1C32ED12CB9
:1007700040E2A42E42E1B42E00E012E1C72DD62DB6
:10078000F80150800E5F1F4F61E0852D0E948F029F
:100790004E0128E0E22EF12CF401819191914F015C
:1007A000019749F4F701EE0FFF1FE25FFD4E60E095
:1007B00080810E948F02F1E0EF1AF10869F762E090
:1007C00070E080E090E00E94710360E0852D0E945F
:1007D0008F0280E1E82E82E1F82EF7018081F2E0BD
:1007E000EF0EF11C61E00E948F02AE14BF04A9F766
:1007F000609682E10031180719F691E0C91AD10814
:1008000009F0BACFDF91CF911F910F91FF90EF9038
:10081000DF90CF90BF90AF909F908F907F906F9020
:100820005F9008950F931F93CF93DF93C0E1D2E1C0
:1008300000E012E18881229661E00E948F02F801B7
:1008400080810E5F1F4F60E00E948F02F2E1C03294
:10085000DF0781F7DF91CF911F910F910895CF921C
:10086000DF92EF92FF920F931F93CF93DF931F922C
:100870001F92CDB7DEB769834A83880F991F009115
:10088000B0131091B113000F111FEAE5F3E19F01BE
:100890002A5533412017310714F41192F8CF2981DA
:1008A000FC01E65AFC4E21838A81808360E08091BE
:1008B000AE130E948F021016110604F501501109A3
:1008C000F801E65AFC4EE080D090AC13C090AA1319
:1008D00088E0F82E6E2D661F6627661F8C2D0E94FD
:1008E0008F02EE0C61E08D2D0E948F0260E08D2D55
:1008F0000E948F02FA94F110EDCFDDCF61E080917C
:10090000AE130F900F90DF91CF911F910F91FF9039
:10091000EF90DF90CF900C948F02EF92FF920F93A5
:100920001F93CF937C018C0183E0000F111F8A95E8
:10093000E1F706591C4EC1E0F80111928F0140E029
:100940006C2FC7010E942F04CF5FC930A9F7CF9148
:100950001F910F91FF90EF900895AF92BF92CF92A9
:10096000DF92EF92FF920F931F93CF93DF936C016F
:1009700007E010E020E8E22EF12CC701002E02C0B3
:10098000959587950A94E2F7A82EB82EB094D0E0FA
:10099000C0E08091B0139091B11318161906B4F409
:1009A000FE01E65AFC4E8089DE01AA0FBB1FAC0D8A
:1009B000BD1D2D913C91232B01F18A29808B40890B
:1009C0006C2F6F5F90E080E00E942F042196C8306A
:1009D000D105F9F60150110980E1C80ED11C0F3F75
:1009E000100759F6DF91CF911F910F91FF90EF9073
:1009F000DF90CF90BF90AF9008958B21DFCF1F92F3
:100A00000F920FB60F9211240BB60F922F933F93B4
:100A10004F935F936F937F938F939F93AF93BF9306
:100A2000EF93FF938DEB92E10E94CF01FF91EF9145
:100A3000BF91AF919F918F917F916F915F914F91F6
:100A40003F912F910F900BBE0F900FBE0F901F90F4
:100A500018951F920F920FB60F9211240BB60F929A
:100A60002F938F939F93EF93FF93E091CD12F0918B
:100A7000CE128081E091D312F091D41282FD1DC07C
:100A800090818091D6128F5F8F732091D712821739
:100A900041F0E091D612F0E0E354FD4E958F809343
:100AA000D612FF91EF919F918F912F910F900BBED6
:100AB0000F900FBE0F901F9018958081F2CF1F925C
:100AC0000F920FB60F9211242F933F938F939F9302
:100AD000AF93BF938091331290913412A09135124D
:100AE000B09136123091321223E0230F2D3758F592
:100AF0000196A11DB11D2093321280933312909361
:100B00003412A0933512B09336128091371290911F
:100B10003812A0913912B0913A120196A11DB11D5F
:100B20008093371290933812A0933912B0933A12EF
:100B3000BF91AF919F918F913F912F910F900FBED9
:100B40000F901F90189526E8230F0296A11DB11D46
:100B5000D2CFCF93DF931092C0121092BF1288EEC3
:100B600093E0A0E0B0E08093C1129093C212A093F2
:100B7000C312B093C41284E292E19093BE128093A8
:100B8000BD1285EC90E09093CA128093C91284EC58
:100B900090E09093CC128093CB1280EC90E09093F5
:100BA000CE128093CD1281EC90E09093D01280937E
:100BB000CF1282EC90E09093D2128093D11286EC07
:100BC00090E09093D4128093D3121092D612109288
:100BD000D7121092D8121092D912C3E3D0E0D0935A
:100BE000AB13C093AA1384E390E09093AD1380936A
:100BF000AC1385E390E09093AF138093AE1381E044
:100C000090E09093B1138093B01361E083E30E946E
:100C10001B0361E08091AC130E941B0361E0809193
:100C2000AE130E941B0361E08091AE130E948F02FD
:100C3000D093AB13C093AA13EAE6F3E1119283E1D8
:100C4000EA3AF807D9F7D0E0C0E08091B01390916C
:100C5000B113C817D90774F540E06FE0CE010E94C8
:100C60002F048091B0139091B113C817D9072CF4B9
:100C700047E06BE0CE010E942F0440E069E0CE0126
:100C80000E942F048091B0139091B113C817D90717
:100C90001CF4CE010E948D048091B0139091B11389
:100CA000C817D9072CF440E06CE0CE010E942F0455
:100CB0002196CBCFDF91CF910895789484B582604F
:100CC00084BD84B5816084BD85B5826085BD85B5F0
:100CD000816085BD80916E00816080936E0010926E
:100CE00081008091810082608093810080918100E9
:100CF000816080938100809180008160809380007A
:100D00008091B10084608093B1008091B0008160D7
:100D10008093B000809191008260809391008091D7
:100D20009100816080939100809190008160809318
:100D300090008091A10082608093A1008091A10029
:100D400081608093A1008091A00081608093A000C9
:100D50008091210182608093210180912101816035
:100D600080932101809120018160809320018091F6
:100D70007A00846080937A0080917A008260809308
:100D80007A0080917A00816080937A0080917A0065
:100D9000806880937A001092C100E091CD12F091AA
:100DA000CE1282E08083E091C912F091CA121082C3
:100DB000E091CB12F091CC128FEC80831092D5127F
:100DC000E091D112F091D21286E08083E091CF12AF
:100DD000F091D012808180618083E091CF12F091F8
:100DE000D012808188608083E091CF12F091D01280
:100DF000808180688083E091CF12F091D012808151
:100E00008F7D80838091B0139091B11318161906CD
:100E100034F441E06CE090E080E00E942F04809187
:100E2000B0139091B1131816190634F44FE06AE02C
:100E300090E080E00E942F048091B0139091B11354
:100E40001816190624F490E080E00E948D0400E159
:100E500012E170E0E72E72E1F72EE0E2AE2EE2E161
:100E6000BE2E6701E8018881229661E00E941B0383
:100E7000F6018081F2E0CF0ED11C61E00E941B03DD
:100E8000AC16BD0681F7F80180810E5F1F4F61E04F
:100E90000E948F02F7018081F2E0EF0EF11C60E00A
:100EA0000E948F020C171D0771F760E08FE20E940D
:100EB0001B0380E2282E312C9FE1492E512C2EE17C
:100EC000622E712C3DE1832E912CCCE1D0E00BE120
:100ED00010E04AE1E42EF12C59E1C52ED12C68E155
:100EE000A62EB12C80917B00877F80937B0081E4CC
:100EF00080937C0080917A00806480937A00809156
:100F00007A0086FDFCCF9091780080917900892746
:100F100098278927892BD9F48091BB129091BC1214
:100F20000097C1F480E891E10E94AD048BE392E167
:100F30000E94A40360E070E0CB010E9471030E9454
:100F4000120481E090E09093BC128093BB120E9447
:100F50005E02C8CF8130910591F480E091E10E945A
:100F6000AD048BE392E10E94A40360E070E0CB014A
:100F70000E9471030E94120482E090E0E4CF82306C
:100F8000910591F480E890E10E94AD0480E891E140
:100F90000E94A40360E070E0CB010E9471030E94F4
:100FA000120483E090E0CFCF8330910591F480E08C
:100FB00090E10E94AD0480E091E10E94A40360E012
:100FC00070E0CB010E9471030E94120484E090E063
:100FD000BACF8430910591F480E89FE00E94AD047F
:100FE00080E890E10E94A40360E070E0CB010E94E1
:100FF00071030E94120485E090E0A5CF8530910531
:1010000091F480E09FE00E94AD0480E090E10E94B6
:10101000A40360E070E0CB010E9471030E941204FF
:1010200086E090E090CF8630910591F480E89EE0D4
:101030000E94AD0480E89FE00E94A40360E070E09D
:10104000CB010E9471030E94120487E090E07BCFE5
:101050008730910591F480E09EE00E94AD0480E02D
:101060009FE00E94A40360E070E0CB010E94710346
:101070000E94120488E090E066CF8830910591F4D8
:1010800080E89DE00E94AD0480E89EE00E94A403F9
:1010900060E070E0CB010E9471030E94120489E0BD
:1010A00090E051CF8930910591F480E09DE00E945D
:1010B000AD0480E09EE00E94A40360E070E0CB01FC
:1010C0000E9471030E9412048AE090E03CCF8A30B3
:1010D000910591F480E89CE00E94AD0480E89DE0D9
:1010E0000E94A40360E070E0CB010E9471030E94A3
:1010F00012048BE090E027CF8B30910591F480E0D3
:101100009CE00E94AD0480E09DE00E94A40360E0AA
:1011100070E0CB010E9471030E9412048CE090E009
:1011200012CF8C30910591F480E89BE00E94AD04D1
:1011300080E89CE00E94A40360E070E0CB010E9484
:1011400071030E9412048DE090E0FDCE8D30910578
:1011500091F480E09EE00E94AD0480E09CE00E945B
:10116000A40360E070E0CB010E9471030E941204AE
:101170008EE090E0E8CE8E30910591F480E09BE027
:101180000E94AD0480E89BE00E94A40360E070E050
:10119000CB010E9471030E9412048FE090E0D3CE35
:1011A0008F30910591F480E09FE00E94AD0480E0D3
:1011B0009EE00E94A40360E070E0CB010E947103F6
:1011C0000E94120480E190E0BECE8031910591F43E
:1011D00080E89AE00E94AD0480E09BE00E94A403B6
:1011E00060E070E0CB010E9471030E94120481E173
:1011F00090E0A9CE8131910591F480E09AE00E94BF
:10120000AD0480E09FE00E94A40360E070E0CB01A9
:101210000E9471030E94120482E190E094CE823118
:10122000910591F480E899E00E94AD0480E89AE08D
:101230000E94A40360E070E0CB010E9471030E9451
:10124000120483E190E07FCE8331910591F480E038
:1012500099E00E94AD0480E09AE00E94A40360E05F
:1012600070E0CB010E9471030E94120484E190E0BF
:101270006ACE8431910591F480E898E00E94AD0433
:1012800080E099E00E94A40360E070E0CB010E943E
:1012900071030E94120485E190E055CE85319105DD
:1012A00091F480E098E00E94AD0480E897E00E940D
:1012B000A40360E070E0CB010E9471030E9412045D
:1012C00086E190E040CE8631910591F480E097E090
:1012D0000E94AD0480E898E00E94A40360E070E002
:1012E000CB010E9471030E94120487E190E02BCE93
:1012F00087319105A1F480E896E00E94AD0480E07A
:1013000098E00E94A40360E070E0CB010E947103AA
:101310000E941204B092BC12A092BB1218CE883167
:101320009105A1F480E09AE00E94AD0480E898E085
:101330000E94A40360E070E0CB010E9471030E9450
:101340001204D092BC12C092BB1201CE8931910519
:10135000A1F480E096E00E94AD0480E896E00E944F
:10136000A40360E070E0CB010E9471030E941204AC
:10137000F092BC12E092BB12EACD8A319105A1F441
:1013800080E895E00E94AD0480E09AE00E94A4030A
:1013900060E070E0CB010E9471030E941204109380
:1013A000BC120093BB12D3CD8B319105A1F480E028
:1013B00095E00E94AD0480E096E00E94A40360E006
:1013C00070E0CB010E9471030E941204D093BC1202
:1013D000C093BB12BCCD8C319105A1F480E09AE0A2
:1013E0000E94AD0480E895E00E94A40360E070E0F4
:1013F000CB010E9471030E9412049092BC12809251
:10140000BB12A5CD8D319105A1F480E894E00E9436
:10141000AD0480E095E00E94A40360E070E0CB01A1
:101420000E9471030E9412047092BC126092BB125F
:101430008ECD8E319105A1F480E097E00E94AD043D
:1014400080E09AE00E94A40360E070E0CB010E947B
:1014500071030E9412045092BC124092BB1277CDCD
:101460008F319105A1F480E094E00E94AD0480E802
:1014700094E00E94A40360E070E0CB010E9471033D
:101480000E9412043092BC122092BB1260CD8032B6
:10149000910591F480E893E00E94AD0480E097E02C
:1014A0000E94A40360E070E0CB010E9471030E94DF
:1014B000120481E290E047CD81329105B1F480E0E1
:1014C00093E00E94AD0480E094E00E94A40360E0F9
:1014D00070E0CB010E9471030E941204E2E2F0E08E
:1014E000F093BC12E093BB1232CD8232910591F49D
:1014F00080E892E00E94AD0480E893E00E94A4039B
:1015000060E070E0CB010E9471030E94120483E24C
:1015100090E019CD8332910591F480E092E00E9431
:10152000AD0480E093E00E94A40360E070E0CB0192
:101530000E9471030E941204E4E2F0E0D1CF84978C
:1015400009F005CD80E898E00E94AD0480E892E0C3
:101550000E94A40360E070E0CB010E9471030E942E
:1015600012041092BC121092BB12F1CCEE0FFF1FAE
:10157000881F8BBF0790F691E02D1994F894FFCF48
:10158000000000000000000000000100000000005A
:10159000000000000000000000000100000000004A
:1015A0000000000001000100010000000000000038
:1015B000000000000000000000000000000000002B
:1015C000000000000000000000000000000000001B
:1015D0000000010001000100010000000000000007
:1015E00000000000000000000000010000000000FA
:1015F00000000000010001000100000000000000E8
:1016000000000000000000000000000000000000DA
:1016100000000000010001000100000000000000C7
:1016200000000100000000000000010000000000B8
:1016300000000000010001000100010000000000A6
:101640000000000000000000000001000000000099
:101650000000000000000000000001000000000089
:101660000000000001000100010000000000000077
:10167000000000000000000000000000000000006A
:101680000000000000000000000000000100000059
:101690000000000000000000000000000100000049
:1016A0000000000001000100010001000100000035
:1016B000000000000000000000000000000000002A
:1016C000000000000000000000000000000000001A
:1016D0000000000000000100010001000000000007
:1016E00000000000010000000000000001000000F8
:1016F00000000000000001000100010001000000E6
:1017000000000000000000000000000000000000D9
:1017100000000000010001000100010000000000C5
:1017200000000000000000000000000001000000B8
:1017300000000000000000000100010000000000A7
:101740000000000000000000000000000100000098
:101750000000000000000000000000000100000088
:101760000000000001000100010001000100000074
:101770000000000000000000000000000000000069
:101780000000010000000100000001000000000056
:101790000000010001000000000001000000000046
:1017A0000000000001000100010000000000000036
:1017B0000000000000000000000000000000000029
:1017C0000000000000000000000000000000000019
:1017D0000000000001000100010001000000000005
:1017E00000000000000000000000000001000000F8
:1017F00000000000000000000100010000000000E7
:1018000000000000000001000000000000000000D7
:1018100000000000000001000000000000000000C7
:1018200000000000010001000100000000000000B5
:1018300000000000000000000000000000000000A8
:101840000000000000000000000000000000000098
:101850000000000001000100010000000000000085
:101860000000010000000000010001000000000075
:101870000000010000000100000001000000000065
:101880000000000000000000010000000000000057
:101890000000000000000100000000000000000047
:1018A0000000000001000000000000000000000037
:1018B0000000000000000000000000000000000028
:1018C0000000000000000000000000000000000018
:1018D0000000000001000100000000000000000006
:1018E00000000000000001000000000000000000F7
:1018F00000000000000001000000000000000000E7
:1019000000000000000000000000000000000000D7
:1019100000000000010001000100010001000000C2
:1019200000000000000000000000000001000000B6
:1019300000000000000000000000010000000000A6
:101940000000000000000000010000000000000096
:101950000000000000000100000000000000000086
:101960000000000001000000000000000000000076
:101970000000000000000000000000000000000067
:101980000000000000000100000000000000000056
:101990000000000000000100000000000000000046
:1019A0000000000001000100010000000000000034
:1019B0000000000000000000000000000000000027
:1019C0000000000000000000000000000000000017
:1019D0000000000001000100010001000100000002
:1019E00000000000000000000000000001000000F6
:1019F00000000000000000000000010000000000E6
:101A000000000100000001000000010000000000D3
:101A100000000100010000000000010000000000C3
:101A200000000000010001000100000000000000B3
:101A300000000000000000000000000000000000A6
:101A40000000000000000000000000000000000096
:101A50000000000001000100000000000000000084
:101A60000000000000000100000000000000000075
:101A70000000000000000100000000000000000065
:101A80000000000000000000000000000000000056
:101A90000000000000000000000000000000000046
:101AA0000000000001000100010000000000000033
:101AB0000000010000000000010001000000000023
:101AC0000000010000000100000001000000000013
:101AD0000000010001000000000001000000000003
:101AE00000000000010001000100000000000000F3
:101AF00000000000000000000000000000000000E6
:101B000000000000000000000000000000000000D5
:101B100000000000000000000000000000000000C5
:101B200000000000000000000000000000000000B5
:101B300000000000000000000000000000000000A5
:101B40000000000000000000000000000000000095
:101B50000000000000000000000000000000000085
:101B60000000010001000100010000000000000071
:101B70000000000000000000000001000000000064
:101B80000000000001000100010000000000000052
:101B90000000010000000000000000000000000044
:101BA0000000010001000100010001000000000030
:101BB0000000000000000000000000000000000025
:101BC0000000000000000000000000000000000015
:101BD0000000000001000100010000000000000002
:101BE00000000100000000000100010000000000F2
:101BF00000000100000001000000010000000000E2
:101C000000000000000000000000000000000000D4
:101C100000000000000000000000000000000000C4
:101C200000000100010001000100000000000000B0
:101C300000000000000000000000010000000000A3
:101C40000000000001000100010000000000000091
:101C50000000010000000000000000000000000083
:101C6000000001000100010001000100000000006F
:101C70000000000000000000000000000000000064
:101C80000000000000000000000000000000000054
:101C90000000000000000000000000000000000044
:101CA0000000000000000000000000000000000034
:101CB0000000000001000100010001000000000020
:101CC0000000000000000000000000000000000014
:101CD0000000000000000000000000000000000004
:101CE00000000000000000000000000000000000F4
:101CF00000000000000000000000000000000000E4
:101D000000000000000001000000000000000000D2
:101D100000000000000001000000000000000000C2
:101D200000000000010001000100000000000000B0
:101D300000000000000000000000000000000000A3
:101D40000000000000000000000000000000000093
:101D50000000000000000000000000000000000083
:101D6000000000000100010001000100000000006F
:101D70000000000000000000000000000000000063
:101D80000000000000000000000000000000000053
:101D90000000000001000100000000000000000041
:101DA0000000000000000100000000000000000032
:101DB0000000000000000100000000000000000022
:101DC0000000000000000100000000000000000012
:101DD0000000000000000100000000000000000002
:101DE00000000000010001000100000000000000F0
:101DF00000000000000000000000000000000000E3
:101E000000000100010001000100000000000000CE
:101E100000000100000000000100000000000000C0
:101E200000000100000000000100000000000000B0
:101E300000000000000000000000000000000000A2
:101E40000000000000000000000000000000000092
:101E50000000000001000100000000000000000080
:101E60000000000000000100000000000000000071
:101E70000000000000000100000000000000000061
:101E80000000010000000000000000000000000051
:101E90000000010000000000000000000000000041
:101EA000000000000100010001000000000000002F
:101EB0000000000000000000000000000000000022
:101EC0000000000000000000000000000000000012
:101ED0000000000001000100000000000000000000
:101EE00000000100000000000100000000000000F0
:101EF00000000100000000000100000000000000E0
:101F000000000000000001000000000000000000D0
:101F100000000000000001000000000000000000C0
:101F200000000100010001000100010000000000AC
:101F300000000000000000000000000000000000A1
:101F40000000000000000000000000000000000091
:101F5000000000000100010001000000000000007E
:101F60000000010000000000000000000000000070
:101F70000000010000000000000000000000000060
:101F80000000000000000000000000000000000051
:101F9000000001000100010001000100000000003C
:101FA0000000000000000100000000000000000030
:101FB0000000000000000100000000000000000020
:101FC0000000000000000100000000000000000010
:101FD0000000000000000100000000000000000000
:101FE00000000100010001000100010000000000EC
:101FF00000000000000000000000000000000000E1
:1020000000000000000001000000000000000000CF
:1020100000000000000001000000000000000000BF
:1020200000000000000001000000000000000000AF
:1020300000000000000000000000000000000000A0
:102040000000000000000000000000000000000090
:10205000000001000100010001000100000000007B
:10206000000000000000010000000000000000006F
:10207000000000000000010000000000000000005F
:102080000000000000000000000000000000000050
:10209000000001000100010001000100000000003B
:1020A000000000000000010000000000000000002F
:1020B000000000000000010000000000000000001F
:1020C000000000000000010000000000000000000F
:1020D00000000000000001000000000000000000FF
:1020E00000000000000001000000000000000000EF
:1020F00000000000000000000000000000000000E0
:1021000000000100000000000000000000000000CE
:1021100000000100000000000000000000000000BE
:1021200000000000010001000100000000000000AC
:10213000000000000000000000000000000000009F
:10214000000000000000000000000000000000008F
:10215000000001000100010001000100000000007A
:10216000000000000000010000000000000000006E
:10217000000000000000010000000000000000005E
:10218000000000000000000000000000000000004F
:10219000000000000100010001000000000000003C
:1021A000000001000000000000000000000000002E
:1021B000000001000000000000000000000000001E
:1021C000000001000000000000000000000000000E
:1021D00000000100000000000000000000000000FE
:1021E00000000000010001000100000000000000EC
:1021F00000000000000000000000000000000000DF
:1022000000000100010001000100000000000000CA
:1022100000000100000000000100000000000000BC
:1022200000000100000000000100000000000000AC
:10223000000000000000000000000000000000009E
:10224000000000000000000000000000000000008E
:10225000000000000100010001000000000000007B
:10226000000001000000000000000000000000006D
:10227000000001000000000000000000000000005D
:10228000000000000000000000000000000000004E
:10229000000000000100010000000000000000003C
:1022A000000001000000000001000000000000002C
:1022B000000001000000000001000000000000001C
:1022C000000001000100010001000000000000000A
:1022D00000000100000000000100000000000000FC
:1022E00000000100000000000100000000000000EC
:1022F00000000000000000000000000000000000DE
:1023000000000100010001000100000000000000C9
:1023100000000100000001000000000000000000BB
:1023200000000100000000000100000000000000AB
:10233000000000000000000000000000000000009D
:10234000000000000000000000000000000000008D
:10235000000000000100010000000000000000007B
:10236000000001000000000001000000000000006B
:10237000000001000000000001000000000000005B
:10238000000000000000000000000000000000004D
:102390000000010001000100010000000000000039
:1023A000000001000000000000000100000000002B
:1023B000000001000000000000000100000000001B
:1023C0000000010001000100010000000000000009
:1023D00000000100000001000000000000000000FB
:1023E00000000100000000000100000000000000EB
:1023F00000000000000000000000000000000000DD
:1024000000000100010000000000000000000000CA
:1024100000000100010000000000000000000000BA
:1024200000000100010000000000000000000000AA
:10243000000000000000000000000000000000009C
:10244000000000000000000000000000000000008C
:102450000000010001000100010000000000000078
:10246000000001000000000000000100000000006A
:10247000000001000000000000000100000000005A
:10248000000000000000000000000000000000004C
:102490000000010001000100010000000000000038
:1024A0000000010001000000000001000000000029
:1024B0000000010001000100010000000000000018
:1024C000000001000100000000000000000000000A
:1024D00000000100010000000000000000000000FA
:1024E00000000100010000000000000000000000EA
:1024F00000000000000000000000000000000000DC
:1025000000000000000000000000000000000000CB
:1025100000000000000000000000000000000000BB
:1025200000000000000000000000000000000000AB
:10253000000000000000000000000000000000009B
:10254000000000000000000000000000000000008B
:102550000000010001000100010000000000000077
:102560000000010001000000000001000000000068
:102570000000010001000100010000000000000057
:10258000200021002200230024002500260027002F
:1025900016001700180019001A001B001C001D006F
:1025A00000000000F1015B0188013E02B9019701C2
:0225B000AB017D
:00000001FF
