:100000000C9435010C9466010C9466010C94660105
:100010000C9466010C9466010C9466010C946601C4
:100020000C9466010C9466010C9466010C946601B4
:100030000C9466010C9466010C9466010C946601A4
:100040000C9466010C9466010C9466010C94660194
:100050000C9466010C9466010C9466010C94510694
:100060000C9466010C941B060C94F1050C9466012B
:100070000C9466010C9466010C9466010C94660164
:100080000C9466010C9466010C9466010C94660154
:100090000C9466010C9466010C9466010C94660144
:1000A0000C9466010C9466010C9466010C94660134
:1000B0000C9466010C9466010C9466010C94660124
:1000C0000C9466010C9466010C9466010C94660114
:1000D0000C9466010C9466010C9466010C94660104
:1000E0000C9466010C94C4020C9468010C94ED020B
:1000F0000C94C0020C94FF020C94CF020C94BA0230
:100100000C94CC020C94E3020C949B060C944B02CE
:100110000C94A4010C9495010C94C6010C94FB0260
:100120000C94D9020C94E7020C94F1020C94B801DF
:100130000C94FE010C94C8020C94DF020C94FA0299
:100140000C94F5020C94D502000021002400270035
:100150002A002D00300033000101000004010701D6
:100160000A0100002200250028002B002E0031008B
:10017000340002010000050108010B01000020000D
:100180002300260029002C002F003200000100006F
:10019000030106010901050505050705080808080A
:1001A000020202020A0A080804040404010101010F
:1001B000010101010303030303030303040707070A
:1001C0000C0C0C0C0C0C0C0C0202020206060606AF
:1001D000060606060B0B0B0B0B0B0B0B010210207C
:1001E000200808102040102040800201020108046D
:1001F0000201010204081020408080402010080401
:100200000201800402018040201008040201080459
:10021000020101020408102040800102040810209D
:10022000408000000A0B02090C0D0E0807030401B0
:1002300000000000000000000000000000000000BE
:10024000000000000000000000000000000012118B
:10025000100000000000000000000000000000008E
:1002600000000000000000009B0611241FBECFEF1D
:10027000D1E2DEBFCDBF00E00CBF12E1A0E0B2E0F2
:10028000E0EAF3E200E00BBF02C007900D92A83B4A
:10029000B107D9F726E1A8EBB2E101C01D92AD3C50
:1002A000B207E1F711E0C5E3D1E000E006C0219715
:1002B0000109802FFE010E94C611C433D10780E0DE
:1002C0000807A9F70E9466070C94CE110C94000051
:1002D000AF92BF92CF92DF92EF92FF920F931F9354
:1002E000CF93DF936C017B018B01040F151FEB0192
:1002F0005E01AE18BF08C017D10759F06991D60149
:10030000ED91FC910190F081E02DC6011995892BAA
:1003100079F7C501DF91CF911F910F91FF90EF9079
:10032000DF90CF90BF90AF900895FC01538D448D26
:10033000252F30E0842F90E0821B930B541710F090
:10034000CF96089501970895FC01918D828D98179D
:1003500061F0A28DAE0FBF2FB11D5D968C91928D75
:100360009F5F9F73928F90E008958FEF9FEF0895A6
:10037000FC01918D828D981731F0828DE80FF11D6F
:10038000858D90E008958FEF9FEF0895FC01918D8A
:10039000228D892F90E0805C9F4F821B91098F7383
:1003A0009927089582EB93E10E94C60121E0892BF1
:1003B00009F420E0822F0895FC01A48DA80FB92F25
:1003C000B11DA35ABF4F2C91848D90E001968F737D
:1003D0009927848FA689B7892C93A089B1898C919C
:1003E000837080648C93938D848D981306C00288EB
:1003F000F389E02D80818F7D80830895EF92FF92B5
:100400000F931F93CF93DF93EC0181E0888F9B8D37
:100410008C8D98131AC0E889F989808185FF15C0F1
:100420009FB7F894EE89FF896083E889F989808114
:100430008370806480839FBF81E090E0DF91CF91E3
:100440001F910F91FF90EF900895F62E0B8D10E005
:100450000F5F1F4F0F731127E02E8C8D8E110CC074
:100460000FB607FCFACFE889F989808185FFF5CFBF
:10047000CE010E94DC01F1CFEB8DEC0FFD2FF11DC1
:10048000E35AFF4FF0829FB7F8940B8FEA89FB89FC
:1004900080818062CFCFCF93DF93EC01888D88235A
:1004A000B9F0AA89BB89E889F9898C9185FD03C0D7
:1004B000808186FD0DC00FB607FCF7CF8C9185FFBC
:1004C000F2CF808185FFEDCFCE010E94DC01E9CF24
:1004D000DF91CF91089580E090E0892B29F00E9470
:1004E000D20181110E94000080E090E0892B49F048
:1004F00080E090E0892B29F00E94000081110E9489
:10050000000080E090E0892B49F080E090E0892BAA
:1005100029F00E94000081110E94000080E090E01C
:10052000892B49F080E090E0892B29F00E9400009F
:1005300081110C94000008958150823108F05AC056
:10054000E82FF0E08827E855FD4F8F4F0C94C61137
:10055000C802CC02BA02C002C402FA02CF02D5021B
:10056000D902DF02E302E702ED02F102FA02F5022C
:10057000FB02FF02809180008F77809380000895B6
:10058000809180008F7DF9CF80918000877FF5CFAB
:1005900084B58F7784BD089584B58F7DFBCF80911E
:1005A000B0008F778093B00008958091B0008F7D68
:1005B000F9CF809190008F7780939000089580917B
:1005C00090008F7DF9CF80919000877FF5CF80914B
:1005D000A0008F778093A00008958091A0008F7D68
:1005E000F9CF8091A000877FF5CF809120018F7790
:1005F000809320010895809120018F7DF9CF809113
:100600002001877FF5CFCF93DF93282F30E0F901CA
:10061000EE5DFD4F8491F901E452FE4FD491F90152
:10062000EA56FE4FC491CC23A1F081110E949C0296
:10063000EC2FF0E0EE0FFF1FE458FE4FA591B491B0
:10064000EC91ED2381E090E009F480E0DF91CF911F
:10065000089580E090E0FACF1F93CF93DF93282F87
:1006600030E0F901EE5DFD4F8491F901E452FE4F57
:10067000D491F901EA56FE4FC491CC23A9F0162F6C
:1006800081110E949C02EC2FF0E0EE0FFF1FEE594B
:10069000FE4FA591B4918FB7F894EC91111108C059
:1006A000D095DE23DC938FBFDF91CF911F9108950A
:1006B000DE2BF8CFCF93DF9390E0FC01E452FE4FA6
:1006C00024918A569E4FFC0184918823D1F090E0BA
:1006D000880F991FFC01E85BFE4FA591B491FC01C6
:1006E000EE59FE4FC591D49161110EC09FB7F89499
:1006F0008C91E22FE0958E238C932881E223E8836E
:100700009FBFDF91CF9108958FB7F894EC91E22BC2
:10071000EC938FBFF6CF863308F0865320917B0091
:10072000982F9870277F922B90937B00877080641E
:1007300080937C0080917A00806480937A0080911D
:100740007A0086FDFCCF8091780090917900089521
:100750003FB7F8948091BD129091BE12A091BF1244
:10076000B091C01226B5A89B05C02F3F19F0019685
:10077000A11DB11D3FBFBA2FA92F982F8827BC01FB
:10078000CD01620F711D811D911D42E0660F771F23
:10079000881F991F4A95D1F708958F929F92AF9223
:1007A000BF92CF92DF92EF92FF926B017C010E9489
:1007B000A8034B015C01C114D104E104F104B9F0B8
:1007C0000E94A803681979098A099B09683E734049
:1007D0008105910580F321E0C21AD108E108F108F2
:1007E00088EE880E83E0981EA11CB11CE4CFFF9018
:1007F000EF90DF90CF90BF90AF909F908F90089533
:100800002FB7F8946091B9127091BA128091BB120F
:100810009091BC122FBF08955F926F927F928F923A
:100820009F92AF92BF92CF92DF92EF92FF920F937F
:100830001F93CF93DF93782E692E3EE1C32ED12CE8
:1008400045EAA42E42E1B42E05E812E1C72DD62DCB
:10085000F80150800E5F1F4F61E0852D0E942C0330
:100860004E0128E0E22EF12CF401819191914F018B
:10087000019749F4F701EE0FFF1FED56FD4E60E0C2
:1008800080810E942C03F1E0EF1AF10869F762E021
:1008900070E080E090E00E94CD0360E0852D0E9432
:1008A0002C0385E9E82E82E1F82EF7018081F2E041
:1008B000EF0EF11C61E00E942C03AE14BF04A9F7F7
:1008C000609682E10539180719F691E0C91AD10836
:1008D00009F0BACFDF91CF911F910F91FF90EF9068
:1008E000DF90CF90BF90AF909F908F907F906F9050
:1008F0005F9008950F931F93CF93DF93C5E9D2E1E3
:1009000005E812E18881229661E00E942C03F8013B
:1009100080810E5F1F4F60E00E942C03F2E1C53A18
:10092000DF0781F7DF91CF911F910F910895CF924B
:10093000DF92EF92FF920F931F93CF93DF931F925B
:100940001F92CDB7DEB769834A83880F991F009144
:10095000CB161091CC16000F111FE5E7F6E19F01B1
:10096000255736412017310714F41192F8CF298109
:10097000FC01EB58F94E21838A81808360E08091ED
:10098000C9160E942C031016110604F50150110916
:10099000F801EB58F94EE080D090C716C090C5160C
:1009A00088E0F82E6E2D661F6627661F8C2D0E942C
:1009B0002C03EE0C61E08D2D0E942C0360E08D2D48
:1009C0000E942C03FA94F110EDCFDDCF61E080910D
:1009D000C9160F900F90DF91CF911F910F91FF904B
:1009E000EF90DF90CF900C942C03EF92FF920F9337
:1009F0001F93CF937C018C0183E0000F111F8A9518
:100A0000E1F70B57194EC1E0F80111928F0140E058
:100A10006C2FC7010E949704CF5FC930A9F7CF910F
:100A20001F910F91FF90EF90089520E830E002C0F1
:100A3000359527956A95E2F7FC01EB58F94E5089F8
:100A4000442349F0252B208B61E0680F408990E01A
:100A500080E00C94970420952523F5CF8F929F92E8
:100A6000AF92BF92CF92DF92EF92FF920F931F93BC
:100A7000CF93DF938C01D0E0C0E027E0E22EF12C91
:100A800037E0A32EB12CC830D1050CF046C09C2E07
:100A900080E2980E61E0892D0E942C0397E0C92E18
:100AA000D12C86E18C0DF801208130E00C2C02C0A5
:100AB000359527950A94E2F760E020FF61E00E94F7
:100AC0002C03F1E0CF1AD10860F761E070E080E01C
:100AD00090E00E94CD0360E0892D0E942C0386E106
:100AE000D82E61E08D2D0E942C03D394EEE1DE120E
:100AF000F8CF21960F5F1F4FC031D10509F0C3CF4A
:100B0000DF91CF911F910F91FF90EF90DF90CF90E9
:100B1000BF90AF909F908F9008958091CB16909149
:100B2000CC16181619062CF5F8E0EF16F10408F5A6
:100B3000F801C080912C812CD12C8091CB16909102
:100B4000CC161816190674F4C50188199909A6015E
:100B500002C0559547958A95E2F74170B701C401E7
:100B60000E941505FFEF8F1A9F0A88E088169104EE
:100B700021F7E1E0EE1AF108BCCFEF92FF920F935C
:100B80001F93CF93DF937C0107E010E0D0E0C0E03B
:100B90008091CB169091CC16181619067CF4FE01A4
:100BA000EE0FFF1FEE0DFF1D41E080819181892B2B
:100BB00009F440E0B801CE010E9415052196C83025
:100BC000D10531F70150110980E1E80EF11C0F3F0A
:100BD0001007E1F6DF91CF911F910F91FF90EF90F9
:100BE00008951F920F920FB60F9211240BB60F9219
:100BF0002F933F934F935F936F937F938F939F9325
:100C0000AF93BF93EF93FF9382EB93E10E94DC01DC
:100C1000FF91EF91BF91AF919F918F917F916F91D4
:100C20005F914F913F912F910F900BBE0F900FBE90
:100C30000F901F9018951F920F920FB60F921124CC
:100C40000BB60F922F938F939F93EF93FF93E091A7
:100C5000C213F091C3138081E091C813F091C913BE
:100C600082FD1DC090818091CB138F5F8F73209187
:100C7000CC13821741F0E091CB13F0E0EE54FC4E20
:100C8000958F8093CB13FF91EF919F918F912F912F
:100C90000F900BBE0F900FBE0F901F901895808184
:100CA000F2CF1F920F920FB60F9211242F933F9302
:100CB0008F939F93AF93BF938091B9129091BA1283
:100CC000A091BB12B091BC123091B81223E0230F57
:100CD0002D3758F50196A11DB11D2093B8128093B0
:100CE000B9129093BA12A093BB12B093BC12809128
:100CF000BD129091BE12A091BF12B091C012019688
:100D0000A11DB11D8093BD129093BE12A093BF127E
:100D1000B093C012BF91AF919F918F913F912F914E
:100D20000F900FBE0F901F90189526E8230F029684
:100D3000A11DB11DD2CFCF93DF931092B5131092A6
:100D4000B41388EE93E0A0E0B0E08093B6139093E4
:100D5000B713A093B813B093B91389EA92E19093B3
:100D6000B3138093B21385EC90E09093BF138093FC
:100D7000BE1384EC90E09093C1138093C01380EC79
:100D800090E09093C3138093C21381EC90E0909312
:100D9000C5138093C41382EC90E09093C7138093A3
:100DA000C61386EC90E09093C9138093C8131092F9
:100DB000CB131092CC131092CD131092CE13C3E329
:100DC000D0E0D093C616C093C51684E390E090930C
:100DD000C8168093C71685E390E09093CA16809357
:100DE000C91681E090E09093CC168093CB1661E019
:100DF00083E30E945A0361E08091C7160E945A0360
:100E000061E08091C9160E945A0361E08091C91681
:100E10000E942C03D093C616C093C516E5E8F6E1F0
:100E200085EC96E111928E179F07E1F7D0E0C0E0C4
:100E30008091CB169091CC16C817D90774F540E075
:100E40006FE0CE010E9497048091CB169091CC1652
:100E5000C817D9072CF447E06BE0CE010E94970435
:100E600040E069E0CE010E9497048091CB169091FA
:100E7000CC16C817D9071CF4CE010E94F504809146
:100E8000CB169091CC16C817D9072CF440E06CE033
:100E9000CE010E9497042196CBCFEFE4F4E185E7E1
:100EA00096E16AE04FE050E020ED37E0DF01762F79
:100EB0001D927A95E9F753834283358324833A96CA
:100EC0008E179F0799F7DF91CF910895CF93DF9306
:100ED00000D01F92CDB7DEB7789484B5826084BD10
:100EE00084B5816084BD85B5826085BD85B581602E
:100EF00085BD80916E00816080936E0010928100AC
:100F00008091810082608093810080918100816066
:100F10008093810080918000816080938000809127
:100F2000B10084608093B1008091B00081608093B3
:100F3000B000809191008260809391008091910037
:100F400081608093910080919000816080939000F7
:100F50008091A10082608093A1008091A1008160B6
:100F60008093A1008091A00081608093A000809177
:100F70002101826080932101809121018160809311
:100F800021018091200181608093200180917A006D
:100F9000846080937A0080917A00826080937A00E6
:100FA00080917A00816080937A0080917A008068D5
:100FB00080937A001092C100E091C213F091C313A4
:100FC00082E08083E091BE13F091BF131082E09124
:100FD000C013F091C1138FEC80831092CA13E0917B
:100FE000C613F091C71386E08083E091C413F0919B
:100FF000C513808180618083E091C413F091C51393
:10100000808188608083E091C413F091C513808152
:1010100080688083E091C413F091C51380818F7D37
:1010200080838091CB169091CC161816190634F453
:1010300041E06CE090E080E00E9497048091CB1644
:101040009091CC161816190634F44FE06AE090E03F
:1010500080E00E9497048091CB169091CC161816D0
:10106000190624F490E080E00E94F50425E932E1BD
:101070003A832983E5E8EE2EE2E1FE2E670189013D
:10108000F80180810E5F1F4F61E00E945A03F60154
:101090008081F2E0CF0ED11C61E00E945A0322E170
:1010A000053A120769F7E981FA8180813296FA835D
:1010B000E98361E00E942C03F7018081F2E0EF0EEA
:1010C000F11C60E00E942C0329813A81255A3241AB
:1010D00051F760E08FE20E945A0381E08093801212
:1010E0008CEF92E10E942E0583E090E090931F1315
:1010F00080931E1382E390E090932113809320133A
:1011000088EC90E090932313809322138CEF92E16C
:1011100075ECE72E72E1F72EF70111927F018E1721
:101120009F07D1F754E2652E712C66E0262E312CF4
:10113000412C512C00E410E080918012811130C2CA
:1011400087E30E948B03892B09F4A3C180911E13AE
:1011500090911F1302970CF446C00E9400048090E7
:10116000281390902913A0902A13B0902B13AB0151
:10117000BC01481959096A097B0980912013909193
:101180002113092E000CAA0BBB0B84179507A60789
:10119000B70748F588E30E940303019719F081E03F
:1011A00080931D1388E30E9403030197E1F480916B
:1011B0001D138823C1F080911E1390911F1382305C
:1011C00091052CF0019790931F1380931E130E949A
:1011D0000004609328137093291380932A1390932B
:1011E0002B1310921D1380911E1390911F130697BD
:1011F0000CF046C00E9400048090281390902913A0
:10120000A0902A13B0902B13AB01BC0148195909C7
:101210006A097B098091201390912113092E000CFB
:10122000AA0BBB0B84179507A607B70748F589E3F8
:101230000E940303019719F081E080931C1389E356
:101240000E9403030197E1F480911C138823C1F0ED
:1012500080911E1390911F13863091052CF40196F6
:1012600090931F1380931E130E9400046093281311
:101270007093291380932A1390932B1310921C13AD
:101280000E940B11A20191010E9463114B01E5EC38
:10129000F2E11A821982819181111AC129813A8160
:1012A0002115310509F4F8C0215031094AE0D42E46
:1012B000D29EC001D39E900D1124815B9B4EFC01F8
:1012C000828193810C97D4F50E9400042091C11271
:1012D0003091C2124091C3125091C412621B730B21
:1012E000840B950B683873418105910538F1E981CC
:1012F000FA81EB53FD4E81E080830E9400046093ED
:10130000C1127093C2128093C3129093C4122981A8
:101310003A81D29EF001D39EF00D1124E15BFB4E89
:10132000918280828FE090E09383828380ED97E0CA
:1013300095838483168217821086118635ECC32E1E
:1013400032E1D32E1A821982F60181916F0188232E
:1013500069F08BE30E948B03E981FA81E15BFB4E2C
:10136000880F991F880F991F9583848329813A815B
:10137000265F3F4F3A8329832632324029F780E1A6
:10138000ECEFF2E1ACE0B3E101900D928A95E1F768
:1013900080911E1390911F1301979801082E02C08F
:1013A000359527950A94E2F790911813922B909314
:1013B000181360EE70E002C0759567958A95E2F7A4
:1013C0006093191320931A1360931B138FE494E115
:1013D0009C838B8385ECC82E82E1D82EF601819107
:1013E0006F01882309F447C0EB81FC8182819381DE
:1013F000248135813A83298386809780A084B184B3
:1014000020813181215031098F30910509F06BC065
:10141000C80102C0959587952A95E2F790910C1323
:10142000892B80930C130E940004681979098A099A
:101430009B09E981FA814F01FF0FAA08BB088616B4
:101440009706A806B906B8F4EB81FC8182819381E6
:101450000197938382830E940004EB81FC81668361
:10146000778380879187828193818E3F9F4F1CF481
:10147000F601319710822B813C81265F3F4F3C83E0
:101480002B83CE14DF0409F0A9CF8CE093E10E94F6
:101490002E050E946B0250CE81E08093C51290927F
:1014A000501480924F148FE090E0909352148093E8
:1014B000511480ED97E0909354148093531410923C
:1014C000551410925614109257141092581436CF87
:1014D00049815A814F5F5F4F5A8349834733510592
:1014E00009F0D9CE2BCF40EE50E0022E02C0559528
:1014F00047950A94E2F78E30910589F4C80102C03D
:10150000959587952A95E2F790910C13892B8093F6
:101510000C1380910D13482B40930D1384CF8F3FF4
:10152000980789F480911A13482B40931A13C80125
:1015300002C0959587952A95E2F790911B13892B08
:1015400080931B1370CF8E3F7FEF970731F480910C
:101550001B13482B40931B1366CFEDE0F0E0E81B14
:10156000F90BE45FFC4E3081342B3083EEE0F0E089
:10157000E81BF90BE45FFC4EB80102C07595679556
:101580002A95E2F79B013081232B2083EFE0F0E0E6
:10159000E81BF90BE45FFC4E8081482B408343CF6E
:1015A00087E30E940303019749F4109280126AEFC7
:1015B00070E080E090E00E94CD036BCF8FE20E944C
:1015C00003036C019093B1138093B0138AE30E94DC
:1015D0008B039A8389839093AF138093AE1380918A
:1015E000AC139091AD1331E0C316D10409F089C357
:1015F0000097B9F480E092E00E94BD058CE293E18F
:101600000E940C0449815A81BA01550F880B990B2D
:101610000E94CD030E947A04D092AD13C092AC1305
:10162000C6CF81309105A9F480E892E00E94BD0503
:101630008CE293E10E940C04E981FA81BF01FF0F63
:10164000880B990B0E94CD030E947A0422E030E0BF
:101650005FC082309105A9F480E093E00E94BD054F
:1016600080E092E00E940C0449815A81BA01550F32
:10167000880B990B0E94CD030E947A0463E070E00E
:1016800063C083309105A9F480E893E00E94BD0512
:1016900080E892E00E940C04E981FA81BF01FF0F0B
:1016A000880B990B0E94CD030E947A0424E030E05D
:1016B0002FC084309105A9F480E094E00E94BD051C
:1016C00080E093E00E940C0449815A81BA01550FD1
:1016D000880B990B0E94CD030E947A0465E070E0AC
:1016E00033C085309105C9F480E898E00E94BD05BB
:1016F00080E893E00E940C04E981FA81BF01FF0FAA
:10170000880B990B0E94CD030E947A0426E030E0FA
:101710003093AD132093AC134ACF86309105C9F4B2
:1017200080E894E00E94BD0580E094E00E940C04F3
:1017300049815A81BA01550F880B990B0E94CD033C
:101740000E947A0467E070E07093AD136093AC136D
:101750002ECF87309105A9F480E897E00E94BD055F
:1017600080E898E00E940C04E981FA81BF01FF0F34
:10177000880B990B0E94CD030E947A0488E090E0C8
:1017800087C288309105A9F480E095E00E94BD05EC
:1017900080E894E00E940C0429813A81B901330F5A
:1017A000880B990B0E94CD030E947A0489E090E097
:1017B0006FC289309105A9F480E895E00E94BD05CB
:1017C00080E897E00E940C0449815A81BA01550FC4
:1017D000880B990B0E94CD030E947A048AE090E066
:1017E00057C28A309105A9F480E096E00E94BD05B9
:1017F00080E095E00E940C04E981FA81BF01FF0FAF
:10180000880B990B0E94CD030E947A048BE090E034
:101810003FC28B309105A9F480E896E00E94BD0597
:1018200080E895E00E940C0429813A81B901330FC8
:10183000880B990B0E94CD030E947A048CE090E003
:1018400027C28C309105A9F480E097E00E94BD0585
:1018500080E096E00E940C0449815A81BA01550F3C
:10186000880B990B0E94CD030E947A048DE090E0D2
:101870000FC28D309105A9F480E897E00E94BD0564
:1018800080E896E00E940C04E981FA81BF01FF0F15
:10189000880B990B0E94CD030E947A048EE090E0A1
:1018A000F7C18E309105A9F480E098E00E94BD0553
:1018B00080E097E00E940C0429813A81B901330F3E
:1018C000880B990B0E94CD030E947A048FE090E070
:1018D000DFC18F309105A9F480E898E00E94BD0532
:1018E00080E897E00E940C0449815A81BA01550FA3
:1018F000880B990B0E94CD030E947A0480E190E04E
:10190000C7C180319105A9F480E099E00E94BD052E
:1019100080E098E00E940C04E981FA81BF01FF0F8A
:10192000880B990B0E94CD030E947A0481E190E01C
:10193000AFC181319105A9F480E89DE00E94BD0509
:1019400080E898E00E940C0429813A81B901330FA4
:10195000880B990B0E94CD030E947A0482E190E0EB
:1019600097C182319105A9F480E899E00E94BD05F4
:1019700080E099E00E940C0449815A81BA01550F18
:10198000880B990B0E94CD030E947A0483E190E0BA
:101990007FC183319105A9F480E89AE00E94BD05DA
:1019A00080E89DE00E940C04E981FA81BF01FF0FED
:1019B000880B990B0E94CD030E947A0484E190E089
:1019C00067C184319105A9F480E092E10E94BD05D0
:1019D00080E89AE00E940C0429813A81B901330F12
:1019E000880B990B0E94CD030E947A0485E190E058
:1019F0004FC185319105A9F480E09BE00E94BD05AF
:101A000080E09AE00E940C0449815A81BA01550F86
:101A1000880B990B0E94CD030E947A0486E190E026
:101A200037C186319105A9F480E89EE00E94BD058A
:101A300080E092E10E940C04E981FA81BF01FF0F6E
:101A4000880B990B0E94CD030E947A0487E190E0F5
:101A50001FC187319105A9F480E89BE00E94BD0574
:101A600080E09BE00E940C0429813A81B901330F88
:101A7000880B990B0E94CD030E947A0488E190E0C4
:101A800007C188319105A9F480E89DE00E94BD0559
:101A900080E092E10E940C0449815A81BA01550FFD
:101AA000880B990B0E94CD030E947A0489E190E093
:101AB000EFC089319105A9F480E09CE00E94BD054A
:101AC00080E89BE00E940C04E981FA81BF01FF0FCE
:101AD000880B990B0E94CD030E947A048AE190E062
:101AE000D7C08A319105A9F480E89CE00E94BD0529
:101AF00080E89DE00E940C0429813A81B901330FEE
:101B0000880B990B0E94CD030E947A048BE190E030
:101B1000BFC08B319105A9F480E09DE00E94BD0516
:101B200080E09CE00E940C0449815A81BA01550F63
:101B3000880B990B0E94CD030E947A048CE190E0FF
:101B4000A7C08C319105A9F480E89DE00E94BD05F5
:101B500080E89CE00E940C04E981FA81BF01FF0F3C
:101B6000880B990B0E94CD030E947A048DE190E0CE
:101B70008FC08D319105A9F480E09EE00E94BD05E3
:101B800080E09DE00E940C0429813A81B901330F65
:101B9000880B990B0E94CD030E947A048EE190E09D
:101BA00077C08E319105A9F480E89EE00E94BD05C2
:101BB00080E89DE00E940C0449815A81BA01550FCA
:101BC000880B990B0E94CD030E947A048FE190E06C
:101BD0005FC08F319105A9F480E09FE00E94BD05B0
:101BE00080E09EE00E940C04E981FA81BF01FF0FB2
:101BF000880B990B0E94CD030E947A0480E290E04A
:101C000047C080329105A9F480E89FE00E94BD059D
:101C100080E89EE00E940C0429813A81B901330FCB
:101C2000880B990B0E94CD030E947A0481E290E018
:101C30002FC081329105A9F480E090E10E94BD059A
:101C400080E09FE00E940C0449815A81BA01550F3F
:101C5000880B990B0E94CD030E947A0482E290E0E7
:101C600017C082329105C9F480E890E10E94BD0559
:101C700080E89FE00E940C04E981FA81BF01FF0F18
:101C8000880B990B0E94CD030E947A0483E290E0B6
:101C90009093AD138093AC138ACC83329105B9F441
:101CA00080E091E10E94BD0580E090E10E940C047B
:101CB00029813A81B901330F880B990B0E94CD031A
:101CC0000E947A047092AD136092AC1370CC84972A
:101CD00009F06DCC80E092E10E94BD0580E890E1C2
:101CE0000E940C0449815A81BA01550F880B990B47
:101CF0000E94CD030E947A041092AD131092AC138F
:101D000056CC8497C1F48CE293E10E94BD0580E03B
:101D100092E10E940C04E981FA81BF01FF0F880B58
:101D2000990B0E94CD030E947A0483E290E0909385
:101D3000AD138093AC138091AC139091AD138332AB
:101D4000910579F480E891E10E94BD0580E091E180
:101D50000E940C0429813A81B901330F880B990B39
:101D600079CF8232910579F480E092E10E94BD053D
:101D700080E890E10E940C0449815A81BA01550F14
:101D8000880B990B4FCF8132910539F480E091E1B6
:101D90000E94BD0580E090E125CF8032910579F465
:101DA00080E890E10E94BD0580E89FE00E940C045D
:101DB00029813A81B901330F880B990B03CF8F31F9
:101DC000910579F480E090E10E94BD0580E09FE0FC
:101DD0000E940C0449815A81BA01550F880B990B56
:101DE000D9CE8E31910539F480E89FE00E94BD057F
:101DF00080E89EE0AFCE8D31910579F480E09FE0E0
:101E00000E94BD0580E09EE00E940C0429813A8179
:101E1000B901330F880B990B8DCE8C31910579F474
:101E200080E89EE00E94BD0580E89DE00E940C04D1
:101E300049815A81BA01550F880B990B63CE8B31BA
:101E4000910539F480E09EE00E94BD0580E09DE0B0
:101E500039CE8A31910579F480E89DE00E94BD0574
:101E600080E89CE00E940C0429813A81B901330F7B
:101E7000880B990B17CE8931910579F480E89CE0A5
:101E80000E94BD0580E89DE00E940C0449815A81B2
:101E9000BA01550F880B990BEDCD8831910539F4B6
:101EA00080E09CE00E94BD0580E89BE0C3CD8731C7
:101EB000910579F480E89DE00E94BD0580E89EE0F0
:101EC0000E940C0429813A81B901330F880B990BC8
:101ED000A1CD8631910579F480E89BE00E94BD0593
:101EE00080E09BE00E940C0449815A81BA01550FA1
:101EF000880B990B77CD8531910539F480E89EE008
:101F00000E94BD0580E092E14DCD8431910579F4C8
:101F100080E092E10E94BD0580E89AE00E940C04F6
:101F200029813A81B901330F880B990B2BCD83316D
:101F3000910579F480E09AE00E94BD0580E899E07F
:101F40000E940C0449815A81BA01550F880B990BE4
:101F500001CD8231910539F480E89AE00E94BD05F7
:101F600080E89DE0D7CC8131910579F480E899E053
:101F70000E94BD0580E099E00E940C0429813A810D
:101F8000B901330F880B990BB5CC8031910579F4E9
:101F900080E89DE00E94BD0580E898E00E940C0466
:101FA00049815A81BA01550F880B990B8BCC8F3020
:101FB000910539F480E099E00E94BD0580E098E049
:101FC00061CC8E30910579F480E898E00E94BD05DF
:101FD00080E897E00E940C0429813A81B901330F0F
:101FE000880B990B3FCC8D30910579F480E098E017
:101FF0000E94BD0580E097E00E940C0449815A814F
:10200000BA01550F880B990B15CC8C30910539F41A
:1020100080E897E00E94BD0580E896E0EBCB8B302E
:10202000910579F480E097E00E94BD0580E096E09C
:102030000E940C0429813A81B901330F880B990B56
:10204000C9CB8A30910579F480E896E00E94BD05FD
:1020500080E895E00E940C0449815A81BA01550F2D
:10206000880B990B9FCB8930910539F480E096E07D
:102070000E94BD0580E095E075CB88309105C9F4DC
:1020800080E895E00E94BD0580E897E00E940C047E
:1020900029813A81B901330F880B990B0E94CD0336
:1020A0000E947A0447E050E05093AD134093AC1384
:1020B0007ECA8730910539F480E095E00E94BD0525
:1020C00080E894E017CB8630910539F480E897E0FA
:1020D0000E94BD0580E898E0F5CA8530910539F485
:1020E00080E894E00E94BD0580E094E0D3CA84308B
:1020F000910539F480E898E00E94BD0580E893E0FE
:10210000B1CA8330910539F480E094E00E94BD05A6
:1021100080E093E08FCA82309105A9F480E893E0D3
:102120000E94BD0580E892E00E940C0449815A811A
:10213000BA01550F880B990B0E94CD030E947A04B7
:1021400061E070E001CB8130910579F480E093E0AB
:102150000E94BD0580E092E00E940C04E981FA81B2
:10216000BF01FF0F880B990BC3CD892B09F01FCA44
:1021700080E892E00E94BD058CE293E197CD8F92BA
:102180009F92AF92BF92CF92DF92EF92FF92CF9346
:10219000DF93EC01688179818A819B8161157105EA
:1021A0008105910521F464E279ED8BE597E02DE15D
:1021B00033EF41E050E00E94631149015A019B0155
:1021C000AC01A7EAB1E40E9482116B017C01ACEE84
:1021D000B4EFA50194010E949011C60ED71EE81E0F
:1021E000F91EF7FE06C081E0C81AD108E10880E8B0
:1021F000F80AC882D982EA82FB82C701B6019F77BA
:10220000DF91CF91FF90EF90DF90CF90BF90AF9094
:102210009F908F9008958F929F92AF92BF92CF928E
:10222000DF92EF92FF926091811270918212809101
:10223000831290918412611571058105910521F435
:1022400064E279ED8BE597E02DE133EF41E050E07A
:102250000E94631149015A019B01AC01A7EAB1E454
:102260000E9482116B017C01ACEEB4EFA5019401D8
:102270000E949011C60ED71EE81EF91EF7FE06C07A
:1022800081E0C81AD108E10880E8F80AC0928112FA
:10229000D0928212E0928312F0928412C701B601AA
:1022A0009F77FF90EF90DF90CF90BF90AF909F907F
:1022B0008F9008956093811270938212809383129D
:1022C000909384120895052E97FB1EF400940E94AB
:1022D0007A1157FD07D00E94951107FC03D04EF4E8
:1022E0000C947A1150954095309521953F4F4F4F62
:1022F0005F4F089590958095709561957F4F8F4FB2
:102300009F4F08950E94B711A59F900DB49F900D07
:10231000A49F800D911D11240895B7FF0C94821184
:102320000E948211821B930B0895A1E21A2EAA1B10
:10233000BB1BFD010DC0AA1FBB1FEE1FFF1FA21775
:10234000B307E407F50720F0A21BB30BE40BF50B72
:10235000661F771F881F991F1A9469F760957095FB
:10236000809590959B01AC01BD01CF010895A29F7E
:10237000B001B39FC001A39F700D811D1124911D59
:10238000B29F700D811D1124911D0895EE0FFF1F46
:10239000881F8BBF0790F691E02D1994F894FFCF1A
:1023A000000000000000000000000000000000002D
:1023B000000000000000000000000000000000001D
:1023C000000000000000000000000000000000000D
:1023D00000000000000000000000000000000000FD
:1023E00000000000000000000000000000000000ED
:1023F00000000100010001000100000000000000D9
:1024000000000100010000000000010000000000C9
:1024100000000100010001000100000000000000B8
:1024200000000000000000000000000000000000AC
:102430000000010001000100010000000000000098
:102440000000010001000000000001000000000089
:102450000000010001000100010000000000000078
:10246000000001000100000000000000000000006A
:10247000000001000100000000000000000000005A
:10248000000001000100000000000000000000004A
:10249000000000000000000000000000000000003C
:1024A000000001000100000000000000000000002A
:1024B000000001000100000000000000000000001A
:1024C000000001000100000000000000000000000A
:1024D00000000000000000000000000000000000FC
:1024E00000000000000000000000000000000000EC
:1024F00000000100010001000100000000000000D8
:1025000000000100000000000000010000000000C9
:1025100000000100000000000000010000000000B9
:1025200000000000000000000000000000000000AB
:102530000000010001000100010000000000000097
:102540000000010000000000000001000000000089
:102550000000010000000000000001000000000079
:102560000000010001000100010000000000000067
:102570000000010000000100000000000000000059
:102580000000010000000000010000000000000049
:10259000000000000000000000000000000000003B
:1025A0000000010001000100010000000000000027
:1025B0000000010000000100000000000000000019
:1025C0000000010000000000010000000000000009
:1025D00000000000000000000000000000000000FB
:1025E00000000000000000000000000000000000EB
:1025F00000000000010001000000000000000000D9
:1026000000000100000000000100000000000000C8
:1026100000000100000000000100000000000000B8
:1026200000000100010001000100000000000000A6
:102630000000010000000000010000000000000098
:102640000000010000000000010000000000000088
:10265000000000000000000000000000000000007A
:10266000000000000000000000000000000000006A
:102670000000000001000100010000000000000057
:102680000000010000000000000000000000000049
:102690000000010000000000000000000000000039
:1026A0000000010000000000000000000000000029
:1026B0000000010000000000000000000000000019
:1026C0000000000001000100010000000000000007
:1026D00000000000000000000000000000000000FA
:1026E00000000000000000000000000000000000EA
:1026F00000000100010001000100010000000000D5
:1027000000000000000001000000000000000000C8
:1027100000000000000001000000000000000000B8
:1027200000000000000000000000000000000000A9
:102730000000010001000100010001000000000094
:102740000000000000000100000000000000000088
:102750000000000000000100000000000000000078
:102760000000000000000100000000000000000068
:102770000000000000000100000000000000000058
:102780000000000000000100000000000000000048
:102790000000000000000000000000000000000039
:1027A0000000000000000100000000000000000028
:1027B0000000000000000100000000000000000018
:1027C0000000000000000100000000000000000008
:1027D00000000000000000000000000000000000F9
:1027E00000000000000000000000000000000000E9
:1027F00000000100010001000100010000000000D4
:1028000000000000000001000000000000000000C7
:1028100000000000000001000000000000000000B7
:1028200000000000000000000000000000000000A8
:102830000000010001000100010001000000000093
:102840000000000000000100000000000000000087
:102850000000000000000100000000000000000077
:102860000000000000000100000000000000000067
:102870000000000000000100000000000000000057
:102880000000010001000100010001000000000043
:102890000000000000000000000000000000000038
:1028A0000000000000000100000000000000000027
:1028B0000000000000000100000000000000000017
:1028C0000000010001000100010001000000000003
:1028D00000000000000000000000000000000000F8
:1028E00000000000000000000000000000000000E8
:1028F00000000000010001000100000000000000D5
:1029000000000100000000000000000000000000C6
:1029100000000100000000000000000000000000B6
:1029200000000000000000000000000000000000A7
:102930000000000001000100010000000000000094
:102940000000010000000000000000000000000086
:102950000000010000000000000000000000000076
:102960000000010000000000000000000000000066
:102970000000010000000000000000000000000056
:102980000000000001000100010000000000000044
:102990000000000000000000000000000000000037
:1029A0000000010000000000000000000000000026
:1029B0000000010000000000000000000000000016
:1029C0000000000001000100010000000000000004
:1029D00000000000000000000000000000000000F7
:1029E00000000000000000000000000000000000E7
:1029F00000000000010001000000000000000000D5
:102A000000000100000000000100000000000000C4
:102A100000000100000000000100000000000000B4
:102A200000000000000000000000000000000000A6
:102A30000000000001000100000000000000000094
:102A40000000010000000000010000000000000084
:102A50000000010000000000010000000000000074
:102A60000000010001000100010000000000000062
:102A70000000010000000000010000000000000054
:102A80000000010000000000010000000000000044
:102A90000000000000000000000000000000000036
:102AA0000000010001000100010000000000000022
:102AB0000000010000000000010000000000000014
:102AC0000000010000000000010000000000000004
:102AD00000000000000000000000000000000000F6
:102AE00000000000000000000000000000000000E6
:102AF00000000000010001000000000000000000D4
:102B000000000000000001000000000000000000C4
:102B100000000000000001000000000000000000B4
:102B200000000000000001000000000000000000A4
:102B30000000000000000100000000000000000094
:102B40000000000001000100010000000000000082
:102B50000000000000000000000000000000000075
:102B60000000000000000000000000000000000065
:102B70000000000000000000000000000000000055
:102B80000000000001000100010001000000000041
:102B90000000000000000000000000000000000035
:102BA0000000000000000000000000000000000025
:102BB0000000000000000000000000000000000015
:102BC0000000000000000000000000000000000005
:102BD00000000000000000000000000000000000F5
:102BE00000000000000000000000000000000000E5
:102BF00000000000000000000000000000000000D5
:102C000000000100010001000100000000000000C0
:102C100000000000000000000000010000000000B3
:102C200000000000000000000000000000000000A4
:102C30000000000000000000000000000000000094
:102C40000000000000000000000000000000000084
:102C50000000000001000100010001000000000070
:102C60000000000000000000000000000000000064
:102C70000000000000000000000000000000000054
:102C80000000000000000000000000000000000044
:102C90000000000000000000000000000000000034
:102CA0000000000001000100010000000000000021
:102CB0000000010000000000000000000000000013
:102CC00000000100010001000100010000000000FF
:102CD00000000000000000000000000000000000F4
:102CE00000000000000000000000000000000000E4
:102CF00000000000010001000100000000000000D1
:102D000000000100000000000100010000000000C0
:102D100000000100000001000000010000000000B0
:102D200000000100000001000000010000000000A0
:102D30000000010001000000000001000000000090
:102D40000000000001000100010000000000000080
:102D50000000000000000000000000000000000073
:102D60000000000000000000000000000000000063
:102D70000000000001000100000000000000000051
:102D80000000000000000100000000000000000042
:102D90000000000000000100000000000000000032
:102DA0000000000000000100000000000000000022
:102DB0000000000000000100000000000000000012
:102DC0000000000001000100010000000000000000
:102DD00000000000000000000000000000000000F3
:102DE00000000000000000000000000000000000E3
:102DF00000000000010001000100010001000000CE
:102E000000000000000000000000000001000000C1
:102E100000000000000000000000010000000000B1
:102E200000000000000000000000000000000000A2
:102E3000000000000100010001000100010000008D
:102E40000000000000000000000000000100000081
:102E50000000000000000000000001000000000071
:102E60000000000000000000010000000000000061
:102E70000000000000000100000000000000000051
:102E80000000000001000000000000000000000041
:102E90000000000000000000000000000000000032
:102EA0000000000000000000010000000000000021
:102EB0000000000000000100000000000000000011
:102EC0000000000001000000000000000000000001
:102ED00000000000000000000000000000000000F2
:102EE00000000000000000000000000000000000E2
:102EF00000000000010001000000000000000000D0
:102F000000000000000001000000000000000000C0
:102F100000000000000001000000000000000000B0
:102F200000000000000000000000000000000000A1
:102F3000000000000100010000000000000000008F
:102F40000000000000000100000000000000000080
:102F50000000000000000100000000000000000070
:102F60000000000000000100000000000000000060
:102F70000000000000000100000000000000000050
:102F8000000000000100010001000000000000003E
:102F90000000000000000000000000000000000031
:102FA0000000000000000100000000000000000020
:102FB0000000000000000100000000000000000010
:102FC00000000000010001000100000000000000FE
:102FD00000000000000000000000000000000000F1
:102FE00000000000000000000000000000000000E1
:102FF00000000000010001000100000000000000CE
:1030000000000100000000000100010000000000BD
:1030100000000100000001000000010000000000AD
:1030200000000000000000000000000000000000A0
:103030000000000000000000000000000000000090
:10304000000000000100010001000000000000007D
:10305000000001000000000001000100000000006D
:10306000000001000000010000000100000000005D
:10307000000001000100000000000100000000004D
:10308000000000000100010001000000000000003D
:103090000000000000000000000000000000000030
:1030A000000001000000010000000100000000001D
:1030B000000001000100000000000100000000000D
:1030C00000000000010001000100000000000000FD
:1030D00000000000000000000000000000000000F0
:1030E00000000000000000000000000000000000E0
:1030F00000000000010001000100010000000000CC
:1031000000000000000000000000000001000000BE
:1031100000000000000000000100010000000000AD
:10312000000000000000000000000000000000009F
:10313000000000000100010001000100000000008B
:10314000000000000000000000000000010000007E
:10315000000000000000000001000100000000006D
:10316000000000000000000000000000010000005E
:10317000000000000000000000000000010000004E
:10318000000000000100010001000100010000003A
:10319000000000000000000000000000000000002F
:1031A000000000000000000000000000010000001E
:1031B000000000000000000000000000010000000E
:1031C00000000000010001000100010001000000FA
:1031D00000000000000000000000000000000000EF
:1031E00000000000000000000000000000000000DF
:1031F00000000000010001000100000000000000CC
:1032000000000100000000000000010000000000BC
:1032100000000000010001000100010000000000AA
:10322000000000000000000000000000000000009E
:10323000000000000100010001000000000000008B
:10324000000001000000000000000100000000007C
:10325000000000000100010001000100000000006A
:10326000000000000000000000000100000000005D
:10327000000000000000000000000100000000004D
:10328000000000000100010001000000000000003B
:10329000000000000000000000000000000000002E
:1032A000000000000000000000000100000000001D
:1032B000000000000000000000000100000000000D
:1032C00000000000010001000100000000000000FB
:1032D00000000000000000000000000000000000EE
:1032E00000000000000000000000000000000000DE
:1032F00000000100010001000100000000000000CA
:1033000000000000000000000000010000000000BC
:1033100000000000010001000100000000000000AA
:10332000000001000000000000000000000000009C
:103330000000010001000100010001000000000088
:10334000000000000000000000000000000000007D
:10335000000000000000000000000000000000006D
:10336000000000000000000000000000000000005D
:10337000000000000000000000000000000000004D
:10338000000000000000000000000000000000003D
:10339000000000000000000000000000000000002D
:1033A000000000000000000000000000000000001D
:1033B000000000000000000000000000000000000D
:1033C00000000100010001000100000000000000F9
:1033D00000000000000000000000010000000000EC
:1033E00000000000010001000100000000000000DA
:1033F00000000100000000000000000000000000CC
:1034000000000100010001000100010000000000B7
:1034100000000000000000000000000000000000AC
:1034200001010000002000210022002300240025CB
:10343000002600270016001700180019001A001BAC
:10344000001C001D0000000000FE01680195014BFA
:0834500002C601A401B801004D
:00000001FF
