:100000000C9428010C9459010C9459010C94590139
:100010000C9459010C9459010C9459010C945901F8
:100020000C9459010C9459010C9459010C945901E8
:100030000C9459010C9459010C9459010C945901D8
:100040000C9459010C9459010C9459010C945901C8
:100050000C9459010C9459010C9459010C945F05AE
:100060000C9459010C9429050C94FF040C9459012B
:100070000C9459010C9459010C9459010C94590198
:100080000C9459010C9459010C9459010C94590188
:100090000C9459010C9459010C9459010C94590178
:1000A0000C9459010C9459010C9459010C94590168
:1000B0000C9459010C9459010C9459010C94590158
:1000C0000C9459010C9459010C9459010C94590148
:1000D0000C9459010C9459010C9459010C94590138
:1000E0000C9459010C94DA020C9497010C94880139
:1000F0000C94EB020C9415030C94E2020C94B901DD
:100100000C943E020C94F9020C94DE020C94AB01A8
:100110000C9407030C94F1010C9411030C945B01F3
:100120000C940B030C9403030C94E5020C94FD0255
:100130000C94EF020C94A9050C94C4020C94F502E3
:100140000C94D6020C94BF0200002100240027006A
:100150002A002D00300033000101000004010701D6
:100160000A0100002200250028002B002E0031008B
:10017000340002010000050108010B010505050519
:10018000070508080808020202020A0A080804040F
:10019000040401010101010101010303030303033D
:1001A0000303040707070C0C0C0C0C0C0C0C0202CC
:1001B000020206060606060606060B0B0B0B0B0BC9
:1001C0000B0B010210202008081020401020408056
:1001D000020102010804020101020408102040800B
:1001E0008040201008040201800402018040201099
:1001F00008040201080402010102040810204080E2
:10020000010204081020408000000A0B02090C0DB6
:100210000E080703040100000000000000000000B9
:1002200000000000000000000000000000000000CE
:10023000000000001211100000000000000000008B
:100240000000000000000000000000000000A90500
:1002500011241FBECFEFD1E2DEBFCDBF00E00CBF47
:1002600019E0A0E0B2E0E6EDF2E100E00BBF02C071
:1002700007900D92A23BB107D9F72BE0A2EBB9E0B2
:1002800001C01D92A233B207E1F711E0C8E2D1E04C
:1002900000E006C021970109802FFE010E9461093C
:1002A000C732D10780E00807A9F70E945D060C94C9
:1002B00069090C940000AF92BF92CF92DF92EF9247
:1002C000FF920F931F93CF93DF936C017B018B0100
:1002D000040F151FEB015E01AE18BF08C017D10750
:1002E00059F06991D601ED91FC910190F081E02DDA
:1002F000C6011995892B79F7C501DF91CF911F911F
:100300000F91FF90EF90DF90CF90BF90AF90089546
:10031000FC01538D448D252F30E0842F90E0821B0B
:10032000930B541710F0CF96089501970895FC0190
:10033000918D828D981761F0A28DAE0FBF2FB11DE8
:100340005D968C91928D9F5F9F73928F90E0089540
:100350008FEF9FEF0895FC01918D828D981731F0FA
:10036000828DE80FF11D858D90E008958FEF9FEF4E
:100370000895FC01918D228D892F90E0805C9F4F24
:10038000821B91098F73992708958DE39AE00E944B
:10039000B90121E0892B09F420E0822F0895FC01A6
:1003A000A48DA80FB92FB11DA35ABF4F2C91848DD6
:1003B00090E001968F739927848FA689B7892C9333
:1003C000A089B1898C91837080648C93938D848D86
:1003D000981306C00288F389E02D80818F7D808389
:1003E0000895EF92FF920F931F93CF93DF93EC0149
:1003F00081E0888F9B8D8C8D98131AC0E889F989CC
:10040000808185FF15C09FB7F894EE89FF896083CE
:10041000E889F98980818370806480839FBF81E04F
:1004200090E0DF91CF911F910F91FF90EF90089591
:10043000F62E0B8D10E00F5F1F4F0F731127E02E6C
:100440008C8D8E110CC00FB607FCFACFE889F989A4
:10045000808185FFF5CFCE010E94CF01F1CFEB8DDA
:10046000EC0FFD2FF11DE35AFF4FF0829FB7F89478
:100470000B8FEA89FB8980818062CFCFCF93DF9396
:10048000EC01888D8823B9F0AA89BB89E889F989AC
:100490008C9185FD03C0808186FD0DC00FB607FCE1
:1004A000F7CF8C9185FFF2CF808185FFEDCFCE0114
:1004B0000E94CF01E9CFDF91CF91089580E090E0D5
:1004C000892B29F00E94C50181110E94000080E063
:1004D00090E0892B49F080E090E0892B29F00E9480
:1004E000000081110E94000080E090E0892B49F01B
:1004F00080E090E0892B29F00E94000081110E9489
:10050000000080E090E0892B49F080E090E0892BAA
:1005100029F00E94000081110C9400000895282FFA
:1005200030E0F901E85FFD4F9491F901EE53FE4F81
:10053000449124583E4FF9012491222309F435C0F7
:10054000992311F191509231F8F4E92FF0E08827C6
:10055000E355FD4F8F4F0C946109DE02E202BF02AA
:10056000D602DA02C402E502EB02EF02F502F9025A
:10057000FD0203030703C4020B031103150380915B
:1005800080008F7780938000E22FF0E0EE0FFF1F56
:10059000EE59FE4FA591B4918FB7F894EC9161118B
:1005A00048C040954E234C938FBF089580918000A2
:1005B0008F7DE8CF80918000877FE4CF84B58F77EF
:1005C00084BDE2CF84B58F7DFBCF8091B0008F7763
:1005D0008093B000D9CF8091B0008F7DF9CF80910A
:1005E00090008F7780939000CFCF809190008F7D87
:1005F000F9CF80919000877FF5CF8091A0008F7711
:100600008093A000C1CF8091A0008F7DF9CF809111
:10061000A000877FF5CF809120018F778093200104
:10062000B3CF809120018F7DF9CF80912001877F0A
:10063000F5CF4E2BB8CFCF93DF9390E0FC01EE5374
:10064000FE4F249184589E4FFC0184918823D1F061
:1006500090E0880F991FFC01E85BFE4FA591B491D3
:10066000FC01EE59FE4FC591D49161110EC09FB7A8
:10067000F8948C91E22FE0958E238C932881E223CD
:10068000E8839FBFDF91CF9108958FB7F894EC91E5
:10069000E22BEC938FBFF6CF3FB7F8948091B70968
:1006A0009091B809A091B909B091BA0926B5A89B53
:1006B00005C02F3F19F00196A11DB11D3FBFBA2FF4
:1006C000A92F982F8827BC01CD01620F711D811DB4
:1006D000911D42E0660F771F881F991F4A95D1F739
:1006E00008958F929F92AF92BF92CF92DF92EF9236
:1006F000FF926B017C010E944C034B015C01C11411
:10070000D104E104F104B9F00E944C03681979099D
:100710008A099B09683E73408105910580F321E0B9
:10072000C21AD108E108F10888EE880E83E0981E0D
:10073000A11CB11CE4CFFF90EF90DF90CF90BF9051
:10074000AF909F908F9008955F926F927F928F925B
:100750009F92AF92BF92CF92DF92EF92FF920F9350
:100760001F93CF93DF93782E692E3EE1C32ED12CB9
:1007700040EAA42E49E0B42E00E819E0C72DD62D9A
:10078000F80150800E5F1F4F61E0852D0E948F029F
:100790004E0128E0E22EF12CF401819191914F015C
:1007A000019749F4F701EE0FFF1FE257F64F60E0A3
:1007B00080810E948F02F1E0EF1AF10869F762E090
:1007C00070E080E090E00E94710360E0852D0E945F
:1007D0008F0280E9E82E89E0F82EF7018081F2E0AF
:1007E000EF0EF11C61E00E948F02AE14BF04A9F766
:1007F000609689E00039180719F691E0C91AD10806
:1008000009F0BACFDF91CF911F910F91FF90EF9038
:10081000DF90CF90BF90AF909F908F907F906F9020
:100820005F9008950F931F93CF93DF93C0E9D9E0B2
:1008300000E819E08881229661E00E948F02F801A9
:1008400080810E5F1F4F60E00E948F02F9E0C03A86
:10085000DF0781F7DF91CF911F910F910895CF921C
:10086000DF92EF92FF920F931F93CF93DF931F922C
:100870001F92CDB7DEB769834A83880F991F009115
:10088000300B1091310B000F111FEAEDFAE09F01C0
:100890002A5D3A402017310714F41192F8CF2981CC
:1008A000FC01E652F54F21838A81808360E08091CC
:1008B0002E0B0E948F021016110604F5015011092B
:1008C000F801E652F54FE080D0902C0BC0902A0B37
:1008D00088E0F82E6E2D661F6627661F8C2D0E94FD
:1008E0008F02EE0C61E08D2D0E948F0260E08D2D55
:1008F0000E948F02FA94F110EDCFDDCF61E080917C
:100900002E0B0F900F90DF91CF911F910F91FF90C1
:10091000EF90DF90CF900C948F02EF92FF920F93A5
:100920001F93CF937C018C0183E0000F111F8A95E8
:10093000E1F70651154FC1E0F80111928F0140E037
:100940006C2FC7010E942F04CF5FC930A9F7CF9148
:100950001F910F91FF90EF900895AF92BF92CF92A9
:10096000DF92EF92FF920F931F93CF93DF936C016F
:1009700007E010E020E8E22EF12CC701002E02C0B3
:10098000959587950A94E2F7A82EB82EB094D0E0FA
:10099000C0E08091300B9091310B18161906B4F419
:1009A000FE01E652F54F8089DE01AA0FBB1FAC0D98
:1009B000BD1D2D913C91232B01F18A29808B40890B
:1009C0006C2F6F5F90E080E00E942F042196C8306A
:1009D000D105F9F60150110980E1C80ED11C0F3F75
:1009E000100759F6DF91CF911F910F91FF90EF9073
:1009F000DF90CF90BF90AF9008958B21DFCF1F92F3
:100A00000F920FB60F9211240BB60F922F933F93B4
:100A10004F935F936F937F938F939F93AF93BF9306
:100A2000EF93FF938DE39AE00E94CF01FF91EF9146
:100A3000BF91AF919F918F917F916F915F914F91F6
:100A40003F912F910F900BBE0F900FBE0F901F90F4
:100A500018951F920F920FB60F9211240BB60F929A
:100A60002F938F939F93EF93FF93E0914D0AF09113
:100A70004E0A8081E091530AF091540A82FD1DC014
:100A800090818091560A8F5F8F732091570A821749
:100A900041F0E091560AF0E0E35CF54F958F8093CA
:100AA000560AFF91EF919F918F912F910F900BBE5E
:100AB0000F900FBE0F901F9018958081F2CF1F925C
:100AC0000F920FB60F9211242F933F938F939F9302
:100AD000AF93BF938091B3099091B409A091B509E8
:100AE000B091B6093091B20923E0230F2D3758F5A4
:100AF0000196A11DB11D2093B2098093B309909373
:100B0000B409A093B509B093B6098091B709909143
:100B1000B809A091B909B091BA090196A11DB11DFA
:100B20008093B7099093B809A093B909B093BA0913
:100B3000BF91AF919F918F913F912F910F900FBED9
:100B40000F901F90189526E8230F0296A11DB11D46
:100B5000D2CFCF93DF931092400A10923F0A88EED3
:100B600093E0A0E0B0E08093410A9093420AA09302
:100B7000430AB093440A84EA99E090933E0A809332
:100B80003D0A85EC90E090934A0A8093490A84ECF0
:100B900090E090934C0A80934B0A80EC90E0909305
:100BA0004E0A80934D0A81EC90E09093500A809316
:100BB0004F0A82EC90E09093520A8093510A86EC9F
:100BC00090E09093540A8093530A1092560A109220
:100BD000570A1092580A1092590AC3E3D0E0D093F2
:100BE0002B0BC0932A0B84E390E090932D0B809302
:100BF0002C0B85E390E090932F0B80932E0B81E0DC
:100C000090E09093310B8093300B61E083E30E947E
:100C10001B0361E080912C0B0E941B0361E080911B
:100C20002E0B0E941B0361E080912E0B0E948F020D
:100C3000D0932B0BC0932A0BEAEEFAE011928BE0D3
:100C4000EA32F807D9F7D0E0C0E08091300B9091FC
:100C5000310BC817D90774F540E06FE0CE010E9450
:100C60002F048091300B9091310BC817D9072CF4C9
:100C700047E06BE0CE010E942F0440E069E0CE0126
:100C80000E942F048091300B9091310BC817D90727
:100C90001CF4CE010E948D048091300B9091310B99
:100CA000C817D9072CF440E06CE0CE010E942F0455
:100CB0002196CBCFDF91CF910895789484B582604F
:100CC00084BD84B5816084BD85B5826085BD85B5F0
:100CD000816085BD80916E00816080936E0010926E
:100CE00081008091810082608093810080918100E9
:100CF000816080938100809180008160809380007A
:100D00008091B10084608093B1008091B0008160D7
:100D10008093B000809191008260809391008091D7
:100D20009100816080939100809190008160809318
:100D300090008091A10082608093A1008091A10029
:100D400081608093A1008091A00081608093A000C9
:100D50008091210182608093210180912101816035
:100D600080932101809120018160809320018091F6
:100D70007A00846080937A0080917A008260809308
:100D80007A0080917A00816080937A0080917A0065
:100D9000806880937A001092C100E0914D0AF09132
:100DA0004E0A82E08083E091490AF0914A0A10825B
:100DB000E0914B0AF0914C0A8FEC80831092550A17
:100DC000E091510AF091520A86E08083E0914F0A47
:100DD000F091500A808180618083E0914F0AF09108
:100DE000500A808188608083E0914F0AF091500A18
:100DF000808180688083E0914F0AF091500A808161
:100E00008F7D80838091300B9091310B18161906DD
:100E100034F441E06CE090E080E00E942F04809187
:100E2000300B9091310B1816190634F44FE06AE03C
:100E300090E080E00E942F048091300B9091310B64
:100E40001816190624F490E080E00E948D0400E951
:100E500019E070E8E72E79E0F72EE0EAAE2EE9E03F
:100E6000BE2E6701E8018881229661E00E941B0383
:100E7000F6018081F2E0CF0ED11C61E00E941B03DD
:100E8000AC16BD0681F7F80180810E5F1F4F61E04F
:100E90000E948F02F7018081F2E0EF0EF11C60E00A
:100EA0000E948F02C017D10771F760E08FE20E94A5
:100EB0001B038FE0282E312C9EE0492E512C2DE073
:100EC000622E712C3CE0832E912CCBE0D0E00AE026
:100ED00010E049E0E42EF12C58E0C52ED12C67E05B
:100EE000A62EB12C80917B00877F80937B0081E4CC
:100EF00080937C0080917A00806480937A00809156
:100F00007A0086FDFCCF9091780080917900892746
:100F100098278927892B91F580913B0A90913C0A6B
:100F20000097B1F48BEB99E00E94AD0480E099E06A
:100F30000E94A40360E070E0CB010E9471030E9454
:100F4000120484E190E090933C0A80933B0A16C01F
:100F500081309105B1F480E099E00E94AD0480E811
:100F600098E00E94A40360E070E0CB010E9471034E
:100F70000E94120410923C0A10923B0A0E945E02E8
:100F8000B1CF8230910591F480E898E00E94AD04E1
:100F900080E098E00E94A40360E070E0CB010E9432
:100FA00071030E94120481E090E0CDCF833091055F
:100FB00091F480E098E00E94AD0480E897E00E9400
:100FC000A40360E070E0CB010E9471030E94120450
:100FD00082E090E0B8CF8430910591F480E897E00A
:100FE0000E94AD0480E097E00E94A40360E070E0FE
:100FF000CB010E9471030E94120483E090E0A3CF12
:101000008530910591F480E097E00E94AD0480E87E
:1010100096E00E94A40360E070E0CB010E9471039F
:101020000E94120484E090E08ECF8630910591F406
:1010300080E896E00E94AD0480E096E00E94A40360
:1010400060E070E0CB010E9471030E94120485E011
:1010500090E079CF8730910591F480E096E00E948E
:10106000AD0480E898E00E94A40360E070E0CB014A
:101070000E9471030E94120486E090E064CF8830E1
:101080009105A1F480E898E00E94AD0480E895E025
:101090000E94A40360E070E0CB010E9471030E94F3
:1010A0001204B0923C0AA0923B0A68CF89309105A5
:1010B000A1F480E895E00E94AD0480E095E00E94F4
:1010C000A40360E070E0CB010E9471030E9412044F
:1010D000D0923C0AC0923B0A51CF8A309105A1F4CC
:1010E00080E095E00E94AD0480E897E00E94A403B0
:1010F00060E070E0CB010E9471030E941204F09244
:101100003C0AE0923B0A3ACF8B309105A1F480E88B
:1011100097E00E94AD0480E894E00E94A40360E0A0
:1011200070E0CB010E9471030E94120410933C0AEC
:1011300000933B0A23CF8C309105A1F480E894E022
:101140000E94AD0480E094E00E94A40360E070E09F
:10115000CB010E9471030E941204D0933C0AC093F9
:101160003B0A0CCF8D309105A1F480E094E00E9401
:10117000AD0480E893E00E94A40360E070E0CB013E
:101180000E9471030E94120490923C0A80923B0AD2
:10119000F5CE8E309105A1F480E893E00E94AD0475
:1011A00080E893E00E94A40360E070E0CB010E941D
:1011B00071030E94120470923C0A60923B0ADECED8
:1011C0008F309105A1F480E893E00E94AD0480E0A7
:1011D00093E00E94A40360E070E0CB010E947103E1
:1011E0000E94120450923C0A40923B0AC7CE8031C2
:1011F0009105A1F430923C0A20923B0A80E093E0F2
:101200000E94AD0480E895E00E94A40360E070E0D5
:10121000CB010E9471030E941204B0CE813191056E
:1012200069F480E190E090933C0A80933B0A80E867
:1012300095E00E94AD0480E892E0E6CF823191050E
:10124000B1F480E892E00E94AD0480E092E00E9458
:10125000A40360E070E0CB010E9471030E941204BD
:10126000E1E1F0E0F0933C0AE0933B0A87CE833162
:10127000910591F480E092E00E94AD0480E099E055
:101280000E94A40360E070E0CB010E9471030E9401
:10129000120482E190E057CE449709F06FCE80E0CF
:1012A00099E00E94AD048BEB99E00E94A40360E0FA
:1012B00070E0CB010E9471030E941204E3E1F0E0B0
:1012C000D1CFEE0FFF1F881F8BBF0790F691E02D47
:0612D0001994F894FFCF11
:1012D6000000000000000000000000000000000008
:1012E60000000100010001000100010000000000F3
:1012F60000000100010000000000010001000000E4
:1013060000000100010001000100010000000000D2
:1013160000000100010001000100010000000000C2
:1013260000000100010000000000010001000000B3
:1013360000000100010000000000010001000000A3
:101346000000010001000100010001000000000092
:101356000000000000000000000000000000000087
:101366000000010001000000000000000100010073
:101376000000010001000100000000000100010062
:101386000000010001000100010001000100010050
:101396000000010001000000000001000100010042
:1013A6000000010001000000000000000100010033
:1013B6000000010001000000000000000100010023
:1013C6000000010001000000000000000100010013
:1013D6000000000000000000000000000000000007
:1013E60000000000010001000100010000000000F3
:1013F60000000000000001000100000000000000E5
:1014060000000000000001000100000000000000D4
:1014160000000000000001000100000000000000C4
:1014260000000000000001000100000000000000B4
:1014360000000000000001000100000000000000A4
:101446000000000001000100010001000000000092
:101456000000000000000000000000000000000086
:101466000000000001000100010001000000000072
:101476000000010001000000000001000100000062
:101486000000010001000000000000000000000054
:101496000000010001000000000000000000000044
:1014A6000000010001000000000000000000000034
:1014B6000000010001000000000001000100000022
:1014C6000000000001000100010001000000000012
:1014D6000000000000000000000000000000000006
:1014E60000000100010001000100010001000000F0
:1014F60000000100010000000000000000000000E4
:1015060000000100010000000000000000000000D3
:1015160000000100010001000100010000000000C0
:1015260000000100010000000000000000000000B3
:1015360000000100010000000000000000000000A3
:10154600000001000100010001000100010000008F
:101556000000000000000000000000000000000085
:101566000000000001000100010001000000000071
:101576000000010001000000000001000100000061
:101586000000010001000000000000000000000053
:101596000000000001000100010001000000000041
:1015A6000000000000000000000001000100000033
:1015B6000000010001000000000001000100000021
:1015C6000000000001000100010000000000000012
:1015D6000000000000000000000000000000000005
:1015E60000000000000000000100010000000000F3
:1015F60000000000000001000100010000000000E2
:1016060000000000010000000100010000000000D1
:1016160000000100000000000100010000000000C1
:1016260000000100010001000100010001000000AE
:1016360000000000000000000100010000000000A2
:101646000000000000000000010001000000000092
:101656000000000000000000000000000000000084
:101666000000000001000100010001000000000070
:101676000000010001000000000001000100000060
:101686000000010001000000000001000100000050
:101696000000010001000000000001000100000040
:1016A6000000010001000000000001000100000030
:1016B6000000010001000000000001000100000020
:1016C6000000000001000100010001000000000010
:1016D6000000000000000000000000000000000004
:1016E60000000100010000000000010001000000F0
:1016F60000000100010000000000010001000000E0
:1017060000000100010000000000010001000000CF
:1017160000000100010000000000010001000000BF
:1017260000000100010000000000010001000000AF
:10173600000001000100000000000100010000009F
:10174600000000000100010001000100010000008E
:101756000000000000000000000000000000000083
:10176600000001000100010001000100000000006E
:10177600000001000100000000000100010000005F
:10178600000001000100000000000100010000004F
:10179600000001000100010001000100000000003E
:1017A600000001000100010001000000000000002F
:1017B600000001000100000001000100000000001F
:1017C600000001000100000000000100010000000F
:1017D6000000000000000000000000000000000003
:1017E60000000000010001000100010000000000EF
:1017F60000000100010000000000010001000000DF
:1018060000000100010000000000000000000000D0
:1018160000000100010000000000000000000000C0
:1018260000000100010000000100010001000000AD
:10183600000001000100000000000100010000009E
:10184600000000000100010001000000000000008F
:101856000000000000000000000000000000000082
:101866000000000000000000000000000000000072
:101876000000000000000000000000000000000062
:10188600000001000100010001000100010000004C
:10189600000001000100010001000100010000003C
:1018A6000000000000000000000000000000000032
:1018B6000000000000000000000000000000000022
:1018C6000000000000000000000000000000000012
:1018D6000000000000000000000000000000000002
:1018E60000000000000000000100000000000000F1
:1018F60000000000000001000100000000000000E0
:1019060000000000010001000100000000000000CE
:1019160000000000000001000100000000000000BF
:1019260000000000000001000100000000000000AF
:10193600000000000000010001000000000000009F
:10194600000001000100010001000100010000008B
:101956000000000000000000000000000000000081
:10196600000001000100010001000100000000006C
:10197600000001000100000000000100010000005D
:10198600000001000100000000000100010000004D
:10199600000001000100000000000100010000003D
:1019A600000001000100010001000100000000002C
:1019B600000001000100000000000000000000001F
:1019C600000001000100000000000000000000000F
:1019D6000000000000000000000000000000000001
:1019E60000000000000000000000000000000000F1
:1019F60000000000010001000000010001000000DD
:101A060000000000000001000100010000000000CD
:101A160000000100010001000100010001000100B9
:101A260000000000000001000100010000000000AD
:101A3600000000000100010000000100010000009C
:101A46000000000000000000000000000000000090
:101A56002000210022002300240025002600270064
:101A660016001700180019001A001B001C001D00A4
:101A760000000000F1015B0188013E02B9019701F7
:021A8600AB01B2
:00000001FF
