:020000040000FA
:100000000C9435010C9466010C9466010C94660105
:100010000C9466010C9466010C9466010C946601C4
:100020000C9466010C9466010C9466010C946601B4
:100030000C9466010C9466010C9466010C946601A4
:100040000C9466010C9466010C9466010C94660194
:100050000C9466010C9466010C9466010C94510694
:100060000C9466010C941B060C94F1050C9466012B
:100070000C9466010C9466010C9466010C94660164
:100080000C9466010C9466010C9466010C94660154
:100090000C9466010C9466010C9466010C94660144
:1000A0000C9466010C9466010C9466010C94660134
:1000B0000C9466010C9466010C9466010C94660124
:1000C0000C9466010C9466010C9466010C94660114
:1000D0000C9466010C9466010C9466010C94660104
:1000E0000C9466010C94C4020C9468010C94ED020B
:1000F0000C94C0020C94FF020C94CF020C94BA0230
:100100000C94CC020C94E3020C949B060C944B02CE
:100110000C94A4010C9495010C94C6010C94FB0260
:100120000C94D9020C94E7020C94F1020C94B801DF
:100130000C94FE010C94C8020C94DF020C94FA0299
:100140000C94F5020C94D502000021002400270035
:100150002A002D00300033000101000004010701D6
:100160000A0100002200250028002B002E0031008B
:10017000340002010000050108010B01000020000D
:100180002300260029002C002F003200000100006F
:10019000030106010901050505050705080808080A
:1001A000020202020A0A080804040404010101010F
:1001B000010101010303030303030303040707070A
:1001C0000C0C0C0C0C0C0C0C0202020206060606AF
:1001D000060606060B0B0B0B0B0B0B0B010210207C
:1001E000200808102040102040800201020108046D
:1001F0000201010204081020408080402010080401
:100200000201800402018040201008040201080459
:10021000020101020408102040800102040810209D
:10022000408000000A0B02090C0D0E0807030401B0
:1002300000000000000000000000000000000000BE
:10024000000000000000000000000000000012118B
:10025000100000000000000000000000000000008E
:1002600000000000000000009B0611241FBECFEF1D
:10027000D1E2DEBFCDBF00E00CBF12E1A0E0B2E0F2
:10028000E8E5F3E200E00BBF02C007900D92A83B47
:10029000B107D9F726E1A8EBB2E101C01D92A93C54
:1002A000B207E1F711E0C5E3D1E000E006C0219715
:1002B0000109802FFE010E94A211C433D10780E002
:1002C0000807A9F70E9466070C94AA110C94000075
:1002D000AF92BF92CF92DF92EF92FF920F931F9354
:1002E000CF93DF936C017B018B01040F151FEB0192
:1002F0005E01AE18BF08C017D10759F06991D60149
:10030000ED91FC910190F081E02DC6011995892BAA
:1003100079F7C501DF91CF911F910F91FF90EF9079
:10032000DF90CF90BF90AF900895FC01538D448D26
:10033000252F30E0842F90E0821B930B541710F090
:10034000CF96089501970895FC01918D828D98179D
:1003500061F0A28DAE0FBF2FB11D5D968C91928D75
:100360009F5F9F73928F90E008958FEF9FEF0895A6
:10037000FC01918D828D981731F0828DE80FF11D6F
:10038000858D90E008958FEF9FEF0895FC01918D8A
:10039000228D892F90E0805C9F4F821B91098F7383
:1003A000992708958EEA93E10E94C60121E0892BE6
:1003B00009F420E0822F0895FC01A48DA80FB92F25
:1003C000B11DA35ABF4F2C91848D90E001968F737D
:1003D0009927848FA689B7892C93A089B1898C919C
:1003E000837080648C93938D848D981306C00288EB
:1003F000F389E02D80818F7D80830895EF92FF92B5
:100400000F931F93CF93DF93EC0181E0888F9B8D37
:100410008C8D98131AC0E889F989808185FF15C0F1
:100420009FB7F894EE89FF896083E889F989808114
:100430008370806480839FBF81E090E0DF91CF91E3
:100440001F910F91FF90EF900895F62E0B8D10E005
:100450000F5F1F4F0F731127E02E8C8D8E110CC074
:100460000FB607FCFACFE889F989808185FFF5CFBF
:10047000CE010E94DC01F1CFEB8DEC0FFD2FF11DC1
:10048000E35AFF4FF0829FB7F8940B8FEA89FB89FC
:1004900080818062CFCFCF93DF93EC01888D88235A
:1004A000B9F0AA89BB89E889F9898C9185FD03C0D7
:1004B000808186FD0DC00FB607FCF7CF8C9185FFBC
:1004C000F2CF808185FFEDCFCE010E94DC01E9CF24
:1004D000DF91CF91089580E090E0892B29F00E9470
:1004E000D20181110E94000080E090E0892B49F048
:1004F00080E090E0892B29F00E94000081110E9489
:10050000000080E090E0892B49F080E090E0892BAA
:1005100029F00E94000081110E94000080E090E01C
:10052000892B49F080E090E0892B29F00E9400009F
:1005300081110C94000008958150823108F05AC056
:10054000E82FF0E08827E855FD4F8F4F0C94A2115B
:10055000C802CC02BA02C002C402FA02CF02D5021B
:10056000D902DF02E302E702ED02F102FA02F5022C
:10057000FB02FF02809180008F77809380000895B6
:10058000809180008F7DF9CF80918000877FF5CFAB
:1005900084B58F7784BD089584B58F7DFBCF80911E
:1005A000B0008F778093B00008958091B0008F7D68
:1005B000F9CF809190008F7780939000089580917B
:1005C00090008F7DF9CF80919000877FF5CF80914B
:1005D000A0008F778093A00008958091A0008F7D68
:1005E000F9CF8091A000877FF5CF809120018F7790
:1005F000809320010895809120018F7DF9CF809113
:100600002001877FF5CFCF93DF93282F30E0F901CA
:10061000EE5DFD4F8491F901E452FE4FD491F90152
:10062000EA56FE4FC491CC23A1F081110E949C0296
:10063000EC2FF0E0EE0FFF1FE458FE4FA591B491B0
:10064000EC91ED2381E090E009F480E0DF91CF911F
:10065000089580E090E0FACF1F93CF93DF93282F87
:1006600030E0F901EE5DFD4F8491F901E452FE4F57
:10067000D491F901EA56FE4FC491CC23A9F0162F6C
:1006800081110E949C02EC2FF0E0EE0FFF1FEE594B
:10069000FE4FA591B4918FB7F894EC91111108C059
:1006A000D095DE23DC938FBFDF91CF911F9108950A
:1006B000DE2BF8CFCF93DF9390E0FC01E452FE4FA6
:1006C00024918A569E4FFC0184918823D1F090E0BA
:1006D000880F991FFC01E85BFE4FA591B491FC01C6
:1006E000EE59FE4FC591D49161110EC09FB7F89499
:1006F0008C91E22FE0958E238C932881E223E8836E
:100700009FBFDF91CF9108958FB7F894EC91E22BC2
:10071000EC938FBFF6CF863308F0865320917B0091
:10072000982F9870277F922B90937B00877080641E
:1007300080937C0080917A00806480937A0080911D
:100740007A0086FDFCCF8091780090917900089521
:100750003FB7F8948091BD129091BE12A091BF1244
:10076000B091C01226B5A89B05C02F3F19F0019685
:10077000A11DB11D3FBFBA2FA92F982F8827BC01FB
:10078000CD01620F711D811D911D42E0660F771F23
:10079000881F991F4A95D1F708958F929F92AF9223
:1007A000BF92CF92DF92EF92FF926B017C010E9489
:1007B000A8034B015C01C114D104E104F104B9F0B8
:1007C0000E94A803681979098A099B09683E734049
:1007D0008105910580F321E0C21AD108E108F108F2
:1007E00088EE880E83E0981EA11CB11CE4CFFF9018
:1007F000EF90DF90CF90BF90AF909F908F90089533
:100800002FB7F8946091B9127091BA128091BB120F
:100810009091BC122FBF08955F926F927F928F923A
:100820009F92AF92BF92CF92DF92EF92FF920F937F
:100830001F93CF93DF93782E692E3EE1C32ED12CE8
:1008400045EAA42E42E1B42E05E812E1C72DD62DCB
:10085000F80150800E5F1F4F61E0852D0E942C0330
:100860004E0128E0E22EF12CF401819191914F018B
:10087000019749F4F701EE0FFF1FED56FD4E60E0C2
:1008800080810E942C03F1E0EF1AF10869F762E021
:1008900070E080E090E00E94CD0360E0852D0E9432
:1008A0002C0385E9E82E82E1F82EF7018081F2E041
:1008B000EF0EF11C61E00E942C03AE14BF04A9F7F7
:1008C000609682E10539180719F691E0C91AD10836
:1008D00009F0BACFDF91CF911F910F91FF90EF9068
:1008E000DF90CF90BF90AF909F908F907F906F9050
:1008F0005F9008950F931F93CF93DF93C5E9D2E1E3
:1009000005E812E18881229661E00E942C03F8013B
:1009100080810E5F1F4F60E00E942C03F2E1C53A18
:10092000DF0781F7DF91CF911F910F910895CF924B
:10093000DF92EF92FF920F931F93CF93DF931F925B
:100940001F92CDB7DEB769834A83880F991F009144
:10095000C7161091C816000F111FE1E7F6E19F01BD
:10096000215736412017310714F41192F8CF29810D
:10097000FC01EF58F94E21838A81808360E08091E9
:10098000C5160E942C031016110604F5015011091A
:10099000F801EF58F94EE080D090C316C090C11610
:1009A00088E0F82E6E2D661F6627661F8C2D0E942C
:1009B0002C03EE0C61E08D2D0E942C0360E08D2D48
:1009C0000E942C03FA94F110EDCFDDCF61E080910D
:1009D000C5160F900F90DF91CF911F910F91FF904F
:1009E000EF90DF90CF900C942C03EF92FF920F9337
:1009F0001F93CF937C018C0183E0000F111F8A9518
:100A0000E1F70F57194EC1E0F80111928F0140E054
:100A10006C2FC7010E949704CF5FC930A9F7CF910F
:100A20001F910F91FF90EF90089520E830E002C0F1
:100A3000359527956A95E2F7FC01EF58F94E5089F4
:100A4000442349F0252B208B61E0680F408990E01A
:100A500080E00C94970420952523F5CF8F929F92E8
:100A6000AF92BF92CF92DF92EF92FF920F931F93BC
:100A7000CF93DF938C01D0E0C0E027E0E22EF12C91
:100A800037E0A32EB12CC830D1050CF046C09C2E07
:100A900080E2980E61E0892D0E942C0397E0C92E18
:100AA000D12C86E18C0DF801208130E00C2C02C0A5
:100AB000359527950A94E2F760E020FF61E00E94F7
:100AC0002C03F1E0CF1AD10860F761E070E080E01C
:100AD00090E00E94CD0360E0892D0E942C0386E106
:100AE000D82E61E08D2D0E942C03D394EEE1DE120E
:100AF000F8CF21960F5F1F4FC031D10509F0C3CF4A
:100B0000DF91CF911F910F91FF90EF90DF90CF90E9
:100B1000BF90AF909F908F9008958091C71690914D
:100B2000C816181619062CF5F8E0EF16F10408F5AA
:100B3000F801C080912C812CD12C8091C716909106
:100B4000C8161816190674F4C50188199909A60162
:100B500002C0559547958A95E2F74170B701C401E7
:100B60000E941505FFEF8F1A9F0A88E088169104EE
:100B700021F7E1E0EE1AF108BCCFEF92FF920F935C
:100B80001F93CF93DF937C0107E010E0D0E0C0E03B
:100B90008091C7169091C816181619067CF4FE01AC
:100BA000EE0FFF1FEE0DFF1D41E080819181892B2B
:100BB00009F440E0B801CE010E9415052196C83025
:100BC000D10531F70150110980E1E80EF11C0F3F0A
:100BD0001007E1F6DF91CF911F910F91FF90EF90F9
:100BE00008951F920F920FB60F9211240BB60F9219
:100BF0002F933F934F935F936F937F938F939F9325
:100C0000AF93BF93EF93FF938EEA93E10E94DC01D1
:100C1000FF91EF91BF91AF919F918F917F916F91D4
:100C20005F914F913F912F910F900BBE0F900FBE90
:100C30000F901F9018951F920F920FB60F921124CC
:100C40000BB60F922F938F939F93EF93FF93E091A7
:100C5000BE13F091BF138081E091C413F091C513CE
:100C600082FD1DC090818091C7138F5F8F7320918B
:100C7000C813821741F0E091C713F0E0E255FC4E33
:100C8000958F8093C713FF91EF919F918F912F9133
:100C90000F900BBE0F900FBE0F901F901895808184
:100CA000F2CF1F920F920FB60F9211242F933F9302
:100CB0008F939F93AF93BF938091B9129091BA1283
:100CC000A091BB12B091BC123091B81223E0230F57
:100CD0002D3758F50196A11DB11D2093B8128093B0
:100CE000B9129093BA12A093BB12B093BC12809128
:100CF000BD129091BE12A091BF12B091C012019688
:100D0000A11DB11D8093BD129093BE12A093BF127E
:100D1000B093C012BF91AF919F918F913F912F914E
:100D20000F900FBE0F901F90189526E8230F029684
:100D3000A11DB11DD2CFCF93DF931092B1131092AA
:100D4000B01388EE93E0A0E0B0E08093B2139093EC
:100D5000B313A093B413B093B51389EA92E19093BF
:100D6000AF138093AE1385EC90E09093BB13809308
:100D7000BA1384EC90E09093BD138093BC1380EC85
:100D800090E09093BF138093BE1381EC90E090931A
:100D9000C1138093C01382EC90E09093C3138093AF
:100DA000C21386EC90E09093C5138093C413109205
:100DB000C7131092C8131092C9131092CA13C3E339
:100DC000D0E0D093C216C093C11684E390E0909314
:100DD000C4168093C31685E390E09093C616809363
:100DE000C51681E090E09093C8168093C71661E025
:100DF00083E30E945A0361E08091C3160E945A0364
:100E000061E08091C5160E945A0361E08091C51689
:100E10000E942C03D093C216C093C116E1E8F6E1FC
:100E200081EC96E111928E179F07E1F7D0E0C0E0C8
:100E30008091C7169091C816C817D90774F540E07D
:100E40006FE0CE010E9497048091C7169091C8165A
:100E5000C817D9072CF447E06BE0CE010E94970435
:100E600040E069E0CE010E9497048091C7169091FE
:100E7000C816C817D9071CF4CE010E94F50480914A
:100E8000C7169091C816C817D9072CF440E06CE03B
:100E9000CE010E9497042196CBCFEBE4F4E181E7E9
:100EA00096E16AE04FE050E020ED37E0DF01762F79
:100EB0001D927A95E9F753834283358324833A96CA
:100EC0008E179F0799F7DF91CF910895CF93DF9306
:100ED00000D01F92CDB7DEB7789484B5826084BD10
:100EE00084B5816084BD85B5826085BD85B581602E
:100EF00085BD80916E00816080936E0010928100AC
:100F00008091810082608093810080918100816066
:100F10008093810080918000816080938000809127
:100F2000B10084608093B1008091B00081608093B3
:100F3000B000809191008260809391008091910037
:100F400081608093910080919000816080939000F7
:100F50008091A10082608093A1008091A1008160B6
:100F60008093A1008091A00081608093A000809177
:100F70002101826080932101809121018160809311
:100F800021018091200181608093200180917A006D
:100F9000846080937A0080917A00826080937A00E6
:100FA00080917A00816080937A0080917A008068D5
:100FB00080937A001092C100E091BE13F091BF13AC
:100FC00082E08083E091BA13F091BB131082E0912C
:100FD000BC13F091BD138FEC80831092C613E09187
:100FE000C213F091C31386E08083E091C013F091A7
:100FF000C113808180618083E091C013F091C1139F
:10100000808188608083E091C013F091C11380815A
:1010100080688083E091C013F091C11380818F7D3F
:1010200080838091C7169091C8161816190634F45B
:1010300041E06CE090E080E00E9497048091C71648
:101040009091C8161816190634F44FE06AE090E043
:1010500080E00E9497048091C7169091C8161816D8
:10106000190624F490E080E00E94F50425E932E1BD
:101070003A83298375E8E72E72E1F72E670189012B
:10108000F80180810E5F1F4F61E00E945A03F60154
:101090008081F2E0CF0ED11C61E00E945A0322E170
:1010A000053A120769F7E981FA8180813296FA835D
:1010B000E98361E00E942C03F7018081F2E0EF0EEA
:1010C000F11C60E00E942C0329813A81255A3241AB
:1010D00051F760E08FE20E945A0381E08093801212
:1010E00088EF92E10E942E0583E090E090931B131D
:1010F00080931A1382E390E090931D1380931C1346
:1011000088EC90E090931F1380931E1388EF92E178
:1011100001EC12E1F80111928F018E179F07D1F7B0
:1011200044E2642E712C56E0252E312C412C512C9A
:1011300060EEE62EF12C8091801281110DC287E3C2
:101140000E948B03892B09F488C180911A13909116
:101150001B1302970CF446C00E94000480902413D5
:1011600090902513A0902613B0902713AB01BC01DB
:10117000481959096A097B0980911C1390911D1324
:10118000092E000CAA0BBB0B84179507A607B707FF
:1011900048F588E30E940303019719F081E08093EA
:1011A000191388E30E9403030197E1F48091191356
:1011B0008823C1F080911A1390911B1382309105FE
:1011C0002CF0019790931B1380931A130E94000434
:1011D0006093241370932513809326139093271301
:1011E0001092191380911A1390911B1306970CF00B
:1011F00046C00E9400048090241390902513A09074
:101200002613B0902713AB01BC01481959096A098C
:101210007B0980911C1390911D13092E000CAA0BC1
:10122000BB0B84179507A607B70748F589E30E940B
:101230000303019719F081E08093181389E30E945A
:1012400003030197E1F4809118138823C1F0809182
:101250001A1390911B13863091052CF401969093EC
:101260001B1380931A130E9400046093241370933D
:1012700025138093261390932713109218130E941E
:10128000E710A20191010E943F11E1ECF2E11A8204
:1012900019822191211100C129813A81211531053D
:1012A00009F4DEC0A90141505109AAE0A49F9001B0
:1012B000A59F300D1124255B3B4EF901228133811E
:1012C0002C303105ECF4E981FA81EF53FD4E21E039
:1012D000208329813A81A29FF001A39FF00D112460
:1012E000E55BFB4E718360838FE090E093838283A4
:1012F00080ED97E09583848316821782108611868D
:1013000031ECC32E32E1D32E1A821982F60181917B
:101310006F01882369F08BE30E948B03E981FA81D6
:10132000E55BFB4E880F991F880F991F9583848377
:1013300029813A81265F3F4F3A8329832632324002
:1013400029F780E1E8EFF2E1A8E0B3E101900D9226
:101350008A95E1F780911A1390911B13019720E46D
:1013600030E0082E02C0359527950A94E2F7909157
:101370001413922B90931413B70102C075956795BF
:101380008A95E2F760931513209316136093171351
:101390008BE494E19C838B8381ECC82E82E1D82E70
:1013A000F60181916F01882309F449C0EB81FC812A
:1013B00082819381248135813A8329838680978035
:1013C000A084B184208131812150310940E450E072
:1013D000022E02C0559547950A94E2F78F30910589
:1013E00009F065C080910813482B409308130E94B0
:1013F0000004681979098A099B09E981FA814F017A
:10140000FF0FAA08BB0886169706A806B906B8F407
:10141000EB81FC81828193810197938382830E9477
:101420000004EB81FC8166837783808791878281CA
:1014300093818E3F9F4F1CF4F601319710822B81D0
:101440003C81265F3F4F3C832B83C016D10609F0B9
:10145000A7CF88E093E10E942E050E946B026BCE1D
:1014600021E02093C11270934C1460934B148FE0D1
:1014700090E090934E1480934D1480ED97E09093FC
:10148000501480934F1410925114109252141092D1
:1014900053141092541434CF49815A814F5F5F4FD7
:1014A0005A8349834733510509F0F3CE29CF8E3053
:1014B000910589F4C70102C0959587952A95E2F7B1
:1014C00090910813892B8093081380910913482B5E
:1014D000409309138CCF8F3F980789F4809116139E
:1014E000482B40931613C70102C0959587952A95FE
:1014F000E2F790911713892B8093171378CF8E3FC3
:101500007FEF970731F480911713482B40931713FF
:101510006ECFEDE0F0E0E81BF90BB70102C0759566
:1015200067952A95E2F79B01E85FFC4E3081322BEC
:101530003083EEE0F0E0E81BF90BE85FFC4E308111
:10154000432B4083EFE0F0E0E81BF90BE85FFC4E33
:101550008081282B20834BCF87E30E9403030197D0
:1015600049F4109280126AEF70E080E090E00E94EF
:10157000CD0373CF8FE20E9403036C019093AD13F0
:101580008093AC138AE30E948B039A8389839093A0
:10159000AB138093AA138091A8139091A91331E003
:1015A000C316D10409F089C30097B9F480E092E032
:1015B0000E94BD0588E293E10E940C0449815A8192
:1015C000BA01550F880B990B0E94CD030E947A0433
:1015D000D092A913C092A813C6CF81309105A9F467
:1015E00080E892E00E94BD0588E293E10E940C042D
:1015F000E981FA81BF01FF0F880B990B0E94CD038F
:101600000E947A0422E030E05FC082309105A9F4A4
:1016100080E093E00E94BD0580E092E00E940C040F
:1016200049815A81BA01550F880B990B0E94CD034D
:101630000E947A0463E070E063C083309105A9F4EE
:1016400080E893E00E94BD0580E892E00E940C04CF
:10165000E981FA81BF01FF0F880B990B0E94CD032E
:101660000E947A0424E030E02FC084309105A9F470
:1016700080E094E00E94BD0580E093E00E940C04AD
:1016800049815A81BA01550F880B990B0E94CD03ED
:101690000E947A0465E070E033C085309105C9F49A
:1016A00080E898E00E94BD0580E893E00E940C0469
:1016B000E981FA81BF01FF0F880B990B0E94CD03CE
:1016C0000E947A0426E030E03093A9132093A813F7
:1016D0004ACF86309105C9F480E894E00E94BD05A8
:1016E00080E094E00E940C0449815A81BA01550FB0
:1016F000880B990B0E94CD030E947A0467E070E08A
:101700007093A9136093A8132ECF87309105A9F485
:1017100080E897E00E94BD0580E898E00E940C04F4
:10172000E981FA81BF01FF0F880B990B0E94CD035D
:101730000E947A0488E090E087C288309105A9F47D
:1017400080E095E00E94BD0580E894E00E940C04D2
:1017500029813A81B901330F880B990B0E94CD037F
:101760000E947A0489E090E06FC289309105A9F463
:1017700080E895E00E94BD0580E897E00E940C0497
:1017800049815A81BA01550F880B990B0E94CD03EC
:101790000E947A048AE090E057C28A309105A9F449
:1017A00080E096E00E94BD0580E095E00E940C0478
:1017B000E981FA81BF01FF0F880B990B0E94CD03CD
:1017C0000E947A048BE090E03FC28B309105A9F42F
:1017D00080E896E00E94BD0580E895E00E940C0438
:1017E00029813A81B901330F880B990B0E94CD03EF
:1017F0000E947A048CE090E027C28C309105A9F415
:1018000080E097E00E94BD0580E096E00E940C0415
:1018100049815A81BA01550F880B990B0E94CD035B
:101820000E947A048DE090E00FC28D309105A9F4FA
:1018300080E897E00E94BD0580E896E00E940C04D5
:10184000E981FA81BF01FF0F880B990B0E94CD033C
:101850000E947A048EE090E0F7C18E309105A9F4E1
:1018600080E098E00E94BD0580E097E00E940C04B3
:1018700029813A81B901330F880B990B0E94CD035E
:101880000E947A048FE090E0DFC18F309105A9F4C7
:1018900080E898E00E94BD0580E897E00E940C0473
:1018A00049815A81BA01550F880B990B0E94CD03CB
:1018B0000E947A0480E190E0C7C180319105A9F4CB
:1018C00080E099E00E94BD0580E098E00E940C0451
:1018D000E981FA81BF01FF0F880B990B0E94CD03AC
:1018E0000E947A0481E190E0AFC181319105A9F4B1
:1018F00080E89DE00E94BD0580E898E00E940C040D
:1019000029813A81B901330F880B990B0E94CD03CD
:101910000E947A0482E190E097C182319105A9F496
:1019200080E899E00E94BD0580E099E00E940C04E7
:1019300049815A81BA01550F880B990B0E94CD033A
:101940000E947A0483E190E07FC183319105A9F47C
:1019500080E89AE00E94BD0580E89DE00E940C04AA
:10196000E981FA81BF01FF0F880B990B0E94CD031B
:101970000E947A0484E190E067C184319105A9F462
:1019800080E092E10E94BD0580E89AE00E940C048C
:1019900029813A81B901330F880B990B0E94CD033D
:1019A0000E947A0485E190E04FC185319105A9F448
:1019B00080E09BE00E94BD0580E09AE00E940C045C
:1019C00049815A81BA01550F880B990B0E94CD03AA
:1019D0000E947A0486E190E037C186319105A9F42E
:1019E00080E89EE00E94BD0580E092E10E940C0428
:1019F000E981FA81BF01FF0F880B990B0E94CD038B
:101A00000E947A0487E190E01FC187319105A9F413
:101A100080E89BE00E94BD0580E09BE00E940C04F2
:101A200029813A81B901330F880B990B0E94CD03AC
:101A30000E947A0488E190E007C188319105A9F4F9
:101A400080E89DE00E94BD0580E092E10E940C04C8
:101A500049815A81BA01550F880B990B0E94CD0319
:101A60000E947A0489E190E0EFC089319105A9F4E0
:101A700080E09CE00E94BD0580E89BE00E940C0491
:101A8000E981FA81BF01FF0F880B990B0E94CD03FA
:101A90000E947A048AE190E0D7C08A319105A9F4C6
:101AA00080E89CE00E94BD0580E89DE00E940C0457
:101AB00029813A81B901330F880B990B0E94CD031C
:101AC0000E947A048BE190E0BFC08B319105A9F4AC
:101AD00080E09DE00E94BD0580E09CE00E940C0437
:101AE00049815A81BA01550F880B990B0E94CD0389
:101AF0000E947A048CE190E0A7C08C319105A9F492
:101B000080E89DE00E94BD0580E89CE00E940C04F6
:101B1000E981FA81BF01FF0F880B990B0E94CD0369
:101B20000E947A048DE190E08FC08D319105A9F477
:101B300080E09EE00E94BD0580E09DE00E940C04D4
:101B400029813A81B901330F880B990B0E94CD038B
:101B50000E947A048EE190E077C08E319105A9F45D
:101B600080E89EE00E94BD0580E89DE00E940C0494
:101B700049815A81BA01550F880B990B0E94CD03F8
:101B80000E947A048FE190E05FC08F319105A9F443
:101B900080E09FE00E94BD0580E09EE00E940C0472
:101BA000E981FA81BF01FF0F880B990B0E94CD03D9
:101BB0000E947A0480E290E047C080329105A9F447
:101BC00080E89FE00E94BD0580E89EE00E940C0432
:101BD00029813A81B901330F880B990B0E94CD03FB
:101BE0000E947A0481E290E02FC081329105A9F42D
:101BF00080E090E10E94BD0580E09FE00E940C041F
:101C000049815A81BA01550F880B990B0E94CD0367
:101C10000E947A0482E290E017C082329105C9F4F2
:101C200080E890E10E94BD0580E89FE00E940C04DE
:101C3000E981FA81BF01FF0F880B990B0E94CD0348
:101C40000E947A0483E290E09093A9138093A813F2
:101C50008ACC83329105B9F480E091E10E94BD0500
:101C600080E090E10E940C0429813A81B901330F90
:101C7000880B990B0E94CD030E947A047092A913DD
:101C80006092A81370CC849709F06DCC80E092E14B
:101C90000E94BD0580E890E10E940C0449815A81B0
:101CA000BA01550F880B990B0E94CD030E947A044C
:101CB0001092A9131092A81356CC8497C1F488E20D
:101CC00093E10E94BD0580E092E10E940C04E9814D
:101CD000FA81BF01FF0F880B990B0E94CD030E9470
:101CE0007A0483E290E09093A9138093A8138091E3
:101CF000A8139091A9138332910579F480E891E1BA
:101D00000E94BD0580E091E10E940C0429813A8186
:101D1000B901330F880B990B79CF8232910579F491
:101D200080E092E10E94BD0580E890E10E940C04F1
:101D300049815A81BA01550F880B990B4FCF8132D7
:101D4000910539F480E091E10E94BD0580E090E1C9
:101D500025CF8032910579F480E890E10E94BD059D
:101D600080E89FE00E940C0429813A81B901330F79
:101D7000880B990B03CF8F31910579F480E090E1C6
:101D80000E94BD0580E09FE00E940C0449815A81B9
:101D9000BA01550F880B990BD9CE8E31910539F4C4
:101DA00080E89FE00E94BD0580E89EE0AFCE8D31C7
:101DB000910579F480E09FE00E94BD0580E09EE0FF
:101DC0000E940C0429813A81B901330F880B990BC9
:101DD0008DCE8C31910579F480E89EE00E94BD059E
:101DE00080E89DE00E940C0449815A81BA01550F98
:101DF000880B990B63CE8B31910539F480E09EE01E
:101E00000E94BD0580E09DE039CE8A31910579F4CC
:101E100080E89DE00E94BD0580E89CE00E940C04E3
:101E200029813A81B901330F880B990B17CE89317B
:101E3000910579F480E89CE00E94BD0580E89DE072
:101E40000E940C0449815A81BA01550F880B990BE5
:101E5000EDCD8831910539F480E09CE00E94BD050C
:101E600080E89BE0C3CD8731910579F480E89DE05F
:101E70000E94BD0580E89EE00E940C0429813A8101
:101E8000B901330F880B990BA1CD8631910579F4F7
:101E900080E89BE00E94BD0580E09BE00E940C046E
:101EA00049815A81BA01550F880B990B77CD85313D
:101EB000910539F480E89EE00E94BD0580E092E142
:101EC0004DCD8431910579F480E092E10E94BD0509
:101ED00080E89AE00E940C0429813A81B901330F0D
:101EE000880B990B2BCD8331910579F480E09AE032
:101EF0000E94BD0580E899E00E940C0449815A8146
:101F0000BA01550F880B990B01CD8231910539F437
:101F100080E89AE00E94BD0580E89DE0D7CC813141
:101F2000910579F480E899E00E94BD0580E099E090
:101F30000E940C0429813A81B901330F880B990B57
:101F4000B5CC8031910579F480E89DE00E94BD0513
:101F500080E898E00E940C0449815A81BA01550F2B
:101F6000880B990B8BCC8F30910539F480E099E088
:101F70000E94BD0580E098E061CC8E30910579F437
:101F800080E898E00E94BD0580E897E00E940C047C
:101F900029813A81B901330F880B990B3FCC8D30E1
:101FA000910579F480E098E00E94BD0580E097E01B
:101FB0000E940C0449815A81BA01550F880B990B74
:101FC00015CC8C30910539F480E897E00E94BD056E
:101FD00080E896E0EBCB8B30910579F480E097E0D8
:101FE0000E94BD0580E096E00E940C0429813A81A0
:101FF000B901330F880B990BC9CB8A30910579F45D
:1020000080E896E00E94BD0580E895E00E940C04FF
:1020100049815A81BA01550F880B990B9FCB8930A2
:10202000910539F480E096E00E94BD0580E095E0DE
:1020300075CB88309105C9F480E895E00E94BD0514
:1020400080E897E00E940C0429813A81B901330F9E
:10205000880B990B0E94CD030E947A0447E050E060
:102060005093A9134093A8137ECA8730910539F481
:1020700080E095E00E94BD0580E894E017CB8630B3
:10208000910539F480E897E00E94BD0580E898E06A
:10209000F5CA8530910539F480E894E00E94BD05C9
:1020A00080E094E0D3CA8430910539F480E898E068
:1020B0000E94BD0580E893E0B1CA8330910539F4F0
:1020C00080E094E00E94BD0580E093E08FCA8230FA
:1020D0009105A9F480E893E00E94BD0580E892E0B4
:1020E0000E940C0449815A81BA01550F880B990B43
:1020F0000E94CD030E947A0461E070E001CB813040
:10210000910579F480E093E00E94BD0580E092E0C3
:102110000E940C04E981FA81BF01FF0F880B990B23
:10212000C3CD892B09F01FCA80E892E00E94BD054B
:1021300088E293E197CD8F929F92AF92BF92CF9218
:10214000DF92EF92FF92CF93DF93EC016881798168
:102150008A819B81611571058105910521F464E2F5
:1021600079ED8BE597E02DE133EF41E050E00E94FF
:102170003F1149015A019B01AC01A7EAB1E40E9459
:102180005E116B017C01ACEEB4EFA50194010E94DD
:102190006C11C60ED71EE81EF91EF7FE06C081E0C0
:1021A000C81AD108E10880E8F80AC882D982EA8210
:1021B000FB82C701B6019F77DF91CF91FF90EF902F
:1021C000DF90CF90BF90AF909F908F9008958F92A7
:1021D0009F92AF92BF92CF92DF92EF92FF92609167
:1021E00081127091821280918312909184126115F4
:1021F00071058105910521F464E279ED8BE597E0A5
:102200002DE133EF41E050E00E943F1149015A01B6
:102210009B01AC01A7EAB1E40E945E116B017C0155
:10222000ACEEB4EFA50194010E946C11C60ED71E4E
:10223000E81EF91EF7FE06C081E0C81AD108E108C1
:1022400080E8F80AC0928112D0928212E092831242
:10225000F0928412C701B6019F77FF90EF90DF9054
:10226000CF90BF90AF909F908F9008956093811210
:102270007093821280938312909384120895052E96
:1022800097FB1EF400940E94561157FD07D00E9440
:10229000711107FC03D04EF40C94561150954095E3
:1022A000309521953F4F4F4F5F4F08959095809502
:1022B000709561957F4F8F4F9F4F08950E949311A6
:1022C000A59F900DB49F900DA49F800D911D11248A
:1022D0000895B7FF0C945E110E945E11821B930B50
:1022E0000895A1E21A2EAA1BBB1BFD010DC0AA1F57
:1022F000BB1FEE1FFF1FA217B307E407F50720F06F
:10230000A21BB30BE40BF50B661F771F881F991FE9
:102310001A9469F760957095809590959B01AC0132
:10232000BD01CF010895A29FB001B39FC001A39F3B
:10233000700D811D1124911DB29F700D811D1124FE
:10234000911D0895EE0FFF1F881F8BBF0790F69118
:10235000E02D1994F894FFCF000000000000000069
:10236000000000000000000000000000000000006D
:10237000000000000000000000000000000000005D
:10238000000000000000000000000000000000004D
:10239000000000000000000000000000000000003D
:1023A000000000000000000000000100010001002A
:1023B000010000000000000000000100010000001A
:1023C0000000010000000000000001000100010009
:1023D00001000000000000000000000000000000FC
:1023E00000000000000000000000010001000100EA
:1023F00001000000000000000000010001000000DA
:1024000000000100000000000000010001000100C8
:1024100001000000000000000000010001000000B9
:1024200000000000000000000000010001000000AA
:10243000000000000000000000000100010000009A
:10244000000000000000000000000000000000008C
:10245000000000000000000000000100010000007A
:10246000000000000000000000000100010000006A
:10247000000000000000000000000100010000005A
:10248000000000000000000000000000000000004C
:10249000000000000000000000000000000000003C
:1024A0000000000000000000000001000100010029
:1024B000010000000000000000000100000000001A
:1024C000000001000000000000000100000000000A
:1024D00000000100000000000000000000000000FB
:1024E00000000000000000000000010001000100E9
:1024F00001000000000000000000010000000000DA
:1025000000000100000000000000010000000000C9
:1025100000000100000000000000010001000100B7
:1025200001000000000000000000010000000100A8
:10253000000000000000000000000100000000009A
:10254000010000000000000000000000000000008A
:102550000000000000000000000001000100010078
:102560000100000000000000000001000000010068
:10257000000000000000000000000100000000005A
:10258000010000000000000000000000000000004A
:10259000000000000000000000000000000000003B
:1025A0000000000000000000000000000100010029
:1025B000000000000000000000000100000000001A
:1025C0000100000000000000000001000000000009
:1025D00001000000000000000000010001000100F7
:1025E00001000000000000000000010000000000E9
:1025F00001000000000000000000010000000000D9
:1026000001000000000000000000000000000000C9
:1026100000000000000000000000000000000000BA
:1026200000000000000000000000000001000100A8
:102630000100000000000000000001000000000098
:102640000000000000000000000001000000000089
:102650000000000000000000000001000000000079
:102660000000000000000000000001000000000069
:102670000000000000000000000000000100010058
:102680000100000000000000000000000000000049
:10269000000000000000000000000000000000003A
:1026A0000000000000000000000001000100010027
:1026B0000100010000000000000000000000010017
:1026C0000000000000000000000000000000010009
:1026D00000000000000000000000000000000000FA
:1026E00000000000000000000000010001000100E7
:1026F00001000100000000000000000000000100D7
:1027000000000000000000000000000000000100C8
:1027100000000000000000000000000000000100B8
:1027200000000000000000000000000000000100A8
:102730000000000000000000000000000000010098
:102740000000000000000000000000000000000089
:102750000000000000000000000000000000010078
:102760000000000000000000000000000000010068
:102770000000000000000000000000000000010058
:102780000000000000000000000000000000000049
:102790000000000000000000000000000000000039
:1027A0000000000000000000000001000100010026
:1027B0000100010000000000000000000000010016
:1027C0000000000000000000000000000000010008
:1027D00000000000000000000000000000000000F9
:1027E00000000000000000000000010001000100E6
:1027F00001000100000000000000000000000100D6
:1028000000000000000000000000000000000100C7
:1028100000000000000000000000000000000100B7
:1028200000000000000000000000000000000100A7
:102830000000000000000000000001000100010095
:102840000100010000000000000000000000000086
:102850000000000000000000000000000000010077
:102860000000000000000000000000000000010067
:102870000000000000000000000001000100010055
:102880000100010000000000000000000000000046
:102890000000000000000000000000000000000038
:1028A0000000000000000000000000000100010026
:1028B0000100000000000000000001000000000016
:1028C0000000000000000000000001000000000007
:1028D00000000000000000000000000000000000F8
:1028E00000000000000000000000000001000100E6
:1028F00001000000000000000000010000000000D6
:1029000000000000000000000000010000000000C6
:1029100000000000000000000000010000000000B6
:1029200000000000000000000000010000000000A6
:102930000000000000000000000000000100010095
:102940000100000000000000000000000000000086
:102950000000000000000000000001000000000076
:102960000000000000000000000001000000000066
:102970000000000000000000000000000100010055
:102980000100000000000000000000000000000046
:102990000000000000000000000000000000000037
:1029A0000000000000000000000000000100010025
:1029B0000000000000000000000001000000000016
:1029C0000100000000000000000001000000000005
:1029D00001000000000000000000000000000000F6
:1029E00000000000000000000000000001000100E5
:1029F00000000000000000000000010000000000D6
:102A000001000000000000000000010000000000C4
:102A100001000000000000000000010001000100B2
:102A200001000000000000000000010000000000A4
:102A30000100000000000000000001000000000094
:102A40000100000000000000000000000000000085
:102A50000000000000000000000001000100010073
:102A60000100000000000000000001000000000064
:102A70000100000000000000000001000000000054
:102A80000100000000000000000000000000000045
:102A90000000000000000000000000000000000036
:102AA0000000000000000000000000000100010024
:102AB0000000000000000000000000000000010015
:102AC0000000000000000000000000000000010005
:102AD00000000000000000000000000000000100F5
:102AE00000000000000000000000000000000100E5
:102AF00000000000000000000000000001000100D4
:102B000001000000000000000000000000000000C4
:102B100000000000000000000000000000000000B5
:102B200000000000000000000000000000000000A5
:102B30000000000000000000000000000100010093
:102B40000100010000000000000000000000000083
:102B50000000000000000000000000000000000075
:102B60000000000000000000000000000000000065
:102B70000000000000000000000000000000000055
:102B80000000000000000000000000000000000045
:102B90000000000000000000000000000000000035
:102BA0000000000000000000000000000000000025
:102BB0000000000000000000000001000100010012
:102BC0000100000000000000000000000000000004
:102BD00000000100000000000000000000000000F4
:102BE00000000000000000000000000000000000E5
:102BF00000000000000000000000000000000000D5
:102C000000000000000000000000000001000100C2
:102C100001000100000000000000000000000000B2
:102C200000000000000000000000000000000000A4
:102C30000000000000000000000000000000000094
:102C40000000000000000000000000000000000084
:102C50000000000000000000000000000100010072
:102C60000100000000000000000001000000000062
:102C70000000000000000000000001000100010051
:102C80000100010000000000000000000000000042
:102C90000000000000000000000000000000000034
:102CA0000000000000000000000000000100010022
:102CB0000100000000000000000001000000000012
:102CC0000100010000000000000001000000010000
:102CD00000000100000000000000010000000100F1
:102CE00000000100000000000000010001000000E1
:102CF00000000100000000000000000001000100D1
:102D000001000000000000000000000000000000C2
:102D100000000000000000000000000000000000B3
:102D200000000000000000000000000001000100A1
:102D30000000000000000000000000000000010092
:102D40000000000000000000000000000000010082
:102D50000000000000000000000000000000010072
:102D60000000000000000000000000000000010062
:102D70000000000000000000000000000100010051
:102D80000100000000000000000000000000000042
:102D90000000000000000000000000000000000033
:102DA0000000000000000000000000000100010021
:102DB0000100010001000000000000000000000010
:102DC0000000000001000000000000000000000002
:102DD00000000100000000000000000000000000F2
:102DE00000000000000000000000000001000100E1
:102DF00001000100010000000000000000000000D0
:102E000000000000010000000000000000000000C1
:102E100000000100000000000000000000000000B1
:102E200001000000000000000000000000000100A0
:102E30000000000000000000000000000100000091
:102E40000000000000000000000000000000000082
:102E50000000000000000000000000000000000072
:102E60000100000000000000000000000000010060
:102E70000000000000000000000000000100000051
:102E80000000000000000000000000000000000042
:102E90000000000000000000000000000000000032
:102EA0000000000000000000000000000100010020
:102EB0000000000000000000000000000000010011
:102EC0000000000000000000000000000000010001
:102ED00000000000000000000000000000000000F2
:102EE00000000000000000000000000001000100E0
:102EF00000000000000000000000000000000100D1
:102F000000000000000000000000000000000100C0
:102F100000000000000000000000000000000100B0
:102F200000000000000000000000000000000100A0
:102F3000000000000000000000000000010001008F
:102F40000100000000000000000000000000000080
:102F50000000000000000000000000000000010070
:102F60000000000000000000000000000000010060
:102F7000000000000000000000000000010001004F
:102F80000100000000000000000000000000000040
:102F90000000000000000000000000000000000031
:102FA000000000000000000000000000010001001F
:102FB000010000000000000000000100000000000F
:102FC00001000100000000000000010000000100FD
:102FD00000000100000000000000000000000000F0
:102FE00000000000000000000000000000000000E1
:102FF00000000000000000000000000001000100CF
:1030000001000000000000000000010000000000BE
:1030100001000100000000000000010000000100AC
:10302000000001000000000000000100010000009D
:10303000000001000000000000000000010001008D
:10304000010000000000000000000000000000007F
:10305000000000000000000000000100000001006E
:10306000000001000000000000000100010000005D
:10307000000001000000000000000000010001004D
:10308000010000000000000000000000000000003F
:103090000000000000000000000000000000000030
:1030A000000000000000000000000000010001001E
:1030B000010001000000000000000000000000000E
:1030C00000000000010000000000000000000000FF
:1030D00001000100000000000000000000000000EE
:1030E00000000000000000000000000001000100DE
:1030F00001000100000000000000000000000000CE
:1031000000000000010000000000000000000000BE
:1031100001000100000000000000000000000000AD
:10312000000000000100000000000000000000009E
:10313000000000000100000000000000010001008C
:10314000010001000100000000000000000000007C
:10315000000000000000000000000000000000006F
:10316000000000000100000000000000000000005E
:10317000000000000100000000000000010001004C
:10318000010001000100000000000000000000003C
:10319000000000000000000000000000000000002F
:1031A000000000000000000000000000010001001D
:1031B000010000000000000000000100000000000D
:1031C00000000100000000000000000001000100FC
:1031D00001000100000000000000000000000000ED
:1031E00000000000000000000000000001000100DD
:1031F00001000000000000000000010000000000CD
:1032000000000100000000000000000001000100BB
:1032100001000100000000000000000000000000AC
:10322000000001000000000000000000000000009D
:10323000000001000000000000000000010001008B
:10324000010000000000000000000000000000007D
:10325000000000000000000000000000000000006E
:10326000000001000000000000000000000000005D
:10327000000001000000000000000000010001004B
:10328000010000000000000000000000000000003D
:10329000000000000000000000000000000000002E
:1032A000000000000000000000000100010001001B
:1032B000010000000000000000000000000000000D
:1032C00000000100000000000000000001000100FB
:1032D00001000000000000000000010000000000EC
:1032E00000000000000000000000010001000100DB
:1032F00001000100000000000000000000000000CC
:1033000000000000000000000000000000000000BD
:1033100000000000000000000000000000000000AD
:10332000000000000000000000000000000000009D
:10333000000000000000000000000000000000008D
:10334000000000000000000000000000000000007D
:10335000000000000000000000000000000000006D
:10336000000000000000000000000000000000005D
:10337000000000000000000000000100010001004A
:10338000010000000000000000000000000000003C
:10339000000001000000000000000000010001002A
:1033A000010000000000000000000100000000001B
:1033B000000000000000000000000100010001000A
:1033C00001000100000000000000000000000000FB
:1033D00000000000000000000101000000200021AA
:1033E00000220023002400250026002700160017D5
:1033F00000180019001A001B001C001D000000002E
:1034000000FE01680195014B02C601A401B801004C
:020000040003F7
:10E000000D9489F10D94B2F10D94B2F10D94B2F129
:10E010000D94B2F10D94B2F10D94B2F10D94B2F1F0
:10E020000D94B2F10D94B2F10D94B2F10D94B2F1E0
:10E030000D94B2F10D94B2F10D94B2F10D94B2F1D0
:10E040000D94B2F10D94B2F10D94B2F10D94B2F1C0
:10E050000D94B2F10D94B2F10D94B2F10D94B2F1B0
:10E060000D94B2F10D94B2F10D94B2F10D94B2F1A0
:10E070000D94B2F10D94B2F10D94B2F10D94B2F190
:10E080000D94B2F10D94B2F10D94B2F10D94B2F180
:10E090000D94B2F10D94B2F10D94B2F10D94B2F170
:10E0A0000D94B2F10D94B2F10D94B2F10D94B2F160
:10E0B0000D94B2F10D94B2F10D94B2F10D94B2F150
:10E0C0000D94B2F10D94B2F10D94B2F10D94B2F140
:10E0D0000D94B2F10D94B2F10D94B2F10D94B2F130
:10E0E0000D94B2F141546D656761323536300041AF
:10E0F000726475696E6F206578706C6F72657220DE
:10E1000073746B3530305632206279204D4C530099
:10E11000426F6F746C6F616465723E004875683F52
:10E1200000436F6D70696C6564206F6E203D200048
:10E130004350552054797065202020203D20005FF9
:10E140005F4156525F415243485F5F3D2000415658
:10E1500052204C696243205665723D20004743437C
:10E160002056657273696F6E203D20004350552024
:10E1700049442020202020203D20004C6F7720663D
:10E18000757365202020203D20004869676820665F
:10E190007573652020203D200045787420667573D6
:10E1A00065202020203D20004C6F636B2066757336
:10E1B000652020203D20004D617220203720323024
:10E1C000313300312E362E3800342E332E350056A2
:10E1D00023202020414444522020206F7020636F70
:10E1E00064652020202020696E73747275637469E1
:10E1F0006F6E2061646472202020496E74657272B3
:10E20000757074006E6F20766563746F7200726A49
:10E210006D702020006A6D70200057686174207056
:10E220006F72743A00506F7274206E6F7420737541
:10E2300070706F72746564004D7573742062652030
:10E2400061206C6574746572002000577269747483
:10E25000696E672045450052656164696E672045B7
:10E26000450045452065727220636E743D00504F35
:10E27000525400303D5A65726F2061646472003FF1
:10E280003D43505520737461747300403D454550C3
:10E29000524F4D207465737400423D426C696E6B41
:10E2A000204C454400453D44756D70204545505215
:10E2B0004F4D00463D44756D7020464C415348001B
:10E2C000483D48656C70004C3D4C69737420492F83
:10E2D0004F20506F72747300513D51756974005234
:10E2E0003D44756D702052414D00563D73686F7707
:10E2F00020696E7465727275707420566563746FF0
:10E30000727300593D506F727420626C696E6B00BD
:10E310002A0011241FBECFEFD1E2DEBFCDBF01E046
:10E320000CBF12E0A0E0B2E0EEE1FDEF03E00BBFB6
:10E3300002C007900D92A030B107D9F712E0A0E01B
:10E34000B2E001C01D92AE30B107E1F70F9460F367
:10E350000D948DFE01E20EBF0FEF0DBF11241FBE05
:10E360000D9460F30D9400F020E030E040ED57E0B4
:10E3700005C0FA013197F1F72F5F3F4F2817390792
:10E38000C0F308959C01260F311DC901A0E0B0E043
:10E390002F5F3F4FABBFFC018791882361F08093D3
:10E3A000C6008091C00086FFFCCF8091C0008064D1
:10E3B0008093C000EACF08958DE08093C6008091DD
:10E3C000C00086FFFCCF8091C00080648093C000B5
:10E3D0008AE08093C6008091C00086FFFCCF8091C8
:10E3E000C00080648093C00008950F94C2F10F9420
:10E3F000DCF10895FC019081992359F09093C600B7
:10E400008091C00086FFFCCF8091C0008064809323
:10E41000C0003196992379F70895282F982F929567
:10E420009F70892F805D8A3308F0895F8093C600D2
:10E430008091C00086FFFCCF8091C00080648093F3
:10E44000C000822F8F70982F905D9A3308F0995FEB
:10E450009093C6008091C00086FFFCCF8091C000E1
:10E4600080648093C00008959C01FB01853691056E
:10E470001CF46330710594F0C90164E670E00F94F8
:10E480002EFE605D7F4F6093C6008091C00086FFC6
:10E49000FCCF8091C00080648093C0002B30310598
:10E4A00014F43297B4F0C90164E670E00F942EFEC4
:10E4B0006AE070E00F942EFE605D7F4F6093C600AF
:10E4C0008091C00086FFFCCF8091C0008064809363
:10E4D000C000C9016AE070E00F942EFEC0968093E0
:10E4E000C6008091C00086FFFCCF8091C000806490
:10E4F0008093C00008951F93182F8EE692EE60E07F
:10E500000F94C2F11093C6008091C00086FFFCCF2B
:10E510008091C00080648093C0000F94DCF11F9153
:10E5200008952F923F924F925F926F927F928F92B7
:10E530009F92AF92BF92CF92DF92EF92FF920F9392
:10E540001F93DF93CF93CDB7DEB762970FB6F894E2
:10E55000DEBF0FBECDBF382E622ECA01DB015C01CB
:10E560006D01772420E2222E2E010894411C511CBB
:10E570008BC081E0A81680E0B80681E0C80680E084
:10E58000D80628F0C601AA27BB270F940DF2BB2797
:10E59000AD2D9C2D8B2D0F940DF28A2D0F940DF225
:10E5A0002092C6008091C00086FFFCCF8091C00001
:10E5B00080648093C0009DE29093C6008091C0006B
:10E5C00086FFFCCF8091C00080648093C0002092C1
:10E5D000C6008091C00086FFFCCF8091C00080649F
:10E5E0008093C00019828601750188249924A1E0D6
:10E5F0003A1651F03A1620F0B2E03B1661F409C029
:10E600000BBFF701779007C0C7010F9477FE782EF4
:10E6100002C0F7017080872D0F940DF22092C60082
:10E620008091C00086FFFCCF8091C0008064809301
:10E63000C000872D8052F401EF70F0708F3520F408
:10E64000E40DF51D708204C0E40DF51D8EE280839B
:10E650000894E11CF11C011D111D0894811C911CE2
:10E6600090E18916910409F0C2CF80E190E0A0E02A
:10E67000B0E0A80EB91ECA1EDB1E198AC2010F9493
:10E68000FAF10F94DCF16A94662009F072CF629679
:10E690000FB6F894DEBF0FBECDBFCF91DF911F91B3
:10E6A0000F91FF90EF90DF90CF90BF90AF909F9031
:10E6B0008F907F906F905F904F903F902F90089534
:10E6C0002F923F924F925F926F927F928F929F9282
:10E6D000AF92BF92CF92DF92EF92FF920F931F9370
:10E6E000DF93CF93CDB7DEB7CD53D1400FB6F894BB
:10E6F000DEBF0FBECDBF01E20EBF0FEF0DBF94B75F
:10E70000F894A89514BE80916000886180936000A1
:10E7100010926000789493FF05C0E0910002F091A0
:10E7200001021995279A2F9A8091C00082608093E8
:10E73000C00080E18093C40088E18093C1000000A4
:10E74000EE24FF24870144E0A42EB12CCC24DD2448
:10E7500024C0C5010197F1F70894E11CF11C011DCB
:10E76000111D21E2E2162EE4F20620E0020720E06D
:10E77000120718F031E0C32ED12CC801B70127ECE5
:10E780003BE140E050E00F9441FE611571058105C9
:10E79000910519F485B1805885B98091C00087FD35
:10E7A00003C0C114D104A9F2A6014F5F5F4FC25E3E
:10E7B000DE4F59834883CE51D140C25EDE4F8881FF
:10E7C0009981CE51D140019711F00D9410FEC05D9A
:10E7D000DE4F19821882C053D14060E0C15DDE4F28
:10E7E0001882CF52D14088249924C35DDE4F19820C
:10E7F0001882CD52D140C05EDE4F188219821A8233
:10E800001B82C052D140CE5CDE4F188219821A8220
:10E810001B82C253D140EE24FF2487010BBFF701B6
:10E8200007911691C45CDE4F19830883CC53D14005
:10E830000D940BFEC25EDE4F28813981CE51D1404E
:10E840002130310509F52091C600C25EDE4F1982E4
:10E850001882CE51D14022C02F5F3F4F4F4F5F4FA4
:10E86000213082E138078AE7480780E0580780F0C6
:10E87000C45CDE4FE881F981CC53D140EF5FFF4F9C
:10E8800019F0EE27FF27099420E030E040E050E047
:10E890008091C00087FFE0CF2091C600C35DDE4FAE
:10E8A00048815981CD52D1404F5F5F4FC35DDE4FEC
:10E8B00059834883CD52D140213209F063C64A3092
:10E8C000510508F05FC60894811C911C53E0851621
:10E8D000910409F059C600E010E018C081E280936D
:10E8E000C6008091C00086FFFCCF8091C00080648C
:10E8F0008093C0002F5F3F4F2931310579F70F9486
:10E90000DCF10F5F1F4F0530110519F020E030E0FA
:10E91000E5CF10920A0210920B0210920C02109294
:10E920000D02109206021092070210920802109235
:10E930000902109202021092030210920402109235
:10E9400005028FEE90EE60E00F94F5F180E191EE1C
:10E9500060E00F94C2F18091C00087FFFCCF9091DE
:10E96000C600903608F09F759032B8F09093C600BC
:10E970008091C00086FFFCCF8091C00080648093AE
:10E98000C000A0E2A093C6008091C00086FFFCCF2B
:10E990008091C00080648093C000983409F4D7C18E
:10E9A0009934B8F4923409F459C1933458F490333B
:10E9B00019F1903308F4E3C59F33A1F1903409F0C5
:10E9C000DEC5BDC0953409F470C1963409F0D7C5D1
:10E9D00098C1923509F42BC2933538F49C3409F46C
:10E9E000F5C1913509F0CBC518C2963509F445C279
:10E9F000993509F0C4C567C483E792EE62E00F94CD
:10EA0000F5F110920602109207021092080210927D
:10EA1000090210920A0210920B0210920C0210923C
:10EA20000D0213C18FE792EE62E00F94F5F18FEEC5
:10EA300090EE60E00F94F5F181E291EE60E00F94CA
:10EA4000C2F187EB91EE60E00F94F5F180E391EE77
:10EA500060E00F94C2F184EE90EE60E00F94F5F167
:10EA60008FE391EE60E00F94C2F186E090E061E008
:10EA700070E00F9434F20F94DCF18DE591EE60E0DC
:10EA80000F94C2F189EC91EE60E00F94F5F18EE401
:10EA900091EE60E00F94C2F183EC91EE60E00F9490
:10EAA000F5F18CE691EE60E00F94C2F18EE10F94E7
:10EAB0000DF288E90F940DF281E00F940DF20F949E
:10EAC000DCF18BE791EE60E00F94C2F119E0E0E039
:10EAD000F0E010935700E4918E2F0F940DF20F94F5
:10EAE000DCF18AE891EE60E00F94C2F1E3E0F0E03F
:10EAF00010935700E4918E2F0F940DF20F94DCF1D8
:10EB000089E991EE60E00F94C2F1E2E0F0E0109349
:10EB10005700E4918E2F0F940DF20F94DCF188EAE8
:10EB200091EE60E00F94C2F1E1E0F0E01093570045
:10EB30001491812F0F940DF20F94DCF107CF8BE825
:10EB400092EE62E00F94F5F18BE492EE60E00F94A8
:10EB5000F5F10F94DCF100E010E019C0C8016F2D51
:10EB60000F947FFEFF2031F489E492EE60E00F9471
:10EB7000C2F10BC0F092C6008091C00086FFFCCFAE
:10EB80008091C00080648093C0000F5F1F4FC80158
:10EB900081519F41A0E0B0E0ABBFFC01F790BAE229
:10EBA000FB1621F0E2E000301E07C1F60F94DCF105
:10EBB0000F94DCF187E592EE60E00F94F5F10F948D
:10EBC000DCF1CC24DD2400E010E01EC0C8010F946D
:10EBD00077FEF82E882331F489E492EE60E00F94FA
:10EBE000C2F10BC08093C6008091C00086FFFCCFAD
:10EBF0008091C00080648093C000FE1419F00894D6
:10EC0000C11CD11C0F5F1F4FC80181519F41A0E063
:10EC1000B0E0ABBFFC01E790FAE2EF1621F022E092
:10EC20000030120799F60F94DCF10F94DCF182E6C4
:10EC300092EE60E00F94C2F1C60161E070E00F94C3
:10EC400034F20F94DCF10F94DCF110920202109276
:10EC50000302109204021092050278CE89E992EE26
:10EC600062E00F94F5F1279A2F9A16C02F9880E052
:10EC700090E0E0EDF7E03197F1F7019684369105E9
:10EC8000C1F72F9A80E090E0E0EDF7E03197F1F7DF
:10EC9000019684369105C1F78091C00087FFE6CFC9
:10ECA0008091C00087FFFCCF64C485EA92EE62E0E9
:10ECB0000F94F5F140910202509103026091040219
:10ECC0007091050281E020E10F9491F2809102029F
:10ECD00090910302A0910402B091050280509F4FD1
:10ECE000AF4FBF4F8093020290930302A0930402A0
:10ECF000B093050280509041A040B04008F426CE69
:10ED0000A4CF83EB92EE62E00F94F5F140910602FE
:10ED100050910702609108027091090280E020E1A1
:10ED20000F9491F28091060290910702A09108023F
:10ED3000B091090280509F4FAF4FBF4F80930602A2
:10ED400090930702A0930802B0930902FFCD80ECD4
:10ED500092EE62E00F94F5F183E792EE60E00F949B
:10ED6000F5F18FE792EE60E00F94F5F18BE892EE0B
:10ED700060E00F94F5F189E992EE60E00F94F5F10F
:10ED800085EA92EE60E00F94F5F183EB92EE60E09D
:10ED90000F94F5F180EC92EE60E00F94F5F187ECC2
:10EDA00092EE60E00F94F5F188ED92EE60E00F9442
:10EDB000F5F18FED92EE60E00F94F5F18AEE92EEB0
:10EDC00060E00F94F5F183E093EEBDCD87EC92EE19
:10EDD00062E00F94F5F181E40F947BF282E40F94EA
:10EDE0007BF283E40F947BF284E40F947BF285E45E
:10EDF0000F947BF286E40F947BF287E40F947BF20E
:10EE000088E40F947BF28AE40F947BF28BE40F94F6
:10EE10007BF28CE40F947BF299CD88ED92EE62E068
:10EE20000F94F5F1772473948824992409C48FED05
:10EE300092EE62E00F94F5F140910A0250910B02BC
:10EE400060910C0270910D0282E020E10F9491F22A
:10EE500080910A0290910B02A0910C02B0910D02D8
:10EE600080509F4FAF4FBF4F80930A0290930B0289
:10EE7000A0930C02B0930D0269CD8AEE92EE62E08F
:10EE80000F94F5F184EE90EE60E00F94F5F18FECC5
:10EE900091EE60E00F94F5F1662477244301CC5D98
:10EEA000DE4F19821882C452D140D401C301B695F5
:10EEB000A79597958795CA5DDE4F88839983AA8326
:10EEC000BB83C652D140CC5DDE4FA881B981C4520C
:10EED000D1401196CC5DDE4FB983A883C452D14096
:10EEE000CD0162E070E00F9434F2B0E2B093C6005E
:10EEF0008091C00086FFFCCF8091C0008064809329
:10EF0000C000EDE2E093C6008091C00086FFFCCF18
:10EF10008091C00080648093C000F0E2F093C6004E
:10EF20008091C00086FFFCCF8091C00080648093F8
:10EF3000C000CA5DDE4FE880F9800A811B81C6529D
:10EF4000D140BB27A12F902F8F2D0F940DF2CA5DBA
:10EF5000DE4F8881C652D1400F940DF2B0E2FB2EF5
:10EF6000F092C6008091C00086FFFCCF8091C00067
:10EF700080648093C0000DE30093C6008091C000C0
:10EF800086FFFCCF8091C00080648093C00010E2B7
:10EF90001093C6008091C00086FFFCCF8091C00016
:10EFA00080648093C0008BBEF3012791C65DDE4F65
:10EFB0002883CA52D140A22EBB24CC24DD2408943D
:10EFC000611C711C811C911C8BBEF3018791282E42
:10EFD0003324442455240894611C711C811C911C09
:10EFE0008BBEF3013791C55DDE4F3883CB52D140E4
:10EFF0000894611C711C811C911C8BBEF30147910C
:10F00000C45DDE4F4883CC52D140ADEFEA2EAFEF66
:10F01000FA2EAFEF0A2FAFEF1A2F6E0C7F1C801E57
:10F02000911E142D032DF22CEE24EA0CFB1C0C1D5A
:10F030001D1D0F940DF220E22093C6008091C000A8
:10F0400086FFFCCF8091C00080648093C000C65DC5
:10F05000DE4F8881CA52D1400F940DF230E23093D6
:10F06000C6008091C00086FFFCCF8091C000806404
:10F070008093C000C45DDE4F8881CC52D1400F9494
:10F080000DF240E24093C6008091C00086FFFCCFA5
:10F090008091C00080648093C000C55DDE4F888190
:10F0A000CB52D1400F940DF250E25093C6008091A4
:10F0B000C00086FFFCCF8091C00080648093C000B8
:10F0C0008FEFE8168FEFF80680E0080780E018075A
:10F0D00031F484E092EE60E00F94C2F1DFC0D80119
:10F0E000C7018070907CA070B0708050904CA040A0
:10F0F000B040D1F52FEF3FE340E050E0E222F322B1
:10F1000004231523CA5DDE4FA880B980CA80DB8046
:10F11000C652D140AE0CBF1CC01ED11EAA0CBB1CD7
:10F12000CC1CDD1C8EE092EE60E00F94C2F1BB2798
:10F13000A12F902F8F2D0F940DF28E2D0F940DF285
:10F1400030E23093C6008091C00086FFFCCF8091F2
:10F15000C00080648093C0004EE34093C60080915D
:10F16000C00086FFFCCF87C08EE09EEFA0E0B0E03D
:10F17000E822F9220A231B239CE0E91694E9F90608
:10F1800090E0090790E0190709F088C0C45DDE4FE0
:10F19000A881CC52D140EA2EFF2400E010E0102FCD
:10F1A0000F2DFE2CEE24C55DDE4FB881CB52D14031
:10F1B000EB0EF11C011D111DD601C501817090706F
:10F1C000A070B070DC0199278827E80EF91E0A1F8D
:10F1D0001B1F20EF30E040E050E0A222B322C42207
:10F1E000D52241E1AA0CBB1CCC1CDD1C4A95D1F7F1
:10F1F000EA0CFB1C0C1D1D1D81E090E0A0E0B0E0BE
:10F20000282239224A225B2235E1220C331C441C7D
:10F21000551C3A95D1F7E20CF31C041D151D57013E
:10F220006801AA0CBB1CCC1CDD1C85E192EE60E0E1
:10F230000F94C2F1C801AA27BB270F940DF2BB2778
:10F24000A12F902F8F2D0F940DF28E2D0F940DF274
:10F2500090E29093C6008091C00086FFFCCF809121
:10F26000C00080648093C000AEE3A093C60080918C
:10F27000C00086FFFCCF8091C00080648093C000F6
:10F28000C601AA27BB270F940DF2BB27AD2D9C2DDD
:10F290008B2D0F940DF28A2D0F940DF20F94DCF14B
:10F2A000CC5DDE4FE881F981C452D140F99709F471
:10F2B0004DCBF4E0EF2EF12C012D112D6E0C7F1CA7
:10F2C000801E911EF2CD83E093EE62E00F94F5F183
:10F2D0008AE192EE60E00F94C2F18091C00087FF56
:10F2E000FCCF1091C6001F751093C6008091C0001E
:10F2F00086FFFCCF8091C00080648093C0000F9493
:10F30000DCF1812F81548A3108F036C1163409F4BA
:10F3100095C0173490F4133409F44EC0143430F40B
:10F320001134F1F0123409F01DC130C0143409F465
:10F3300059C0153409F016C16BC01A3409F4C4C0A1
:10F340001B3438F4173409F48FC0183409F00AC19B
:10F35000A1C01B3409F4D2C01C3409F003C1E8C0B9
:10F360008FEF81B90DC082B1809582B980E090E0C5
:10F37000E0EDF7E03197F1F70196883C9105C1F790
:10F380008091C00087FFEFCF12B8EFC08FEF84B934
:10F390000DC085B1809585B980E090E0E0EDF7E0A3
:10F3A0003197F1F70196883C9105C1F78091C00033
:10F3B00087FFEFCF15B8D9C08FEF87B90DC088B1DF
:10F3C000809588B980E090E0E0EDF7E03197F1F7C3
:10F3D0000196883C9105C1F78091C00087FFEFCF6F
:10F3E00018B8C3C08FEF8AB90DC08BB180958BB9A7
:10F3F00080E090E0E0EDF7E03197F1F70196883C8E
:10F400009105C1F78091C00087FFEFCF1BB8ADC059
:10F410008FEF8DB90DC08EB180958EB980E090E0F0
:10F42000E0EDF7E03197F1F70196883C9105C1F7DF
:10F430008091C00087FFEFCF1EB897C08FEF80BBD1
:10F440000DC081B3809581BB80E090E0E0EDF7E0F6
:10F450003197F1F70196883C9105C1F78091C00082
:10F4600087FFEFCF11BA81C08FEF83BB0DC084B38C
:10F47000809584BB80E090E0E0EDF7E03197F1F714
:10F480000196883C9105C1F78091C00087FFEFCFBE
:10F4900014BA6BC08FEF809301010FC080910201FD
:10F4A00080958093020180E090E0E0EDF7E03197F5
:10F4B000F1F70196883C9105C1F78091C00087FF64
:10F4C000EDCF1092020151C08FEF809304010FC065
:10F4D0008091050180958093050180E090E0E0ED4A
:10F4E000F7E03197F1F70196883C9105C1F78091DB
:10F4F000C00087FFEDCF1092050137C08FEF8093DA
:10F5000007010FC08091080180958093080180E079
:10F5100090E0E0EDF7E03197F1F70196883C910536
:10F52000C1F78091C00087FFEDCF109208011DC088
:10F530008FEF80930A010FC080910B01809580931B
:10F540000B0180E090E0E0EDF7E03197F1F70196F4
:10F55000883C9105C1F78091C00087FFEDCF1092E4
:10F560000B0103C085E292EEEEC98091C00087FFD7
:10F57000FCCF8091C600EAC988E392EEE4C98CE131
:10F5800091EEE1C988249924933011F1943028F444
:10F59000913089F09230B8F408C0953061F195301F
:10F5A000F0F0963009F048C043C02B3109F042C951
:10F5B00091E06BE13FC96227C15DDE4F2883CF52E6
:10F5C000D14092E037C9B22FA0E0622793E032C960
:10F5D000822F90E0A82BB92B622794E02BC92E3004
:10F5E00009F039C3622795E0C05DDE4F19821882A9
:10F5F000C053D1401FC9E1E0F0E0EC0FFD1FC05D3A
:10F60000DE4F08811981C053D140E00FF11F2083E4
:10F610000F5F1F4FC05DDE4F19830883C053D14079
:10F6200062270A171B0709F005C9D80196E002C92D
:10F63000261709F010C303C0973009F0FBC87724E0
:10F640009981933109F412C19431C8F4963009F4C8
:10F65000D8C0973050F4923009F406C1933009F4C1
:10F660006DC0913009F059C253C0913109F477C08F
:10F67000923108F0BBC0903109F04FC2F5C098310B
:10F6800009F487C0993150F4953109F4EFC09531F0
:10F6900008F4C6C1963109F040C2C2C19A3109F4DA
:10F6A0006CC09A3108F491C09B3109F45BC09D3164
:10F6B00009F033C29D81903359F48F81882311F46E
:10F6C0009EE11CC0813011F091E018C098E916C08D
:10F6D000892F807591F0903539F4E0E0F0E089E011
:10F6E0008093570094910AC0983539F4E3E0F0E034
:10F6F00089E080935700949101C090E01A821B82A8
:10F700008D818C831D829E831F8227E030E009C299
:10F710001A8288E08B8381E48C8386E58D8382E581
:10F720008E8389E48F8383E5888780E589878FE5E9
:10F730008A8782E38B872BE030E0F3C18A818139AD
:10F7400041F0823941F0803911F48FE005C080E04A
:10F7500003C082E001C08AE01A828B8344C0772410
:10F76000739482C08D81882311F48EE12CC0813086
:10F7700011F081E028C088E926C01A82E1E0F0E0BB
:10F7800089E08093570084918B831C8224E030E0D1
:10F79000C8C18B81803589F48C81883039F4E2E0EE
:10F7A000F0E089E08093570084910DC0E0E0F0E044
:10F7B00089E080935700849106C0E3E0F0E089E09F
:10F7C0008093570084911A82DFCF8D81836C99E0FA
:10F7D000E1E0F0E0082E90935700E89507B600FCB2
:10F7E000FDCF1A821B8223E030E09BC180EC8A832C
:10F7F000CE5CDE4F188219821A821B82C253D1401E
:10F800008EC18A8190E0A0E0B0E0582F44273327D2
:10F8100022278B8190E0A0E0B0E0DC0199278827C7
:10F82000282B392B4A2B5B2B8D8190E0A0E0B0E098
:10F83000282B392B4A2B5B2B8C8190E0A0E0B0E089
:10F84000BA2FA92F982F8827282B392B4A2B5B2BCF
:10F85000220F331F441F551FC05EDE4F288339839C
:10F860004A835B83C052D1401A8259C13A81C95C34
:10F87000DE4F3883C753D140CA5CDE4F1882C6536F
:10F88000D1408B81C82EDD24CA5CDE4F488159816E
:10F89000C653D140C42AD52A933109F082C0CE5C28
:10F8A000DE4F88819981AA81BB81C253D1408050AB
:10F8B000904CA340B04030F583E0CE5CDE4FE88052
:10F8C000F9800A811B81C253D140F70100935B008C
:10F8D00080935700E89507B600FCFDCFCE5CDE4F65
:10F8E000088119812A813B81C253D14000501F4FAA
:10F8F0002F4F3F4FCE5CDE4F088319832A833B8313
:10F90000C253D140C05EDE4F488159816A817B81FC
:10F91000C052D140DE011B9631E08C9111962C91A2
:10F9200011971296C75CDE4F2883C953D140C85C3B
:10F93000DE4F1882C853D14090E0C85CDE4FE881AA
:10F94000F981C853D1408E2B9F2B0C01FA01609393
:10F950005B0030935700E89511244E5F5F4F6F4F67
:10F960007F4F0EEFE02E0FEFF02ECE0CDF1CC114F8
:10F97000D10499F685E0C05EDE4F088119812A81A5
:10F980003B81C052D140F80120935B008093570027
:10F99000E89507B600FCFDCF81E180935700E8951C
:10F9A00035C0C05EDE4F88819981AA81BB81C0527B
:10F9B000D140B695A795979587957C018601ABE0D8
:10F9C000AA2EB12CAC0EBD1E0BC0D5016D915D01F0
:10F9D000C7010F947FFE0894E11CF11C01501040F8
:10F9E0000115110591F7A60160E070E0440F551F65
:10F9F000661F771FC05EDE4FE880F9800A811B8199
:10FA0000C052D1404E0D5F1D601F711F1A82C05E33
:10FA1000DE4F488359836A837B83C052D1407FC0C5
:10FA2000FA80C55CDE4FF882CB53D140C65CDE4F16
:10FA30001882CA53D1408B81C82EDD24C65CDE4FAC
:10FA400008811981CA53D140C02AD12A1A828981DA
:10FA5000BE016D5F7F4F843121F59601C05EDE4FA0
:10FA6000E880F9800A811B81C052D1400BBFF701A9
:10FA700087919691DB018C9311969C936E5F7F4FDB
:10FA8000D801C7010296A11DB11DC05EDE4F88835B
:10FA90009983AA83BB83C052D14022503040F1F6F3
:10FAA00036C0C05EDE4F288139814A815B81C052F9
:10FAB000D1400894C108D108760100E010E0089414
:10FAC000C11CD11C0894E11CF11C011D111DE20E8A
:10FAD000F31E041F151F21BDBB27A52F942F832FB5
:10FAE00082BD2F5F3F4F4F4F5F4FF89A80B5DB01CC
:10FAF0008D93BD012E153F054007510761F7C05E8C
:10FB0000DE4F288339834A835B83C052D1409601FC
:10FB10002D5F3F4FFB01108204C080EC8A8322E0FE
:10FB200030E08BE18093C6008091C00086FFFCCF5F
:10FB30008091C00080648093C000C15DDE4FF88179
:10FB4000CF52D140F093C6008091C00086FFFCCF19
:10FB50008091C00080648093C000432F3093C60022
:10FB60008091C00086FFFCCF8091C00080648093AC
:10FB7000C000922F2093C6008091C00086FFFCCF6A
:10FB80008091C00080648093C0008EE08093C600A6
:10FB90008091C00086FFFCCF8091C000806480937C
:10FBA000C00065E1C15DDE4FE880CF52D1406E25D7
:10FBB00069276427FE01319610C090819093C6009A
:10FBC0008091C00086FFFCCF31968091C000806498
:10FBD0008093C0006927215030402115310569F715
:10FBE0006093C6008091C00086FFFCCF8091C0006A
:10FBF00080648093C00085B1805885B9772081F4F6
:10FC0000C15DDE4F0881CF52D1400F5FC15DDE4F35
:10FC10000883CF52D14090E0A0E0B0E00D941AF4F8
:10FC200027982F9880E090E020ED37E0F901319798
:10FC3000F1F7019684369105C9F700008091C00064
:10FC40008D7F8093C00081E180935700E895EE2777
:10FC5000FF270994FFCF90E00D941AF497FB092E2B
:10FC600007260AD077FD04D02ED006D000201AF443
:10FC7000709561957F4F0895F6F7909581959F4F08
:10FC80000895A1E21A2EAA1BBB1BFD010DC0AA1FDD
:10FC9000BB1FEE1FFF1FA217B307E407F50720F0F5
:10FCA000A21BB30BE40BF50B661F771F881F991F70
:10FCB0001A9469F760957095809590959B01AC01B9
:10FCC000BD01CF010895AA1BBB1B51E107C0AA1FAC
:10FCD000BB1FA617B70710F0A61BB70B881F991FED
:10FCE0005A95A9F780959095BC01CD010895F99991
:10FCF000FECF92BD81BDF89A992780B50895262F31
:10FD0000F999FECF1FBA92BD81BD20BD0FB6F89400
:0EFD1000FA9AF99A0FBE01960895F894FFCF63
:00000001FF
