:100000000C9428010C9459010C9459010C94590139
:100010000C9459010C9459010C9459010C945901F8
:100020000C9459010C9459010C9459010C945901E8
:100030000C9459010C9459010C9459010C945901D8
:100040000C9459010C9459010C9459010C945901C8
:100050000C9459010C9459010C9459010C945F05AE
:100060000C9459010C9429050C94FF040C9459012B
:100070000C9459010C9459010C9459010C94590198
:100080000C9459010C9459010C9459010C94590188
:100090000C9459010C9459010C9459010C94590178
:1000A0000C9459010C9459010C9459010C94590168
:1000B0000C9459010C9459010C9459010C94590158
:1000C0000C9459010C9459010C9459010C94590148
:1000D0000C9459010C9459010C9459010C94590138
:1000E0000C9459010C94A9050C945B010C94BF026B
:1000F0000C94EF020C94B9010C94FD020C94DE02F6
:100100000C9488010C9403030C94AB010C9497019C
:100110000C94E2020C94E5020C9407030C943E024A
:100120000C94F9020C940B030C9411030C94DA0256
:100130000C94F5020C94D6020C94C4020C94F101B8
:100140000C94EB020C9415030000210024002700FE
:100150002A002D00300033000101000004010701D6
:100160000A0100002200250028002B002E0031008B
:10017000340002010000050108010B010505050519
:10018000070508080808020202020A0A080804040F
:10019000040401010101010101010303030303033D
:1001A0000303040707070C0C0C0C0C0C0C0C0202CC
:1001B000020206060606060606060B0B0B0B0B0BC9
:1001C0000B0B010210202008081020401020408056
:1001D000020102010804020101020408102040800B
:1001E0008040201008040201800402018040201099
:1001F00008040201080402010102040810204080E2
:10020000010204081020408000000A0B02090C0DB6
:100210000E080703040100000000000000000000B9
:1002200000000000000000000000000000000000CE
:10023000000000001211100000000000000000008B
:100240000000000000000000000000000000A90500
:1002500011241FBECFEFD1E2DEBFCDBF00E00CBF47
:1002600012E1A0E0B2E0EAE5F5E100E00BBF02C078
:1002700007900D92A43BB107D9F724E1A4EBB2E1BA
:1002800001C01D92A233B207E1F711E0C8E2D1E04C
:1002900000E006C021970109802FFE010E94A30AF9
:1002A000C732D10780E00807A9F70E945D060C94C9
:1002B000AB0A0C940000AF92BF92CF92DF92EF9204
:1002C000FF920F931F93CF93DF936C017B018B0100
:1002D000040F151FEB015E01AE18BF08C017D10750
:1002E00059F06991D601ED91FC910190F081E02DDA
:1002F000C6011995892B79F7C501DF91CF911F911F
:100300000F91FF90EF90DF90CF90BF90AF90089546
:10031000FC01538D448D252F30E0842F90E0821B0B
:10032000930B541710F0CF96089501970895FC0190
:10033000918D828D981761F0A28DAE0FBF2FB11DE8
:100340005D968C91928D9F5F9F73928F90E0089540
:100350008FEF9FEF0895FC01918D828D981731F0FA
:10036000828DE80FF11D858D90E008958FEF9FEF4E
:100370000895FC01918D228D892F90E0805C9F4F24
:10038000821B91098F73992708958DE393E10E9451
:10039000B90121E0892B09F420E0822F0895FC01A6
:1003A000A48DA80FB92FB11DA35ABF4F2C91848DD6
:1003B00090E001968F739927848FA689B7892C9333
:1003C000A089B1898C91837080648C93938D848D86
:1003D000981306C00288F389E02D80818F7D808389
:1003E0000895EF92FF920F931F93CF93DF93EC0149
:1003F00081E0888F9B8D8C8D98131AC0E889F989CC
:10040000808185FF15C09FB7F894EE89FF896083CE
:10041000E889F98980818370806480839FBF81E04F
:1004200090E0DF91CF911F910F91FF90EF90089591
:10043000F62E0B8D10E00F5F1F4F0F731127E02E6C
:100440008C8D8E110CC00FB607FCFACFE889F989A4
:10045000808185FFF5CFCE010E94CF01F1CFEB8DDA
:10046000EC0FFD2FF11DE35AFF4FF0829FB7F89478
:100470000B8FEA89FB8980818062CFCFCF93DF9396
:10048000EC01888D8823B9F0AA89BB89E889F989AC
:100490008C9185FD03C0808186FD0DC00FB607FCE1
:1004A000F7CF8C9185FFF2CF808185FFEDCFCE0114
:1004B0000E94CF01E9CFDF91CF91089580E090E0D5
:1004C000892B29F00E94C50181110E94000080E063
:1004D00090E0892B49F080E090E0892B29F00E9480
:1004E000000081110E94000080E090E0892B49F01B
:1004F00080E090E0892B29F00E94000081110E9489
:10050000000080E090E0892B49F080E090E0892BAA
:1005100029F00E94000081110C9400000895282FFA
:1005200030E0F901E85FFD4F9491F901EE53FE4F81
:10053000449124583E4FF9012491222309F435C0F7
:10054000992311F191509231F8F4E92FF0E08827C6
:10055000E355FD4F8F4F0C94A30ADE02E202BF0267
:10056000D602DA02C402E502EB02EF02F502F9025A
:10057000FD0203030703C4020B031103150380915B
:1005800080008F7780938000E22FF0E0EE0FFF1F56
:10059000EE59FE4FA591B4918FB7F894EC9161118B
:1005A00048C040954E234C938FBF089580918000A2
:1005B0008F7DE8CF80918000877FE4CF84B58F77EF
:1005C00084BDE2CF84B58F7DFBCF8091B0008F7763
:1005D0008093B000D9CF8091B0008F7DF9CF80910A
:1005E00090008F7780939000CFCF809190008F7D87
:1005F000F9CF80919000877FF5CF8091A0008F7711
:100600008093A000C1CF8091A0008F7DF9CF809111
:10061000A000877FF5CF809120018F778093200104
:10062000B3CF809120018F7DF9CF80912001877F0A
:10063000F5CF4E2BB8CFCF93DF9390E0FC01EE5374
:10064000FE4F249184589E4FFC0184918823D1F061
:1006500090E0880F991FFC01E85BFE4FA591B491D3
:10066000FC01EE59FE4FC591D49161110EC09FB7A8
:10067000F8948C91E22FE0958E238C932881E223CD
:10068000E8839FBFDF91CF9108958FB7F894EC91E5
:10069000E22BEC938FBFF6CF3FB7F8948091B9125D
:1006A0009091BA12A091BB12B091BC1226B5A89B32
:1006B00005C02F3F19F00196A11DB11D3FBFBA2FF4
:1006C000A92F982F8827BC01CD01620F711D811DB4
:1006D000911D42E0660F771F881F991F4A95D1F739
:1006E00008958F929F92AF92BF92CF92DF92EF9236
:1006F000FF926B017C010E944C034B015C01C11411
:10070000D104E104F104B9F00E944C03681979099D
:100710008A099B09683E73408105910580F321E0B9
:10072000C21AD108E108F10888EE880E83E0981E0D
:10073000A11CB11CE4CFFF90EF90DF90CF90BF9051
:10074000AF909F908F9008955F926F927F928F925B
:100750009F92AF92BF92CF92DF92EF92FF920F9350
:100760001F93CF93DF93782E692E3EE1C32ED12CB9
:1007700042EAA42E42E1B42E02E812E1C72DD62DA2
:10078000F80150800E5F1F4F61E0852D0E948F029F
:100790004E0128E0E22EF12CF401819191914F015C
:1007A000019749F4F701EE0FFF1FE057FD4E60E09F
:1007B00080810E948F02F1E0EF1AF10869F762E090
:1007C00070E080E090E00E94710360E0852D0E945F
:1007D0008F0282E9E82E82E1F82EF7018081F2E0B3
:1007E000EF0EF11C61E00E948F02AE14BF04A9F766
:1007F000609682E10239180719F691E0C91AD1080A
:1008000009F0BACFDF91CF911F910F91FF90EF9038
:10081000DF90CF90BF90AF909F908F907F906F9020
:100820005F9008950F931F93CF93DF93C2E9D2E1B6
:1008300002E812E18881229661E00E948F02F801AD
:1008400080810E5F1F4F60E00E948F02F2E1C23A8A
:10085000DF0781F7DF91CF911F910F910895CF921C
:10086000DF92EF92FF920F931F93CF93DF931F922C
:100870001F92CDB7DEB769834A83880F991F009115
:10088000301410913114000F111FEAEDF3E19F01B4
:100890002A5D33412017310714F41192F8CF2981D2
:1008A000FC01E652FC4E21838A81808360E08091C6
:1008B0002E140E948F021016110604F50150110922
:1008C000F801E652FC4EE080D0902C14C0902A141F
:1008D00088E0F82E6E2D661F6627661F8C2D0E94FD
:1008E0008F02EE0C61E08D2D0E948F0260E08D2D55
:1008F0000E948F02FA94F110EDCFDDCF61E080917C
:100900002E140F900F90DF91CF911F910F91FF90B8
:10091000EF90DF90CF900C948F02EF92FF920F93A5
:100920001F93CF937C018C0183E0000F111F8A95E8
:10093000E1F706511C4EC1E0F80111928F0140E031
:100940006C2FC7010E942F04CF5FC930A9F7CF9148
:100950001F910F91FF90EF900895AF92BF92CF92A9
:10096000DF92EF92FF920F931F93CF93DF936C016F
:1009700007E010E020E8E22EF12CC701002E02C0B3
:10098000959587950A94E2F7A82EB82EB094D0E0FA
:10099000C0E0809130149091311418161906B4F407
:1009A000FE01E652FC4E8089DE01AA0FBB1FAC0D92
:1009B000BD1D2D913C91232B01F18A29808B40890B
:1009C0006C2F6F5F90E080E00E942F042196C8306A
:1009D000D105F9F60150110980E1C80ED11C0F3F75
:1009E000100759F6DF91CF911F910F91FF90EF9073
:1009F000DF90CF90BF90AF9008958B21DFCF1F92F3
:100A00000F920FB60F9211240BB60F922F933F93B4
:100A10004F935F936F937F938F939F93AF93BF9306
:100A2000EF93FF938DE393E10E94CF01FF91EF914C
:100A3000BF91AF919F918F917F916F915F914F91F6
:100A40003F912F910F900BBE0F900FBE0F901F90F4
:100A500018951F920F920FB60F9211240BB60F929A
:100A60002F938F939F93EF93FF93E0914D13F0910A
:100A70004E138081E0915313F091541382FD1DC0F9
:100A80009081809156138F5F8F7320915713821737
:100A900041F0E0915613F0E0E35CFC4E958F8093BB
:100AA0005613FF91EF919F918F912F910F900BBE55
:100AB0000F900FBE0F901F9018958081F2CF1F925C
:100AC0000F920FB60F9211242F933F938F939F9302
:100AD000AF93BF938091B5129091B612A091B712C7
:100AE000B091B8123091B41223E0230F2D3758F58E
:100AF0000196A11DB11D2093B4128093B51290935D
:100B0000B612A093B712B093B8128091B912909117
:100B1000BA12A091BB12B091BC120196A11DB11DD9
:100B20008093B9129093BA12A093BB12B093BC12E7
:100B3000BF91AF919F918F913F912F910F900FBED9
:100B40000F901F90189526E8230F0296A11DB11D46
:100B5000D2CFCF93DF931092401310923F1388EEC1
:100B600093E0A0E0B0E08093411390934213A093F0
:100B70004313B093441386EA92E190933E1380931B
:100B80003D1385EC90E090934A138093491384ECD5
:100B900090E090934C1380934B1380EC90E09093F3
:100BA0004E1380934D1381EC90E0909350138093FB
:100BB0004F1382EC90E0909352138093511386EC84
:100BC00090E0909354138093531310925613109205
:100BD00057131092581310925913C3E3D0E0D093D7
:100BE0002B14C0932A1484E390E090932D148093E7
:100BF0002C1485E390E090932F1480932E1481E0C1
:100C000090E0909331148093301461E083E30E946C
:100C10001B0361E080912C140E941B0361E0809112
:100C20002E140E941B0361E080912E140E948F02FB
:100C3000D0932B14C0932A14EAEEF3E1119284E1CD
:100C4000EA32F807D9F7D0E0C0E0809130149091F3
:100C50003114C817D90774F540E06FE0CE010E9447
:100C60002F048091301490913114C817D9072CF4B7
:100C700047E06BE0CE010E942F0440E069E0CE0126
:100C80000E942F048091301490913114C817D90715
:100C90001CF4CE010E948D04809130149091311487
:100CA000C817D9072CF440E06CE0CE010E942F0455
:100CB0002196CBCFDF91CF910895789484B582604F
:100CC00084BD84B5816084BD85B5826085BD85B5F0
:100CD000816085BD80916E00816080936E0010926E
:100CE00081008091810082608093810080918100E9
:100CF000816080938100809180008160809380007A
:100D00008091B10084608093B1008091B0008160D7
:100D10008093B000809191008260809391008091D7
:100D20009100816080939100809190008160809318
:100D300090008091A10082608093A1008091A10029
:100D400081608093A1008091A00081608093A000C9
:100D50008091210182608093210180912101816035
:100D600080932101809120018160809320018091F6
:100D70007A00846080937A0080917A008260809308
:100D80007A0080917A00816080937A0080917A0065
:100D9000806880937A001092C100E0914D13F09129
:100DA0004E1382E08083E0914913F0914A13108240
:100DB000E0914B13F0914C138FEC808310925513FC
:100DC000E0915113F091521386E08083E0914F132C
:100DD000F0915013808180618083E0914F13F091F6
:100DE0005013808188608083E0914F13F0915013FD
:100DF000808180688083E0914F13F091501380814F
:100E00008F7D8083809130149091311418161906CB
:100E100034F441E06CE090E080E00E942F04809187
:100E20003014909131141816190634F44FE06AE02A
:100E300090E080E00E942F04809130149091311452
:100E40001816190624F490E080E00E948D0402E94F
:100E500012E172E8E72E72E1F72EE2EAAE2EE2E14D
:100E6000BE2E6701E8018881229661E00E941B0383
:100E7000F6018081F2E0CF0ED11C61E00E941B03DD
:100E8000AC16BD0681F7F80180810E5F1F4F61E04F
:100E90000E948F02F7018081F2E0EF0EF11C60E00A
:100EA0000E948F020C171D0771F760E08FE20E940D
:100EB0001B0383E0282E312C94E0492E512C25E091
:100EC000622E712C36E0832E912CC7E0D0E008E032
:100ED00010E049E0E42EF12C5AE0C52ED12C6BE055
:100EE000A62EB12C80918012909181128497A9F442
:100EF0008DEB92E10E94AD0480E092E10E94A40398
:100F000060E070E0CB010E9471030E94120483E252
:100F100090E0909381128093801280918012909142
:100F2000811283329105C1F480E891E10E94AD0401
:100F300080E091E10E94A40360E070E0CB010E9498
:100F400071030E94120482E290E0909381128093D8
:100F500080120E945E02C6CF8232910591F480E039
:100F600092E10E94AD0480E890E10E94A40360E059
:100F700070E0CB010E9471030E94120481E290E0B4
:100F8000E4CF8132910591F480E091E10E94AD04BB
:100F900080E090E10E94A40360E070E0CB010E9439
:100FA00071030E94120480E290E0CFCF803291055D
:100FB00091F480E890E10E94AD0480E89FE00E94F7
:100FC000A40360E070E0CB010E9471030E94120450
:100FD0008FE190E0BACF8F31910591F480E090E1FC
:100FE0000E94AD0480E09FE00E94A40360E070E0F6
:100FF000CB010E9471030E9412048EE190E0A5CF04
:101000008E31910591F480E89FE00E94AD0480E864
:101010009EE00E94A40360E070E0CB010E94710397
:101020000E9412048DE190E090CF8D31910591F4F2
:1010300080E09FE00E94AD0480E09EE00E94A40357
:1010400060E070E0CB010E9471030E9412048CE109
:1010500090E07BCF8C31910591F480E89EE00E9476
:10106000AD0480E89DE00E94A40360E070E0CB0145
:101070000E9471030E9412048BE190E066CF8B31D5
:10108000910591F480E09EE00E94AD0480E09DE037
:101090000E94A40360E070E0CB010E9471030E94F3
:1010A00012048AE190E051CF8A31910591F480E8F1
:1010B0009DE00E94AD0480E89CE00E94A40360E0F3
:1010C00070E0CB010E9471030E94120489E190E05C
:1010D0003CCF8931910591F480E89CE00E94AD04F9
:1010E00080E89DE00E94A40360E070E0CB010E94D4
:1010F00071030E94120488E190E027CF88319105A6
:1011000091F480E09CE00E94AD0480E89BE00E94A6
:10111000A40360E070E0CB010E9471030E941204FE
:1011200087E190E012CF8731910591F480E89DE04E
:101130000E94AD0480E89EE00E94A40360E070E09D
:10114000CB010E9471030E94120486E190E0FDCE63
:101150008631910591F480E89BE00E94AD0480E027
:101160009BE00E94A40360E070E0CB010E94710349
:101170000E94120485E190E0E8CE8531910591F45A
:1011800080E89EE00E94AD0480E092E10E94A4030A
:1011900060E070E0CB010E9471030E94120484E1C0
:1011A00090E0D3CE8431910591F480E092E10E94E9
:1011B000AD0480E89AE00E94A40360E070E0CB01F7
:1011C0000E9471030E94120483E190E0BECE83313D
:1011D000910591F480E09AE00E94AD0480E899E0E6
:1011E0000E94A40360E070E0CB010E9471030E94A2
:1011F000120482E190E0A9CE8231910591F480E859
:101200009AE00E94AD0480E89DE00E94A40360E0A3
:1012100070E0CB010E9471030E94120481E190E012
:1012200094CE8131910591F480E899E00E94AD045B
:1012300080E099E00E94A40360E070E0CB010E948E
:1012400071030E94120480E190E07FCE803191050D
:1012500091F480E89DE00E94AD0480E898E00E944F
:10126000A40360E070E0CB010E9471030E941204AD
:101270008FE090E06ACE8F30910591F480E099E0A4
:101280000E94AD0480E098E00E94A40360E070E05A
:10129000CB010E9471030E9412048EE090E055CEB3
:1012A0008E30910591F480E898E00E94AD0480E8CA
:1012B00097E00E94A40360E070E0CB010E947103FC
:1012C0000E9412048DE090E040CE8D30910591F4A3
:1012D00080E098E00E94AD0480E097E00E94A403C3
:1012E00060E070E0CB010E9471030E9412048CE068
:1012F00090E02BCE8C309105A1F480E897E00E941D
:10130000AD0480E896E00E94A40360E070E0CB01A9
:101310000E9471030E941204B0928112A092801266
:1013200018CE8B309105A1F480E097E00E94AD04C7
:1013300080E096E00E94A40360E070E0CB010E9490
:1013400071030E941204D0928112C092801201CEC9
:101350008A309105A1F480E896E00E94AD0480E80F
:1013600095E00E94A40360E070E0CB010E9471034D
:101370000E941204F0928112E0928012EACD89302C
:101380009105A1F480E096E00E94AD0480E095E034
:101390000E94A40360E070E0CB010E9471030E94F0
:1013A00012041093811200938012D3CD88309105DE
:1013B000A1F480E895E00E94AD0480E897E00E94E7
:1013C000A40360E070E0CB010E9471030E9412044C
:1013D000D0938112C0938012BCCD87309105A1F4C7
:1013E00080E095E00E94AD0480E894E00E94A403B0
:1013F00060E070E0CB010E9471030E9412049092A1
:10140000811280928012A5CD86309105A1F480E8EA
:1014100097E00E94AD0480E898E00E94A40360E099
:1014200070E0CB010E9471030E941204709281123D
:10143000609280128ECD85309105A1F480E894E011
:101440000E94AD0480E094E00E94A40360E070E09C
:10145000CB010E9471030E941204509281124092AB
:10146000801277CD84309105A1F480E898E00E9445
:10147000AD0480E893E00E94A40360E070E0CB013B
:101480000E9471030E9412043092811220928012F5
:1014900060CD83309105B1F480E094E00E94AD040A
:1014A00080E093E00E94A40360E070E0CB010E9422
:1014B00071030E941204E2E0F0E0F0938112E093E5
:1014C000801247CD8230910591F480E893E00E942C
:1014D000AD0480E892E00E94A40360E070E0CB01DC
:1014E0000E9471030E94120481E090E02ECD8130B1
:1014F0009105A1F480E093E00E94AD0480E092E0C9
:101500000E94A40360E070E0CB010E9471030E947E
:10151000120410928112109280121BCD892B09F0B7
:1015200018CD80E892E00E94AD048DEB92E10E941C
:10153000A40360E070E0CB010E9471030E941204DA
:10154000E4E2F0E0BACFEE0FFF1F881F8BBF0790D9
:0A155000F691E02D1994F894FFCFF6
:10155A000000000000000000000000000000000081
:10156A000000000000000000000000000000000071
:10157A000000000000000000000000000000000061
:10158A000000000000000000000000000000000051
:10159A000000000000000000000000000000000041
:1015AA00000001000100010001000000000000002D
:1015BA00000001000100000000000100000000001E
:1015CA00000001000100010001000000000000000D
:1015DA000000000000000000000000000000000001
:1015EA0000000100010001000100000000000000ED
:1015FA0000000100010000000000010000000000DE
:10160A0000000100010001000100000000000000CC
:10161A0000000100010000000000000000000000BE
:10162A0000000100010000000000000000000000AE
:10163A00000001000100000000000000000000009E
:10164A000000000000000000000000000000000090
:10165A00000001000100000000000000000000007E
:10166A00000001000100000000000000000000006E
:10167A00000001000100000000000000000000005E
:10168A000000000000000000000000000000000050
:10169A000000000000000000000000000000000040
:1016AA00000001000100010001000000000000002C
:1016BA00000001000000000000000100000000001E
:1016CA00000001000000000000000100000000000E
:1016DA000000000000000000000000000000000000
:1016EA0000000100010001000100000000000000EC
:1016FA0000000100000000000000010000000000DE
:10170A0000000100000000000000010000000000CD
:10171A0000000100010001000100000000000000BB
:10172A0000000100000001000000000000000000AD
:10173A00000001000000000001000000000000009D
:10174A00000000000000000000000000000000008F
:10175A00000001000100010001000000000000007B
:10176A00000001000000010000000000000000006D
:10177A00000001000000000001000000000000005D
:10178A00000000000000000000000000000000004F
:10179A00000000000000000000000000000000003F
:1017AA00000000000100010000000000000000002D
:1017BA00000001000000000001000000000000001D
:1017CA00000001000000000001000000000000000D
:1017DA0000000100010001000100000000000000FB
:1017EA0000000100000000000100000000000000ED
:1017FA0000000100000000000100000000000000DD
:10180A0000000000000000000000000000000000CE
:10181A0000000000000000000000000000000000BE
:10182A0000000000010001000100000000000000AB
:10183A00000001000000000000000000000000009D
:10184A00000001000000000000000000000000008D
:10185A00000001000000000000000000000000007D
:10186A00000001000000000000000000000000006D
:10187A00000000000100010001000000000000005B
:10188A00000000000000000000000000000000004E
:10189A00000000000000000000000000000000003E
:1018AA000000010001000100010001000000000029
:1018BA00000000000000010000000000000000001D
:1018CA00000000000000010000000000000000000D
:1018DA0000000000000000000000000000000000FE
:1018EA0000000100010001000100010000000000E9
:1018FA0000000000000001000000000000000000DD
:10190A0000000000000001000000000000000000CC
:10191A0000000000000001000000000000000000BC
:10192A0000000000000001000000000000000000AC
:10193A00000000000000010000000000000000009C
:10194A00000000000000000000000000000000008D
:10195A00000000000000010000000000000000007C
:10196A00000000000000010000000000000000006C
:10197A00000000000000010000000000000000005C
:10198A00000000000000000000000000000000004D
:10199A00000000000000000000000000000000003D
:1019AA000000010001000100010001000000000028
:1019BA00000000000000010000000000000000001C
:1019CA00000000000000010000000000000000000C
:1019DA0000000000000000000000000000000000FD
:1019EA0000000100010001000100010000000000E8
:1019FA0000000000000001000000000000000000DC
:101A0A0000000000000001000000000000000000CB
:101A1A0000000000000001000000000000000000BB
:101A2A0000000000000001000000000000000000AB
:101A3A000000010001000100010001000000000097
:101A4A00000000000000000000000000000000008C
:101A5A00000000000000010000000000000000007B
:101A6A00000000000000010000000000000000006B
:101A7A000000010001000100010001000000000057
:101A8A00000000000000000000000000000000004C
:101A9A00000000000000000000000000000000003C
:101AAA000000000001000100010000000000000029
:101ABA00000001000000000000000000000000001B
:101ACA00000001000000000000000000000000000B
:101ADA0000000000000000000000000000000000FC
:101AEA0000000000010001000100000000000000E9
:101AFA0000000100000000000000000000000000DB
:101B0A0000000100000000000000000000000000CA
:101B1A0000000100000000000000000000000000BA
:101B2A0000000100000000000000000000000000AA
:101B3A000000000001000100010000000000000098
:101B4A00000000000000000000000000000000008B
:101B5A00000001000000000000000000000000007A
:101B6A00000001000000000000000000000000006A
:101B7A000000000001000100010000000000000058
:101B8A00000000000000000000000000000000004B
:101B9A00000000000000000000000000000000003B
:101BAA000000000001000100000000000000000029
:101BBA000000010000000000010000000000000019
:101BCA000000010000000000010000000000000009
:101BDA0000000000000000000000000000000000FB
:101BEA0000000000010001000000000000000000E9
:101BFA0000000100000000000100000000000000D9
:101C0A0000000100000000000100000000000000C8
:101C1A0000000100010001000100000000000000B6
:101C2A0000000100000000000100000000000000A8
:101C3A000000010000000000010000000000000098
:101C4A00000000000000000000000000000000008A
:101C5A000000010001000100010000000000000076
:101C6A000000010000000000010000000000000068
:101C7A000000010000000000010000000000000058
:101C8A00000000000000000000000000000000004A
:101C9A00000000000000000000000000000000003A
:101CAA000000000001000100000000000000000028
:101CBA000000000000000100000000000000000019
:101CCA000000000000000100000000000000000009
:101CDA0000000000000001000000000000000000F9
:101CEA0000000000000001000000000000000000E9
:101CFA0000000000010001000100000000000000D7
:101D0A0000000000000000000000000000000000C9
:101D1A0000000000000000000000000000000000B9
:101D2A0000000000000000000000000000000000A9
:101D3A000000000001000100010001000000000095
:101D4A000000000000000000000000000000000089
:101D5A000000000000000000000000000000000079
:101D6A000000000000000000000000000000000069
:101D7A000000000000000000000000000000000059
:101D8A000000000000000000000000000000000049
:101D9A000000000000000000000000000000000039
:101DAA000000000000000000000000000000000029
:101DBA000000010001000100010000000000000015
:101DCA000000000000000000000001000000000008
:101DDA0000000000000000000000000000000000F9
:101DEA0000000000000000000000000000000000E9
:101DFA0000000000000000000000000000000000D9
:101E0A0000000000010001000100010000000000C4
:101E1A0000000000000000000000000000000000B8
:101E2A0000000000000000000000000000000000A8
:101E3A000000000000000000000000000000000098
:101E4A000000000000000000000000000000000088
:101E5A000000000001000100010000000000000075
:101E6A000000010000000000000000000000000067
:101E7A000000010001000100010001000000000053
:101E8A000000000000000000000000000000000048
:101E9A000000000000000000000000000000000038
:101EAA000000000001000100010000000000000025
:101EBA000000010000000000010001000000000015
:101ECA000000010000000100000001000000000005
:101EDA0000000100000001000000010000000000F5
:101EEA0000000100010000000000010000000000E5
:101EFA0000000000010001000100000000000000D5
:101F0A0000000000000000000000000000000000C7
:101F1A0000000000000000000000000000000000B7
:101F2A0000000000010001000000000000000000A5
:101F3A000000000000000100000000000000000096
:101F4A000000000000000100000000000000000086
:101F5A000000000000000100000000000000000076
:101F6A000000000000000100000000000000000066
:101F7A000000000001000100010000000000000054
:101F8A000000000000000000000000000000000047
:101F9A000000000000000000000000000000000037
:101FAA000000000001000100010001000100000022
:101FBA000000000000000000000000000100000016
:101FCA000000000000000000000001000000000006
:101FDA0000000000000000000000000000000000F7
:101FEA0000000000010001000100010001000000E2
:101FFA0000000000000000000000000001000000D6
:10200A0000000000000000000000010000000000C5
:10201A0000000000000000000100000000000000B5
:10202A0000000000000001000000000000000000A5
:10203A000000000001000000000000000000000095
:10204A000000000000000000000000000000000086
:10205A000000000000000000010000000000000075
:10206A000000000000000100000000000000000065
:10207A000000000001000000000000000000000055
:10208A000000000000000000000000000000000046
:10209A000000000000000000000000000000000036
:1020AA000000000001000100000000000000000024
:1020BA000000000000000100000000000000000015
:1020CA000000000000000100000000000000000005
:1020DA0000000000000000000000000000000000F6
:1020EA0000000000010001000000000000000000E4
:1020FA0000000000000001000000000000000000D5
:10210A0000000000000001000000000000000000C4
:10211A0000000000000001000000000000000000B4
:10212A0000000000000001000000000000000000A4
:10213A000000000001000100010000000000000092
:10214A000000000000000000000000000000000085
:10215A000000000000000100000000000000000074
:10216A000000000000000100000000000000000064
:10217A000000000001000100010000000000000052
:10218A000000000000000000000000000000000045
:10219A000000000000000000000000000000000035
:1021AA000000000001000100010000000000000022
:1021BA000000010000000000010001000000000012
:1021CA000000010000000100000001000000000002
:1021DA0000000000000000000000000000000000F5
:1021EA0000000000000000000000000000000000E5
:1021FA0000000000010001000100000000000000D2
:10220A0000000100000000000100010000000000C1
:10221A0000000100000001000000010000000000B1
:10222A0000000100010000000000010000000000A1
:10223A000000000001000100010000000000000091
:10224A000000000000000000000000000000000084
:10225A000000010000000100000001000000000071
:10226A000000010001000000000001000000000061
:10227A000000000001000100010000000000000051
:10228A000000000000000000000000000000000044
:10229A000000000000000000000000000000000034
:1022AA000000000001000100010001000000000020
:1022BA000000000000000000000000000100000013
:1022CA000000000000000000010001000000000002
:1022DA0000000000000000000000000000000000F4
:1022EA0000000000010001000100010000000000E0
:1022FA0000000000000000000000000001000000D3
:10230A0000000000000000000100010000000000C1
:10231A0000000000000000000000000001000000B2
:10232A0000000000000000000000000001000000A2
:10233A00000000000100010001000100010000008E
:10234A000000000000000000000000000000000083
:10235A000000000000000000000000000100000072
:10236A000000000000000000000000000100000062
:10237A00000000000100010001000100010000004E
:10238A000000000000000000000000000000000043
:10239A000000000000000000000000000000000033
:1023AA000000000001000100010000000000000020
:1023BA000000010000000000000001000000000011
:1023CA0000000000010001000100010000000000FF
:1023DA0000000000000000000000000000000000F3
:1023EA0000000000010001000100000000000000E0
:1023FA0000000100000000000000010000000000D1
:10240A0000000000010001000100010000000000BE
:10241A0000000000000000000000010000000000B1
:10242A0000000000000000000000010000000000A1
:10243A00000000000100010001000000000000008F
:10244A000000000000000000000000000000000082
:10245A000000000000000000000001000000000071
:10246A000000000000000000000001000000000061
:10247A00000000000100010001000000000000004F
:10248A000000000000000000000000000000000042
:10249A000000000000000000000000000000000032
:1024AA00000001000100010001000000000000001E
:1024BA000000000000000000000001000000000011
:1024CA0000000000010001000100000000000000FF
:1024DA0000000100000000000000000000000000F1
:1024EA0000000100010001000100010000000000DD
:1024FA0000000000000000000000000000000000D2
:10250A0000000000000000000000000000000000C1
:10251A0000000000000000000000000000000000B1
:10252A0000000000000000000000000000000000A1
:10253A000000000000000000000000000000000091
:10254A000000000000000000000000000000000081
:10255A000000000000000000000000000000000071
:10256A000000000000000000000000000000000061
:10257A00000001000100010001000000000000004D
:10258A000000000000000000000001000000000040
:10259A00000000000100010001000000000000002E
:1025AA000000010000000000000000000000000020
:1025BA00000001000100010001000100000000000C
:1025CA000000000000000000000000000000000001
:1025DA0024002000210022002300240025002600D8
:1025EA00270016001700180019001A001B001C000B
:1025FA001D0000000000F1015B0188013E02B901E3
:04260A009701AB0188
:00000001FF
