:020000040000FA
:100000000C9435010C9466010C9466010C94660105
:100010000C9466010C9466010C9466010C946601C4
:100020000C9466010C9466010C9466010C946601B4
:100030000C9466010C9466010C9466010C946601A4
:100040000C9466010C9466010C9466010C94660194
:100050000C9466010C9466010C9466010C940D07D7
:100060000C9466010C94D7060C94AD060C946601B2
:100070000C9466010C9466010C9466010C94660164
:100080000C9466010C9466010C9466010C94660154
:100090000C9466010C9466010C9466010C94660144
:1000A0000C9466010C9466010C9466010C94660134
:1000B0000C9466010C9466010C9466010C94660124
:1000C0000C9466010C9466010C9466010C94660114
:1000D0000C9466010C9466010C9466010C94660104
:1000E0000C9466010C941F030C94F4020C948D0183
:1000F0000C94DF020C94E5020C9424030C94FA0295
:100100000C9457070C9412030C94BA010C941A0324
:100110000C9470020C94DD010C94C9010C9408033A
:100120000C94E9020C94EB010C94FE020C94040371
:100130000C9423020C9420030C940C030C94F102F5
:100140000C94ED020C9416030000210024002700FB
:100150002A002D00300033000101000004010701D6
:100160000A0100002200250028002B002E0031008B
:10017000340002010000050108010B01000020000D
:100180002300260029002C002F003200000100006F
:10019000030106010901050505050705080808080A
:1001A000020202020A0A080804040404010101010F
:1001B000010101010303030303030303040707070A
:1001C0000C0C0C0C0C0C0C0C0202020206060606AF
:1001D000060606060B0B0B0B0B0B0B0B010210207C
:1001E000200808102040102040800201020108046D
:1001F0000201010204081020408080402010080401
:100200000201800402018040201008040201080459
:10021000020101020408102040800102040810209D
:10022000408000000A0B02090C0D0E0807030401B0
:1002300000000000000000000000000000000000BE
:10024000000000000000000000000000000012118B
:10025000100000000000000000000000000000008E
:100260000000000000000000570711241FBECFEF60
:10027000D1E2DEBFCDBF00E00CBF15E1A0E0B2E0EF
:10028000E4EEF8E200E00BBF02C007900D92AC3B39
:10029000B107D9F729E1ACEBB5E101C01D92AC3D46
:1002A000B207E1F711E0C5E3D1E000E006C0219715
:1002B0000109802FFE010E946814C433D10780E039
:1002C0000807A9F70E9422080C9470140C940000EF
:1002D0009C014091B3165091B416CA010196821741
:1002E000930721F481E06330710509F080E0FA01A1
:1002F00031972E173F0719F46330710561F04217EB
:10030000530721F491E06330710509F090E0811109
:1003100001C0892F089581E00895AF92BF92CF92D6
:10032000DF92EF92FF920F931F93CF93DF936C01B5
:100330007B018B01040F151FEB015E01AE18BF0896
:10034000C017D10759F06991D601ED91FC91019048
:10035000F081E02DC6011995892B79F7C501DF9150
:10036000CF911F910F91FF90EF90DF90CF90BF90B2
:10037000AF900895FC01538D448D252F30E0842FDC
:1003800090E0821B930B541710F0CF9608950197BD
:100390000895FC01918D828D981761F0A28DAE0FAA
:1003A000BF2FB11D5D968C91928D9F5F9F73928F31
:1003B00090E008958FEF9FEF0895FC01918D828D5D
:1003C000981731F0828DE80FF11D858D90E008952A
:1003D0008FEF9FEF0895FC01918D228D892F90E082
:1003E000805C9F4F821B91098F739927089581EC40
:1003F00096E10E94EB0121E0892B09F420E0822F95
:100400000895FC01A48DA80FB92FB11DA35ABF4FA9
:100410002C91848D90E001968F739927848FA68903
:10042000B7892C93A089B1898C91837080648C9357
:10043000938D848D981306C00288F389E02D808106
:100440008F7D80830895EF92FF920F931F93CF9338
:10045000DF93EC0181E0888F9B8D8C8D98131AC0FF
:10046000E889F989808185FF15C09FB7F894EE89E6
:10047000FF896083E889F989808183708064808343
:100480009FBF81E090E0DF91CF911F910F91FF908E
:10049000EF900895F62E0B8D10E00F5F1F4F0F7336
:1004A0001127E02E8C8D8E110CC00FB607FCFACFF1
:1004B000E889F989808185FFF5CFCE010E9401028C
:1004C000F1CFEB8DEC0FFD2FF11DE35AFF4FF082C2
:1004D0009FB7F8940B8FEA89FB8980818062CFCF28
:1004E000CF93DF93EC01888D8823B9F0AA89BB896B
:1004F000E889F9898C9185FD03C0808186FD0DC056
:100500000FB607FCF7CF8C9185FFF2CF808185FF76
:10051000EDCFCE010E940102E9CFDF91CF91089586
:1005200080E090E0892B29F00E94F70181110E9460
:10053000000080E090E0892B49F080E090E0892B7A
:1005400029F00E94000081110E94000080E090E0EC
:10055000892B49F080E090E0892B29F00E9400006F
:1005600081110E94000080E090E0892B49F080E03A
:1005700090E0892B29F00E94000081110C9400006A
:1005800008958150823108F05AC0E82FF0E08827A2
:10059000E353FD4F8F4F0C946814ED02F102DF021C
:1005A000E502E9021F03F402FA02FE020403080353
:1005B0000C03120316031F031A0320032403809164
:1005C00080008F77809380000895809180008F7DD8
:1005D000F9CF80918000877FF5CF84B58F7784BD78
:1005E000089584B58F7DFBCF8091B0008F77809385
:1005F000B00008958091B0008F7DF9CF8091900078
:100600008F77809390000895809190008F7DF9CF2F
:1006100080919000877FF5CF8091A0008F778093A5
:10062000A00008958091A0008F7DF9CF8091A00057
:10063000877FF5CF809120018F77809320010895E7
:10064000809120018F7DF9CF80912001877FF5CFA8
:10065000CF93DF93282F30E0F901EE5DFD4F8491B9
:10066000F901E452FE4FD491F901EA56FE4FC491CC
:10067000CC23A1F081110E94C102EC2FF0E0EE0F1B
:10068000FF1FE458FE4FA591B491EC91ED2381E05A
:1006900090E009F480E0DF91CF91089580E090E050
:1006A000FACF1F93CF93DF93282F30E0F901EE5D4F
:1006B000FD4F8491F901E452FE4FD491F901EA56BD
:1006C000FE4FC491CC23A9F0162F81110E94C102C4
:1006D000EC2FF0E0EE0FFF1FEE59FE4FA591B49105
:1006E0008FB7F894EC91111108C0D095DE23DC93FC
:1006F0008FBFDF91CF911F910895DE2BF8CFCF935D
:10070000DF9390E0FC01E452FE4F24918A569E4F05
:10071000FC0184918823D1F090E0880F991FFC019F
:10072000E85BFE4FA591B491FC01EE59FE4FC591D7
:10073000D49161110EC09FB7F8948C91E22FE0958F
:100740008E238C932881E223E8839FBFDF91CF9192
:1007500008958FB7F894EC91E22BEC938FBFF6CF0E
:10076000863308F0865320917B00982F9870277F5E
:10077000922B90937B008770806480937C008091A3
:100780007A00806480937A0080917A0086FDFCCFA5
:10079000809178009091790008953FB7F894809106
:1007A000C1159091C215A091C315B091C41526B57D
:1007B000A89B05C02F3F19F00196A11DB11D3FBF99
:1007C000BA2FA92F982F8827BC01CD01620F711D68
:1007D000811D911D42E0660F771F881F991F4A9562
:1007E000D1F708958F929F92AF92BF92CF92DF92EE
:1007F000EF92FF926B017C010E94CD034B015C01E3
:10080000C114D104E104F104B9F00E94CD036819C8
:1008100079098A099B09683E73408105910580F337
:1008200021E0C21AD108E108F10888EE880E83E0C1
:10083000981EA11CB11CE4CFFF90EF90DF90CF90E9
:10084000BF90AF909F908F9008952FB7F8946091CC
:10085000BD157091BE158091BF159091C0152FBF29
:1008600008955F926F927F928F929F92AF92BF9204
:10087000CF92DF92EF92FF920F931F93CF93DF936C
:10088000782E692E3EE1C32ED12C49EAA42E45E1F3
:10089000B42E09E815E1C72DD62DF80150800E5F62
:1008A0001F4F61E0852D0E9451034E0128E0E22E8A
:1008B000F12CF401819191914F01019749F4F701D5
:1008C000EE0FFF1FE956FA4E60E080810E9451034F
:1008D000F1E0EF1AF10869F761E070E080E090E084
:1008E0000E94F20360E0852D0E94510389E9E82E01
:1008F00085E1F82EF7018081F2E0EF0EF11C61E056
:100900000E945103AE14BF04A9F7609685E109392E
:10091000180719F691E0C91AD10809F0BACFDF918A
:10092000CF911F910F91FF90EF90DF90CF90BF90EC
:10093000AF909F908F907F906F905F9008955F929F
:100940006F927F928F929F92AF92BF92CF92DF92DF
:10095000EF92FF920F931F93CF93DF93782E692E20
:100960003EE1C32ED12C49EAA42E45E1B42E09E87C
:1009700015E1C72DD62DF80150800E5F1F4F61E0A5
:10098000852D0E9451034E0128E0E22EF12CF40146
:10099000819191914F01019749F4F701EE0FFF1FEB
:1009A000E956FA4E60E080810E945103F1E0EF1AAF
:1009B000F10869F762E070E080E090E00E94F203E5
:1009C00060E0852D0E94510389E9E82E85E1F82E2B
:1009D000F7018081F2E0EF0EF11C61E00E9451030B
:1009E000AE14BF04A9F7609685E10939180719F616
:1009F00091E0C91AD10809F0BACFDF91CF911F91C8
:100A00000F91FF90EF90DF90CF90BF90AF909F90AD
:100A10008F907F906F905F9008950F931F93CF9367
:100A2000DF93C9E9D5E109E815E18881229661E003
:100A30000E945103F80180810E5F1F4F60E00E9409
:100A40005103F5E1C93ADF0781F7DF91CF911F919B
:100A50000F910895CF92DF92EF92FF920F931F9321
:100A6000CF93DF931F921F92CDB7DEB769834A837E
:100A7000880F991F0091DA191091DB19000F111FCF
:100A8000E4E8F9E19F01245839412017310714F4B3
:100A90001192F8CF2981FC01EC57F64E21838A810F
:100AA000808360E08091D8190E94510310161106CE
:100AB00004F501501109F801EC57F64EE080D09092
:100AC000D619C090D41988E0F82E6E2D661F6627BF
:100AD000661F8C2D0E945103EE0C61E08D2D0E944B
:100AE000510360E08D2D0E945103FA94F110EDCF77
:100AF000DDCF61E08091D8190F900F90DF91CF91F9
:100B00001F910F91FF90EF90DF90CF900C945103C5
:100B1000EF92FF920F931F93CF937C018C0183E0A0
:100B2000000F111F8A95E1F70C56164EC1E0F8012F
:100B300011928F0140E06C2FC7010E942A05CF5F00
:100B4000C930A9F7CF911F910F91FF90EF900895B1
:100B500020E830E002C0359527956A95E2F7FC0160
:100B6000EC57F64E5089442349F0252B208B61E049
:100B7000680F408990E080E00C942A052095252399
:100B8000F5CF8F929F92AF92BF92CF92DF92EF926A
:100B9000FF920F931F93CF93DF938C01D0E0C0E0BF
:100BA00027E0E22EF12C37E0A32EB12CC830D1057E
:100BB0000CF046C09C2E80E2980E61E0892D0E94C8
:100BC000510397E0C92ED12C86E18C0DF8012081CC
:100BD00030E00C2C02C0359527950A94E2F760E0CE
:100BE00020FF61E00E945103F1E0CF1AD10860F7C5
:100BF00061E070E080E090E00E94F20360E0892D07
:100C00000E94510386E1D82E61E08D2D0E94510390
:100C1000D394EEE1DE12F8CF21960F5F1F4FC03163
:100C2000D10509F0C3CFDF91CF911F910F91FF90B4
:100C3000EF90DF90CF90BF90AF909F908F900895EE
:100C40008091DA199091DB19181619062CF5F8E045
:100C5000EF16F10408F5F801C080912C812CD12CFD
:100C60008091DA199091DB191816190674F4C501F0
:100C700088199909A60102C0559547958A95E2F70A
:100C80004170B701C4010E94A805FFEF8F1A9F0AA7
:100C900088E08816910421F7E1E0EE1AF108BCCF54
:100CA00081E08093841580E996E10E94C10583E08C
:100CB00090E09093B4168093B31682E390E0909303
:100CC000B6168093B51688EC90E09093B816809392
:100CD000B7161092011410920014109283151092FE
:100CE0008215E7ECF5E1119285E1EE3FF807D9F7BF
:100CF0000895EF92FF920F931F93CF93DF937C01A0
:100D000007E010E0D0E0C0E08091DA199091DB19A3
:100D1000181619067CF4FE01EE0FFF1FEE0DFF1DE5
:100D200041E080819181892B09F440E0B801CE0136
:100D30000E94A8052196C830D10531F7015011094C
:100D400080E1E80EF11C0F3F1007E1F6DF91CF9133
:100D50001F910F91FF90EF9008951F920F920FB681
:100D60000F9211240BB60F922F933F934F935F93E3
:100D70006F937F938F939F93AF93BF93EF93FF9363
:100D800081EC96E10E940102FF91EF91BF91AF913A
:100D90009F918F917F916F915F914F913F912F9193
:100DA0000F900BBE0F900FBE0F901F9018951F92C3
:100DB0000F920FB60F9211240BB60F922F938F93B1
:100DC0009F93EF93FF93E091D116F091D21680811B
:100DD000E091D716F091D81682FD1DC090818091C8
:100DE000DA168F5F8F732091DB16821741F0E09146
:100DF000DA16F0E0EF53F94E958F8093DA16FF91F3
:100E0000EF919F918F912F910F900BBE0F900FBE7E
:100E10000F901F9018958081F2CF1F920F920FB6FE
:100E20000F9211242F933F938F939F93AF93BF9370
:100E30008091BD159091BE15A091BF15B091C015C0
:100E40003091BC1523E0230F2D3758F50196A11DD5
:100E5000B11D2093BC158093BD159093BE15A09332
:100E6000BF15B093C0158091C1159091C215A09186
:100E7000C315B091C4150196A11DB11D8093C11574
:100E80009093C215A093C315B093C415BF91AF91B1
:100E90009F918F913F912F910F900FBE0F901F90B8
:100EA000189526E8230F0296A11DB11DD2CFCF932E
:100EB000DF931092C4161092C31688EE93E0A0E060
:100EC000B0E08093C5169093C616A093C716B09352
:100ED000C8168DEA95E19093C2168093C11685ECF1
:100EE00090E09093CE168093CD1684EC90E0909392
:100EF000D0168093CF1680EC90E09093D21680931A
:100F0000D11681EC90E09093D4168093D31682ECA6
:100F100090E09093D6168093D51686EC90E090934F
:100F2000D8168093D7161092DA161092DB1610920C
:100F3000DC161092DD16C3E3D0E0D093D519C09330
:100F4000D41984E390E09093D7198093D61985E360
:100F500090E09093D9198093D81981E090E0909314
:100F6000DB198093DA1961E083E30E947F0361E07B
:100F70008091D6190E947F0361E08091D8190E9468
:100F80007F0361E08091D8190E945103D093D51955
:100F9000C093D419E4E9F9E184ED99E111928E1737
:100FA0009F07E1F7D0E0C0E08091DA199091DB195A
:100FB000C817D90774F540E06FE0CE010E942A05FA
:100FC0008091DA199091DB19C817D9072CF447E002
:100FD0006BE0CE010E942A0540E069E0CE010E944C
:100FE0002A058091DA199091DB19C817D9071CF4EA
:100FF000CE010E9488058091DA199091DB19C817FB
:10100000D9072CF440E06CE0CE010E942A0521961D
:10101000CBCFEEE5F7E184E899E16AE04FE050E0FC
:1010200020ED37E0DF01762F1D927A95E9F75383A3
:101030004283358324833A968E179F0799F7DF9171
:10104000CF910895CF93DF9300D01F92CDB7DEB735
:10105000789484B5826084BD84B5816084BD85B593
:10106000826085BD85B5816085BD80916E0081609F
:1010700080936E0010928100809181008260809345
:101080008100809181008160809381008091800047
:101090008160809380008091B10084608093B10072
:1010A0008091B00081608093B00080919100826057
:1010B0008093910080919100816080939100809154
:1010C00090008160809390008091A1008260809365
:1010D000A1008091A10081608093A1008091A00077
:1010E00081608093A0008091210182608093210122
:1010F0008091210181608093210180912001816094
:101100008093200180917A00846080937A0080919E
:101110007A00826080937A0080917A008160809367
:101120007A0080917A00806880937A001092C100E2
:10113000E091D116F091D21682E08083E091CD1635
:10114000F091CE161082E091CF16F091D0168FEC70
:1011500080831092D916E091D516F091D61686E0CC
:101160008083E091D316F091D416808180618083D2
:10117000E091D316F091D416808188608083E0914D
:10118000D316F091D416808180688083E091D316C5
:10119000F091D41680818F7D80838091DA199091AF
:1011A000DB191816190634F441E06CE090E080E099
:1011B0000E942A058091DA199091DB1918161906F8
:1011C00034F44FE06AE090E080E00E942A058091CC
:1011D000DA199091DB191816190624F490E080E0D2
:1011E0000E94880529E935E13A83298369E8E62EDA
:1011F00065E1F62E67018901F80180810E5F1F4FBE
:1012000061E00E947F03F6018081F2E0CF0ED11CE5
:1012100061E00E947F0325E1093A120769F7E9813D
:10122000FA8180813296FA83E98361E00E9451035A
:10123000F7018081F2E0EF0EF11C60E00E945103A3
:1012400029813A81295A354151F760E083E00E94B3
:101250007F0360E08FE20E947F030E94500656E009
:10126000252E312C412C512C00E410E08091841566
:1012700081119DC38091B216882309F464C08091C6
:101280008215909183150097E9F482E095E10E9420
:10129000310480910014909101140097F1F482E0E0
:1012A00095E10E94790687E30E942803019709F0DF
:1012B00094C21092B21660E273E080E090E00E9467
:1012C000F2038BC28130910519F482E894E1DFCFFB
:1012D0000297F9F682E094E1DACF8130910519F4B2
:1012E00082E894E1DECF8230910519F482E094E146
:1012F000D8CF8330910519F480E893E1D2CF8430C0
:10130000910519F480E093E1CCCF8530910519F473
:1013100080E892E1C6CF8630910519F480E092E131
:10132000C0CF8730910519F480E891E1BACF8830B9
:10133000910519F480E091E1B4CF099709F0B3CF9A
:1013400080E890E1AECF8091B3169091B4160297E9
:101350000CF446C00E942504C090BD16D090BE1665
:10136000E090BF16F090C016AB01BC014C195D09AE
:101370006E097F098091B5169091B616092E000C62
:10138000AA0BBB0B84179507A607B70748F588E398
:101390000E942803019719F081E08093B11688E339
:1013A0000E9428030197E1F48091B1168823C1F0CF
:1013B0008091B3169091B416823091052CF001976C
:1013C0009093B4168093B3160E9425046093BD16C3
:1013D0007093BE168093BF169093C0161092B116EC
:1013E0008091B3169091B41606970CF046C00E94F7
:1013F0002504C090BD16D090BE16E090BF16F090A8
:10140000C016AB01BC014C195D096E097F098091C2
:10141000B5169091B616092E000CAA0BBB0B8417BB
:101420009507A607B70748F589E30E9428030197A7
:1014300019F081E08093B01689E30E942803019798
:10144000E1F48091B0168823C1F08091B316909199
:10145000B416863091052CF401969093B4168093BF
:10146000B3160E9425046093BD167093BE16809338
:10147000BF169093C0161092B0160E94AD13A20131
:1014800091010E940514E7ECF5E1FA83E98350E04D
:1014900040E021912111C0C14115510509F4A0C1BD
:1014A0009A0121503109AAE0A29FF001A39FF00DFB
:1014B0001124E25AF84E228133812C303105ACF4EC
:1014C000A49FF001A59FF00D1124E25AF84E7183FC
:1014D00060838FE090E09383828380ED97E0958333
:1014E0008483168217821086118647ECE42E45E12C
:1014F000F42E1C821B82F70181917F01882369F001
:101500008BE30E94B003EB81FC81E25AF84E880F16
:10151000991F880F991F958384832B813C81265FB7
:101520003F4F3C832B832632324029F780E1E0E9AC
:10153000F6E1A0EAB6E101900D928A95E1F780917B
:10154000B3169091B41601979801082E02C03595F4
:1015500027950A94E2F79091AC16922B9093AC16D3
:1015600060EE70E002C0759567958A95E2F760932A
:10157000AD162093AE166093AF169EE5E92E97E167
:10158000F92EFC82EB8227ECC22E25E1D22EF60149
:1015900081916F01882309F447C0EB81FC8182812E
:1015A00093816480758086809780A084B184208137
:1015B0003181215031098F30910509F034C1C801C2
:1015C00002C0959587952A95E2F79091A016892BF0
:1015D0008093A0161092C6151092C5150E9425047E
:1015E000681979098A099B094301770CAA08BB0885
:1015F00086169706A806B906B8F4EB81FC818281AD
:1016000093810197938382830E942504EB81FC815F
:101610006683778380879187828193818E3F9F4FF6
:101620001CF4F601319710822B813C81265F3F4FDD
:101630003C832B833EEFC31635E1D30609F0A7CFD9
:1016400080EA96E10E94C10584E8A82E89E1B82EBF
:10165000F7010190F081E02DFC83EB83F701C2805C
:10166000D3804601FFEF8F1A9F0AB4018B819C81C2
:1016700001970E946801782EB4018B819C810196AC
:101680000E946801982EB6018B819C810E9468019E
:10169000E981FA819191FA83E983992351F17110DB
:1016A00004C0911002C0882321F18091821590918D
:1016B0008315009709F039C182E095E10E94310459
:1016C00064E670E080E090E00E94F20380910014F4
:1016D00090910114009709F034C182E095E10E94D5
:1016E000790660E777E180E090E00E94F2030E94D3
:1016F0005006FAE0EF0EF11CAE14BF0409F0A8CFBB
:101700008091821590918315019709F05EC08091B8
:10171000001490910114029709F057C081E0809362
:1017200084150E9450060E940D0580E892E00E94F8
:1017300079068EEF95E10E949F0460E273E080E0FD
:1017400090E00E94F2030E940D0580E897E00E945D
:10175000790680E892E00E949F0460E273E080E0F6
:1017600090E00E94F2030E940D0580E092E00E944A
:10177000790680E897E00E949F0460E273E080E0D1
:1017800090E00E94F2030E940D058EEF95E10E9409
:10179000790680E092E00E949F0460E273E080E0BE
:1017A00090E00E94F2030E940D058EEF95E10E94E9
:1017B00079068EEF95E10E949F0460E273E080E07D
:1017C00090E00E94F2030E940D0587E30E94280327
:1017D000019719F481E08093B2160E94900246CDE1
:1017E00021E02093C71570935F1760935E178FE019
:1017F00090E0909361178093601780ED97E090934D
:1018000063178093621710926417109265171092F5
:1018100066171092671769CE4F5F5F4F47335105C8
:1018200009F037CE62CE40EE50E0022E02C0559550
:1018300047950A94E2F78E30910589F4C80102C0F9
:10184000959587952A95E2F79091A016892B80931C
:10185000A0168091A116482B4093A116BFCE8F3FB2
:10186000980789F48091AE16482B4093AE16C801B4
:1018700002C0959587952A95E2F79091AF16892B2E
:101880008093AF16ABCE8E3F6FEF960759F58091E0
:10189000AF16482B4093AF168091C5159091C61591
:1018A00001969093C6158093C515019709F096CEC1
:1018B00080910014909101140196909301148093EB
:1018C00000140A9709F08ACE8091821590918315B1
:1018D00001969093831580938215109201141092B3
:1018E00000147CCEEDE0F0E0E81BF90BE056F94E79
:1018F0003081342B3083EEE0F0E0E81BF90BE0564A
:10190000F94EB80102C0759567952A95E2F79B01DB
:101910003081232B2083EFE0F0E0E81BF90BE05649
:10192000F94E8081482B408359CE8130910519F4BE
:1019300082E894E1C3CE029709F0C2CE82E094E13E
:10194000BDCE8130910519F482E894E1C8CE823091
:10195000910519F482E094E1C2CE8330910519F427
:1019600080E893E1BCCE8430910519F480E093E1E6
:10197000B6CE8530910519F480E892E1B0CE86307C
:10198000910519F480E092E1AACE8730910519F40F
:1019900080E891E1A4CE8830910519F480E091E1CE
:1019A0009ECE099709F09DCE80E890E198CE87E31E
:1019B0000E942803019709F042C00E9425046B0190
:1019C0007C01C0928C16D0928D16E0928E16F09209
:1019D0008F1687E30E94B003019759F40E942504F3
:1019E000609388167093891680938A1690938B164D
:1019F000F0CF8091881690918916A0918A16B091A7
:101A00008B168C199D09AE09BF098093841690939B
:101A10008516A0938616B0938716803A9F40A1053D
:101A2000B10540F01092841564EF71E080E090E021
:101A30000E94F2036AEF70E080E090E040CC809179
:101A4000841690918516A0918616B0918716803ADB
:101A50009F40A105B10510F0109284158FE20E94FD
:101A600028037C0190938316809382168AE30E9458
:101A7000B0039A8389839093811680938016809116
:101A80007E1690917F1641E0E416F10409F08BC3B5
:101A90000097B9F480E093E00E9479068EEF95E11B
:101AA0000E949F04E981FA81BF01FF0F880B990B07
:101AB0000E94F2030E940D05F0927F16E0927E16BE
:101AC000B9CF81309105C9F480E893E00E9479068E
:101AD0008EEF95E10E949F0429813A81B901330F6D
:101AE000880B990B0E94F2030E940D0542E050E022
:101AF00050937F1640937E169DCF82309105C9F496
:101B000080E094E00E94790680E093E00E949F04C8
:101B1000E981FA81BF01FF0F880B990B0E94F20344
:101B20000E940D0523E030E030937F1620937E164F
:101B300081CF83309105C9F480E894E00E94790652
:101B400080E893E00E949F0449815A81BA01550FB1
:101B5000880B990B0E94F2030E940D0564E070E06F
:101B600070937F1660937E1665CF84309105A9F43B
:101B700080E095E00E94790680E094E00E949F0456
:101B8000E981FA81BF01FF0F880B990B0E94F203D4
:101B90000E940D0525E030E0C7CF85309105A9F4FE
:101BA00080E899E00E94790680E894E00E949F0412
:101BB00049815A81BA01550F880B990B0E94F20393
:101BC0000E940D0566E070E0CBCF86309105A9F448
:101BD00080E895E00E94790680E095E00E949F04ED
:101BE000E981FA81BF01FF0F880B990B0E94F20374
:101BF0000E940D0527E030E097CF87309105A9F4CA
:101C000080E898E00E94790680E899E00E949F04AD
:101C100049815A81BA01550F880B990B0E94F20332
:101C20000E940D0588E090E087C288309105A9F4F4
:101C300080E096E00E94790680E895E00E949F048B
:101C4000E981FA81BF01FF0F880B990B0E94F20313
:101C50000E940D0589E090E06FC289309105A9F4DA
:101C600080E896E00E94790680E898E00E949F0450
:101C700029813A81B901330F880B990B0E94F20335
:101C80000E940D058AE090E057C28A309105A9F4C0
:101C900080E097E00E94790680E096E00E949F0431
:101CA00049815A81BA01550F880B990B0E94F203A2
:101CB0000E940D058BE090E03FC28B309105A9F4A6
:101CC00080E897E00E94790680E896E00E949F04F1
:101CD000E981FA81BF01FF0F880B990B0E94F20383
:101CE0000E940D058CE090E027C28C309105A9F48C
:101CF00080E098E00E94790680E097E00E949F04CF
:101D000029813A81B901330F880B990B0E94F203A4
:101D10000E940D058DE090E00FC28D309105A9F471
:101D200080E898E00E94790680E897E00E949F048E
:101D300049815A81BA01550F880B990B0E94F20311
:101D40000E940D058EE090E0F7C18E309105A9F458
:101D500080E099E00E94790680E098E00E949F046C
:101D6000E981FA81BF01FF0F880B990B0E94F203F2
:101D70000E940D058FE090E0DFC18F309105A9F43E
:101D800080E899E00E94790680E898E00E949F042C
:101D900029813A81B901330F880B990B0E94F20314
:101DA0000E940D0580E190E0C7C180319105A9F442
:101DB00080E09AE00E94790680E099E00E949F040A
:101DC00049815A81BA01550F880B990B0E94F20381
:101DD0000E940D0581E190E0AFC181319105A9F428
:101DE00082E894E10E94790680E899E00E949F04CD
:101DF000E981FA81BF01FF0F880B990B0E94F20362
:101E00000E940D0582E190E097C182319105A9F40D
:101E100080E89AE00E94790680E09AE00E949F04A0
:101E200029813A81B901330F880B990B0E94F20383
:101E30000E940D0583E190E07FC183319105A9F4F3
:101E400080E89BE00E94790682E894E10E949F046A
:101E500049815A81BA01550F880B990B0E94F203F0
:101E60000E940D0584E190E067C184319105A9F4D9
:101E700082E094E10E94790680E89BE00E949F0442
:101E8000E981FA81BF01FF0F880B990B0E94F203D1
:101E90000E940D0585E190E04FC185319105A9F4BF
:101EA00080E09CE00E94790680E09BE00E949F0415
:101EB00029813A81B901330F880B990B0E94F203F3
:101EC0000E940D0586E190E037C186319105A9F4A5
:101ED00082E095E10E94790682E094E10E949F04ED
:101EE00049815A81BA01550F880B990B0E94F20360
:101EF0000E940D0587E190E01FC187319105A9F48B
:101F000080E89CE00E94790680E09CE00E949F04AB
:101F1000E981FA81BF01FF0F880B990B0E94F20340
:101F20000E940D0588E190E007C188319105A9F470
:101F300082E894E10E94790682E094E10E949F0485
:101F400029813A81B901330F880B990B0E94F20362
:101F50000E940D0589E190E0EFC089319105A9F457
:101F600080E09DE00E94790680E89CE00E949F044A
:101F700049815A81BA01550F880B990B0E94F203CF
:101F80000E940D058AE190E0D7C08A319105A9F43D
:101F900080E891E10E94790682E894E10E949F0422
:101FA000E981FA81BF01FF0F880B990B0E94F203B0
:101FB0000E940D058BE190E0BFC08B319105A9F423
:101FC00080E89DE00E94790680E09DE00E949F04E9
:101FD00029813A81B901330F880B990B0E94F203D2
:101FE0000E940D058CE190E0A7C08C319105A9F409
:101FF00082E894E10E94790680E891E10E949F04C2
:1020000049815A81BA01550F880B990B0E94F2033E
:102010000E940D058DE190E08FC08D319105A9F4EE
:1020200080E09EE00E94790680E89DE00E949F0487
:10203000E981FA81BF01FF0F880B990B0E94F2031F
:102040000E940D058EE190E077C08E319105A9F4D4
:1020500082E095E10E94790682E894E10E949F0463
:1020600029813A81B901330F880B990B0E94F20341
:102070000E940D058FE190E05FC08F319105A9F4BA
:1020800080E89EE00E94790680E09EE00E949F0426
:1020900049815A81BA01550F880B990B0E94F203AE
:1020A0000E940D0580E290E047C080329105A9F4BE
:1020B00080E893E10E94790682E095E10E949F0406
:1020C000E981FA81BF01FF0F880B990B0E94F2038F
:1020D0000E940D0581E290E02FC081329105A9F4A4
:1020E00080E09FE00E94790680E89EE00E949F04C5
:1020F00029813A81B901330F880B990B0E94F203B1
:102100000E940D0582E290E017C082329105C9F469
:1021100080E890E10E94790680E893E10E949F04A4
:1021200049815A81BA01550F880B990B0E94F2031D
:102130000E940D0583E290E090937F1680937E16B7
:1021400079CC83329105A9F480E89FE00E9479065A
:1021500080E09FE00E949F04E981FA81BF01FF0FA8
:10216000880B990B0E94F2030E940D0524E230E0D7
:10217000DBCC849709F05ECC82E094E10E94790682
:1021800080E890E10E949F0449815A81BA01550F6D
:10219000880B990B0E94F2030E940D0510927F1686
:1021A00010927E1647CC8497C1F48EEF95E10E9481
:1021B000790682E094E10E949F04E981FA81BF01DF
:1021C000FF0F880B990B0E94F2030E940D0583E21A
:1021D00090E090937F1680937E1680917E1690916A
:1021E0007F168332910539F480E090E10E947906F0
:1021F00080E89FE07BCF8232910579F482E094E120
:102200000E94790680E890E10E949F0449815A81EA
:10221000BA01550F880B990B59CF8132910579F48A
:1022200080E89FE00E94790680E09FE00E949F0482
:10223000E981FA81BF01FF0F880B990B2FCF803204
:10224000910539F480E890E10E94790680E893E1F5
:1022500005CF8F31910579F480E09FE00E947906E7
:1022600080E89EE00E949F0449815A81BA01550F7F
:10227000880B990BE3CE8E31910579F480E893E1D8
:102280000E94790682E095E10E949F04E981FA812B
:10229000BF01FF0F880B990BB9CE8D31910539F431
:1022A00080E89EE00E94790680E09EE08FCE8C312F
:1022B000910579F482E095E10E94790682E894E143
:1022C0000E949F0449815A81BA01550F880B990BCE
:1022D0006DCE8B31910579F480E09EE00E94790605
:1022E00080E89DE00E949F04E981FA81BF01FF0F11
:1022F000880B990B43CE8A31910539F482E894E139
:102300000E94790680E891E119CE8931910579F42E
:1023100080E891E10E94790682E894E10E949F049E
:1023200049815A81BA01550F880B990BF7CD883135
:10233000910579F480E09DE00E94790680E89CE0B8
:102340000E949F04E981FA81BF01FF0F880B990B5E
:10235000CDCD8731910539F482E894E10E94790668
:1023600082E095E1A3CD8631910579F480E89CE087
:102370000E94790680E09CE00E949F0449815A8176
:10238000BA01550F880B990B81CD8531910579F4F0
:1023900082E095E10E94790682E094E10E949F0428
:1023A000E981FA81BF01FF0F880B990B57CD84316A
:1023B000910539F482E094E10E94790680E89BE07F
:1023C0002DCD8331910579F480E09BE00E94790660
:1023D00080E89AE00E949F0449815A81BA01550F12
:1023E000880B990B0BCD8231910579F480E89BE045
:1023F0000E94790682E894E10E949F04E981FA81B3
:10240000BF01FF0F880B990BE1CC8131910539F4A5
:1024100080E89AE00E94790680E09AE0B7CC8031AB
:10242000910579F482E894E10E94790680E899E0C8
:102430000E949F0449815A81BA01550F880B990B5C
:1024400095CC8F30910579F480E09AE00E9479066E
:1024500080E099E00E949F04E981FA81BF01FF0FAB
:10246000880B990B6BCC8E30910539F480E899E09C
:102470000E94790680E898E041CC8D30910579F48E
:1024800080E099E00E94790680E098E00E949F0435
:1024900049815A81BA01550F880B990B1FCC8C309A
:1024A000910579F480E898E00E94790680E897E049
:1024B0000E949F04E981FA81BF01FF0F880B990BED
:1024C000F5CB8B30910539F480E098E00E947906D5
:1024D00080E097E0CBCB8A30910579F480E897E0F3
:1024E0000E94790680E896E00E949F0449815A8103
:1024F000BA01550F880B990BA9CB8930910579F456
:1025000080E097E00E94790680E096E00E949F04B8
:10251000E981FA81BF01FF0F880B990B7FCB8830CF
:102520009105A9F480E896E00E94790680E898E099
:102530000E949F0429813A81B901330F880B990BBE
:102540000E94F2030E940D0547E050E0D1CA873097
:102550009105A9F480E096E00E94790680E895E074
:102560000E949F04E981FA81BF01FF0F880B990B3C
:102570000E94F2030E940D0526E030E0D5CA8630A5
:102580009105A9F480E898E00E94790680E899E036
:102590000E949F0449815A81BA01550F880B990BFB
:1025A0000E94F2030E940D0565E070E0D9CA8530F3
:1025B0009105A9F480E895E00E94790680E095E015
:1025C0000E949F04E981FA81BF01FF0F880B990BDC
:1025D0000E94F2030E940D0524E030E0A5CA843079
:1025E0009105A9F480E899E00E94790680E894E0DA
:1025F0000E949F0449815A81BA01550F880B990B9B
:102600000E94F2030E940D0563E070E0A9CA8330C6
:102610009105A9F480E095E00E94790680E094E0BD
:102620000E949F04E981FA81BF01FF0F880B990B7B
:102630000E94F2030E940D0522E030E075CA82304C
:102640009105A9F480E894E00E94790680E893E07F
:102650000E949F0449815A81BA01550F880B990B3A
:102660000E94F2030E940D0561E070E079CA81309A
:10267000910579F480E094E00E94790680E093E08F
:102680000E949F04E981FA81BF01FF0F880B990B1B
:1026900081CD892B09F0CEC980E893E00E947906AC
:1026A0008EEF95E10E949F0429813A81B901330F91
:1026B000880B990B0E94F2030E940D0544E250E042
:1026C00017CA8F929F92AF92BF92CF92DF92EF92F2
:1026D000FF92CF93DF93EC01688179818A819B819E
:1026E000611571058105910521F464E279ED8BE5B1
:1026F00097E02DE133EF41E050E00E9405144901DD
:102700005A019B01AC01A7EAB1E40E9424146B01B9
:102710007C01ACEEB4EFA50194010E943214C60E08
:10272000D71EE81EF91EF7FE06C081E0C81AD108C0
:10273000E10880E8F80AC882D982EA82FB82C701F0
:10274000B6019F77DF91CF91FF90EF90DF90CF9010
:10275000BF90AF909F908F9008958F929F92AF926D
:10276000BF92CF92DF92EF92FF92609185157091A8
:1027700086158091871590918815611571058105E1
:10278000910521F464E279ED8BE597E02DE133EFDB
:1027900041E050E00E94051449015A019B01AC013F
:1027A000A7EAB1E40E9424146B017C01ACEEB4EF03
:1027B000A50194010E943214C60ED71EE81EF91E10
:1027C000F7FE06C081E0C81AD108E10880E8F80ADF
:1027D000C0928515D0928615E0928715F0928815E3
:1027E000C701B6019F77FF90EF90DF90CF90BF9029
:1027F000AF909F908F900895609385157093861584
:1028000080938715909388150895052E97FB1EF4E5
:1028100000940E941C1457FD07D00E94371407FC37
:1028200003D04EF40C941C1450954095309521958E
:102830003F4F4F4F5F4F08959095809570956195EC
:102840007F4F8F4F9F4F08950E945914A59F900D61
:10285000B49F900DA49F800D911D11240895B7FF82
:102860000C9424140E942414821B930B0895A1E25B
:102870001A2EAA1BBB1BFD010DC0AA1FBB1FEE1FFA
:10288000FF1FA217B307E407F50720F0A21BB30B45
:10289000E40BF50B661F771F881F991F1A9469F7C1
:1028A00060957095809590959B01AC01BD01CF011D
:1028B0000895A29FB001B39FC001A39F700D811D19
:1028C0001124911DB29F700D811D1124911D089539
:1028D000EE0FFF1F881F8BBF0790F691E02D199414
:1028E000F894FFCF0000000000000000000000008E
:1028F00000000000000000000000000000000000D8
:1029000000000000000001000000000000000100C5
:1029100000000000000001000100000000000100B4
:1029200000000000000001000000010000000100A4
:102930000000000000000100000000000100010094
:102940000000000000000100000000000000010085
:102950000000000000000000000000000000000077
:102960000000000000000000000000000000000067
:102970000000000000000100000000000000010055
:102980000000000000000100000000000000010045
:102990000000000000000100000001000000010034
:1029A0000000000000000100010000000100010023
:1029B0000000000000000100000000000000010015
:1029C0000000000000000000000000000000000007
:1029D00000000000000000000000000000000000F7
:1029E00000000000000000000000000000000000E7
:1029F00000000000000000000000000000000000D7
:102A000000000000000000000000000000000000C6
:102A100000000000000000000000000000000000B6
:102A200000000000000000000000000000000000A6
:102A30000000000000000100010001000100000092
:102A40000000000000000100010000000000010083
:102A50000000000000000100010001000100000072
:102A60000000000000000000000000000000000066
:102A70000000000000000100010001000100000052
:102A80000000000000000100010000000000010043
:102A90000000000000000100010001000100000032
:102AA0000000000000000100010000000000000024
:102AB0000000000000000100010000000000000014
:102AC0000000000000000100010000000000000004
:102AD00000000000000000000000000000000000F6
:102AE00000000000000001000100000000000000E4
:102AF00000000000000001000100000000000000D4
:102B000000000000000001000100000000000000C3
:102B100000000000000000000000000000000000B5
:102B200000000000000000000000000000000000A5
:102B30000000000000000100010001000100000091
:102B40000000000000000100000000000000010083
:102B50000000000000000100000000000000010073
:102B60000000000000000000000000000000000065
:102B70000000000000000100010001000100000051
:102B80000000000000000100000000000000010043
:102B90000000000000000100000000000000010033
:102BA0000000000000000100010001000100000021
:102BB0000000000000000100000001000000000013
:102BC0000000000000000100000000000100000003
:102BD00000000000000000000000000000000000F5
:102BE00000000000000001000100010001000000E1
:102BF00000000000000001000000010000000000D3
:102C000000000000000001000000000001000000C2
:102C100000000000000000000000000000000000B4
:102C200000000000000000000000000000000000A4
:102C30000000000000000000010001000000000092
:102C40000000000000000100000000000100000082
:102C50000000000000000100000000000100000072
:102C60000000000000000100010001000100000060
:102C70000000000000000100000000000100000052
:102C80000000000000000100000000000100000042
:102C90000000000000000000000000000000000034
:102CA0000000000000000000000000000000000024
:102CB0000000000000000000010001000100000011
:102CC0000000000000000100000000000000000003
:102CD00000000000000001000000000000000000F3
:102CE00000000000000001000000000000000000E3
:102CF00000000000000001000000000000000000D3
:102D000000000000000000000100010001000000C0
:102D100000000000000000000000000000000000B3
:102D200000000000000000000000000000000000A3
:102D3000000000000000010001000100010001008E
:102D40000000000000000000000001000000000082
:102D50000000000000000000000001000000000072
:102D60000000000000000000000000000000000063
:102D7000000000000000010001000100010001004E
:102D80000000000000000000000001000000000042
:102D90000000000000000000000001000000000032
:102DA0000000000000000000000001000000000022
:102DB0000000000000000000000001000000000012
:102DC0000000000000000000000001000000000002
:102DD00000000000000000000000000000000000F3
:102DE00000000000000000000000010000000000E2
:102DF00000000000000000000000010000000000D2
:102E000000000000000000000000010000000000C1
:102E100000000000000000000000000000000000B2
:102E200000000000000000000000000000000000A2
:102E3000000000000000010001000100010001008D
:102E40000000000000000000000001000000000081
:102E50000000000000000000000001000000000071
:102E60000000000000000000000000000000000062
:102E7000000000000000010001000100010001004D
:102E80000000000000000000000001000000000041
:102E90000000000000000000000001000000000031
:102EA0000000000000000000000001000000000021
:102EB0000000000000000000000001000000000011
:102EC00000000000000001000100010001000100FD
:102ED00000000000000000000000000000000000F2
:102EE00000000000000000000000010000000000E1
:102EF00000000000000000000000010000000000D1
:102F000000000000000001000100010001000100BC
:102F100000000000000000000000000000000000B1
:102F200000000000000000000000000000000000A1
:102F3000000000000000000001000100010000008E
:102F40000000000000000100000000000000000080
:102F50000000000000000100000000000000000070
:102F60000000000000000000000000000000000061
:102F7000000000000000000001000100010000004E
:102F80000000000000000100000000000000000040
:102F90000000000000000100000000000000000030
:102FA0000000000000000100000000000000000020
:102FB0000000000000000100000000000000000010
:102FC00000000000000000000100010001000000FE
:102FD00000000000000000000000000000000000F1
:102FE00000000000000001000000000000000000E0
:102FF00000000000000001000000000000000000D0
:1030000000000000000000000100010001000000BD
:1030100000000000000000000000000000000000B0
:1030200000000000000000000000000000000000A0
:10303000000000000000000001000100000000008E
:10304000000000000000010000000000010000007E
:10305000000000000000010000000000010000006E
:103060000000000000000000000000000000000060
:10307000000000000000000001000100000000004E
:10308000000000000000010000000000010000003E
:10309000000000000000010000000000010000002E
:1030A000000000000000010001000100010000001C
:1030B000000000000000010000000000010000000E
:1030C00000000000000001000000000001000000FE
:1030D00000000000000000000000000000000000F0
:1030E00000000000000001000100010001000000DC
:1030F00000000000000001000000000001000000CE
:1031000000000000000001000000000001000000BD
:1031100000000000000000000000000000000000AF
:10312000000000000000000000000000000000009F
:10313000000000000000000001000100000000008D
:10314000000000000000000000000100000000007E
:10315000000000000000000000000100000000006E
:10316000000000000000000000000100000000005E
:10317000000000000000000000000100000000004E
:10318000000000000000000001000100010000003C
:10319000000000000000000000000000000000002F
:1031A000000000000000000000000000000000001F
:1031B000000000000000000000000000000000000F
:1031C00000000000000000000100010001000100FB
:1031D00000000000000000000000000000000000EF
:1031E00000000000000000000000000000000000DF
:1031F00000000000000000000000000000000000CF
:1032000000000000000000000000000000000000BE
:1032100000000000000000000000000000000000AE
:10322000000000000000000000000000000000009E
:10323000000000000000000000000000000000008E
:10324000000000000000010001000100010000007A
:10325000000000000000000000000000000001006D
:10326000000000000000000000000000000000005E
:10327000000000000000000000000000000000004E
:10328000000000000000000000000000000000003E
:10329000000000000000000001000100010001002A
:1032A000000000000000000000000000000000001E
:1032B000000000000000000000000000000000000E
:1032C00000000000000000000000000000000000FE
:1032D00000000000000000000000000000000000EE
:1032E00000000000000000000100010001000000DB
:1032F00000000000000001000000000000000000CD
:1033000000000000000001000100010001000100B8
:1033100000000000000000000000000000000000AD
:10332000000000000000000000000000000000009D
:10333000000000000000000001000100010000008A
:10334000000000000000010000000000010001007A
:10335000000000000000010000000100000001006A
:10336000000000000000010000000100000001005A
:10337000000000000000010001000000000001004A
:10338000000000000000000001000100010000003A
:10339000000000000000000000000000000000002D
:1033A000000000000000000000000000000000001D
:1033B000000000000000000001000100000000000B
:1033C00000000000000000000000010000000000FC
:1033D00000000000000000000000010000000000EC
:1033E00000000000000000000000010000000000DC
:1033F00000000000000000000000010000000000CC
:1034000000000000000000000100010001000000B9
:1034100000000000000000000000000000000000AC
:10342000000000000000000000000000000000009C
:103430000000000000000000010001000100010088
:10344000010000000000000000000000000000007B
:10345000010000000000000000000000000001006A
:10346000000000000000000000000000010000005B
:10347000000000000000000000000100000000004B
:10348000000000000000000001000000000000003B
:10349000000000000000000000000000000000002C
:1034A000000000000000000000000000000000001C
:1034B000000000000000000001000100000000000A
:1034C00000000000000000000000010000000000FB
:1034D00000000000000000000000010000000000EB
:1034E00000000000000000000000010000000000DB
:1034F00000000000000000000000010000000000CB
:1035000000000000000000000100010001000000B8
:1035100000000000000000000000000000000000AB
:10352000000000000000000000000000000000009B
:103530000000000000000000010001000100000088
:103540000000000000000100000000000100010078
:103550000000000000000100000001000000010068
:103560000000000000000100000001000000010058
:103570000000000000000100010000000000010048
:103580000000000000000000010001000100000038
:10359000000000000000000000000000000000002B
:1035A000000000000000000000000000000000001B
:1035B0000000000000000000010001000100010007
:1035C00000000000000000000000000000000000FB
:1035D00001000000000000000000000001000100E8
:1035E00000000000000000000000000000000000DB
:1035F00001000000000000000000000000000000CA
:1036000001000000000000000100010001000100B5
:1036100001000000000000000000000000000000A9
:10362000000000000000000000000000000000009A
:103630000000000000000000010001000100000087
:103640000000000000000100000000000000010078
:103650000000000000000000010001000100010066
:103660000000000000000000000000000000010059
:103670000000000000000000000000000000010049
:103680000000000000000000010001000100000037
:10369000000000000000000000000000000000002A
:1036A000000000000000000000000000000000001A
:1036B0000000000000000100010001000100000006
:1036C00000000000000000000000000000000100F9
:1036D00000000000000000000100010001000000E7
:1036E00000000000000001000000000000000000D9
:1036F00000000000000001000100010001000100C5
:1037000000000000000000000000000000000000B9
:1037100000000000000000000000000000000000A9
:103720000000000000000000000000000000000099
:103730000000000000000000000000000000000089
:103740000000000000000000000000000000000079
:103750000000000000000000000000000000000069
:103760000000000000000000000000000000000059
:103770000000000000000000010001000100000046
:103780000000000000000100000000000000010037
:103790000000000000000000010001000100010025
:1037A0000000000000000000000000000000010018
:1037B0000000000000000000000000000000010008
:1037C00000000000000000000100010001000000F6
:1037D00000000000000000000000000000000000E9
:1037E00000000000000000000000000000000000D9
:1037F00000000000000000000000000000000000C9
:1038000000000000000000000100010001000000B5
:1038100000000000000001000000000000000100A6
:103820000000000000000000010001000100000095
:103830000000000000000100000000000000010086
:103840000000000000000000010001000100000075
:103850000000000000000000000000000000000068
:103860000000000000000000000000000000000058
:103870000000000000000000010001000100010044
:103880000100000000000000000000000000000037
:103890000100000000000000000000000000010026
:1038A0000000000000000000000000000100000017
:1038B0000000000000000000000001000000000007
:1038C00000000000000000000100000000000000F7
:1038D00000000000000000000000000000000000E8
:1038E00000000000000000000000000000000000D8
:1038F00000000000000000000000000000000000C8
:1039000000000000000000000100010001000100B3
:1039100000000000000001000000000000000000A6
:103920000000000000000100010001000100000093
:103930000000000000000100000000000000010085
:103940000000000000000000010001000100000074
:103950000000000000000000000000000000000067
:103960000000000000000000000000000000000057
:103970000000000000000000000000000000000047
:103980000000000000000100010001000100010032
:103990000000000000000100000000000000000026
:1039A0000000000000000100010001000100000013
:1039B0000000000000000000000000000000010006
:1039C00000000000000001000100010001000000F3
:1039D00000000000000000000000000000000000E7
:1039E00000000000000000000000000000000000D7
:1039F00000000000000000000000000000000000C7
:103A000000000000000000000000010001000000B4
:103A100000000000000000000100000001000000A4
:103A20000000000000000100000000000100000094
:103A30000000000000000100010001000100010081
:103A40000000000000000000000000000100000075
:103A50000000000000000000000000000000000066
:103A60000000000000000000000000000000000056
:103A70000000000000000000010001000100010042
:103A80000000000000000000000000000000000036
:103A90000100000000000000000000000100010023
:103AA0000000000000000000000000000000000016
:103AB0000100000000000000000000000000000005
:103AC00001000000000000000100010001000100F1
:103AD00001000000000000000000000000000000E5
:103AE00000000000010000000000000000000000D5
:103AF00000000000000000000000000000000000C6
:103B000000000000000000000100010001000100B1
:103B100000000000000000000000000000000000A5
:103B20000100000000000000000001000100010091
:103B30000000000000000000010000000000000084
:103B40000000000000000000010001000100010071
:103B50000100000000000000000000000000000064
:103B60000000000000000000000000000000000055
:103B70000000000000000000000001000100000043
:103B80000000000000000000000000000100000034
:103B90000000000000000000000000000100000024
:103BA0000000000000000000000000000100000014
:103BB0000000000000000000000000000100000004
:103BC00000000000000000000000010001000100F2
:103BD00000000000000000000000000000000000E5
:103BE00000000000000000000000000000000000D5
:103BF00000000000000000000000000000000000C5
:103C000000000000000000000000010001000100B1
:103C100000000000000000000100000000000100A2
:103C20000100000000000000010000000100000091
:103C30000100000000000000010001000000000081
:103C40000100000000000000000001000100010070
:103C50000000000000000000000000000000000064
:103C60000000000000000100010100000020002110
:103C7000002200230024002500260027001600173C
:103C800000180019001A001B001C001D0000000095
:103C90000023028D01BA017002EB01C901DD0100B0
:020000040003F7
:10E000000D9489F10D94B2F10D94B2F10D94B2F129
:10E010000D94B2F10D94B2F10D94B2F10D94B2F1F0
:10E020000D94B2F10D94B2F10D94B2F10D94B2F1E0
:10E030000D94B2F10D94B2F10D94B2F10D94B2F1D0
:10E040000D94B2F10D94B2F10D94B2F10D94B2F1C0
:10E050000D94B2F10D94B2F10D94B2F10D94B2F1B0
:10E060000D94B2F10D94B2F10D94B2F10D94B2F1A0
:10E070000D94B2F10D94B2F10D94B2F10D94B2F190
:10E080000D94B2F10D94B2F10D94B2F10D94B2F180
:10E090000D94B2F10D94B2F10D94B2F10D94B2F170
:10E0A0000D94B2F10D94B2F10D94B2F10D94B2F160
:10E0B0000D94B2F10D94B2F10D94B2F10D94B2F150
:10E0C0000D94B2F10D94B2F10D94B2F10D94B2F140
:10E0D0000D94B2F10D94B2F10D94B2F10D94B2F130
:10E0E0000D94B2F141546D656761323536300041AF
:10E0F000726475696E6F206578706C6F72657220DE
:10E1000073746B3530305632206279204D4C530099
:10E11000426F6F746C6F616465723E004875683F52
:10E1200000436F6D70696C6564206F6E203D200048
:10E130004350552054797065202020203D20005FF9
:10E140005F4156525F415243485F5F3D2000415658
:10E1500052204C696243205665723D20004743437C
:10E160002056657273696F6E203D20004350552024
:10E1700049442020202020203D20004C6F7720663D
:10E18000757365202020203D20004869676820665F
:10E190007573652020203D200045787420667573D6
:10E1A00065202020203D20004C6F636B2066757336
:10E1B000652020203D20004D617220203720323024
:10E1C000313300312E362E3800342E332E350056A2
:10E1D00023202020414444522020206F7020636F70
:10E1E00064652020202020696E73747275637469E1
:10E1F0006F6E2061646472202020496E74657272B3
:10E20000757074006E6F20766563746F7200726A49
:10E210006D702020006A6D70200057686174207056
:10E220006F72743A00506F7274206E6F7420737541
:10E2300070706F72746564004D7573742062652030
:10E2400061206C6574746572002000577269747483
:10E25000696E672045450052656164696E672045B7
:10E26000450045452065727220636E743D00504F35
:10E27000525400303D5A65726F2061646472003FF1
:10E280003D43505520737461747300403D454550C3
:10E29000524F4D207465737400423D426C696E6B41
:10E2A000204C454400453D44756D70204545505215
:10E2B0004F4D00463D44756D7020464C415348001B
:10E2C000483D48656C70004C3D4C69737420492F83
:10E2D0004F20506F72747300513D51756974005234
:10E2E0003D44756D702052414D00563D73686F7707
:10E2F00020696E7465727275707420566563746FF0
:10E30000727300593D506F727420626C696E6B00BD
:10E310002A0011241FBECFEFD1E2DEBFCDBF01E046
:10E320000CBF12E0A0E0B2E0EEE1FDEF03E00BBFB6
:10E3300002C007900D92A030B107D9F712E0A0E01B
:10E34000B2E001C01D92AE30B107E1F70F9460F367
:10E350000D948DFE01E20EBF0FEF0DBF11241FBE05
:10E360000D9460F30D9400F020E030E040ED57E0B4
:10E3700005C0FA013197F1F72F5F3F4F2817390792
:10E38000C0F308959C01260F311DC901A0E0B0E043
:10E390002F5F3F4FABBFFC018791882361F08093D3
:10E3A000C6008091C00086FFFCCF8091C0008064D1
:10E3B0008093C000EACF08958DE08093C6008091DD
:10E3C000C00086FFFCCF8091C00080648093C000B5
:10E3D0008AE08093C6008091C00086FFFCCF8091C8
:10E3E000C00080648093C00008950F94C2F10F9420
:10E3F000DCF10895FC019081992359F09093C600B7
:10E400008091C00086FFFCCF8091C0008064809323
:10E41000C0003196992379F70895282F982F929567
:10E420009F70892F805D8A3308F0895F8093C600D2
:10E430008091C00086FFFCCF8091C00080648093F3
:10E44000C000822F8F70982F905D9A3308F0995FEB
:10E450009093C6008091C00086FFFCCF8091C000E1
:10E4600080648093C00008959C01FB01853691056E
:10E470001CF46330710594F0C90164E670E00F94F8
:10E480002EFE605D7F4F6093C6008091C00086FFC6
:10E49000FCCF8091C00080648093C0002B30310598
:10E4A00014F43297B4F0C90164E670E00F942EFEC4
:10E4B0006AE070E00F942EFE605D7F4F6093C600AF
:10E4C0008091C00086FFFCCF8091C0008064809363
:10E4D000C000C9016AE070E00F942EFEC0968093E0
:10E4E000C6008091C00086FFFCCF8091C000806490
:10E4F0008093C00008951F93182F8EE692EE60E07F
:10E500000F94C2F11093C6008091C00086FFFCCF2B
:10E510008091C00080648093C0000F94DCF11F9153
:10E5200008952F923F924F925F926F927F928F92B7
:10E530009F92AF92BF92CF92DF92EF92FF920F9392
:10E540001F93DF93CF93CDB7DEB762970FB6F894E2
:10E55000DEBF0FBECDBF382E622ECA01DB015C01CB
:10E560006D01772420E2222E2E010894411C511CBB
:10E570008BC081E0A81680E0B80681E0C80680E084
:10E58000D80628F0C601AA27BB270F940DF2BB2797
:10E59000AD2D9C2D8B2D0F940DF28A2D0F940DF225
:10E5A0002092C6008091C00086FFFCCF8091C00001
:10E5B00080648093C0009DE29093C6008091C0006B
:10E5C00086FFFCCF8091C00080648093C0002092C1
:10E5D000C6008091C00086FFFCCF8091C00080649F
:10E5E0008093C00019828601750188249924A1E0D6
:10E5F0003A1651F03A1620F0B2E03B1661F409C029
:10E600000BBFF701779007C0C7010F9477FE782EF4
:10E6100002C0F7017080872D0F940DF22092C60082
:10E620008091C00086FFFCCF8091C0008064809301
:10E63000C000872D8052F401EF70F0708F3520F408
:10E64000E40DF51D708204C0E40DF51D8EE280839B
:10E650000894E11CF11C011D111D0894811C911CE2
:10E6600090E18916910409F0C2CF80E190E0A0E02A
:10E67000B0E0A80EB91ECA1EDB1E198AC2010F9493
:10E68000FAF10F94DCF16A94662009F072CF629679
:10E690000FB6F894DEBF0FBECDBFCF91DF911F91B3
:10E6A0000F91FF90EF90DF90CF90BF90AF909F9031
:10E6B0008F907F906F905F904F903F902F90089534
:10E6C0002F923F924F925F926F927F928F929F9282
:10E6D000AF92BF92CF92DF92EF92FF920F931F9370
:10E6E000DF93CF93CDB7DEB7CD53D1400FB6F894BB
:10E6F000DEBF0FBECDBF01E20EBF0FEF0DBF94B75F
:10E70000F894A89514BE80916000886180936000A1
:10E7100010926000789493FF05C0E0910002F091A0
:10E7200001021995279A2F9A8091C00082608093E8
:10E73000C00080E18093C40088E18093C1000000A4
:10E74000EE24FF24870144E0A42EB12CCC24DD2448
:10E7500024C0C5010197F1F70894E11CF11C011DCB
:10E76000111D21E2E2162EE4F20620E0020720E06D
:10E77000120718F031E0C32ED12CC801B70127ECE5
:10E780003BE140E050E00F9441FE611571058105C9
:10E79000910519F485B1805885B98091C00087FD35
:10E7A00003C0C114D104A9F2A6014F5F5F4FC25E3E
:10E7B000DE4F59834883CE51D140C25EDE4F8881FF
:10E7C0009981CE51D140019711F00D9410FEC05D9A
:10E7D000DE4F19821882C053D14060E0C15DDE4F28
:10E7E0001882CF52D14088249924C35DDE4F19820C
:10E7F0001882CD52D140C05EDE4F188219821A8233
:10E800001B82C052D140CE5CDE4F188219821A8220
:10E810001B82C253D140EE24FF2487010BBFF701B6
:10E8200007911691C45CDE4F19830883CC53D14005
:10E830000D940BFEC25EDE4F28813981CE51D1404E
:10E840002130310509F52091C600C25EDE4F1982E4
:10E850001882CE51D14022C02F5F3F4F4F4F5F4FA4
:10E86000213082E138078AE7480780E0580780F0C6
:10E87000C45CDE4FE881F981CC53D140EF5FFF4F9C
:10E8800019F0EE27FF27099420E030E040E050E047
:10E890008091C00087FFE0CF2091C600C35DDE4FAE
:10E8A00048815981CD52D1404F5F5F4FC35DDE4FEC
:10E8B00059834883CD52D140213209F063C64A3092
:10E8C000510508F05FC60894811C911C53E0851621
:10E8D000910409F059C600E010E018C081E280936D
:10E8E000C6008091C00086FFFCCF8091C00080648C
:10E8F0008093C0002F5F3F4F2931310579F70F9486
:10E90000DCF10F5F1F4F0530110519F020E030E0FA
:10E91000E5CF10920A0210920B0210920C02109294
:10E920000D02109206021092070210920802109235
:10E930000902109202021092030210920402109235
:10E9400005028FEE90EE60E00F94F5F180E191EE1C
:10E9500060E00F94C2F18091C00087FFFCCF9091DE
:10E96000C600903608F09F759032B8F09093C600BC
:10E970008091C00086FFFCCF8091C00080648093AE
:10E98000C000A0E2A093C6008091C00086FFFCCF2B
:10E990008091C00080648093C000983409F4D7C18E
:10E9A0009934B8F4923409F459C1933458F490333B
:10E9B00019F1903308F4E3C59F33A1F1903409F0C5
:10E9C000DEC5BDC0953409F470C1963409F0D7C5D1
:10E9D00098C1923509F42BC2933538F49C3409F46C
:10E9E000F5C1913509F0CBC518C2963509F445C279
:10E9F000993509F0C4C567C483E792EE62E00F94CD
:10EA0000F5F110920602109207021092080210927D
:10EA1000090210920A0210920B0210920C0210923C
:10EA20000D0213C18FE792EE62E00F94F5F18FEEC5
:10EA300090EE60E00F94F5F181E291EE60E00F94CA
:10EA4000C2F187EB91EE60E00F94F5F180E391EE77
:10EA500060E00F94C2F184EE90EE60E00F94F5F167
:10EA60008FE391EE60E00F94C2F186E090E061E008
:10EA700070E00F9434F20F94DCF18DE591EE60E0DC
:10EA80000F94C2F189EC91EE60E00F94F5F18EE401
:10EA900091EE60E00F94C2F183EC91EE60E00F9490
:10EAA000F5F18CE691EE60E00F94C2F18EE10F94E7
:10EAB0000DF288E90F940DF281E00F940DF20F949E
:10EAC000DCF18BE791EE60E00F94C2F119E0E0E039
:10EAD000F0E010935700E4918E2F0F940DF20F94F5
:10EAE000DCF18AE891EE60E00F94C2F1E3E0F0E03F
:10EAF00010935700E4918E2F0F940DF20F94DCF1D8
:10EB000089E991EE60E00F94C2F1E2E0F0E0109349
:10EB10005700E4918E2F0F940DF20F94DCF188EAE8
:10EB200091EE60E00F94C2F1E1E0F0E01093570045
:10EB30001491812F0F940DF20F94DCF107CF8BE825
:10EB400092EE62E00F94F5F18BE492EE60E00F94A8
:10EB5000F5F10F94DCF100E010E019C0C8016F2D51
:10EB60000F947FFEFF2031F489E492EE60E00F9471
:10EB7000C2F10BC0F092C6008091C00086FFFCCFAE
:10EB80008091C00080648093C0000F5F1F4FC80158
:10EB900081519F41A0E0B0E0ABBFFC01F790BAE229
:10EBA000FB1621F0E2E000301E07C1F60F94DCF105
:10EBB0000F94DCF187E592EE60E00F94F5F10F948D
:10EBC000DCF1CC24DD2400E010E01EC0C8010F946D
:10EBD00077FEF82E882331F489E492EE60E00F94FA
:10EBE000C2F10BC08093C6008091C00086FFFCCFAD
:10EBF0008091C00080648093C000FE1419F00894D6
:10EC0000C11CD11C0F5F1F4FC80181519F41A0E063
:10EC1000B0E0ABBFFC01E790FAE2EF1621F022E092
:10EC20000030120799F60F94DCF10F94DCF182E6C4
:10EC300092EE60E00F94C2F1C60161E070E00F94C3
:10EC400034F20F94DCF10F94DCF110920202109276
:10EC50000302109204021092050278CE89E992EE26
:10EC600062E00F94F5F1279A2F9A16C02F9880E052
:10EC700090E0E0EDF7E03197F1F7019684369105E9
:10EC8000C1F72F9A80E090E0E0EDF7E03197F1F7DF
:10EC9000019684369105C1F78091C00087FFE6CFC9
:10ECA0008091C00087FFFCCF64C485EA92EE62E0E9
:10ECB0000F94F5F140910202509103026091040219
:10ECC0007091050281E020E10F9491F2809102029F
:10ECD00090910302A0910402B091050280509F4FD1
:10ECE000AF4FBF4F8093020290930302A0930402A0
:10ECF000B093050280509041A040B04008F426CE69
:10ED0000A4CF83EB92EE62E00F94F5F140910602FE
:10ED100050910702609108027091090280E020E1A1
:10ED20000F9491F28091060290910702A09108023F
:10ED3000B091090280509F4FAF4FBF4F80930602A2
:10ED400090930702A0930802B0930902FFCD80ECD4
:10ED500092EE62E00F94F5F183E792EE60E00F949B
:10ED6000F5F18FE792EE60E00F94F5F18BE892EE0B
:10ED700060E00F94F5F189E992EE60E00F94F5F10F
:10ED800085EA92EE60E00F94F5F183EB92EE60E09D
:10ED90000F94F5F180EC92EE60E00F94F5F187ECC2
:10EDA00092EE60E00F94F5F188ED92EE60E00F9442
:10EDB000F5F18FED92EE60E00F94F5F18AEE92EEB0
:10EDC00060E00F94F5F183E093EEBDCD87EC92EE19
:10EDD00062E00F94F5F181E40F947BF282E40F94EA
:10EDE0007BF283E40F947BF284E40F947BF285E45E
:10EDF0000F947BF286E40F947BF287E40F947BF20E
:10EE000088E40F947BF28AE40F947BF28BE40F94F6
:10EE10007BF28CE40F947BF299CD88ED92EE62E068
:10EE20000F94F5F1772473948824992409C48FED05
:10EE300092EE62E00F94F5F140910A0250910B02BC
:10EE400060910C0270910D0282E020E10F9491F22A
:10EE500080910A0290910B02A0910C02B0910D02D8
:10EE600080509F4FAF4FBF4F80930A0290930B0289
:10EE7000A0930C02B0930D0269CD8AEE92EE62E08F
:10EE80000F94F5F184EE90EE60E00F94F5F18FECC5
:10EE900091EE60E00F94F5F1662477244301CC5D98
:10EEA000DE4F19821882C452D140D401C301B695F5
:10EEB000A79597958795CA5DDE4F88839983AA8326
:10EEC000BB83C652D140CC5DDE4FA881B981C4520C
:10EED000D1401196CC5DDE4FB983A883C452D14096
:10EEE000CD0162E070E00F9434F2B0E2B093C6005E
:10EEF0008091C00086FFFCCF8091C0008064809329
:10EF0000C000EDE2E093C6008091C00086FFFCCF18
:10EF10008091C00080648093C000F0E2F093C6004E
:10EF20008091C00086FFFCCF8091C00080648093F8
:10EF3000C000CA5DDE4FE880F9800A811B81C6529D
:10EF4000D140BB27A12F902F8F2D0F940DF2CA5DBA
:10EF5000DE4F8881C652D1400F940DF2B0E2FB2EF5
:10EF6000F092C6008091C00086FFFCCF8091C00067
:10EF700080648093C0000DE30093C6008091C000C0
:10EF800086FFFCCF8091C00080648093C00010E2B7
:10EF90001093C6008091C00086FFFCCF8091C00016
:10EFA00080648093C0008BBEF3012791C65DDE4F65
:10EFB0002883CA52D140A22EBB24CC24DD2408943D
:10EFC000611C711C811C911C8BBEF3018791282E42
:10EFD0003324442455240894611C711C811C911C09
:10EFE0008BBEF3013791C55DDE4F3883CB52D140E4
:10EFF0000894611C711C811C911C8BBEF30147910C
:10F00000C45DDE4F4883CC52D140ADEFEA2EAFEF66
:10F01000FA2EAFEF0A2FAFEF1A2F6E0C7F1C801E57
:10F02000911E142D032DF22CEE24EA0CFB1C0C1D5A
:10F030001D1D0F940DF220E22093C6008091C000A8
:10F0400086FFFCCF8091C00080648093C000C65DC5
:10F05000DE4F8881CA52D1400F940DF230E23093D6
:10F06000C6008091C00086FFFCCF8091C000806404
:10F070008093C000C45DDE4F8881CC52D1400F9494
:10F080000DF240E24093C6008091C00086FFFCCFA5
:10F090008091C00080648093C000C55DDE4F888190
:10F0A000CB52D1400F940DF250E25093C6008091A4
:10F0B000C00086FFFCCF8091C00080648093C000B8
:10F0C0008FEFE8168FEFF80680E0080780E018075A
:10F0D00031F484E092EE60E00F94C2F1DFC0D80119
:10F0E000C7018070907CA070B0708050904CA040A0
:10F0F000B040D1F52FEF3FE340E050E0E222F322B1
:10F1000004231523CA5DDE4FA880B980CA80DB8046
:10F11000C652D140AE0CBF1CC01ED11EAA0CBB1CD7
:10F12000CC1CDD1C8EE092EE60E00F94C2F1BB2798
:10F13000A12F902F8F2D0F940DF28E2D0F940DF285
:10F1400030E23093C6008091C00086FFFCCF8091F2
:10F15000C00080648093C0004EE34093C60080915D
:10F16000C00086FFFCCF87C08EE09EEFA0E0B0E03D
:10F17000E822F9220A231B239CE0E91694E9F90608
:10F1800090E0090790E0190709F088C0C45DDE4FE0
:10F19000A881CC52D140EA2EFF2400E010E0102FCD
:10F1A0000F2DFE2CEE24C55DDE4FB881CB52D14031
:10F1B000EB0EF11C011D111DD601C501817090706F
:10F1C000A070B070DC0199278827E80EF91E0A1F8D
:10F1D0001B1F20EF30E040E050E0A222B322C42207
:10F1E000D52241E1AA0CBB1CCC1CDD1C4A95D1F7F1
:10F1F000EA0CFB1C0C1D1D1D81E090E0A0E0B0E0BE
:10F20000282239224A225B2235E1220C331C441C7D
:10F21000551C3A95D1F7E20CF31C041D151D57013E
:10F220006801AA0CBB1CCC1CDD1C85E192EE60E0E1
:10F230000F94C2F1C801AA27BB270F940DF2BB2778
:10F24000A12F902F8F2D0F940DF28E2D0F940DF274
:10F2500090E29093C6008091C00086FFFCCF809121
:10F26000C00080648093C000AEE3A093C60080918C
:10F27000C00086FFFCCF8091C00080648093C000F6
:10F28000C601AA27BB270F940DF2BB27AD2D9C2DDD
:10F290008B2D0F940DF28A2D0F940DF20F94DCF14B
:10F2A000CC5DDE4FE881F981C452D140F99709F471
:10F2B0004DCBF4E0EF2EF12C012D112D6E0C7F1CA7
:10F2C000801E911EF2CD83E093EE62E00F94F5F183
:10F2D0008AE192EE60E00F94C2F18091C00087FF56
:10F2E000FCCF1091C6001F751093C6008091C0001E
:10F2F00086FFFCCF8091C00080648093C0000F9493
:10F30000DCF1812F81548A3108F036C1163409F4BA
:10F3100095C0173490F4133409F44EC0143430F40B
:10F320001134F1F0123409F01DC130C0143409F465
:10F3300059C0153409F016C16BC01A3409F4C4C0A1
:10F340001B3438F4173409F48FC0183409F00AC19B
:10F35000A1C01B3409F4D2C01C3409F003C1E8C0B9
:10F360008FEF81B90DC082B1809582B980E090E0C5
:10F37000E0EDF7E03197F1F70196883C9105C1F790
:10F380008091C00087FFEFCF12B8EFC08FEF84B934
:10F390000DC085B1809585B980E090E0E0EDF7E0A3
:10F3A0003197F1F70196883C9105C1F78091C00033
:10F3B00087FFEFCF15B8D9C08FEF87B90DC088B1DF
:10F3C000809588B980E090E0E0EDF7E03197F1F7C3
:10F3D0000196883C9105C1F78091C00087FFEFCF6F
:10F3E00018B8C3C08FEF8AB90DC08BB180958BB9A7
:10F3F00080E090E0E0EDF7E03197F1F70196883C8E
:10F400009105C1F78091C00087FFEFCF1BB8ADC059
:10F410008FEF8DB90DC08EB180958EB980E090E0F0
:10F42000E0EDF7E03197F1F70196883C9105C1F7DF
:10F430008091C00087FFEFCF1EB897C08FEF80BBD1
:10F440000DC081B3809581BB80E090E0E0EDF7E0F6
:10F450003197F1F70196883C9105C1F78091C00082
:10F4600087FFEFCF11BA81C08FEF83BB0DC084B38C
:10F47000809584BB80E090E0E0EDF7E03197F1F714
:10F480000196883C9105C1F78091C00087FFEFCFBE
:10F4900014BA6BC08FEF809301010FC080910201FD
:10F4A00080958093020180E090E0E0EDF7E03197F5
:10F4B000F1F70196883C9105C1F78091C00087FF64
:10F4C000EDCF1092020151C08FEF809304010FC065
:10F4D0008091050180958093050180E090E0E0ED4A
:10F4E000F7E03197F1F70196883C9105C1F78091DB
:10F4F000C00087FFEDCF1092050137C08FEF8093DA
:10F5000007010FC08091080180958093080180E079
:10F5100090E0E0EDF7E03197F1F70196883C910536
:10F52000C1F78091C00087FFEDCF109208011DC088
:10F530008FEF80930A010FC080910B01809580931B
:10F540000B0180E090E0E0EDF7E03197F1F70196F4
:10F55000883C9105C1F78091C00087FFEDCF1092E4
:10F560000B0103C085E292EEEEC98091C00087FFD7
:10F57000FCCF8091C600EAC988E392EEE4C98CE131
:10F5800091EEE1C988249924933011F1943028F444
:10F59000913089F09230B8F408C0953061F195301F
:10F5A000F0F0963009F048C043C02B3109F042C951
:10F5B00091E06BE13FC96227C15DDE4F2883CF52E6
:10F5C000D14092E037C9B22FA0E0622793E032C960
:10F5D000822F90E0A82BB92B622794E02BC92E3004
:10F5E00009F039C3622795E0C05DDE4F19821882A9
:10F5F000C053D1401FC9E1E0F0E0EC0FFD1FC05D3A
:10F60000DE4F08811981C053D140E00FF11F2083E4
:10F610000F5F1F4FC05DDE4F19830883C053D14079
:10F6200062270A171B0709F005C9D80196E002C92D
:10F63000261709F010C303C0973009F0FBC87724E0
:10F640009981933109F412C19431C8F4963009F4C8
:10F65000D8C0973050F4923009F406C1933009F4C1
:10F660006DC0913009F059C253C0913109F477C08F
:10F67000923108F0BBC0903109F04FC2F5C098310B
:10F6800009F487C0993150F4953109F4EFC09531F0
:10F6900008F4C6C1963109F040C2C2C19A3109F4DA
:10F6A0006CC09A3108F491C09B3109F45BC09D3164
:10F6B00009F033C29D81903359F48F81882311F46E
:10F6C0009EE11CC0813011F091E018C098E916C08D
:10F6D000892F807591F0903539F4E0E0F0E089E011
:10F6E0008093570094910AC0983539F4E3E0F0E034
:10F6F00089E080935700949101C090E01A821B82A8
:10F700008D818C831D829E831F8227E030E009C299
:10F710001A8288E08B8381E48C8386E58D8382E581
:10F720008E8389E48F8383E5888780E589878FE5E9
:10F730008A8782E38B872BE030E0F3C18A818139AD
:10F7400041F0823941F0803911F48FE005C080E04A
:10F7500003C082E001C08AE01A828B8344C0772410
:10F76000739482C08D81882311F48EE12CC0813086
:10F7700011F081E028C088E926C01A82E1E0F0E0BB
:10F7800089E08093570084918B831C8224E030E0D1
:10F79000C8C18B81803589F48C81883039F4E2E0EE
:10F7A000F0E089E08093570084910DC0E0E0F0E044
:10F7B00089E080935700849106C0E3E0F0E089E09F
:10F7C0008093570084911A82DFCF8D81836C99E0FA
:10F7D000E1E0F0E0082E90935700E89507B600FCB2
:10F7E000FDCF1A821B8223E030E09BC180EC8A832C
:10F7F000CE5CDE4F188219821A821B82C253D1401E
:10F800008EC18A8190E0A0E0B0E0582F44273327D2
:10F8100022278B8190E0A0E0B0E0DC0199278827C7
:10F82000282B392B4A2B5B2B8D8190E0A0E0B0E098
:10F83000282B392B4A2B5B2B8C8190E0A0E0B0E089
:10F84000BA2FA92F982F8827282B392B4A2B5B2BCF
:10F85000220F331F441F551FC05EDE4F288339839C
:10F860004A835B83C052D1401A8259C13A81C95C34
:10F87000DE4F3883C753D140CA5CDE4F1882C6536F
:10F88000D1408B81C82EDD24CA5CDE4F488159816E
:10F89000C653D140C42AD52A933109F082C0CE5C28
:10F8A000DE4F88819981AA81BB81C253D1408050AB
:10F8B000904CA340B04030F583E0CE5CDE4FE88052
:10F8C000F9800A811B81C253D140F70100935B008C
:10F8D00080935700E89507B600FCFDCFCE5CDE4F65
:10F8E000088119812A813B81C253D14000501F4FAA
:10F8F0002F4F3F4FCE5CDE4F088319832A833B8313
:10F90000C253D140C05EDE4F488159816A817B81FC
:10F91000C052D140DE011B9631E08C9111962C91A2
:10F9200011971296C75CDE4F2883C953D140C85C3B
:10F93000DE4F1882C853D14090E0C85CDE4FE881AA
:10F94000F981C853D1408E2B9F2B0C01FA01609393
:10F950005B0030935700E89511244E5F5F4F6F4F67
:10F960007F4F0EEFE02E0FEFF02ECE0CDF1CC114F8
:10F97000D10499F685E0C05EDE4F088119812A81A5
:10F980003B81C052D140F80120935B008093570027
:10F99000E89507B600FCFDCF81E180935700E8951C
:10F9A00035C0C05EDE4F88819981AA81BB81C0527B
:10F9B000D140B695A795979587957C018601ABE0D8
:10F9C000AA2EB12CAC0EBD1E0BC0D5016D915D01F0
:10F9D000C7010F947FFE0894E11CF11C01501040F8
:10F9E0000115110591F7A60160E070E0440F551F65
:10F9F000661F771FC05EDE4FE880F9800A811B8199
:10FA0000C052D1404E0D5F1D601F711F1A82C05E33
:10FA1000DE4F488359836A837B83C052D1407FC0C5
:10FA2000FA80C55CDE4FF882CB53D140C65CDE4F16
:10FA30001882CA53D1408B81C82EDD24C65CDE4FAC
:10FA400008811981CA53D140C02AD12A1A828981DA
:10FA5000BE016D5F7F4F843121F59601C05EDE4FA0
:10FA6000E880F9800A811B81C052D1400BBFF701A9
:10FA700087919691DB018C9311969C936E5F7F4FDB
:10FA8000D801C7010296A11DB11DC05EDE4F88835B
:10FA90009983AA83BB83C052D14022503040F1F6F3
:10FAA00036C0C05EDE4F288139814A815B81C052F9
:10FAB000D1400894C108D108760100E010E0089414
:10FAC000C11CD11C0894E11CF11C011D111DE20E8A
:10FAD000F31E041F151F21BDBB27A52F942F832FB5
:10FAE00082BD2F5F3F4F4F4F5F4FF89A80B5DB01CC
:10FAF0008D93BD012E153F054007510761F7C05E8C
:10FB0000DE4F288339834A835B83C052D1409601FC
:10FB10002D5F3F4FFB01108204C080EC8A8322E0FE
:10FB200030E08BE18093C6008091C00086FFFCCF5F
:10FB30008091C00080648093C000C15DDE4FF88179
:10FB4000CF52D140F093C6008091C00086FFFCCF19
:10FB50008091C00080648093C000432F3093C60022
:10FB60008091C00086FFFCCF8091C00080648093AC
:10FB7000C000922F2093C6008091C00086FFFCCF6A
:10FB80008091C00080648093C0008EE08093C600A6
:10FB90008091C00086FFFCCF8091C000806480937C
:10FBA000C00065E1C15DDE4FE880CF52D1406E25D7
:10FBB00069276427FE01319610C090819093C6009A
:10FBC0008091C00086FFFCCF31968091C000806498
:10FBD0008093C0006927215030402115310569F715
:10FBE0006093C6008091C00086FFFCCF8091C0006A
:10FBF00080648093C00085B1805885B9772081F4F6
:10FC0000C15DDE4F0881CF52D1400F5FC15DDE4F35
:10FC10000883CF52D14090E0A0E0B0E00D941AF4F8
:10FC200027982F9880E090E020ED37E0F901319798
:10FC3000F1F7019684369105C9F700008091C00064
:10FC40008D7F8093C00081E180935700E895EE2777
:10FC5000FF270994FFCF90E00D941AF497FB092E2B
:10FC600007260AD077FD04D02ED006D000201AF443
:10FC7000709561957F4F0895F6F7909581959F4F08
:10FC80000895A1E21A2EAA1BBB1BFD010DC0AA1FDD
:10FC9000BB1FEE1FFF1FA217B307E407F50720F0F5
:10FCA000A21BB30BE40BF50B661F771F881F991F70
:10FCB0001A9469F760957095809590959B01AC01B9
:10FCC000BD01CF010895AA1BBB1B51E107C0AA1FAC
:10FCD000BB1FA617B70710F0A61BB70B881F991FED
:10FCE0005A95A9F780959095BC01CD010895F99991
:10FCF000FECF92BD81BDF89A992780B50895262F31
:10FD0000F999FECF1FBA92BD81BD20BD0FB6F89400
:0EFD1000FA9AF99A0FBE01960895F894FFCF63
:00000001FF
