:100000000C9435010C9466010C9466010C94660105
:100010000C9466010C9466010C9466010C946601C4
:100020000C9466010C9466010C9466010C946601B4
:100030000C9466010C9466010C9466010C946601A4
:100040000C9466010C9466010C9466010C94660194
:100050000C9466010C9466010C9466010C940D07D7
:100060000C9466010C94D7060C94AD060C946601B2
:100070000C9466010C9466010C9466010C94660164
:100080000C9466010C9466010C9466010C94660154
:100090000C9466010C9466010C9466010C94660144
:1000A0000C9466010C9466010C9466010C94660134
:1000B0000C9466010C9466010C9466010C94660124
:1000C0000C9466010C9466010C9466010C94660114
:1000D0000C9466010C9466010C9466010C94660104
:1000E0000C9466010C941F030C94F4020C948D0183
:1000F0000C94DF020C94E5020C9424030C94FA0295
:100100000C9457070C9412030C94BA010C941A0324
:100110000C9470020C94DD010C94C9010C9408033A
:100120000C94E9020C94EB010C94FE020C94040371
:100130000C9423020C9420030C940C030C94F102F5
:100140000C94ED020C9416030000210024002700FB
:100150002A002D00300033000101000004010701D6
:100160000A0100002200250028002B002E0031008B
:10017000340002010000050108010B01000020000D
:100180002300260029002C002F003200000100006F
:10019000030106010901050505050705080808080A
:1001A000020202020A0A080804040404010101010F
:1001B000010101010303030303030303040707070A
:1001C0000C0C0C0C0C0C0C0C0202020206060606AF
:1001D000060606060B0B0B0B0B0B0B0B010210207C
:1001E000200808102040102040800201020108046D
:1001F0000201010204081020408080402010080401
:100200000201800402018040201008040201080459
:10021000020101020408102040800102040810209D
:10022000408000000A0B02090C0D0E0807030401B0
:1002300000000000000000000000000000000000BE
:10024000000000000000000000000000000012118B
:10025000100000000000000000000000000000008E
:100260000000000000000000570711241FBECFEF60
:10027000D1E2DEBFCDBF00E00CBF15E1A0E0B2E0EF
:10028000E4EEF8E200E00BBF02C007900D92AC3B39
:10029000B107D9F729E1ACEBB5E101C01D92AC3D46
:1002A000B207E1F711E0C5E3D1E000E006C0219715
:1002B0000109802FFE010E946814C433D10780E039
:1002C0000807A9F70E9422080C9470140C940000EF
:1002D0009C014091B3165091B416CA010196821741
:1002E000930721F481E06330710509F080E0FA01A1
:1002F00031972E173F0719F46330710561F04217EB
:10030000530721F491E06330710509F090E0811109
:1003100001C0892F089581E00895AF92BF92CF92D6
:10032000DF92EF92FF920F931F93CF93DF936C01B5
:100330007B018B01040F151FEB015E01AE18BF0896
:10034000C017D10759F06991D601ED91FC91019048
:10035000F081E02DC6011995892B79F7C501DF9150
:10036000CF911F910F91FF90EF90DF90CF90BF90B2
:10037000AF900895FC01538D448D252F30E0842FDC
:1003800090E0821B930B541710F0CF9608950197BD
:100390000895FC01918D828D981761F0A28DAE0FAA
:1003A000BF2FB11D5D968C91928D9F5F9F73928F31
:1003B00090E008958FEF9FEF0895FC01918D828D5D
:1003C000981731F0828DE80FF11D858D90E008952A
:1003D0008FEF9FEF0895FC01918D228D892F90E082
:1003E000805C9F4F821B91098F739927089581EC40
:1003F00096E10E94EB0121E0892B09F420E0822F95
:100400000895FC01A48DA80FB92FB11DA35ABF4FA9
:100410002C91848D90E001968F739927848FA68903
:10042000B7892C93A089B1898C91837080648C9357
:10043000938D848D981306C00288F389E02D808106
:100440008F7D80830895EF92FF920F931F93CF9338
:10045000DF93EC0181E0888F9B8D8C8D98131AC0FF
:10046000E889F989808185FF15C09FB7F894EE89E6
:10047000FF896083E889F989808183708064808343
:100480009FBF81E090E0DF91CF911F910F91FF908E
:10049000EF900895F62E0B8D10E00F5F1F4F0F7336
:1004A0001127E02E8C8D8E110CC00FB607FCFACFF1
:1004B000E889F989808185FFF5CFCE010E9401028C
:1004C000F1CFEB8DEC0FFD2FF11DE35AFF4FF082C2
:1004D0009FB7F8940B8FEA89FB8980818062CFCF28
:1004E000CF93DF93EC01888D8823B9F0AA89BB896B
:1004F000E889F9898C9185FD03C0808186FD0DC056
:100500000FB607FCF7CF8C9185FFF2CF808185FF76
:10051000EDCFCE010E940102E9CFDF91CF91089586
:1005200080E090E0892B29F00E94F70181110E9460
:10053000000080E090E0892B49F080E090E0892B7A
:1005400029F00E94000081110E94000080E090E0EC
:10055000892B49F080E090E0892B29F00E9400006F
:1005600081110E94000080E090E0892B49F080E03A
:1005700090E0892B29F00E94000081110C9400006A
:1005800008958150823108F05AC0E82FF0E08827A2
:10059000E353FD4F8F4F0C946814ED02F102DF021C
:1005A000E502E9021F03F402FA02FE020403080353
:1005B0000C03120316031F031A0320032403809164
:1005C00080008F77809380000895809180008F7DD8
:1005D000F9CF80918000877FF5CF84B58F7784BD78
:1005E000089584B58F7DFBCF8091B0008F77809385
:1005F000B00008958091B0008F7DF9CF8091900078
:100600008F77809390000895809190008F7DF9CF2F
:1006100080919000877FF5CF8091A0008F778093A5
:10062000A00008958091A0008F7DF9CF8091A00057
:10063000877FF5CF809120018F77809320010895E7
:10064000809120018F7DF9CF80912001877FF5CFA8
:10065000CF93DF93282F30E0F901EE5DFD4F8491B9
:10066000F901E452FE4FD491F901EA56FE4FC491CC
:10067000CC23A1F081110E94C102EC2FF0E0EE0F1B
:10068000FF1FE458FE4FA591B491EC91ED2381E05A
:1006900090E009F480E0DF91CF91089580E090E050
:1006A000FACF1F93CF93DF93282F30E0F901EE5D4F
:1006B000FD4F8491F901E452FE4FD491F901EA56BD
:1006C000FE4FC491CC23A9F0162F81110E94C102C4
:1006D000EC2FF0E0EE0FFF1FEE59FE4FA591B49105
:1006E0008FB7F894EC91111108C0D095DE23DC93FC
:1006F0008FBFDF91CF911F910895DE2BF8CFCF935D
:10070000DF9390E0FC01E452FE4F24918A569E4F05
:10071000FC0184918823D1F090E0880F991FFC019F
:10072000E85BFE4FA591B491FC01EE59FE4FC591D7
:10073000D49161110EC09FB7F8948C91E22FE0958F
:100740008E238C932881E223E8839FBFDF91CF9192
:1007500008958FB7F894EC91E22BEC938FBFF6CF0E
:10076000863308F0865320917B00982F9870277F5E
:10077000922B90937B008770806480937C008091A3
:100780007A00806480937A0080917A0086FDFCCFA5
:10079000809178009091790008953FB7F894809106
:1007A000C1159091C215A091C315B091C41526B57D
:1007B000A89B05C02F3F19F00196A11DB11D3FBF99
:1007C000BA2FA92F982F8827BC01CD01620F711D68
:1007D000811D911D42E0660F771F881F991F4A9562
:1007E000D1F708958F929F92AF92BF92CF92DF92EE
:1007F000EF92FF926B017C010E94CD034B015C01E3
:10080000C114D104E104F104B9F00E94CD036819C8
:1008100079098A099B09683E73408105910580F337
:1008200021E0C21AD108E108F10888EE880E83E0C1
:10083000981EA11CB11CE4CFFF90EF90DF90CF90E9
:10084000BF90AF909F908F9008952FB7F8946091CC
:10085000BD157091BE158091BF159091C0152FBF29
:1008600008955F926F927F928F929F92AF92BF9204
:10087000CF92DF92EF92FF920F931F93CF93DF936C
:10088000782E692E3EE1C32ED12C49EAA42E45E1F3
:10089000B42E09E815E1C72DD62DF80150800E5F62
:1008A0001F4F61E0852D0E9451034E0128E0E22E8A
:1008B000F12CF401819191914F01019749F4F701D5
:1008C000EE0FFF1FE956FA4E60E080810E9451034F
:1008D000F1E0EF1AF10869F761E070E080E090E084
:1008E0000E94F20360E0852D0E94510389E9E82E01
:1008F00085E1F82EF7018081F2E0EF0EF11C61E056
:100900000E945103AE14BF04A9F7609685E109392E
:10091000180719F691E0C91AD10809F0BACFDF918A
:10092000CF911F910F91FF90EF90DF90CF90BF90EC
:10093000AF909F908F907F906F905F9008955F929F
:100940006F927F928F929F92AF92BF92CF92DF92DF
:10095000EF92FF920F931F93CF93DF93782E692E20
:100960003EE1C32ED12C49EAA42E45E1B42E09E87C
:1009700015E1C72DD62DF80150800E5F1F4F61E0A5
:10098000852D0E9451034E0128E0E22EF12CF40146
:10099000819191914F01019749F4F701EE0FFF1FEB
:1009A000E956FA4E60E080810E945103F1E0EF1AAF
:1009B000F10869F762E070E080E090E00E94F203E5
:1009C00060E0852D0E94510389E9E82E85E1F82E2B
:1009D000F7018081F2E0EF0EF11C61E00E9451030B
:1009E000AE14BF04A9F7609685E10939180719F616
:1009F00091E0C91AD10809F0BACFDF91CF911F91C8
:100A00000F91FF90EF90DF90CF90BF90AF909F90AD
:100A10008F907F906F905F9008950F931F93CF9367
:100A2000DF93C9E9D5E109E815E18881229661E003
:100A30000E945103F80180810E5F1F4F60E00E9409
:100A40005103F5E1C93ADF0781F7DF91CF911F919B
:100A50000F910895CF92DF92EF92FF920F931F9321
:100A6000CF93DF931F921F92CDB7DEB769834A837E
:100A7000880F991F0091DA191091DB19000F111FCF
:100A8000E4E8F9E19F01245839412017310714F4B3
:100A90001192F8CF2981FC01EC57F64E21838A810F
:100AA000808360E08091D8190E94510310161106CE
:100AB00004F501501109F801EC57F64EE080D09092
:100AC000D619C090D41988E0F82E6E2D661F6627BF
:100AD000661F8C2D0E945103EE0C61E08D2D0E944B
:100AE000510360E08D2D0E945103FA94F110EDCF77
:100AF000DDCF61E08091D8190F900F90DF91CF91F9
:100B00001F910F91FF90EF90DF90CF900C945103C5
:100B1000EF92FF920F931F93CF937C018C0183E0A0
:100B2000000F111F8A95E1F70C56164EC1E0F8012F
:100B300011928F0140E06C2FC7010E942A05CF5F00
:100B4000C930A9F7CF911F910F91FF90EF900895B1
:100B500020E830E002C0359527956A95E2F7FC0160
:100B6000EC57F64E5089442349F0252B208B61E049
:100B7000680F408990E080E00C942A052095252399
:100B8000F5CF8F929F92AF92BF92CF92DF92EF926A
:100B9000FF920F931F93CF93DF938C01D0E0C0E0BF
:100BA00027E0E22EF12C37E0A32EB12CC830D1057E
:100BB0000CF046C09C2E80E2980E61E0892D0E94C8
:100BC000510397E0C92ED12C86E18C0DF8012081CC
:100BD00030E00C2C02C0359527950A94E2F760E0CE
:100BE00020FF61E00E945103F1E0CF1AD10860F7C5
:100BF00061E070E080E090E00E94F20360E0892D07
:100C00000E94510386E1D82E61E08D2D0E94510390
:100C1000D394EEE1DE12F8CF21960F5F1F4FC03163
:100C2000D10509F0C3CFDF91CF911F910F91FF90B4
:100C3000EF90DF90CF90BF90AF909F908F900895EE
:100C40008091DA199091DB19181619062CF5F8E045
:100C5000EF16F10408F5F801C080912C812CD12CFD
:100C60008091DA199091DB191816190674F4C501F0
:100C700088199909A60102C0559547958A95E2F70A
:100C80004170B701C4010E94A805FFEF8F1A9F0AA7
:100C900088E08816910421F7E1E0EE1AF108BCCF54
:100CA00081E08093841580E996E10E94C10583E08C
:100CB00090E09093B4168093B31682E390E0909303
:100CC000B6168093B51688EC90E09093B816809392
:100CD000B7161092011410920014109283151092FE
:100CE0008215E7ECF5E1119285E1EE3FF807D9F7BF
:100CF0000895EF92FF920F931F93CF93DF937C01A0
:100D000007E010E0D0E0C0E08091DA199091DB19A3
:100D1000181619067CF4FE01EE0FFF1FEE0DFF1DE5
:100D200041E080819181892B09F440E0B801CE0136
:100D30000E94A8052196C830D10531F7015011094C
:100D400080E1E80EF11C0F3F1007E1F6DF91CF9133
:100D50001F910F91FF90EF9008951F920F920FB681
:100D60000F9211240BB60F922F933F934F935F93E3
:100D70006F937F938F939F93AF93BF93EF93FF9363
:100D800081EC96E10E940102FF91EF91BF91AF913A
:100D90009F918F917F916F915F914F913F912F9193
:100DA0000F900BBE0F900FBE0F901F9018951F92C3
:100DB0000F920FB60F9211240BB60F922F938F93B1
:100DC0009F93EF93FF93E091D116F091D21680811B
:100DD000E091D716F091D81682FD1DC090818091C8
:100DE000DA168F5F8F732091DB16821741F0E09146
:100DF000DA16F0E0EF53F94E958F8093DA16FF91F3
:100E0000EF919F918F912F910F900BBE0F900FBE7E
:100E10000F901F9018958081F2CF1F920F920FB6FE
:100E20000F9211242F933F938F939F93AF93BF9370
:100E30008091BD159091BE15A091BF15B091C015C0
:100E40003091BC1523E0230F2D3758F50196A11DD5
:100E5000B11D2093BC158093BD159093BE15A09332
:100E6000BF15B093C0158091C1159091C215A09186
:100E7000C315B091C4150196A11DB11D8093C11574
:100E80009093C215A093C315B093C415BF91AF91B1
:100E90009F918F913F912F910F900FBE0F901F90B8
:100EA000189526E8230F0296A11DB11DD2CFCF932E
:100EB000DF931092C4161092C31688EE93E0A0E060
:100EC000B0E08093C5169093C616A093C716B09352
:100ED000C8168DEA95E19093C2168093C11685ECF1
:100EE00090E09093CE168093CD1684EC90E0909392
:100EF000D0168093CF1680EC90E09093D21680931A
:100F0000D11681EC90E09093D4168093D31682ECA6
:100F100090E09093D6168093D51686EC90E090934F
:100F2000D8168093D7161092DA161092DB1610920C
:100F3000DC161092DD16C3E3D0E0D093D519C09330
:100F4000D41984E390E09093D7198093D61985E360
:100F500090E09093D9198093D81981E090E0909314
:100F6000DB198093DA1961E083E30E947F0361E07B
:100F70008091D6190E947F0361E08091D8190E9468
:100F80007F0361E08091D8190E945103D093D51955
:100F9000C093D419E4E9F9E184ED99E111928E1737
:100FA0009F07E1F7D0E0C0E08091DA199091DB195A
:100FB000C817D90774F540E06FE0CE010E942A05FA
:100FC0008091DA199091DB19C817D9072CF447E002
:100FD0006BE0CE010E942A0540E069E0CE010E944C
:100FE0002A058091DA199091DB19C817D9071CF4EA
:100FF000CE010E9488058091DA199091DB19C817FB
:10100000D9072CF440E06CE0CE010E942A0521961D
:10101000CBCFEEE5F7E184E899E16AE04FE050E0FC
:1010200020ED37E0DF01762F1D927A95E9F75383A3
:101030004283358324833A968E179F0799F7DF9171
:10104000CF910895CF93DF9300D01F92CDB7DEB735
:10105000789484B5826084BD84B5816084BD85B593
:10106000826085BD85B5816085BD80916E0081609F
:1010700080936E0010928100809181008260809345
:101080008100809181008160809381008091800047
:101090008160809380008091B10084608093B10072
:1010A0008091B00081608093B00080919100826057
:1010B0008093910080919100816080939100809154
:1010C00090008160809390008091A1008260809365
:1010D000A1008091A10081608093A1008091A00077
:1010E00081608093A0008091210182608093210122
:1010F0008091210181608093210180912001816094
:101100008093200180917A00846080937A0080919E
:101110007A00826080937A0080917A008160809367
:101120007A0080917A00806880937A001092C100E2
:10113000E091D116F091D21682E08083E091CD1635
:10114000F091CE161082E091CF16F091D0168FEC70
:1011500080831092D916E091D516F091D61686E0CC
:101160008083E091D316F091D416808180618083D2
:10117000E091D316F091D416808188608083E0914D
:10118000D316F091D416808180688083E091D316C5
:10119000F091D41680818F7D80838091DA199091AF
:1011A000DB191816190634F441E06CE090E080E099
:1011B0000E942A058091DA199091DB1918161906F8
:1011C00034F44FE06AE090E080E00E942A058091CC
:1011D000DA199091DB191816190624F490E080E0D2
:1011E0000E94880529E935E13A83298369E8E62EDA
:1011F00065E1F62E67018901F80180810E5F1F4FBE
:1012000061E00E947F03F6018081F2E0CF0ED11CE5
:1012100061E00E947F0325E1093A120769F7E9813D
:10122000FA8180813296FA83E98361E00E9451035A
:10123000F7018081F2E0EF0EF11C60E00E945103A3
:1012400029813A81295A354151F760E083E00E94B3
:101250007F0360E08FE20E947F030E94500656E009
:10126000252E312C412C512C00E410E08091841566
:1012700081119DC38091B216882309F464C08091C6
:101280008215909183150097E9F482E095E10E9420
:10129000310480910014909101140097F1F482E0E0
:1012A00095E10E94790687E30E942803019709F0DF
:1012B00094C21092B21660E273E080E090E00E9467
:1012C000F2038BC28130910519F482E894E1DFCFFB
:1012D0000297F9F682E094E1DACF8130910519F4B2
:1012E00082E894E1DECF8230910519F482E094E146
:1012F000D8CF8330910519F480E893E1D2CF8430C0
:10130000910519F480E093E1CCCF8530910519F473
:1013100080E892E1C6CF8630910519F480E092E131
:10132000C0CF8730910519F480E891E1BACF8830B9
:10133000910519F480E091E1B4CF099709F0B3CF9A
:1013400080E890E1AECF8091B3169091B4160297E9
:101350000CF446C00E942504C090BD16D090BE1665
:10136000E090BF16F090C016AB01BC014C195D09AE
:101370006E097F098091B5169091B616092E000C62
:10138000AA0BBB0B84179507A607B70748F588E398
:101390000E942803019719F081E08093B11688E339
:1013A0000E9428030197E1F48091B1168823C1F0CF
:1013B0008091B3169091B416823091052CF001976C
:1013C0009093B4168093B3160E9425046093BD16C3
:1013D0007093BE168093BF169093C0161092B116EC
:1013E0008091B3169091B41606970CF046C00E94F7
:1013F0002504C090BD16D090BE16E090BF16F090A8
:10140000C016AB01BC014C195D096E097F098091C2
:10141000B5169091B616092E000CAA0BBB0B8417BB
:101420009507A607B70748F589E30E9428030197A7
:1014300019F081E08093B01689E30E942803019798
:10144000E1F48091B0168823C1F08091B316909199
:10145000B416863091052CF401969093B4168093BF
:10146000B3160E9425046093BD167093BE16809338
:10147000BF169093C0161092B0160E94AD13A20131
:1014800091010E940514E7ECF5E1FA83E98350E04D
:1014900040E021912111C0C14115510509F4A0C1BD
:1014A0009A0121503109AAE0A29FF001A39FF00DFB
:1014B0001124E25AF84E228133812C303105ACF4EC
:1014C000A49FF001A59FF00D1124E25AF84E7183FC
:1014D00060838FE090E09383828380ED97E0958333
:1014E0008483168217821086118647ECE42E45E12C
:1014F000F42E1C821B82F70181917F01882369F001
:101500008BE30E94B003EB81FC81E25AF84E880F16
:10151000991F880F991F958384832B813C81265FB7
:101520003F4F3C832B832632324029F780E1E0E9AC
:10153000F6E1A0EAB6E101900D928A95E1F780917B
:10154000B3169091B41601979801082E02C03595F4
:1015500027950A94E2F79091AC16922B9093AC16D3
:1015600060EE70E002C0759567958A95E2F760932A
:10157000AD162093AE166093AF169EE5E92E97E167
:10158000F92EFC82EB8227ECC22E25E1D22EF60149
:1015900081916F01882309F447C0EB81FC8182812E
:1015A00093816480758086809780A084B184208137
:1015B0003181215031098F30910509F034C1C801C2
:1015C00002C0959587952A95E2F79091A016892BF0
:1015D0008093A0161092C6151092C5150E9425047E
:1015E000681979098A099B094301770CAA08BB0885
:1015F00086169706A806B906B8F4EB81FC818281AD
:1016000093810197938382830E942504EB81FC815F
:101610006683778380879187828193818E3F9F4FF6
:101620001CF4F601319710822B813C81265F3F4FDD
:101630003C832B833EEFC31635E1D30609F0A7CFD9
:1016400080EA96E10E94C10584E8A82E89E1B82EBF
:10165000F7010190F081E02DFC83EB83F701C2805C
:10166000D3804601FFEF8F1A9F0AB4018B819C81C2
:1016700001970E946801782EB4018B819C810196AC
:101680000E946801982EB6018B819C810E9468019E
:10169000E981FA819191FA83E983992351F17110DB
:1016A00004C0911002C0882321F18091821590918D
:1016B0008315009709F039C182E095E10E94310459
:1016C00064E670E080E090E00E94F20380910014F4
:1016D00090910114009709F034C182E095E10E94D5
:1016E000790660E777E180E090E00E94F2030E94D3
:1016F0005006FAE0EF0EF11CAE14BF0409F0A8CFBB
:101700008091821590918315019709F05EC08091B8
:10171000001490910114029709F057C081E0809362
:1017200084150E9450060E940D0580E892E00E94F8
:1017300079068EEF95E10E949F0460E273E080E0FD
:1017400090E00E94F2030E940D0580E897E00E945D
:10175000790680E892E00E949F0460E273E080E0F6
:1017600090E00E94F2030E940D0580E092E00E944A
:10177000790680E897E00E949F0460E273E080E0D1
:1017800090E00E94F2030E940D058EEF95E10E9409
:10179000790680E092E00E949F0460E273E080E0BE
:1017A00090E00E94F2030E940D058EEF95E10E94E9
:1017B00079068EEF95E10E949F0460E273E080E07D
:1017C00090E00E94F2030E940D0587E30E94280327
:1017D000019719F481E08093B2160E94900246CDE1
:1017E00021E02093C71570935F1760935E178FE019
:1017F00090E0909361178093601780ED97E090934D
:1018000063178093621710926417109265171092F5
:1018100066171092671769CE4F5F5F4F47335105C8
:1018200009F037CE62CE40EE50E0022E02C0559550
:1018300047950A94E2F78E30910589F4C80102C0F9
:10184000959587952A95E2F79091A016892B80931C
:10185000A0168091A116482B4093A116BFCE8F3FB2
:10186000980789F48091AE16482B4093AE16C801B4
:1018700002C0959587952A95E2F79091AF16892B2E
:101880008093AF16ABCE8E3F6FEF960759F58091E0
:10189000AF16482B4093AF168091C5159091C61591
:1018A00001969093C6158093C515019709F096CEC1
:1018B00080910014909101140196909301148093EB
:1018C00000140A9709F08ACE8091821590918315B1
:1018D00001969093831580938215109201141092B3
:1018E00000147CCEEDE0F0E0E81BF90BE056F94E79
:1018F0003081342B3083EEE0F0E0E81BF90BE0564A
:10190000F94EB80102C0759567952A95E2F79B01DB
:101910003081232B2083EFE0F0E0E81BF90BE05649
:10192000F94E8081482B408359CE8130910519F4BE
:1019300082E894E1C3CE029709F0C2CE82E094E13E
:10194000BDCE8130910519F482E894E1C8CE823091
:10195000910519F482E094E1C2CE8330910519F427
:1019600080E893E1BCCE8430910519F480E093E1E6
:10197000B6CE8530910519F480E892E1B0CE86307C
:10198000910519F480E092E1AACE8730910519F40F
:1019900080E891E1A4CE8830910519F480E091E1CE
:1019A0009ECE099709F09DCE80E890E198CE87E31E
:1019B0000E942803019709F042C00E9425046B0190
:1019C0007C01C0928C16D0928D16E0928E16F09209
:1019D0008F1687E30E94B003019759F40E942504F3
:1019E000609388167093891680938A1690938B164D
:1019F000F0CF8091881690918916A0918A16B091A7
:101A00008B168C199D09AE09BF098093841690939B
:101A10008516A0938616B0938716803A9F40A1053D
:101A2000B10540F01092841564EF71E080E090E021
:101A30000E94F2036AEF70E080E090E040CC809179
:101A4000841690918516A0918616B0918716803ADB
:101A50009F40A105B10510F0109284158FE20E94FD
:101A600028037C0190938316809382168AE30E9458
:101A7000B0039A8389839093811680938016809116
:101A80007E1690917F1641E0E416F10409F08BC3B5
:101A90000097B9F480E093E00E9479068EEF95E11B
:101AA0000E949F04E981FA81BF01FF0F880B990B07
:101AB0000E94F2030E940D05F0927F16E0927E16BE
:101AC000B9CF81309105C9F480E893E00E9479068E
:101AD0008EEF95E10E949F0429813A81B901330F6D
:101AE000880B990B0E94F2030E940D0542E050E022
:101AF00050937F1640937E169DCF82309105C9F496
:101B000080E094E00E94790680E093E00E949F04C8
:101B1000E981FA81BF01FF0F880B990B0E94F20344
:101B20000E940D0523E030E030937F1620937E164F
:101B300081CF83309105C9F480E894E00E94790652
:101B400080E893E00E949F0449815A81BA01550FB1
:101B5000880B990B0E94F2030E940D0564E070E06F
:101B600070937F1660937E1665CF84309105A9F43B
:101B700080E095E00E94790680E094E00E949F0456
:101B8000E981FA81BF01FF0F880B990B0E94F203D4
:101B90000E940D0525E030E0C7CF85309105A9F4FE
:101BA00080E899E00E94790680E894E00E949F0412
:101BB00049815A81BA01550F880B990B0E94F20393
:101BC0000E940D0566E070E0CBCF86309105A9F448
:101BD00080E895E00E94790680E095E00E949F04ED
:101BE000E981FA81BF01FF0F880B990B0E94F20374
:101BF0000E940D0527E030E097CF87309105A9F4CA
:101C000080E898E00E94790680E899E00E949F04AD
:101C100049815A81BA01550F880B990B0E94F20332
:101C20000E940D0588E090E087C288309105A9F4F4
:101C300080E096E00E94790680E895E00E949F048B
:101C4000E981FA81BF01FF0F880B990B0E94F20313
:101C50000E940D0589E090E06FC289309105A9F4DA
:101C600080E896E00E94790680E898E00E949F0450
:101C700029813A81B901330F880B990B0E94F20335
:101C80000E940D058AE090E057C28A309105A9F4C0
:101C900080E097E00E94790680E096E00E949F0431
:101CA00049815A81BA01550F880B990B0E94F203A2
:101CB0000E940D058BE090E03FC28B309105A9F4A6
:101CC00080E897E00E94790680E896E00E949F04F1
:101CD000E981FA81BF01FF0F880B990B0E94F20383
:101CE0000E940D058CE090E027C28C309105A9F48C
:101CF00080E098E00E94790680E097E00E949F04CF
:101D000029813A81B901330F880B990B0E94F203A4
:101D10000E940D058DE090E00FC28D309105A9F471
:101D200080E898E00E94790680E897E00E949F048E
:101D300049815A81BA01550F880B990B0E94F20311
:101D40000E940D058EE090E0F7C18E309105A9F458
:101D500080E099E00E94790680E098E00E949F046C
:101D6000E981FA81BF01FF0F880B990B0E94F203F2
:101D70000E940D058FE090E0DFC18F309105A9F43E
:101D800080E899E00E94790680E898E00E949F042C
:101D900029813A81B901330F880B990B0E94F20314
:101DA0000E940D0580E190E0C7C180319105A9F442
:101DB00080E09AE00E94790680E099E00E949F040A
:101DC00049815A81BA01550F880B990B0E94F20381
:101DD0000E940D0581E190E0AFC181319105A9F428
:101DE00082E894E10E94790680E899E00E949F04CD
:101DF000E981FA81BF01FF0F880B990B0E94F20362
:101E00000E940D0582E190E097C182319105A9F40D
:101E100080E89AE00E94790680E09AE00E949F04A0
:101E200029813A81B901330F880B990B0E94F20383
:101E30000E940D0583E190E07FC183319105A9F4F3
:101E400080E89BE00E94790682E894E10E949F046A
:101E500049815A81BA01550F880B990B0E94F203F0
:101E60000E940D0584E190E067C184319105A9F4D9
:101E700082E094E10E94790680E89BE00E949F0442
:101E8000E981FA81BF01FF0F880B990B0E94F203D1
:101E90000E940D0585E190E04FC185319105A9F4BF
:101EA00080E09CE00E94790680E09BE00E949F0415
:101EB00029813A81B901330F880B990B0E94F203F3
:101EC0000E940D0586E190E037C186319105A9F4A5
:101ED00082E095E10E94790682E094E10E949F04ED
:101EE00049815A81BA01550F880B990B0E94F20360
:101EF0000E940D0587E190E01FC187319105A9F48B
:101F000080E89CE00E94790680E09CE00E949F04AB
:101F1000E981FA81BF01FF0F880B990B0E94F20340
:101F20000E940D0588E190E007C188319105A9F470
:101F300082E894E10E94790682E094E10E949F0485
:101F400029813A81B901330F880B990B0E94F20362
:101F50000E940D0589E190E0EFC089319105A9F457
:101F600080E09DE00E94790680E89CE00E949F044A
:101F700049815A81BA01550F880B990B0E94F203CF
:101F80000E940D058AE190E0D7C08A319105A9F43D
:101F900080E891E10E94790682E894E10E949F0422
:101FA000E981FA81BF01FF0F880B990B0E94F203B0
:101FB0000E940D058BE190E0BFC08B319105A9F423
:101FC00080E89DE00E94790680E09DE00E949F04E9
:101FD00029813A81B901330F880B990B0E94F203D2
:101FE0000E940D058CE190E0A7C08C319105A9F409
:101FF00082E894E10E94790680E891E10E949F04C2
:1020000049815A81BA01550F880B990B0E94F2033E
:102010000E940D058DE190E08FC08D319105A9F4EE
:1020200080E09EE00E94790680E89DE00E949F0487
:10203000E981FA81BF01FF0F880B990B0E94F2031F
:102040000E940D058EE190E077C08E319105A9F4D4
:1020500082E095E10E94790682E894E10E949F0463
:1020600029813A81B901330F880B990B0E94F20341
:102070000E940D058FE190E05FC08F319105A9F4BA
:1020800080E89EE00E94790680E09EE00E949F0426
:1020900049815A81BA01550F880B990B0E94F203AE
:1020A0000E940D0580E290E047C080329105A9F4BE
:1020B00080E893E10E94790682E095E10E949F0406
:1020C000E981FA81BF01FF0F880B990B0E94F2038F
:1020D0000E940D0581E290E02FC081329105A9F4A4
:1020E00080E09FE00E94790680E89EE00E949F04C5
:1020F00029813A81B901330F880B990B0E94F203B1
:102100000E940D0582E290E017C082329105C9F469
:1021100080E890E10E94790680E893E10E949F04A4
:1021200049815A81BA01550F880B990B0E94F2031D
:102130000E940D0583E290E090937F1680937E16B7
:1021400079CC83329105A9F480E89FE00E9479065A
:1021500080E09FE00E949F04E981FA81BF01FF0FA8
:10216000880B990B0E94F2030E940D0524E230E0D7
:10217000DBCC849709F05ECC82E094E10E94790682
:1021800080E890E10E949F0449815A81BA01550F6D
:10219000880B990B0E94F2030E940D0510927F1686
:1021A00010927E1647CC8497C1F48EEF95E10E9481
:1021B000790682E094E10E949F04E981FA81BF01DF
:1021C000FF0F880B990B0E94F2030E940D0583E21A
:1021D00090E090937F1680937E1680917E1690916A
:1021E0007F168332910539F480E090E10E947906F0
:1021F00080E89FE07BCF8232910579F482E094E120
:102200000E94790680E890E10E949F0449815A81EA
:10221000BA01550F880B990B59CF8132910579F48A
:1022200080E89FE00E94790680E09FE00E949F0482
:10223000E981FA81BF01FF0F880B990B2FCF803204
:10224000910539F480E890E10E94790680E893E1F5
:1022500005CF8F31910579F480E09FE00E947906E7
:1022600080E89EE00E949F0449815A81BA01550F7F
:10227000880B990BE3CE8E31910579F480E893E1D8
:102280000E94790682E095E10E949F04E981FA812B
:10229000BF01FF0F880B990BB9CE8D31910539F431
:1022A00080E89EE00E94790680E09EE08FCE8C312F
:1022B000910579F482E095E10E94790682E894E143
:1022C0000E949F0449815A81BA01550F880B990BCE
:1022D0006DCE8B31910579F480E09EE00E94790605
:1022E00080E89DE00E949F04E981FA81BF01FF0F11
:1022F000880B990B43CE8A31910539F482E894E139
:102300000E94790680E891E119CE8931910579F42E
:1023100080E891E10E94790682E894E10E949F049E
:1023200049815A81BA01550F880B990BF7CD883135
:10233000910579F480E09DE00E94790680E89CE0B8
:102340000E949F04E981FA81BF01FF0F880B990B5E
:10235000CDCD8731910539F482E894E10E94790668
:1023600082E095E1A3CD8631910579F480E89CE087
:102370000E94790680E09CE00E949F0449815A8176
:10238000BA01550F880B990B81CD8531910579F4F0
:1023900082E095E10E94790682E094E10E949F0428
:1023A000E981FA81BF01FF0F880B990B57CD84316A
:1023B000910539F482E094E10E94790680E89BE07F
:1023C0002DCD8331910579F480E09BE00E94790660
:1023D00080E89AE00E949F0449815A81BA01550F12
:1023E000880B990B0BCD8231910579F480E89BE045
:1023F0000E94790682E894E10E949F04E981FA81B3
:10240000BF01FF0F880B990BE1CC8131910539F4A5
:1024100080E89AE00E94790680E09AE0B7CC8031AB
:10242000910579F482E894E10E94790680E899E0C8
:102430000E949F0449815A81BA01550F880B990B5C
:1024400095CC8F30910579F480E09AE00E9479066E
:1024500080E099E00E949F04E981FA81BF01FF0FAB
:10246000880B990B6BCC8E30910539F480E899E09C
:102470000E94790680E898E041CC8D30910579F48E
:1024800080E099E00E94790680E098E00E949F0435
:1024900049815A81BA01550F880B990B1FCC8C309A
:1024A000910579F480E898E00E94790680E897E049
:1024B0000E949F04E981FA81BF01FF0F880B990BED
:1024C000F5CB8B30910539F480E098E00E947906D5
:1024D00080E097E0CBCB8A30910579F480E897E0F3
:1024E0000E94790680E896E00E949F0449815A8103
:1024F000BA01550F880B990BA9CB8930910579F456
:1025000080E097E00E94790680E096E00E949F04B8
:10251000E981FA81BF01FF0F880B990B7FCB8830CF
:102520009105A9F480E896E00E94790680E898E099
:102530000E949F0429813A81B901330F880B990BBE
:102540000E94F2030E940D0547E050E0D1CA873097
:102550009105A9F480E096E00E94790680E895E074
:102560000E949F04E981FA81BF01FF0F880B990B3C
:102570000E94F2030E940D0526E030E0D5CA8630A5
:102580009105A9F480E898E00E94790680E899E036
:102590000E949F0449815A81BA01550F880B990BFB
:1025A0000E94F2030E940D0565E070E0D9CA8530F3
:1025B0009105A9F480E895E00E94790680E095E015
:1025C0000E949F04E981FA81BF01FF0F880B990BDC
:1025D0000E94F2030E940D0524E030E0A5CA843079
:1025E0009105A9F480E899E00E94790680E894E0DA
:1025F0000E949F0449815A81BA01550F880B990B9B
:102600000E94F2030E940D0563E070E0A9CA8330C6
:102610009105A9F480E095E00E94790680E094E0BD
:102620000E949F04E981FA81BF01FF0F880B990B7B
:102630000E94F2030E940D0522E030E075CA82304C
:102640009105A9F480E894E00E94790680E893E07F
:102650000E949F0449815A81BA01550F880B990B3A
:102660000E94F2030E940D0561E070E079CA81309A
:10267000910579F480E094E00E94790680E093E08F
:102680000E949F04E981FA81BF01FF0F880B990B1B
:1026900081CD892B09F0CEC980E893E00E947906AC
:1026A0008EEF95E10E949F0429813A81B901330F91
:1026B000880B990B0E94F2030E940D0544E250E042
:1026C00017CA8F929F92AF92BF92CF92DF92EF92F2
:1026D000FF92CF93DF93EC01688179818A819B819E
:1026E000611571058105910521F464E279ED8BE5B1
:1026F00097E02DE133EF41E050E00E9405144901DD
:102700005A019B01AC01A7EAB1E40E9424146B01B9
:102710007C01ACEEB4EFA50194010E943214C60E08
:10272000D71EE81EF91EF7FE06C081E0C81AD108C0
:10273000E10880E8F80AC882D982EA82FB82C701F0
:10274000B6019F77DF91CF91FF90EF90DF90CF9010
:10275000BF90AF909F908F9008958F929F92AF926D
:10276000BF92CF92DF92EF92FF92609185157091A8
:1027700086158091871590918815611571058105E1
:10278000910521F464E279ED8BE597E02DE133EFDB
:1027900041E050E00E94051449015A019B01AC013F
:1027A000A7EAB1E40E9424146B017C01ACEEB4EF03
:1027B000A50194010E943214C60ED71EE81EF91E10
:1027C000F7FE06C081E0C81AD108E10880E8F80ADF
:1027D000C0928515D0928615E0928715F0928815E3
:1027E000C701B6019F77FF90EF90DF90CF90BF9029
:1027F000AF909F908F900895609385157093861584
:1028000080938715909388150895052E97FB1EF4E5
:1028100000940E941C1457FD07D00E94371407FC37
:1028200003D04EF40C941C1450954095309521958E
:102830003F4F4F4F5F4F08959095809570956195EC
:102840007F4F8F4F9F4F08950E945914A59F900D61
:10285000B49F900DA49F800D911D11240895B7FF82
:102860000C9424140E942414821B930B0895A1E25B
:102870001A2EAA1BBB1BFD010DC0AA1FBB1FEE1FFA
:10288000FF1FA217B307E407F50720F0A21BB30B45
:10289000E40BF50B661F771F881F991F1A9469F7C1
:1028A00060957095809590959B01AC01BD01CF011D
:1028B0000895A29FB001B39FC001A39F700D811D19
:1028C0001124911DB29F700D811D1124911D089539
:1028D000EE0FFF1F881F8BBF0790F691E02D199414
:0428E000F894FFCF9A
:1028E40000000000000000000000000000000000E4
:1028F40000000000000000000000000000000000D4
:1029040000000100000000000000010000000000C1
:1029140000000100010000000000010000000000B0
:1029240000000100000001000000010000000000A0
:102934000000010000000000010001000000000090
:102944000000010000000000000001000000000081
:102954000000000000000000000000000000000073
:102964000000000000000000000000000000000063
:102974000000010000000000000001000000000051
:102984000000010000000000000001000000000041
:102994000000010000000100000001000000000030
:1029A400000001000100000001000100000000001F
:1029B4000000010000000000000001000000000011
:1029C4000000000000000000000000000000000003
:1029D40000000000000000000000000000000000F3
:1029E40000000000000000000000000000000000E3
:1029F40000000000000000000000000000000000D3
:102A040000000000000000000000000000000000C2
:102A140000000000000000000000000000000000B2
:102A240000000000000000000000000000000000A2
:102A3400000001000100010001000000000000008E
:102A4400000001000100000000000100000000007F
:102A5400000001000100010001000000000000006E
:102A64000000000000000000000000000000000062
:102A7400000001000100010001000000000000004E
:102A8400000001000100000000000100000000003F
:102A9400000001000100010001000000000000002E
:102AA4000000010001000000000000000000000020
:102AB4000000010001000000000000000000000010
:102AC4000000010001000000000000000000000000
:102AD40000000000000000000000000000000000F2
:102AE40000000100010000000000000000000000E0
:102AF40000000100010000000000000000000000D0
:102B040000000100010000000000000000000000BF
:102B140000000000000000000000000000000000B1
:102B240000000000000000000000000000000000A1
:102B3400000001000100010001000000000000008D
:102B4400000001000000000000000100000000007F
:102B5400000001000000000000000100000000006F
:102B64000000000000000000000000000000000061
:102B7400000001000100010001000000000000004D
:102B8400000001000000000000000100000000003F
:102B9400000001000000000000000100000000002F
:102BA400000001000100010001000000000000001D
:102BB400000001000000010000000000000000000F
:102BC40000000100000000000100000000000000FF
:102BD40000000000000000000000000000000000F1
:102BE40000000100010001000100000000000000DD
:102BF40000000100000001000000000000000000CF
:102C040000000100000000000100000000000000BE
:102C140000000000000000000000000000000000B0
:102C240000000000000000000000000000000000A0
:102C3400000000000100010000000000000000008E
:102C4400000001000000000001000000000000007E
:102C5400000001000000000001000000000000006E
:102C6400000001000100010001000000000000005C
:102C7400000001000000000001000000000000004E
:102C8400000001000000000001000000000000003E
:102C94000000000000000000000000000000000030
:102CA4000000000000000000000000000000000020
:102CB400000000000100010001000000000000000D
:102CC40000000100000000000000000000000000FF
:102CD40000000100000000000000000000000000EF
:102CE40000000100000000000000000000000000DF
:102CF40000000100000000000000000000000000CF
:102D040000000000010001000100000000000000BC
:102D140000000000000000000000000000000000AF
:102D2400000000000000000000000000000000009F
:102D3400000001000100010001000100000000008A
:102D4400000000000000010000000000000000007E
:102D5400000000000000010000000000000000006E
:102D6400000000000000000000000000000000005F
:102D7400000001000100010001000100000000004A
:102D8400000000000000010000000000000000003E
:102D9400000000000000010000000000000000002E
:102DA400000000000000010000000000000000001E
:102DB400000000000000010000000000000000000E
:102DC40000000000000001000000000000000000FE
:102DD40000000000000000000000000000000000EF
:102DE40000000000000001000000000000000000DE
:102DF40000000000000001000000000000000000CE
:102E040000000000000001000000000000000000BD
:102E140000000000000000000000000000000000AE
:102E2400000000000000000000000000000000009E
:102E34000000010001000100010001000000000089
:102E4400000000000000010000000000000000007D
:102E5400000000000000010000000000000000006D
:102E6400000000000000000000000000000000005E
:102E74000000010001000100010001000000000049
:102E8400000000000000010000000000000000003D
:102E9400000000000000010000000000000000002D
:102EA400000000000000010000000000000000001D
:102EB400000000000000010000000000000000000D
:102EC40000000100010001000100010000000000F9
:102ED40000000000000000000000000000000000EE
:102EE40000000000000001000000000000000000DD
:102EF40000000000000001000000000000000000CD
:102F040000000100010001000100010000000000B8
:102F140000000000000000000000000000000000AD
:102F2400000000000000000000000000000000009D
:102F3400000000000100010001000000000000008A
:102F4400000001000000000000000000000000007C
:102F5400000001000000000000000000000000006C
:102F6400000000000000000000000000000000005D
:102F7400000000000100010001000000000000004A
:102F8400000001000000000000000000000000003C
:102F9400000001000000000000000000000000002C
:102FA400000001000000000000000000000000001C
:102FB400000001000000000000000000000000000C
:102FC40000000000010001000100000000000000FA
:102FD40000000000000000000000000000000000ED
:102FE40000000100000000000000000000000000DC
:102FF40000000100000000000000000000000000CC
:1030040000000000010001000100000000000000B9
:1030140000000000000000000000000000000000AC
:10302400000000000000000000000000000000009C
:10303400000000000100010000000000000000008A
:10304400000001000000000001000000000000007A
:10305400000001000000000001000000000000006A
:10306400000000000000000000000000000000005C
:10307400000000000100010000000000000000004A
:10308400000001000000000001000000000000003A
:10309400000001000000000001000000000000002A
:1030A4000000010001000100010000000000000018
:1030B400000001000000000001000000000000000A
:1030C40000000100000000000100000000000000FA
:1030D40000000000000000000000000000000000EC
:1030E40000000100010001000100000000000000D8
:1030F40000000100000000000100000000000000CA
:1031040000000100000000000100000000000000B9
:1031140000000000000000000000000000000000AB
:10312400000000000000000000000000000000009B
:103134000000000001000100000000000000000089
:10314400000000000000010000000000000000007A
:10315400000000000000010000000000000000006A
:10316400000000000000010000000000000000005A
:10317400000000000000010000000000000000004A
:103184000000000001000100010000000000000038
:10319400000000000000000000000000000000002B
:1031A400000000000000000000000000000000001B
:1031B400000000000000000000000000000000000B
:1031C40000000000010001000100010000000000F7
:1031D40000000000000000000000000000000000EB
:1031E40000000000000000000000000000000000DB
:1031F40000000000000000000000000000000000CB
:1032040000000000000000000000000000000000BA
:1032140000000000000000000000000000000000AA
:10322400000000000000000000000000000000009A
:10323400000000000000000000000000000000008A
:103244000000010001000100010000000000000076
:103254000000000000000000000001000000000069
:10326400000000000000000000000000000000005A
:10327400000000000000000000000000000000004A
:10328400000000000000000000000000000000003A
:103294000000000001000100010001000000000026
:1032A400000000000000000000000000000000001A
:1032B400000000000000000000000000000000000A
:1032C40000000000000000000000000000000000FA
:1032D40000000000000000000000000000000000EA
:1032E40000000000010001000100000000000000D7
:1032F40000000100000000000000000000000000C9
:1033040000000100010001000100010000000000B4
:1033140000000000000000000000000000000000A9
:103324000000000000000000000000000000000099
:103334000000000001000100010000000000000086
:103344000000010000000000010001000000000076
:103354000000010000000100000001000000000066
:103364000000010000000100000001000000000056
:103374000000010001000000000001000000000046
:103384000000000001000100010000000000000036
:103394000000000000000000000000000000000029
:1033A4000000000000000000000000000000000019
:1033B4000000000001000100000000000000000007
:1033C40000000000000001000000000000000000F8
:1033D40000000000000001000000000000000000E8
:1033E40000000000000001000000000000000000D8
:1033F40000000000000001000000000000000000C8
:1034040000000000010001000100000000000000B5
:1034140000000000000000000000000000000000A8
:103424000000000000000000000000000000000098
:103434000000000001000100010001000100000083
:103444000000000000000000000000000100000077
:103454000000000000000000000001000000000067
:103464000000000000000000010000000000000057
:103474000000000000000100000000000000000047
:103484000000000001000000000000000000000037
:103494000000000000000000000000000000000028
:1034A4000000000000000000000000000000000018
:1034B4000000000001000100000000000000000006
:1034C40000000000000001000000000000000000F7
:1034D40000000000000001000000000000000000E7
:1034E40000000000000001000000000000000000D7
:1034F40000000000000001000000000000000000C7
:1035040000000000010001000100000000000000B4
:1035140000000000000000000000000000000000A7
:103524000000000000000000000000000000000097
:103534000000000001000100010000000000000084
:103544000000010000000000010001000000000074
:103554000000010000000100000001000000000064
:103564000000010000000100000001000000000054
:103574000000010001000000000001000000000044
:103584000000000001000100010000000000000034
:103594000000000000000000000000000000000027
:1035A4000000000000000000000000000000000017
:1035B4000000000001000100010001000000000003
:1035C40000000000000000000000000001000000F6
:1035D40000000000000000000100010000000000E5
:1035E40000000000000000000000000001000000D6
:1035F40000000000000000000000000001000000C6
:1036040000000000010001000100010001000000B1
:1036140000000000000000000000000000000000A6
:103624000000000000000000000000000000000096
:103634000000000001000100010000000000000083
:103644000000010000000000000001000000000074
:103654000000000001000100010001000000000062
:103664000000000000000000000001000000000055
:103674000000000000000000000001000000000045
:103684000000000001000100010000000000000033
:103694000000000000000000000000000000000026
:1036A4000000000000000000000000000000000016
:1036B4000000010001000100010000000000000002
:1036C40000000000000000000000010000000000F5
:1036D40000000000010001000100000000000000E3
:1036E40000000100000000000000000000000000D5
:1036F40000000100010001000100010000000000C1
:1037040000000000000000000000000000000000B5
:1037140000000000000000000000000000000000A5
:103724000000000000000000000000000000000095
:103734000000000000000000000000000000000085
:103744000000000000000000000000000000000075
:103754000000000000000000000000000000000065
:103764000000000000000000000000000000000055
:103774000000000001000100010000000000000042
:103784000000010000000000000001000000000033
:103794000000000001000100010001000000000021
:1037A4000000000000000000000001000000000014
:1037B4000000000000000000000001000000000004
:1037C40000000000010001000100000000000000F2
:1037D40000000000000000000000000000000000E5
:1037E40000000000000000000000000000000000D5
:1037F40000000000000000000000000000000000C5
:1038040000000000010001000100000000000000B1
:1038140000000100000000000000010000000000A2
:103824000000000001000100010000000000000091
:103834000000010000000000000001000000000082
:103844000000000001000100010000000000000071
:103854000000000000000000000000000000000064
:103864000000000000000000000000000000000054
:10387400000000000100010001000100010000003F
:103884000000000000000000000000000100000033
:103894000000000000000000000001000000000023
:1038A4000000000000000000010000000000000013
:1038B4000000000000000100000000000000000003
:1038C40000000000010000000000000000000000F3
:1038D40000000000000000000000000000000000E4
:1038E40000000000000000000000000000000000D4
:1038F40000000000000000000000000000000000C4
:1039040000000000010001000100010000000000AF
:1039140000000100000000000000000000000000A2
:10392400000001000100010001000000000000008F
:103934000000010000000000000001000000000081
:103944000000000001000100010000000000000070
:103954000000000000000000000000000000000063
:103964000000000000000000000000000000000053
:103974000000000000000000000000000000000043
:10398400000001000100010001000100000000002E
:103994000000010000000000000000000000000022
:1039A400000001000100010001000000000000000F
:1039B4000000000000000000000001000000000002
:1039C40000000100010001000100000000000000EF
:1039D40000000000000000000000000000000000E3
:1039E40000000000000000000000000000000000D3
:1039F40000000000000000000000000000000000C3
:103A040000000000000001000100000000000000B0
:103A140000000000010000000100000000000000A0
:103A24000000010000000000010000000000000090
:103A3400000001000100010001000100000000007D
:103A44000000000000000000010000000000000071
:103A54000000000000000000000000000000000062
:103A64000000000000000000000000000000000052
:103A7400000000000100010001000100000000003E
:103A84000000000000000000000000000100000031
:103A94000000000000000000010001000000000020
:103AA4000000000000000000000000000100000011
:103AB4000000000000000000000000000100000001
:103AC40000000000010001000100010001000000ED
:103AD40000000000000000000000000000000000E2
:103AE40001000000000000000000000000000000D1
:103AF40000000000000000000000000000000000C2
:103B040000000000010001000100010000000000AD
:103B140000000000000000000000000001000000A0
:103B2400000000000000010001000100000000008E
:103B34000000000001000000000000000000000080
:103B4400000000000100010001000100010000006C
:103B54000000000000000000000000000000000061
:103B64000000000000000000000000000000000051
:103B7400000000000000010001000000000000003F
:103B84000000000000000000010000000000000030
:103B94000000000000000000010000000000000020
:103BA4000000000000000000010000000000000010
:103BB4000000000000000000010000000000000000
:103BC40000000000000001000100010000000000EE
:103BD40000000000000000000000000000000000E1
:103BE40000000000000000000000000000000000D1
:103BF40000000000000000000000000000000000C1
:103C040000000000000001000100010000000000AD
:103C1400000000000100000000000100010000009D
:103C2400000000000100000001000000010000008D
:103C3400000000000100010000000000010000007D
:103C4400000000000000010001000100000000006D
:103C54000000000000000000000000000000000060
:103C640000000100010100000020002100220023C7
:103C7400002400250026002700160017001800194C
:103C8400001A001B001C001D000000000023028D10
:0C3C940001BA017002EB01C901DD010062
:00000001FF
