:020000040000FA
:100000000C9435010C9466010C9466010C94660105
:100010000C9466010C9466010C9466010C946601C4
:100020000C9466010C9466010C9466010C946601B4
:100030000C9466010C9466010C9466010C946601A4
:100040000C9466010C9466010C9466010C94660194
:100050000C9466010C9466010C9466010C94A10644
:100060000C9466010C946B060C9441060C9466018A
:100070000C9466010C9466010C9466010C94660164
:100080000C9466010C9466010C9466010C94660154
:100090000C9466010C9466010C9466010C94660144
:1000A0000C9466010C9466010C9466010C94660134
:1000B0000C9466010C9466010C9466010C94660124
:1000C0000C9466010C9466010C9466010C94660114
:1000D0000C9466010C9466010C9466010C94660104
:1000E0000C9466010C94E9020C9412030C941F0307
:1000F0000C9416030C94FE020C941A030C94FA024E
:100100000C948D010C9470020C94C9010C94F102B2
:100110000C94F4020C9424030C94DF020C9420033E
:100120000C94EB060C9423020C9408030C94040327
:100130000C94EB010C940C030C94E5020C94BA01A2
:100140000C94ED020C94DD01000021002400270036
:100150002A002D00300033000101000004010701D6
:100160000A0100002200250028002B002E0031008B
:10017000340002010000050108010B01000020000D
:100180002300260029002C002F003200000100006F
:10019000030106010901050505050705080808080A
:1001A000020202020A0A080804040404010101010F
:1001B000010101010303030303030303040707070A
:1001C0000C0C0C0C0C0C0C0C0202020206060606AF
:1001D000060606060B0B0B0B0B0B0B0B010210207C
:1001E000200808102040102040800201020108046D
:1001F0000201010204081020408080402010080401
:100200000201800402018040201008040201080459
:10021000020101020408102040800102040810209D
:10022000408000000A0B02090C0D0E0807030401B0
:1002300000000000000000000000000000000000BE
:10024000000000000000000000000000000012118B
:10025000100000000000000000000000000000008E
:100260000000000000000000EB0611241FBECFEFCD
:10027000D1E2DEBFCDBF00E00CBF1CE1A0E0B2E0E8
:10028000EAE9F7E200E00BBF02C007900D92AC3B39
:10029000B107D9F721E2ACEBBCE101C01D92AD344E
:1002A000B207E1F711E0C5E3D1E000E006C0219715
:1002B0000109802FFE010E94C313C433D10780E0DF
:1002C0000807A9F70E94B6070C94CB130C94000002
:1002D0009C014091241E5091251ECA01019682174F
:1002E000930721F481E06330710509F080E0FA01A1
:1002F00031972E173F0719F46330710561F04217EB
:10030000530721F491E06330710509F090E0811109
:1003100001C0892F089581E00895AF92BF92CF92D6
:10032000DF92EF92FF920F931F93CF93DF936C01B5
:100330007B018B01040F151FEB015E01AE18BF0896
:10034000C017D10759F06991D601ED91FC91019048
:10035000F081E02DC6011995892B79F7C501DF9150
:10036000CF911F910F91FF90EF90DF90CF90BF90B2
:10037000AF900895FC01538D448D252F30E0842FDC
:1003800090E0821B930B541710F0CF9608950197BD
:100390000895FC01918D828D981761F0A28DAE0FAA
:1003A000BF2FB11D5D968C91928D9F5F9F73928F31
:1003B00090E008958FEF9FEF0895FC01918D828D5D
:1003C000981731F0828DE80FF11D858D90E008952A
:1003D0008FEF9FEF0895FC01918D228D892F90E082
:1003E000805C9F4F821B91098F739927089582E348
:1003F0009EE10E94EB0121E0892B09F420E0822F8D
:100400000895FC01A48DA80FB92FB11DA35ABF4FA9
:100410002C91848D90E001968F739927848FA68903
:10042000B7892C93A089B1898C91837080648C9357
:10043000938D848D981306C00288F389E02D808106
:100440008F7D80830895EF92FF920F931F93CF9338
:10045000DF93EC0181E0888F9B8D8C8D98131AC0FF
:10046000E889F989808185FF15C09FB7F894EE89E6
:10047000FF896083E889F989808183708064808343
:100480009FBF81E090E0DF91CF911F910F91FF908E
:10049000EF900895F62E0B8D10E00F5F1F4F0F7336
:1004A0001127E02E8C8D8E110CC00FB607FCFACFF1
:1004B000E889F989808185FFF5CFCE010E9401028C
:1004C000F1CFEB8DEC0FFD2FF11DE35AFF4FF082C2
:1004D0009FB7F8940B8FEA89FB8980818062CFCF28
:1004E000CF93DF93EC01888D8823B9F0AA89BB896B
:1004F000E889F9898C9185FD03C0808186FD0DC056
:100500000FB607FCF7CF8C9185FFF2CF808185FF76
:10051000EDCFCE010E940102E9CFDF91CF91089586
:1005200080E090E0892B29F00E94F70181110E9460
:10053000000080E090E0892B49F080E090E0892B7A
:1005400029F00E94000081110E94000080E090E0EC
:10055000892B49F080E090E0892B29F00E9400006F
:1005600081110E94000080E090E0892B49F080E03A
:1005700090E0892B29F00E94000081110C9400006A
:1005800008958150823108F05AC0E82FF0E08827A2
:10059000E353FD4F8F4F0C94C313ED02F102DF02C2
:1005A000E502E9021F03F402FA02FE020403080353
:1005B0000C03120316031F031A0320032403809164
:1005C00080008F77809380000895809180008F7DD8
:1005D000F9CF80918000877FF5CF84B58F7784BD78
:1005E000089584B58F7DFBCF8091B0008F77809385
:1005F000B00008958091B0008F7DF9CF8091900078
:100600008F77809390000895809190008F7DF9CF2F
:1006100080919000877FF5CF8091A0008F778093A5
:10062000A00008958091A0008F7DF9CF8091A00057
:10063000877FF5CF809120018F77809320010895E7
:10064000809120018F7DF9CF80912001877FF5CFA8
:10065000CF93DF93282F30E0F901EE5DFD4F8491B9
:10066000F901E452FE4FD491F901EA56FE4FC491CC
:10067000CC23A1F081110E94C102EC2FF0E0EE0F1B
:10068000FF1FE458FE4FA591B491EC91ED2381E05A
:1006900090E009F480E0DF91CF91089580E090E050
:1006A000FACF1F93CF93DF93282F30E0F901EE5D4F
:1006B000FD4F8491F901E452FE4FD491F901EA56BD
:1006C000FE4FC491CC23A9F0162F81110E94C102C4
:1006D000EC2FF0E0EE0FFF1FEE59FE4FA591B49105
:1006E0008FB7F894EC91111108C0D095DE23DC93FC
:1006F0008FBFDF91CF911F910895DE2BF8CFCF935D
:10070000DF9390E0FC01E452FE4F24918A569E4F05
:10071000FC0184918823D1F090E0880F991FFC019F
:10072000E85BFE4FA591B491FC01EE59FE4FC591D7
:10073000D49161110EC09FB7F8948C91E22FE0958F
:100740008E238C932881E223E8839FBFDF91CF9192
:1007500008958FB7F894EC91E22BEC938FBFF6CF0E
:10076000863308F0865320917B00982F9870277F5E
:10077000922B90937B008770806480937C008091A3
:100780007A00806480937A0080917A0086FDFCCFA5
:10079000809178009091790008953FB7F894809106
:1007A000C11C9091C21CA091C31CB091C41C26B561
:1007B000A89B05C02F3F19F00196A11DB11D3FBF99
:1007C000BA2FA92F982F8827BC01CD01620F711D68
:1007D000811D911D42E0660F771F881F991F4A9562
:1007E000D1F708958F929F92AF92BF92CF92DF92EE
:1007F000EF92FF926B017C010E94CD034B015C01E3
:10080000C114D104E104F104B9F00E94CD036819C8
:1008100079098A099B09683E73408105910580F337
:1008200021E0C21AD108E108F10888EE880E83E0C1
:10083000981EA11CB11CE4CFFF90EF90DF90CF90E9
:10084000BF90AF909F908F9008952FB7F8946091CC
:10085000BD1C7091BE1C8091BF1C9091C01C2FBF0D
:1008600008955F926F927F928F929F92AF92BF9204
:10087000CF92DF92EF92FF920F931F93CF93DF936C
:10088000782E692E3EE1C32ED12C49EAA42E42E1F6
:10089000B42E09E812E1C72DD62DF80150800E5F65
:1008A0001F4F61E0852D0E9451034E0128E0E22E8A
:1008B000F12CF401819191914F01019749F4F701D5
:1008C000EE0FFF1FE956FD4E60E080810E9451034C
:1008D000F1E0EF1AF10869F762E070E080E090E083
:1008E0000E94F20360E0852D0E94510389E9E82E01
:1008F00082E1F82EF7018081F2E0EF0EF11C61E059
:100900000E945103AE14BF04A9F7609682E1093931
:10091000180719F691E0C91AD10809F0BACFDF918A
:10092000CF911F910F91FF90EF90DF90CF90BF90EC
:10093000AF909F908F907F906F905F9008950F93EE
:100940001F93CF93DF93C9E9D2E109E812E18881CF
:10095000229661E00E945103F80180810E5F1F4FD3
:1009600060E00E945103F2E1C93ADF0781F7DF91AD
:10097000CF911F910F910895CF92DF92EF92FF9246
:100980000F931F93CF93DF931F921F92CDB7DEB7C4
:1009900069834A83880F991F00914B2110914C2144
:1009A000000F111FE5EFF0E29F01255F3042201795
:1009B000310714F41192F8CF2981FC01EB50FF4D5F
:1009C00021838A81808360E0809149210E945103C4
:1009D0001016110604F501501109F801EB50FF4DF6
:1009E000E080D0904721C090452188E0F82E6E2D00
:1009F000661F6627661F8C2D0E945103EE0C61E076
:100A00008D2D0E94510360E08D2D0E945103FA94B8
:100A1000F110EDCFDDCF61E0809149210F900F9073
:100A2000DF91CF911F910F91FF90EF90DF90CF90CA
:100A30000C945103EF92FF920F931F93CF937C017D
:100A40008C0183E0000F111F8A95E1F70B5F1E4DAB
:100A5000C1E0F80111928F0140E06C2FC7010E94A4
:100A6000BC04CF5FC930A9F7CF911F910F91FF90C0
:100A7000EF90089520914B2130914C2112161306CE
:100A8000FCF488309105E0F468307105C8F420E882
:100A900030E002C0359527956A95E2F7FC01EB50EE
:100AA000FF4D5089442349F0252B208B61E0680FCE
:100AB000408990E080E00C94BC0420952523F5CF7C
:100AC0000895CF92DF92EF92FF920F931F93CF93EF
:100AD000DF937C01C7E0D0E0670110E000E0F601A1
:100AE000819191916F0141E0892B09F440E0BE01B1
:100AF000C8010E943A050F5F1F4F0830110579F7B2
:100B00002197F0E1EF0EF11CCF3FDC0729F7DF91D1
:100B1000CF911F910F91FF90EF90DF90CF900895AC
:100B20008F929F92AF92BF92CF92DF92EF92FF92FD
:100B30000F931F93CF93DF938C01D0E0C0E027E0A9
:100B4000E22EF12C37E0A32EB12CC830D1050CF0E9
:100B500046C09C2E80E2980E61E0892D0E945103D0
:100B600097E0C92ED12C86E18C0DF801208130E070
:100B70000C2C02C0359527950A94E2F760E020FF1F
:100B800061E00E945103F1E0CF1AD10860F761E003
:100B900070E080E090E00E94F20360E0892D0E9406
:100BA000510386E1D82E61E08D2D0E945103D3942C
:100BB000EEE1DE12F8CF21960F5F1F4FC031D10555
:100BC00009F0C3CFDF91CF911F910F91FF90EF906C
:100BD000DF90CF90BF90AF909F908F9008958091BD
:100BE0004B2190914C2118161906F4F4F8E0EF16F9
:100BF000F104D0F4F801C080912C812CD12CC501D6
:100C000088199909A60102C0559547958A95E2F77A
:100C10004170B701C4010E943A05FFEF8F1A9F0A85
:100C200088E08816910459F7E1E0EE1AF108C3CF85
:100C300081E0809384128CE79DE10E94900583E01F
:100C400090E09093251E8093241E82E390E0909381
:100C5000271E8093261E88EC90E09093291E809397
:100C6000281E1092010210920002109203021092AC
:100C70000202E5ECFCE111928CE1EC3FF807D9F7B8
:100C800008951F920F920FB60F9211240BB60F9278
:100C90002F933F934F935F936F937F938F939F9384
:100CA000AF93BF93EF93FF9382E39EE10E94010213
:100CB000FF91EF91BF91AF919F918F917F916F9134
:100CC0005F914F913F912F910F900BBE0F900FBEF0
:100CD0000F901F9018951F920F920FB60F9211242C
:100CE0000BB60F922F938F939F93EF93FF93E09107
:100CF000421EF091431E8081E091481EF091491EF2
:100D000082FD1DC0908180914B1E8F5F8F7320915B
:100D10004C1E821741F0E0914B1EF0E0EE5CF14E6C
:100D2000958F80934B1EFF91EF919F918F912F9103
:100D30000F900BBE0F900FBE0F901F9018958081E3
:100D4000F2CF1F920F920FB60F9211242F933F9361
:100D50008F939F93AF93BF938091BD1C9091BE1CC6
:100D6000A091BF1CB091C01C3091BC1C23E0230F8C
:100D70002D3758F50196A11DB11D2093BC1C809301
:100D8000BD1C9093BE1CA093BF1CB093C01C80914F
:100D9000C11C9091C21CA091C31CB091C41C0196AF
:100DA000A11DB11D8093C11C9093C21CA093C31CB4
:100DB000B093C41CBF91AF919F918F913F912F91A0
:100DC0000F900FBE0F901F90189526E8230F0296E4
:100DD000A11DB11DD2CFCF93DF931092351E10927B
:100DE000341E88EE93E0A0E0B0E08093361E90932E
:100DF000371EA093381EB093391E8DEA9CE1909364
:100E0000331E8093321E85EC90E090933F1E8093BA
:100E10003E1E84EC90E09093411E8093401E80EC37
:100E200090E09093431E8093421E81EC90E090935B
:100E3000451E8093441E82EC90E09093471E809361
:100E4000461E86EC90E09093491E8093481E1092B7
:100E50004B1E10924C1E10924D1E10924E1EC3E35C
:100E6000D0E0D0934621C093452184E390E0909355
:100E700048218093472185E390E090934A21809315
:100E8000492181E090E090934C2180934B2161E0D7
:100E900083E30E947F0361E0809147210E947F03EA
:100EA00061E0809149210E947F0361E080914921A6
:100EB0000E945103D0934621C0934521E5E0F1E221
:100EC00085E491E211928E179F07E1F7D0E0C0E030
:100ED00080914B2190914C21C817D90774F540E0BF
:100EE0006FE0CE010E94BC0480914B2190914C2177
:100EF000C817D9072CF447E06BE0CE010E94BC0470
:100F000040E069E0CE010E94BC0480914B219091A9
:100F10004C21C817D9071CF4CE010E941A058091F4
:100F20004B2190914C21C817D9072CF440E06CE07C
:100F3000CE010E94BC042196CBCFEFECFEE185EF01
:100F400090E26AE04FE050E020ED37E0DF01762FDD
:100F50001D927A95E9F753834283358324833A9629
:100F60008E179F0799F7DF91CF910895CF93DF9365
:100F700000D01F92CDB7DEB7789484B5826084BD6F
:100F800084B5816084BD85B5826085BD85B581608D
:100F900085BD80916E00816080936E00109281000B
:100FA00080918100826080938100809181008160C6
:100FB0008093810080918000816080938000809187
:100FC000B10084608093B1008091B0008160809313
:100FD000B000809191008260809391008091910097
:100FE0008160809391008091900081608093900057
:100FF0008091A10082608093A1008091A100816016
:101000008093A1008091A00081608093A0008091D6
:101010002101826080932101809121018160809370
:1010200021018091200181608093200180917A00CC
:10103000846080937A0080917A00826080937A0045
:1010400080917A00816080937A0080917A00806834
:1010500080937A001092C100E091421EF091431EED
:1010600082E08083E0913E1EF0913F1E1082E0916D
:10107000401EF091411E8FEC808310924A1EE09139
:10108000461EF091471E86E08083E091441EF09159
:10109000451E808180618083E091441EF091451E51
:1010A000808188608083E091441EF091451E80819C
:1010B00080688083E091441EF091451E80818F7D81
:1010C000808380914B2190914C211816190634F49D
:1010D00041E06CE090E080E00E94BC0480914B21F4
:1010E00090914C211816190634F44FE06AE090E014
:1010F00080E00E94BC0480914B2190914C211816F5
:10110000190624F490E080E00E941A0529E932E1F2
:101110003A832983A9E8EA2EA2E1FA2E6701890120
:10112000F80180810E5F1F4F61E00E947F03F6018E
:101130008081F2E0CF0ED11C61E00E947F0322E1AA
:10114000093A120769F7E981FA8180813296FA83B8
:10115000E98361E00E945103F7018081F2E0EF0E24
:10116000F11C60E00E94510329813A81295A3241E1
:1011700051F760E08FE20E947F030E941806F0E4BE
:101180006F2E712C809184128111B6C387E30E9467
:10119000B003892B09F077C179E8272E72E1372E49
:1011A000ECEF8E2EECE19E2E24013A82298210E093
:1011B00000E0E981FA8180813296FA83E98361E077
:1011C0000E9451039801220F331F3C832B8362013D
:1011D000F12CE12C80910202909103028130910563
:1011E00009F09AC0EB81FC81E75DF34E20813181EB
:1011F000F601318320838630910509F0A1C0EB818F
:10120000FC81E755F64E80819181F60191838083C0
:10121000A0900002B0900102A114B10409F0C9C06D
:1012200041E0EB81FC81E75DF84E80819181892B63
:1012300009F440E0B701C8010E943A0555E0A5163F
:10124000B10409F0D2C041E0EB81FC81E755FB4ECF
:1012500080819181892B09F440E0B701C8010E9487
:101260003A05EFEFEE1AFE0AF0E1CF0ED11C2B810A
:101270003C81205F3F4F3C832B8338E0E316F10431
:1012800009F0A8CF0F5F1F4F42E0440E511C0830F9
:10129000110509F08ECF09EA12E1F12CE12CF401DD
:1012A000EE0DFF1D80819181019739F460E0F70117
:1012B000E756FD4E80810E94510352E0E50EF11C7D
:1012C00060E1E616F10459F764E070E080E090E038
:1012D0000E94F203F1018081F2E02F0E311C60E0E8
:1012E0000E94510359E9E52E52E1F52EF701808164
:1012F000F2E0EF0EF11C61E00E9451030E151F0594
:10130000A9F720E1820E911C4CE75DE148155905D3
:1013100021F60E94900236CF8230910529F4EB81AC
:10132000FC81E755F44E62CF8330910589F4EB815F
:10133000FC81E75DF44E20813181F6013183208309
:101340008730910589F4EB81FC81E75DF64E5BCF38
:101350008430910589F4EB81FC81E755F54E2081BD
:101360003181F6013183208388309105D1F4EB81FE
:10137000FC81E755F74E47CF8530910509F03BCF0B
:10138000EB81FC81E75DF54E20813181F6013183EF
:101390002083892B09F03CCFEB81FC81E755F84E87
:1013A00032CF89309105A9F7EB81FC81E75DF74EDB
:1013B0002ACFF1E0AF16B10431F441E0EB81FC81BA
:1013C000E755F94E32CF22E0A216B104C1F441E054
:1013D000EB81FC81E75DF94E80819181892B09F4D5
:1013E00040E0B701C8010E943A0566E0A616B104C4
:1013F000C1F441E0EB81FC81E75DFB4E29CF33E096
:10140000A316B104C1F441E0EB81FC81E755FA4E2B
:1014100080819181892B09F440E0B701C8010E94C5
:101420003A0577E0A716B10421F541E0EB81FC8194
:10143000E755FC4E0DCF44E0A416B10409F0FECEF2
:1014400041E0EB81FC81E75DFA4E80819181892B3F
:1014500009F440E0B701C8010E943A0599E0A916D5
:10146000B10409F0FECE41E0EB81FC81E755FD4E71
:10147000EFCE88E0A816B10489F741E0EB81FC814A
:10148000E75DFC4EE5CE8091241E9091251E0297CB
:101490000CF446C00E94250400912E1E10912F1EB0
:1014A0002091301E3091311EAB01BC01401B510B0D
:1014B000620B730B8091261E9091271E092E000C43
:1014C000AA0BBB0B84179507A607B70748F588E357
:1014D0000E942803019719F081E080939D1D88E305
:1014E0000E9428030197E1F480919D1D8823C1F09B
:1014F0008091241E9091251E823091052CF0019739
:101500009093251E8093241E0E94250460932E1E16
:1015100070932F1E8093301E9093311E10929D1D4C
:101520008091241E9091251E06970CF046C00E94C3
:10153000250400912E1E10912F1E2091301E3091F7
:10154000311EAB01BC01401B510B620B730B809130
:10155000261E9091271E092E000CAA0BBB0B841788
:101560009507A607B70748F589E30E942803019766
:1015700019F081E080939C1D89E30E942803019764
:10158000E1F480919C1D8823C1F08091241E9091EC
:10159000251E863091052CF401969093251E80938C
:1015A000241E0E94250460932E1E70932F1E80938C
:1015B000301E9093311E10929C1D0E94081326E04D
:1015C00030E040E050E00E946013E5ECFCE1FA837B
:1015D000E98350E040E0219121112CC141155105D2
:1015E00009F40CC19A0121503109AAE0A29FF0012F
:1015F000A39FF00D1124E153F14E228133812C3051
:101600003105ACF4A49FF001A59FF00D1124E15326
:10161000F14E718360838FE090E09383828380ED4D
:1016200097E095838483168217821086118605ECD5
:101630001CE11C821B82F80181918F01882369F0D3
:101640008BE30E94B003EB81FC81E153F14E880FE4
:10165000991F880F991F958384832B813C81265F76
:101660003F4F3C832B832632324029F780E1ECE761
:10167000FDE1ACE8BDE101900D928A95E1F7809122
:10168000241E9091251E01979301082E02C03595C6
:1016900027950A94E2F79091981D922B9093981DAC
:1016A00060EE70E002C0759567958A95E2F76093E9
:1016B000991D20939A1D60939B1D0FEC1EE11C83C6
:1016C0000B8395ECE92E9CE1F92E2DE0222E312C96
:1016D0003EE0432E512CF70181917F01882309F4CC
:1016E00045C0EB81FC8182819381C480D580868056
:1016F0009780A084B18420813181215031098F30BD
:10170000910509F09EC0C30102C0959587952A9561
:10171000E2F790918C1D892B80938C1D0E942504EB
:10172000AB01BC01481959096A097B09C601DD0CE6
:10173000AA0BBB0B84179507A607B707B8F4EB8174
:10174000FC81828193810197938382830E94250487
:10175000EB81FC8166837783808791878281938187
:101760008E3F9F4F1CF4F701319710822B813C81F3
:10177000265F3F4F3C832B833CEFE3163CE1F306AF
:1017800009F0A9CF8CE89DE10E94900585EFC82E55
:1017900080E2D82EF8010190F081E02DFC83EB83EC
:1017A000F801E280F3805701FFEFAF1ABF0AB501DD
:1017B0008B819C8101970E946801982EB5018B81D5
:1017C0009C8101960E946801B82EB7018B819C8193
:1017D0000E946801E981FA819191FA83E983992352
:1017E00039F0911003C0B11001C081110E94180698
:1017F000065F1F4FC016D10669F68BCD21E02093FE
:10180000C51C7093D01E6093CF1E8FE090E0909324
:10181000D21E8093D11E80ED97E09093D41E8093CA
:10182000D31E1092D51E1092D61E1092D71E109263
:10183000D81EFDCE4F5F5F4F4733510509F0CBCE29
:10184000F6CE40EE50E0022E02C0559547950A9420
:10185000E2F78E30910589F4C30102C09595879512
:101860002A95E2F790918C1D892B80938C1D809195
:101870008D1D482B40938D1D51CF8F3F980789F4C4
:1018800080919A1D482B40939A1DC30102C09595E3
:1018900087952A95E2F790919B1D892B80939B1D3C
:1018A0003DCF8E3F6FEF960731F480919B1D482B03
:1018B00040939B1D33CFF101E81BF90BE457F24E27
:1018C0003081342B3083F201E81BF90BE457F24EE0
:1018D000B30102C0759567952A95E2F79B013081A7
:1018E000232B2083EFE0F0E0E81BF90BE457F24EE6
:1018F0008081482B408312CF87E30E942803019701
:1019000049F4109284126AEF70E080E090E00E9447
:10191000F203FFCC8FE20E9428038C019093231ED8
:101920008093221E8AE30E94B0039A838983909356
:10193000211E8093201E80911E1E90911F1E01303B
:10194000110509F087C30097B9F484E092E00E9482
:1019500061058EE99DE10E94310429813A81B90136
:10196000330F880B990B0E94F2030E949F0410937F
:101970001F1E00931E1EC7CF81309105C9F484E855
:1019800092E00E9461058EE99DE10E943104498147
:101990005A81BA01550F880B990B0E94F2030E94DD
:1019A0009F0462E070E070931F1E60931E1EABCF19
:1019B00082309105C9F484E093E00E94610584E0DF
:1019C00092E00E943104E981FA81BF01FF0F880B88
:1019D000990B0E94F2030E949F0423E030E03093B1
:1019E0001F1E20931E1E8FCF83309105A9F484E81B
:1019F00093E00E94610584E892E00E9431044981ED
:101A00005A81BA01550F880B990B0E94F2030E946C
:101A10009F0464E070E0C7CF84309105A9F484E0AE
:101A200094E00E94610584E093E00E943104E98122
:101A3000FA81BF01FF0F880B990B0E94F2030E94ED
:101A40009F0425E030E0CBCF85309105A9F484E8F0
:101A500098E00E94610584E893E00E943104498186
:101A60005A81BA01550F880B990B0E94F2030E940C
:101A70009F0466E070E097CF86309105A9F484E872
:101A800094E00E94610584E094E00E943104E981C1
:101A9000FA81BF01FF0F880B990B0E94F2030E948D
:101AA0009F0427E030E09BCF87309105A9F484E8BC
:101AB00097E00E94610584E898E00E943104498122
:101AC0005A81BA01550F880B990B0E94F2030E94AC
:101AD0009F0488E090E087C288309105A9F484E0F3
:101AE00095E00E94610584E894E00E943104E98158
:101AF000FA81BF01FF0F880B990B0E94F2030E942D
:101B00009F0489E090E06FC289309105A9F484E8D0
:101B100095E00E94610584E897E00E9431042981E4
:101B20003A81B901330F880B990B0E94F2030E948E
:101B30009F048AE090E057C28A309105A9F484E0BE
:101B400096E00E94610584E095E00E94310449819D
:101B50005A81BA01550F880B990B0E94F2030E941B
:101B60009F048BE090E03FC28B309105A9F484E89C
:101B700096E00E94610584E895E00E943104E981C5
:101B8000FA81BF01FF0F880B990B0E94F2030E949C
:101B90009F048CE090E027C28C309105A9F484E08A
:101BA00097E00E94610584E096E00E94310429815B
:101BB0003A81B901330F880B990B0E94F2030E94FE
:101BC0009F048DE090E00FC28D309105A9F484E868
:101BD00097E00E94610584E896E00E943104498103
:101BE0005A81BA01550F880B990B0E94F2030E948B
:101BF0009F048EE090E0F7C18E309105A9F484E057
:101C000098E00E94610584E097E00E943104E98138
:101C1000FA81BF01FF0F880B990B0E94F2030E940B
:101C20009F048FE090E0DFC18F309105A9F484E834
:101C300098E00E94610584E897E00E9431042981C0
:101C40003A81B901330F880B990B0E94F2030E946D
:101C50009F0480E190E0C7C180319105A9F484E040
:101C600099E00E94610584E098E00E943104498176
:101C70005A81BA01550F880B990B0E94F2030E94FA
:101C80009F0481E190E0AFC181319105A9F484E81E
:101C90009DE00E94610584E898E00E943104E9819A
:101CA000FA81BF01FF0F880B990B0E94F2030E947B
:101CB0009F0482E190E097C182319105A9F484E804
:101CC00099E00E94610584E099E00E943104298135
:101CD0003A81B901330F880B990B0E94F2030E94DD
:101CE0009F0483E190E07FC183319105A9F484E8EA
:101CF0009AE00E94610584E89DE00E9431044981D8
:101D00005A81BA01550F880B990B0E94F2030E9469
:101D10009F0484E190E067C184319105A9F484E0D7
:101D200092E10E94610584E89AE00E943104E98111
:101D3000FA81BF01FF0F880B990B0E94F2030E94EA
:101D40009F0485E190E04FC185319105A9F484E0BD
:101D50009BE00E94610584E09AE00E9431042981A1
:101D60003A81B901330F880B990B0E94F2030E944C
:101D70009F0486E190E037C186319105A9F484E89B
:101D80009EE00E94610584E092E10E943104498155
:101D90005A81BA01550F880B990B0E94F2030E94D9
:101DA0009F0487E190E01FC187319105A9F484E881
:101DB0009BE00E94610584E09BE00E943104E98180
:101DC000FA81BF01FF0F880B990B0E94F2030E945A
:101DD0009F0488E190E007C188319105A9F484E867
:101DE0009DE00E94610584E092E10E943104298116
:101DF0003A81B901330F880B990B0E94F2030E94BC
:101E00009F0489E190E0EFC089319105A9F484E055
:101E10009CE00E94610584E89BE00E9431044981B6
:101E20005A81BA01550F880B990B0E94F2030E9448
:101E30009F048AE190E0D7C08A319105A9F484E833
:101E40009CE00E94610584E89DE00E943104E981E4
:101E5000FA81BF01FF0F880B990B0E94F2030E94C9
:101E60009F048BE190E0BFC08B319105A9F484E021
:101E70009DE00E94610584E09CE00E94310429817C
:101E80003A81B901330F880B990B0E94F2030E942B
:101E90009F048CE190E0A7C08C319105A9F484E8FF
:101EA0009DE00E94610584E89CE00E943104498124
:101EB0005A81BA01550F880B990B0E94F2030E94B8
:101EC0009F048DE190E08FC08D319105A9F484E0ED
:101ED0009EE00E94610584E09DE00E943104E9815A
:101EE000FA81BF01FF0F880B990B0E94F2030E9439
:101EF0009F048EE190E077C08E319105A9F484E8CB
:101F00009EE00E94610584E89DE00E9431042981E1
:101F10003A81B901330F880B990B0E94F2030E949A
:101F20009F048FE190E05FC08F319105A9F484E0B8
:101F30009FE00E94610584E09EE00E943104498197
:101F40005A81BA01550F880B990B0E94F2030E9427
:101F50009F0480E290E047C080329105A9F484E8B4
:101F60009FE00E94610584E89EE00E943104E981BF
:101F7000FA81BF01FF0F880B990B0E94F2030E94A8
:101F80009F0481E290E02FC081329105A9F484E0A2
:101F900090E10E94610584E09FE00E943104298164
:101FA0003A81B901330F880B990B0E94F2030E940A
:101FB0009F0482E290E017C082329105C9F484E860
:101FC00090E10E94610584E89FE00E94310449810C
:101FD0005A81BA01550F880B990B0E94F2030E9497
:101FE0009F0483E290E090931F1E80931E1E8BCC73
:101FF00083329105A9F484E091E10E94610584E0B7
:1020000090E10E943104E981FA81BF01FF0F880B42
:10201000990B0E94F2030E949F0424E230E0DFCC7F
:10202000849709F070CC84E092E10E94610584E815
:1020300090E10E94310449815A81BA01550F880B01
:10204000990B0E94F2030E949F0410921F1E10928F
:102050001E1E59CC8497C1F48EE99DE10E94610552
:1020600084E092E10E943104E981FA81BF01FF0F0F
:10207000880B990B0E94F2030E949F0483E290E078
:1020800090931F1E80931E1E80911E1E90911F1EF6
:102090008332910539F484E891E10E94610584E07E
:1020A00091E17BCF8232910579F484E092E10E9444
:1020B000610584E890E10E94310449815A81BA01A6
:1020C000550F880B990B59CF8132910579F484E033
:1020D00091E10E94610584E090E10E943104E98170
:1020E000FA81BF01FF0F880B990B2FCF803291052A
:1020F00039F484E890E10E94610584E89FE005CF0F
:102100008F31910579F484E090E10E94610584E0CB
:102110009FE00E94310449815A81BA01550F880B12
:10212000990BE3CE8E31910579F484E89FE00E940B
:10213000610584E89EE00E943104E981FA81BF01D3
:10214000FF0F880B990BB9CE8D31910539F484E0DE
:102150009FE00E94610584E09EE08FCE8C31910566
:1021600079F484E89EE00E94610584E89DE00E9485
:10217000310449815A81BA01550F880B990B6DCEF4
:102180008B31910579F484E09EE00E94610584E042
:102190009DE00E943104E981FA81BF01FF0F880BA5
:1021A000990B43CE8A31910539F484E89DE00E9471
:1021B000610584E89CE019CE8931910579F484E8C1
:1021C0009CE00E94610584E89DE00E943104498101
:1021D0005A81BA01550F880B990BF7CD88319105BB
:1021E00079F484E09CE00E94610584E89BE00E9411
:1021F0003104E981FA81BF01FF0F880B990BCDCD26
:102200008731910539F484E89DE00E94610584E8F6
:102210009EE0A3CD8631910579F484E89BE00E948D
:10222000610584E09BE00E94310449815A81BA0132
:10223000550F880B990B81CD8531910579F484E890
:102240009EE00E94610584E092E10E943104E981F0
:10225000FA81BF01FF0F880B990B57CD843191058F
:1022600039F484E092E10E94610584E89AE02DCD82
:102270008331910579F484E09AE00E94610584E855
:1022800099E00E94310449815A81BA01550F880BA7
:10229000990B0BCD8231910579F484E89AE00E9484
:1022A000610584E89DE00E943104E981FA81BF0163
:1022B000FF0F880B990BE1CC8131910539F484E84B
:1022C00099E00E94610584E099E0B7CC80319105E6
:1022D00079F484E89DE00E94610584E898E00E941A
:1022E000310449815A81BA01550F880B990B95CC5D
:1022F0008F30910579F484E099E00E94610584E0D3
:1023000098E00E943104E981FA81BF01FF0F880B38
:10231000990B6BCC8E30910539F484E898E00E94DB
:10232000610584E897E041CC8D30910579F484E033
:1023300098E00E94610584E097E00E9431044981A1
:102340005A81BA01550F880B990B1FCC8C3091051F
:1023500079F484E897E00E94610584E896E00E94A1
:102360003104E981FA81BF01FF0F880B990BF5CB8E
:102370008B30910539F484E097E00E94610584E098
:1023800096E0CBCB8A30910579F484E896E00E9400
:10239000610584E895E00E94310449815A81BA01BF
:1023A000550F880B990BA9CB8930910579F484E0FE
:1023B00096E00E94610584E095E00E943104E98185
:1023C000FA81BF01FF0F880B990B7FCB88309105F5
:1023D000C9F484E895E00E94610584E897E00E94D2
:1023E000310429813A81B901330F880B990B0E947E
:1023F000F2030E949F0447E050E050931F1E409359
:102400001E1E81CA87309105A9F484E095E00E94E0
:10241000610584E894E00E943104E981FA81BF01FA
:10242000FF0F880B990B0E94F2030E949F0426E085
:1024300030E0D5CA86309105A9F484E897E00E947F
:10244000610584E898E00E94310449815A81BA010B
:10245000550F880B990B0E94F2030E949F0465E0C0
:1024600070E0A1CA85309105A9F484E894E00E9447
:10247000610584E094E00E943104E981FA81BF01A2
:10248000FF0F880B990B0E94F2030E949F0424E027
:1024900030E0A5CA84309105A9F484E898E00E9450
:1024A000610584E893E00E94310449815A81BA01B0
:1024B000550F880B990B0E94F2030E949F0463E062
:1024C00070E071CA83309105A9F484E094E00E9421
:1024D000610584E093E00E943104E981FA81BF0143
:1024E000FF0F880B990B0E94F2030E949F0422E0C9
:1024F00030E075CA82309105A9F484E893E00E9427
:10250000610584E892E00E94310449815A81BA0150
:10251000550F880B990B0E94F2030E949F0461E003
:1025200070E041CA8130910579F484E093E00E9423
:10253000610584E092E00E943104E981FA81BF01E3
:10254000FF0F880B990B7DCD892B09F0DCC984E83E
:1025500092E00E9461058EE99DE10E94310429818B
:102560003A81B901330F880B990B0E94F2030E9444
:102570009F0444E250E041CF8F929F92AF92BF926E
:10258000CF92DF92EF92FF92CF93DF93EC016881BD
:1025900079818A819B81611571058105910521F4FD
:1025A00064E279ED8BE597E02DE133EF41E050E017
:1025B0000E94601349015A019B01AC01A7EAB1E4F2
:1025C0000E947F136B017C01ACEEB4EFA501940176
:1025D0000E948D13C60ED71EE81EF91EF7FE06C018
:1025E00081E0C81AD108E10880E8F80AC882D982D7
:1025F000EA82FB82C701B6019F77DF91CF91FF90FE
:10260000EF90DF90CF90BF90AF909F908F90089504
:102610008F929F92AF92BF92CF92DF92EF92FF92F2
:102620006091851270918612809187129091881224
:10263000611571058105910521F464E279ED8BE561
:1026400097E02DE133EF41E050E00E946013490133
:102650005A019B01AC01A7EAB1E40E947F136B0110
:102660007C01ACEEB4EFA50194010E948D13C60E5F
:10267000D71EE81EF91EF7FE06C081E0C81AD10871
:10268000E10880E8F80AC0928512D0928612E092A2
:102690008712F0928812C701B6019F77FF90EF90E2
:1026A000DF90CF90BF90AF909F908F9008956093F0
:1026B00085127093861280938712909388120895E2
:1026C000052E97FB1EF400940E94771357FD07D048
:1026D0000E94921307FC03D04EF40C94771350958C
:1026E0004095309521953F4F4F4F5F4F08959095FE
:1026F0008095709561957F4F8F4F9F4F08950E94F1
:10270000B413A59F900DB49F900DA49F800D911DB3
:1027100011240895B7FF0C947F130E947F13821B2E
:10272000930B0895A1E21A2EAA1BBB1BFD010DC03D
:10273000AA1FBB1FEE1FFF1FA217B307E407F50771
:1027400020F0A21BB30BE40BF50B661F771F881F4D
:10275000991F1A9469F760957095809590959B01E3
:10276000AC01BD01CF010895A29FB001B39FC0018C
:10277000A39F700D811D1124911DB29F700D811DAD
:102780001124911D0895EE0FFF1F881F8BBF079026
:10279000F691E02D1994F894FFCF05000500000094
:1027A0000000000000000000000000000000000029
:1027B0000000000000000000000000000000000019
:1027C0000000000000000000000000000000000009
:1027D00000000000000000000000000000000000F9
:1027E00000000000000000000000000000000000E9
:1027F00001000100010001000000000000000000D5
:1028000001000100000000000100000000000000C5
:1028100001000100010001000000000000000000B4
:1028200000000000000000000000000000000000A8
:102830000100010001000100000000000000000094
:102840000100010000000000010000000000000085
:102850000100010001000100000000000000000074
:102860000100010000000000000000000000000066
:102870000100010000000000000000000000000056
:102880000100010000000000000000000000000046
:102890000000000000000000000000000000000038
:1028A0000100010000000000000000000000000026
:1028B0000100010000000000000000000000000016
:1028C0000100010000000000000000000000000006
:1028D00000000000000000000000000000000000F8
:1028E00000000000000000000000000000000000E8
:1028F00001000100010001000000000000000000D4
:1029000001000000000000000100000000000000C5
:1029100001000000000000000100000000000000B5
:1029200000000000000000000000000000000000A7
:102930000100010001000100000000000000000093
:102940000100000000000000010000000000000085
:102950000100000000000000010000000000000075
:102960000100010001000100000000000000000063
:102970000100000001000000000000000000000055
:102980000100000000000100000000000000000045
:102990000000000000000000000000000000000037
:1029A0000100010001000100000000000000000023
:1029B0000100000001000000000000000000000015
:1029C0000100000000000100000000000000000005
:1029D00000000000000000000000000000000000F7
:1029E00000000000000000000000000000000000E7
:1029F00000000100010000000000000000000000D5
:102A000001000000000001000000000000000000C4
:102A100001000000000001000000000000000000B4
:102A200001000100010001000000000000000000A2
:102A30000100000000000100000000000000000094
:102A40000100000000000100000000000000000084
:102A50000000000000000000000000000000000076
:102A60000000000000000000000000000000000066
:102A70000000010001000100000000000000000053
:102A80000100000000000000000000000000000045
:102A90000100000000000000000000000000000035
:102AA0000100000000000000000000000000000025
:102AB0000100000000000000000000000000000015
:102AC0000000010001000100000000000000000003
:102AD00000000000000000000000000000000000F6
:102AE00000000000000000000000000000000000E6
:102AF00001000100010001000100000000000000D1
:102B000000000000010000000000000000000000C4
:102B100000000000010000000000000000000000B4
:102B200000000000000000000000000000000000A5
:102B30000100010001000100010000000000000090
:102B40000000000001000000000000000000000084
:102B50000000000001000000000000000000000074
:102B60000000000001000000000000000000000064
:102B70000000000001000000000000000000000054
:102B80000000000001000000000000000000000044
:102B90000000000000000000000000000000000035
:102BA0000000000001000000000000000000000024
:102BB0000000000001000000000000000000000014
:102BC0000000000001000000000000000000000004
:102BD00000000000000000000000000000000000F5
:102BE00000000000000000000000000000000000E5
:102BF00001000100010001000100000000000000D0
:102C000000000000010000000000000000000000C3
:102C100000000000010000000000000000000000B3
:102C200000000000000000000000000000000000A4
:102C3000010001000100010001000000000000008F
:102C40000000000001000000000000000000000083
:102C50000000000001000000000000000000000073
:102C60000000000001000000000000000000000063
:102C70000000000001000000000000000000000053
:102C8000010001000100010001000000000000003F
:102C90000000000000000000000000000000000034
:102CA0000000000001000000000000000000000023
:102CB0000000000001000000000000000000000013
:102CC00001000100010001000100000000000000FF
:102CD00000000000000000000000000000000000F4
:102CE00000000000000000000000000000000000E4
:102CF00000000100010001000000000000000000D1
:102D000001000000000000000000000000000000C2
:102D100001000000000000000000000000000000B2
:102D200000000000000000000000000000000000A3
:102D30000000010001000100000000000000000090
:102D40000100000000000000000000000000000082
:102D50000100000000000000000000000000000072
:102D60000100000000000000000000000000000062
:102D70000100000000000000000000000000000052
:102D80000000010001000100000000000000000040
:102D90000000000000000000000000000000000033
:102DA0000100000000000000000000000000000022
:102DB0000100000000000000000000000000000012
:102DC0000000010001000100000000000000000000
:102DD00000000000000000000000000000000000F3
:102DE00000000000000000000000000000000000E3
:102DF00000000100010000000000000000000000D1
:102E000001000000000001000000000000000000C0
:102E100001000000000001000000000000000000B0
:102E200000000000000000000000000000000000A2
:102E30000000010001000000000000000000000090
:102E40000100000000000100000000000000000080
:102E50000100000000000100000000000000000070
:102E6000010001000100010000000000000000005E
:102E70000100000000000100000000000000000050
:102E80000100000000000100000000000000000040
:102E90000000000000000000000000000000000032
:102EA000010001000100010000000000000000001E
:102EB0000100000000000100000000000000000010
:102EC0000100000000000100000000000000000000
:102ED00000000000000000000000000000000000F2
:102EE00000000000000000000000000000000000E2
:102EF00000000100010000000000000000000000D0
:102F000000000000010000000000000000000000C0
:102F100000000000010000000000000000000000B0
:102F200000000000010000000000000000000000A0
:102F30000000000001000000000000000000000090
:102F4000000001000100010000000000000000007E
:102F50000000000000000000000000000000000071
:102F60000000000000000000000000000000000061
:102F70000000000000000000000000000000000051
:102F8000000001000100010001000000000000003D
:102F90000000000000000000000000000000000031
:102FA0000000000000000000000000000000000021
:102FB0000000000000000000000000000000000011
:102FC0000000000000000000000000000000000001
:102FD00000000000000000000000000000000000F1
:102FE00000000000000000000000000000000000E1
:102FF00000000000000000000000000000000000D1
:1030000001000100010001000000000000000000BC
:1030100000000000000000000100000000000000AF
:1030200000000000000000000000000000000000A0
:103030000000000000000000000000000000000090
:103040000000000000000000000000000000000080
:10305000000001000100010001000000000000006C
:103060000000000000000000000000000000000060
:103070000000000000000000000000000000000050
:103080000000000000000000000000000000000040
:103090000000000000000000000000000000000030
:1030A000000001000100010000000000000000001D
:1030B000010000000000000000000000000000000F
:1030C00001000100010001000100000000000000FB
:1030D00000000000000000000000000000000000F0
:1030E00000000000000000000000000000000000E0
:1030F00000000100010001000000000000000000CD
:1031000001000000000001000100000000000000BC
:1031100001000000010000000100000000000000AC
:10312000010000000100000001000000000000009C
:10313000010001000000000001000000000000008C
:10314000000001000100010000000000000000007C
:10315000000000000000000000000000000000006F
:10316000000000000000000000000000000000005F
:10317000000001000100000000000000000000004D
:10318000000000000100000000000000000000003E
:10319000000000000100000000000000000000002E
:1031A000000000000100000000000000000000001E
:1031B000000000000100000000000000000000000E
:1031C00000000100010001000000000000000000FC
:1031D00000000000000000000000000000000000EF
:1031E00000000000000000000000000000000000DF
:1031F00000000100010001000100010000000000CA
:1032000000000000000000000000010000000000BD
:1032100000000000000000000100000000000000AD
:10322000000000000000000000000000000000009E
:103230000000010001000100010001000000000089
:10324000000000000000000000000100000000007D
:10325000000000000000000001000000000000006D
:10326000000000000000010000000000000000005D
:10327000000000000100000000000000000000004D
:10328000000001000000000000000000000000003D
:10329000000000000000000000000000000000002E
:1032A000000000000000010000000000000000001D
:1032B000000000000100000000000000000000000D
:1032C00000000100000000000000000000000000FD
:1032D00000000000000000000000000000000000EE
:1032E00000000000000000000000000000000000DE
:1032F00000000100010000000000000000000000CC
:1033000000000000010000000000000000000000BC
:1033100000000000010000000000000000000000AC
:10332000000000000000000000000000000000009D
:10333000000001000100000000000000000000008B
:10334000000000000100000000000000000000007C
:10335000000000000100000000000000000000006C
:10336000000000000100000000000000000000005C
:10337000000000000100000000000000000000004C
:10338000000001000100010000000000000000003A
:10339000000000000000000000000000000000002D
:1033A000000000000100000000000000000000001C
:1033B000000000000100000000000000000000000C
:1033C00000000100010001000000000000000000FA
:1033D00000000000000000000000000000000000ED
:1033E00000000000000000000000000000000000DD
:1033F00000000100010001000000000000000000CA
:1034000001000000000001000100000000000000B9
:1034100001000000010000000100000000000000A9
:10342000000000000000000000000000000000009C
:10343000000000000000000000000000000000008C
:103440000000010001000100000000000000000079
:103450000100000000000100010000000000000069
:103460000100000001000000010000000000000059
:103470000100010000000000010000000000000049
:103480000000010001000100000000000000000039
:10349000000000000000000000000000000000002C
:1034A0000100000001000000010000000000000019
:1034B0000100010000000000010000000000000009
:1034C00000000100010001000000000000000000F9
:1034D00000000000000000000000000000000000EC
:1034E00000000000000000000000000000000000DC
:1034F00000000100010001000100000000000000C8
:1035000000000000000000000000010000000000BA
:1035100000000000000001000100000000000000A9
:10352000000000000000000000000000000000009B
:103530000000010001000100010000000000000087
:10354000000000000000000000000100000000007A
:103550000000000000000100010000000000000069
:10356000000000000000000000000100000000005A
:10357000000000000000000000000100000000004A
:103580000000010001000100010001000000000036
:10359000000000000000000000000000000000002B
:1035A000000000000000000000000100000000001A
:1035B000000000000000000000000100000000000A
:1035C00000000100010001000100010000000000F6
:1035D00000000000000000000000000000000000EB
:1035E00000000000000000000000000000000000DB
:1035F00000000100010001000000000000000000C8
:1036000001000000000000000100000000000000B8
:1036100000000100010001000100000000000000A6
:10362000000000000000000000000000000000009A
:103630000000010001000100000000000000000087
:103640000100000000000000010000000000000078
:103650000000010001000100010000000000000066
:103660000000000000000000010000000000000059
:103670000000000000000000010000000000000049
:103680000000010001000100000000000000000037
:10369000000000000000000000000000000000002A
:1036A0000000000000000000010000000000000019
:1036B0000000000000000000010000000000000009
:1036C00000000100010001000000000000000000F7
:1036D00000000000000000000000000000000000EA
:1036E00000000000000000000000000000000000DA
:1036F00001000100010001000000000000000000C6
:1037000000000000000000000100000000000000B8
:1037100000000100010001000000000000000000A6
:103720000100000000000000000000000000000098
:103730000100010001000100010000000000000084
:103740000000000000000000000000000000000079
:103750000000000000000000000000000000000069
:103760000000000000000000000000000000000059
:103770000000000000000000000000000000000049
:103780000000000000000000000000000000000039
:103790000000000000000000000000000000000029
:1037A0000000000000000000000000000000000019
:1037B0000000000000000000000000000000000009
:1037C00001000100010001000000000000000000F5
:1037D00000000000000000000100000000000000E8
:1037E00000000100010001000000000000000000D6
:1037F00001000000000000000000000000000000C8
:1038000001000100010001000100000000000000B3
:1038100000000000000000000000000000000101A6
:1038200000000020002100220023002400250026A3
:1038300000270016001700180019001A001B001CB2
:10384000001D00000000000000000000000000005B
:103850000000000000010001000100010000000064
:103860000000000000000000000000000001000057
:103870000000000000000001000100010001000044
:103880000000000000010000000000000001000036
:103890000000000000000001000100010000000025
:1038A0000000000000000000000000000000000018
:1038B0000000000000000000000000000000000008
:1038C00000000000000000000000000000000000F8
:1038D00000000000000000010001000100000000E5
:1038E00000000000000100000000000000010000D6
:1038F00000000000000000010001000100000000C5
:1039000000000000000100000000000000010000B5
:1039100000000000000000010001000100000000A4
:103920000000000000000000000000000000000097
:103930000000000000000000000000000000000087
:103940000000000000000000000000000000000077
:103950000000000000000001000000000000000066
:103960000000000000000000000100000000000056
:103970000000000000000000000000010000000046
:103980000000000000000000000000000001000036
:103990000000000000010001000100010001000022
:1039A0000000000000000000000000000000000017
:1039B0000000000000000000000000000000000007
:1039C00000000000000000000000000000000000F7
:1039D00000000000000000010001000100000000E4
:1039E00000000000000100000000000000010000D5
:1039F00000000000000100010001000100000000C3
:103A000000000000000100000000000000000000B5
:103A100000000000000000010001000100010000A2
:103A20000000000000000000000000000000000096
:103A30000000000000000000000000000000000086
:103A40000000000000000000000000000000000076
:103A50000000000000010001000100010000000062
:103A60000000000000000000000000000001000055
:103A70000000000000010001000100010000000042
:103A80000000000000010000000000000000000035
:103A90000000000000010001000100010001000021
:103AA0000000000000000000000000000000000016
:103AB0000000000000000000000000000000000006
:103AC00000000000000000000000000000000000F6
:103AD00000000000000000000000000000000000E6
:103AE00000000000000000000000000000010000D5
:103AF00000000000000000010001000100010001C1
:103B000000000000000000010000000000010000B3
:103B100000000000000000000001000000010000A3
:103B20000000000000000000000000010001000093
:103B30000000000000000000000000000000000085
:103B40000000000000000000000000000000000075
:103B50000000000000000000000000000000000065
:103B60000000000000010001000100010000000051
:103B70000000000000000000000000000001000044
:103B80000000000000000000000100010000000033
:103B90000000000000000000000000000001000024
:103BA0000000000000010001000100010000000011
:103BB0000000000000000000000000000000000005
:103BC00000000000000000000000000000000000F5
:103BD00000000000000000010001000100010001E0
:103BE00000000000000000010000000000000000D4
:103BF00000000000000000000001000100010000C2
:103C000000000000000000000000000000000001B3
:103C100000000000000000010001000100010000A0
:103C20000000000000000000000000000000000094
:103C30000000000000000000000000000000000084
:103C40000000000000000000000000000000000074
:103C50000000000000000000000100010001000061
:103C60000000000000000000000000010000000053
:103C70000000000000000000000000010000000043
:103C80000000000000000000000000010000000033
:103C90000000000000000000000100010000000022
:103CA0000000000000000000000000000000000014
:103CB0000000000000000000000000000000000004
:103CC00000000000000000000000000000000000F4
:103CD00000000000000000000001000100010000E1
:103CE00000000000000000010000000000010001D1
:103CF00000000000000000010000000100000001C1
:103D000000000000000000010001000000000001B0
:103D100000000000000000000001000100010000A0
:103D20000000000000000000000000000000000093
:103D30000000000000000000000000000000000083
:103D40000000000000000000000000000000000073
:103D50000000000000000000000000000000000063
:103D60000000000000000000000000000000000053
:103D70000000000000000000000000000000000043
:103D80000000000000000000000000000000000033
:103D90000000000000000000000000000000000023
:103DA0000000000000000000000000000000000013
:103DB0000000000000000000000000000000000003
:103DC00000000000000000000000000000000000F3
:103DD00000000000000000000000000000000000E3
:103DE00000000000000000010001000100000000D0
:103DF00000000000000100000000000000010000C1
:103E000000000000000100010001000100000000AE
:103E100000000000000100000000000000000000A1
:103E2000000000000000000100010001000100008E
:103E30000000000000000000000000000000000082
:103E40000000000000000000000000000000000072
:103E50000000000000000000000000000000000062
:103E6000000000000000000100010001000000004F
:103E70000000000000010000000000000001000040
:103E8000000000000000000100010001000000002F
:103E90000000000000010000000000000001000020
:103EA000000000000000000100010001000000000F
:103EB0000000000000000000000000000000000002
:103EC00000000000000000000000000000000000F2
:103ED00000000000000000000000000000000000E2
:103EE00000000000000100010001000100010000CD
:103EF00000000000000100000000000000000000C1
:103F000000000000000000010000000000000000B0
:103F100000000000000000000001000000000000A0
:103F20000000000000000000000000010000000090
:103F30000000000000000000000000000000000081
:103F40000000000000000000000000000000000071
:103F50000000000000000000000000000000000061
:103F6000000000000001000100010001000000004D
:103F70000000000000000000000000000001000040
:103F8000000000000000000100010001000100002D
:103F9000000000000001000000000000000100001F
:103FA000000000000000000100010001000000000E
:103FB0000000000000000000000000000000000001
:103FC00000000000000000000000000000000000F1
:103FD00000000000000000000000000000000000E1
:103FE00000000000000000010001000100010001CC
:103FF00000000000000000000000000000000001C0
:1040000000000000000000000001000100010001AC
:10401000000000000000000100000000000000009F
:10402000000000000000000000010001000100018C
:104030000000000000000000000000000000000080
:104040000000000000000000000000000000000070
:104050000000000000000000000000000000000060
:10406000000000000000000100010000000000004E
:10407000000000000000000100000001000000003E
:10408000000000000000000100000000000100002E
:10409000000000000001000100010001000100001B
:1040A000000000000000000100000000000000000F
:1040B0000000000000000000000000000000000000
:1040C00000000000000000000000000000000000F0
:1040D00000000000000000000000000000000000E0
:1040E00000000000000000010001000100010000CC
:1040F00000000000000100000000000000000000BF
:1041000000000000000000010001000000000000AD
:10411000000000000001000000000000000000009E
:10412000000000000000000100010001000100008B
:10413000000000000000000000000000000000007F
:10414000000000000000000000000000000000006F
:10415000000000000000000000000000000000005F
:10416000000000000000000100010001000100004B
:10417000000000000001000000000000000000003E
:10418000000000000000000100010001000000002C
:10419000000000000000000000000000000100001E
:1041A000000000000001000100010001000100000A
:1041B00000000000000000000000000000000000FF
:1041C00000000000000000000000000000000000EF
:1041D00000000000000000000000000000000000DF
:1041E00000000000000000000001000100000000CD
:1041F00000000000000000000001000000000000BE
:1042000000000000000000000001000000000000AD
:10421000000000000000000000010000000000009D
:10422000000000000000000100010001000000008B
:10423000000000000000000000000000000000007E
:104240000000000000000023028D01BA017002EBA3
:0642500001C901DD0100BF
:020000040003F7
:10E000000D9489F10D94B2F10D94B2F10D94B2F129
:10E010000D94B2F10D94B2F10D94B2F10D94B2F1F0
:10E020000D94B2F10D94B2F10D94B2F10D94B2F1E0
:10E030000D94B2F10D94B2F10D94B2F10D94B2F1D0
:10E040000D94B2F10D94B2F10D94B2F10D94B2F1C0
:10E050000D94B2F10D94B2F10D94B2F10D94B2F1B0
:10E060000D94B2F10D94B2F10D94B2F10D94B2F1A0
:10E070000D94B2F10D94B2F10D94B2F10D94B2F190
:10E080000D94B2F10D94B2F10D94B2F10D94B2F180
:10E090000D94B2F10D94B2F10D94B2F10D94B2F170
:10E0A0000D94B2F10D94B2F10D94B2F10D94B2F160
:10E0B0000D94B2F10D94B2F10D94B2F10D94B2F150
:10E0C0000D94B2F10D94B2F10D94B2F10D94B2F140
:10E0D0000D94B2F10D94B2F10D94B2F10D94B2F130
:10E0E0000D94B2F141546D656761323536300041AF
:10E0F000726475696E6F206578706C6F72657220DE
:10E1000073746B3530305632206279204D4C530099
:10E11000426F6F746C6F616465723E004875683F52
:10E1200000436F6D70696C6564206F6E203D200048
:10E130004350552054797065202020203D20005FF9
:10E140005F4156525F415243485F5F3D2000415658
:10E1500052204C696243205665723D20004743437C
:10E160002056657273696F6E203D20004350552024
:10E1700049442020202020203D20004C6F7720663D
:10E18000757365202020203D20004869676820665F
:10E190007573652020203D200045787420667573D6
:10E1A00065202020203D20004C6F636B2066757336
:10E1B000652020203D20004D617220203720323024
:10E1C000313300312E362E3800342E332E350056A2
:10E1D00023202020414444522020206F7020636F70
:10E1E00064652020202020696E73747275637469E1
:10E1F0006F6E2061646472202020496E74657272B3
:10E20000757074006E6F20766563746F7200726A49
:10E210006D702020006A6D70200057686174207056
:10E220006F72743A00506F7274206E6F7420737541
:10E2300070706F72746564004D7573742062652030
:10E2400061206C6574746572002000577269747483
:10E25000696E672045450052656164696E672045B7
:10E26000450045452065727220636E743D00504F35
:10E27000525400303D5A65726F2061646472003FF1
:10E280003D43505520737461747300403D454550C3
:10E29000524F4D207465737400423D426C696E6B41
:10E2A000204C454400453D44756D70204545505215
:10E2B0004F4D00463D44756D7020464C415348001B
:10E2C000483D48656C70004C3D4C69737420492F83
:10E2D0004F20506F72747300513D51756974005234
:10E2E0003D44756D702052414D00563D73686F7707
:10E2F00020696E7465727275707420566563746FF0
:10E30000727300593D506F727420626C696E6B00BD
:10E310002A0011241FBECFEFD1E2DEBFCDBF01E046
:10E320000CBF12E0A0E0B2E0EEE1FDEF03E00BBFB6
:10E3300002C007900D92A030B107D9F712E0A0E01B
:10E34000B2E001C01D92AE30B107E1F70F9460F367
:10E350000D948DFE01E20EBF0FEF0DBF11241FBE05
:10E360000D9460F30D9400F020E030E040ED57E0B4
:10E3700005C0FA013197F1F72F5F3F4F2817390792
:10E38000C0F308959C01260F311DC901A0E0B0E043
:10E390002F5F3F4FABBFFC018791882361F08093D3
:10E3A000C6008091C00086FFFCCF8091C0008064D1
:10E3B0008093C000EACF08958DE08093C6008091DD
:10E3C000C00086FFFCCF8091C00080648093C000B5
:10E3D0008AE08093C6008091C00086FFFCCF8091C8
:10E3E000C00080648093C00008950F94C2F10F9420
:10E3F000DCF10895FC019081992359F09093C600B7
:10E400008091C00086FFFCCF8091C0008064809323
:10E41000C0003196992379F70895282F982F929567
:10E420009F70892F805D8A3308F0895F8093C600D2
:10E430008091C00086FFFCCF8091C00080648093F3
:10E44000C000822F8F70982F905D9A3308F0995FEB
:10E450009093C6008091C00086FFFCCF8091C000E1
:10E4600080648093C00008959C01FB01853691056E
:10E470001CF46330710594F0C90164E670E00F94F8
:10E480002EFE605D7F4F6093C6008091C00086FFC6
:10E49000FCCF8091C00080648093C0002B30310598
:10E4A00014F43297B4F0C90164E670E00F942EFEC4
:10E4B0006AE070E00F942EFE605D7F4F6093C600AF
:10E4C0008091C00086FFFCCF8091C0008064809363
:10E4D000C000C9016AE070E00F942EFEC0968093E0
:10E4E000C6008091C00086FFFCCF8091C000806490
:10E4F0008093C00008951F93182F8EE692EE60E07F
:10E500000F94C2F11093C6008091C00086FFFCCF2B
:10E510008091C00080648093C0000F94DCF11F9153
:10E5200008952F923F924F925F926F927F928F92B7
:10E530009F92AF92BF92CF92DF92EF92FF920F9392
:10E540001F93DF93CF93CDB7DEB762970FB6F894E2
:10E55000DEBF0FBECDBF382E622ECA01DB015C01CB
:10E560006D01772420E2222E2E010894411C511CBB
:10E570008BC081E0A81680E0B80681E0C80680E084
:10E58000D80628F0C601AA27BB270F940DF2BB2797
:10E59000AD2D9C2D8B2D0F940DF28A2D0F940DF225
:10E5A0002092C6008091C00086FFFCCF8091C00001
:10E5B00080648093C0009DE29093C6008091C0006B
:10E5C00086FFFCCF8091C00080648093C0002092C1
:10E5D000C6008091C00086FFFCCF8091C00080649F
:10E5E0008093C00019828601750188249924A1E0D6
:10E5F0003A1651F03A1620F0B2E03B1661F409C029
:10E600000BBFF701779007C0C7010F9477FE782EF4
:10E6100002C0F7017080872D0F940DF22092C60082
:10E620008091C00086FFFCCF8091C0008064809301
:10E63000C000872D8052F401EF70F0708F3520F408
:10E64000E40DF51D708204C0E40DF51D8EE280839B
:10E650000894E11CF11C011D111D0894811C911CE2
:10E6600090E18916910409F0C2CF80E190E0A0E02A
:10E67000B0E0A80EB91ECA1EDB1E198AC2010F9493
:10E68000FAF10F94DCF16A94662009F072CF629679
:10E690000FB6F894DEBF0FBECDBFCF91DF911F91B3
:10E6A0000F91FF90EF90DF90CF90BF90AF909F9031
:10E6B0008F907F906F905F904F903F902F90089534
:10E6C0002F923F924F925F926F927F928F929F9282
:10E6D000AF92BF92CF92DF92EF92FF920F931F9370
:10E6E000DF93CF93CDB7DEB7CD53D1400FB6F894BB
:10E6F000DEBF0FBECDBF01E20EBF0FEF0DBF94B75F
:10E70000F894A89514BE80916000886180936000A1
:10E7100010926000789493FF05C0E0910002F091A0
:10E7200001021995279A2F9A8091C00082608093E8
:10E73000C00080E18093C40088E18093C1000000A4
:10E74000EE24FF24870144E0A42EB12CCC24DD2448
:10E7500024C0C5010197F1F70894E11CF11C011DCB
:10E76000111D21E2E2162EE4F20620E0020720E06D
:10E77000120718F031E0C32ED12CC801B70127ECE5
:10E780003BE140E050E00F9441FE611571058105C9
:10E79000910519F485B1805885B98091C00087FD35
:10E7A00003C0C114D104A9F2A6014F5F5F4FC25E3E
:10E7B000DE4F59834883CE51D140C25EDE4F8881FF
:10E7C0009981CE51D140019711F00D9410FEC05D9A
:10E7D000DE4F19821882C053D14060E0C15DDE4F28
:10E7E0001882CF52D14088249924C35DDE4F19820C
:10E7F0001882CD52D140C05EDE4F188219821A8233
:10E800001B82C052D140CE5CDE4F188219821A8220
:10E810001B82C253D140EE24FF2487010BBFF701B6
:10E8200007911691C45CDE4F19830883CC53D14005
:10E830000D940BFEC25EDE4F28813981CE51D1404E
:10E840002130310509F52091C600C25EDE4F1982E4
:10E850001882CE51D14022C02F5F3F4F4F4F5F4FA4
:10E86000213082E138078AE7480780E0580780F0C6
:10E87000C45CDE4FE881F981CC53D140EF5FFF4F9C
:10E8800019F0EE27FF27099420E030E040E050E047
:10E890008091C00087FFE0CF2091C600C35DDE4FAE
:10E8A00048815981CD52D1404F5F5F4FC35DDE4FEC
:10E8B00059834883CD52D140213209F063C64A3092
:10E8C000510508F05FC60894811C911C53E0851621
:10E8D000910409F059C600E010E018C081E280936D
:10E8E000C6008091C00086FFFCCF8091C00080648C
:10E8F0008093C0002F5F3F4F2931310579F70F9486
:10E90000DCF10F5F1F4F0530110519F020E030E0FA
:10E91000E5CF10920A0210920B0210920C02109294
:10E920000D02109206021092070210920802109235
:10E930000902109202021092030210920402109235
:10E9400005028FEE90EE60E00F94F5F180E191EE1C
:10E9500060E00F94C2F18091C00087FFFCCF9091DE
:10E96000C600903608F09F759032B8F09093C600BC
:10E970008091C00086FFFCCF8091C00080648093AE
:10E98000C000A0E2A093C6008091C00086FFFCCF2B
:10E990008091C00080648093C000983409F4D7C18E
:10E9A0009934B8F4923409F459C1933458F490333B
:10E9B00019F1903308F4E3C59F33A1F1903409F0C5
:10E9C000DEC5BDC0953409F470C1963409F0D7C5D1
:10E9D00098C1923509F42BC2933538F49C3409F46C
:10E9E000F5C1913509F0CBC518C2963509F445C279
:10E9F000993509F0C4C567C483E792EE62E00F94CD
:10EA0000F5F110920602109207021092080210927D
:10EA1000090210920A0210920B0210920C0210923C
:10EA20000D0213C18FE792EE62E00F94F5F18FEEC5
:10EA300090EE60E00F94F5F181E291EE60E00F94CA
:10EA4000C2F187EB91EE60E00F94F5F180E391EE77
:10EA500060E00F94C2F184EE90EE60E00F94F5F167
:10EA60008FE391EE60E00F94C2F186E090E061E008
:10EA700070E00F9434F20F94DCF18DE591EE60E0DC
:10EA80000F94C2F189EC91EE60E00F94F5F18EE401
:10EA900091EE60E00F94C2F183EC91EE60E00F9490
:10EAA000F5F18CE691EE60E00F94C2F18EE10F94E7
:10EAB0000DF288E90F940DF281E00F940DF20F949E
:10EAC000DCF18BE791EE60E00F94C2F119E0E0E039
:10EAD000F0E010935700E4918E2F0F940DF20F94F5
:10EAE000DCF18AE891EE60E00F94C2F1E3E0F0E03F
:10EAF00010935700E4918E2F0F940DF20F94DCF1D8
:10EB000089E991EE60E00F94C2F1E2E0F0E0109349
:10EB10005700E4918E2F0F940DF20F94DCF188EAE8
:10EB200091EE60E00F94C2F1E1E0F0E01093570045
:10EB30001491812F0F940DF20F94DCF107CF8BE825
:10EB400092EE62E00F94F5F18BE492EE60E00F94A8
:10EB5000F5F10F94DCF100E010E019C0C8016F2D51
:10EB60000F947FFEFF2031F489E492EE60E00F9471
:10EB7000C2F10BC0F092C6008091C00086FFFCCFAE
:10EB80008091C00080648093C0000F5F1F4FC80158
:10EB900081519F41A0E0B0E0ABBFFC01F790BAE229
:10EBA000FB1621F0E2E000301E07C1F60F94DCF105
:10EBB0000F94DCF187E592EE60E00F94F5F10F948D
:10EBC000DCF1CC24DD2400E010E01EC0C8010F946D
:10EBD00077FEF82E882331F489E492EE60E00F94FA
:10EBE000C2F10BC08093C6008091C00086FFFCCFAD
:10EBF0008091C00080648093C000FE1419F00894D6
:10EC0000C11CD11C0F5F1F4FC80181519F41A0E063
:10EC1000B0E0ABBFFC01E790FAE2EF1621F022E092
:10EC20000030120799F60F94DCF10F94DCF182E6C4
:10EC300092EE60E00F94C2F1C60161E070E00F94C3
:10EC400034F20F94DCF10F94DCF110920202109276
:10EC50000302109204021092050278CE89E992EE26
:10EC600062E00F94F5F1279A2F9A16C02F9880E052
:10EC700090E0E0EDF7E03197F1F7019684369105E9
:10EC8000C1F72F9A80E090E0E0EDF7E03197F1F7DF
:10EC9000019684369105C1F78091C00087FFE6CFC9
:10ECA0008091C00087FFFCCF64C485EA92EE62E0E9
:10ECB0000F94F5F140910202509103026091040219
:10ECC0007091050281E020E10F9491F2809102029F
:10ECD00090910302A0910402B091050280509F4FD1
:10ECE000AF4FBF4F8093020290930302A0930402A0
:10ECF000B093050280509041A040B04008F426CE69
:10ED0000A4CF83EB92EE62E00F94F5F140910602FE
:10ED100050910702609108027091090280E020E1A1
:10ED20000F9491F28091060290910702A09108023F
:10ED3000B091090280509F4FAF4FBF4F80930602A2
:10ED400090930702A0930802B0930902FFCD80ECD4
:10ED500092EE62E00F94F5F183E792EE60E00F949B
:10ED6000F5F18FE792EE60E00F94F5F18BE892EE0B
:10ED700060E00F94F5F189E992EE60E00F94F5F10F
:10ED800085EA92EE60E00F94F5F183EB92EE60E09D
:10ED90000F94F5F180EC92EE60E00F94F5F187ECC2
:10EDA00092EE60E00F94F5F188ED92EE60E00F9442
:10EDB000F5F18FED92EE60E00F94F5F18AEE92EEB0
:10EDC00060E00F94F5F183E093EEBDCD87EC92EE19
:10EDD00062E00F94F5F181E40F947BF282E40F94EA
:10EDE0007BF283E40F947BF284E40F947BF285E45E
:10EDF0000F947BF286E40F947BF287E40F947BF20E
:10EE000088E40F947BF28AE40F947BF28BE40F94F6
:10EE10007BF28CE40F947BF299CD88ED92EE62E068
:10EE20000F94F5F1772473948824992409C48FED05
:10EE300092EE62E00F94F5F140910A0250910B02BC
:10EE400060910C0270910D0282E020E10F9491F22A
:10EE500080910A0290910B02A0910C02B0910D02D8
:10EE600080509F4FAF4FBF4F80930A0290930B0289
:10EE7000A0930C02B0930D0269CD8AEE92EE62E08F
:10EE80000F94F5F184EE90EE60E00F94F5F18FECC5
:10EE900091EE60E00F94F5F1662477244301CC5D98
:10EEA000DE4F19821882C452D140D401C301B695F5
:10EEB000A79597958795CA5DDE4F88839983AA8326
:10EEC000BB83C652D140CC5DDE4FA881B981C4520C
:10EED000D1401196CC5DDE4FB983A883C452D14096
:10EEE000CD0162E070E00F9434F2B0E2B093C6005E
:10EEF0008091C00086FFFCCF8091C0008064809329
:10EF0000C000EDE2E093C6008091C00086FFFCCF18
:10EF10008091C00080648093C000F0E2F093C6004E
:10EF20008091C00086FFFCCF8091C00080648093F8
:10EF3000C000CA5DDE4FE880F9800A811B81C6529D
:10EF4000D140BB27A12F902F8F2D0F940DF2CA5DBA
:10EF5000DE4F8881C652D1400F940DF2B0E2FB2EF5
:10EF6000F092C6008091C00086FFFCCF8091C00067
:10EF700080648093C0000DE30093C6008091C000C0
:10EF800086FFFCCF8091C00080648093C00010E2B7
:10EF90001093C6008091C00086FFFCCF8091C00016
:10EFA00080648093C0008BBEF3012791C65DDE4F65
:10EFB0002883CA52D140A22EBB24CC24DD2408943D
:10EFC000611C711C811C911C8BBEF3018791282E42
:10EFD0003324442455240894611C711C811C911C09
:10EFE0008BBEF3013791C55DDE4F3883CB52D140E4
:10EFF0000894611C711C811C911C8BBEF30147910C
:10F00000C45DDE4F4883CC52D140ADEFEA2EAFEF66
:10F01000FA2EAFEF0A2FAFEF1A2F6E0C7F1C801E57
:10F02000911E142D032DF22CEE24EA0CFB1C0C1D5A
:10F030001D1D0F940DF220E22093C6008091C000A8
:10F0400086FFFCCF8091C00080648093C000C65DC5
:10F05000DE4F8881CA52D1400F940DF230E23093D6
:10F06000C6008091C00086FFFCCF8091C000806404
:10F070008093C000C45DDE4F8881CC52D1400F9494
:10F080000DF240E24093C6008091C00086FFFCCFA5
:10F090008091C00080648093C000C55DDE4F888190
:10F0A000CB52D1400F940DF250E25093C6008091A4
:10F0B000C00086FFFCCF8091C00080648093C000B8
:10F0C0008FEFE8168FEFF80680E0080780E018075A
:10F0D00031F484E092EE60E00F94C2F1DFC0D80119
:10F0E000C7018070907CA070B0708050904CA040A0
:10F0F000B040D1F52FEF3FE340E050E0E222F322B1
:10F1000004231523CA5DDE4FA880B980CA80DB8046
:10F11000C652D140AE0CBF1CC01ED11EAA0CBB1CD7
:10F12000CC1CDD1C8EE092EE60E00F94C2F1BB2798
:10F13000A12F902F8F2D0F940DF28E2D0F940DF285
:10F1400030E23093C6008091C00086FFFCCF8091F2
:10F15000C00080648093C0004EE34093C60080915D
:10F16000C00086FFFCCF87C08EE09EEFA0E0B0E03D
:10F17000E822F9220A231B239CE0E91694E9F90608
:10F1800090E0090790E0190709F088C0C45DDE4FE0
:10F19000A881CC52D140EA2EFF2400E010E0102FCD
:10F1A0000F2DFE2CEE24C55DDE4FB881CB52D14031
:10F1B000EB0EF11C011D111DD601C501817090706F
:10F1C000A070B070DC0199278827E80EF91E0A1F8D
:10F1D0001B1F20EF30E040E050E0A222B322C42207
:10F1E000D52241E1AA0CBB1CCC1CDD1C4A95D1F7F1
:10F1F000EA0CFB1C0C1D1D1D81E090E0A0E0B0E0BE
:10F20000282239224A225B2235E1220C331C441C7D
:10F21000551C3A95D1F7E20CF31C041D151D57013E
:10F220006801AA0CBB1CCC1CDD1C85E192EE60E0E1
:10F230000F94C2F1C801AA27BB270F940DF2BB2778
:10F24000A12F902F8F2D0F940DF28E2D0F940DF274
:10F2500090E29093C6008091C00086FFFCCF809121
:10F26000C00080648093C000AEE3A093C60080918C
:10F27000C00086FFFCCF8091C00080648093C000F6
:10F28000C601AA27BB270F940DF2BB27AD2D9C2DDD
:10F290008B2D0F940DF28A2D0F940DF20F94DCF14B
:10F2A000CC5DDE4FE881F981C452D140F99709F471
:10F2B0004DCBF4E0EF2EF12C012D112D6E0C7F1CA7
:10F2C000801E911EF2CD83E093EE62E00F94F5F183
:10F2D0008AE192EE60E00F94C2F18091C00087FF56
:10F2E000FCCF1091C6001F751093C6008091C0001E
:10F2F00086FFFCCF8091C00080648093C0000F9493
:10F30000DCF1812F81548A3108F036C1163409F4BA
:10F3100095C0173490F4133409F44EC0143430F40B
:10F320001134F1F0123409F01DC130C0143409F465
:10F3300059C0153409F016C16BC01A3409F4C4C0A1
:10F340001B3438F4173409F48FC0183409F00AC19B
:10F35000A1C01B3409F4D2C01C3409F003C1E8C0B9
:10F360008FEF81B90DC082B1809582B980E090E0C5
:10F37000E0EDF7E03197F1F70196883C9105C1F790
:10F380008091C00087FFEFCF12B8EFC08FEF84B934
:10F390000DC085B1809585B980E090E0E0EDF7E0A3
:10F3A0003197F1F70196883C9105C1F78091C00033
:10F3B00087FFEFCF15B8D9C08FEF87B90DC088B1DF
:10F3C000809588B980E090E0E0EDF7E03197F1F7C3
:10F3D0000196883C9105C1F78091C00087FFEFCF6F
:10F3E00018B8C3C08FEF8AB90DC08BB180958BB9A7
:10F3F00080E090E0E0EDF7E03197F1F70196883C8E
:10F400009105C1F78091C00087FFEFCF1BB8ADC059
:10F410008FEF8DB90DC08EB180958EB980E090E0F0
:10F42000E0EDF7E03197F1F70196883C9105C1F7DF
:10F430008091C00087FFEFCF1EB897C08FEF80BBD1
:10F440000DC081B3809581BB80E090E0E0EDF7E0F6
:10F450003197F1F70196883C9105C1F78091C00082
:10F4600087FFEFCF11BA81C08FEF83BB0DC084B38C
:10F47000809584BB80E090E0E0EDF7E03197F1F714
:10F480000196883C9105C1F78091C00087FFEFCFBE
:10F4900014BA6BC08FEF809301010FC080910201FD
:10F4A00080958093020180E090E0E0EDF7E03197F5
:10F4B000F1F70196883C9105C1F78091C00087FF64
:10F4C000EDCF1092020151C08FEF809304010FC065
:10F4D0008091050180958093050180E090E0E0ED4A
:10F4E000F7E03197F1F70196883C9105C1F78091DB
:10F4F000C00087FFEDCF1092050137C08FEF8093DA
:10F5000007010FC08091080180958093080180E079
:10F5100090E0E0EDF7E03197F1F70196883C910536
:10F52000C1F78091C00087FFEDCF109208011DC088
:10F530008FEF80930A010FC080910B01809580931B
:10F540000B0180E090E0E0EDF7E03197F1F70196F4
:10F55000883C9105C1F78091C00087FFEDCF1092E4
:10F560000B0103C085E292EEEEC98091C00087FFD7
:10F57000FCCF8091C600EAC988E392EEE4C98CE131
:10F5800091EEE1C988249924933011F1943028F444
:10F59000913089F09230B8F408C0953061F195301F
:10F5A000F0F0963009F048C043C02B3109F042C951
:10F5B00091E06BE13FC96227C15DDE4F2883CF52E6
:10F5C000D14092E037C9B22FA0E0622793E032C960
:10F5D000822F90E0A82BB92B622794E02BC92E3004
:10F5E00009F039C3622795E0C05DDE4F19821882A9
:10F5F000C053D1401FC9E1E0F0E0EC0FFD1FC05D3A
:10F60000DE4F08811981C053D140E00FF11F2083E4
:10F610000F5F1F4FC05DDE4F19830883C053D14079
:10F6200062270A171B0709F005C9D80196E002C92D
:10F63000261709F010C303C0973009F0FBC87724E0
:10F640009981933109F412C19431C8F4963009F4C8
:10F65000D8C0973050F4923009F406C1933009F4C1
:10F660006DC0913009F059C253C0913109F477C08F
:10F67000923108F0BBC0903109F04FC2F5C098310B
:10F6800009F487C0993150F4953109F4EFC09531F0
:10F6900008F4C6C1963109F040C2C2C19A3109F4DA
:10F6A0006CC09A3108F491C09B3109F45BC09D3164
:10F6B00009F033C29D81903359F48F81882311F46E
:10F6C0009EE11CC0813011F091E018C098E916C08D
:10F6D000892F807591F0903539F4E0E0F0E089E011
:10F6E0008093570094910AC0983539F4E3E0F0E034
:10F6F00089E080935700949101C090E01A821B82A8
:10F700008D818C831D829E831F8227E030E009C299
:10F710001A8288E08B8381E48C8386E58D8382E581
:10F720008E8389E48F8383E5888780E589878FE5E9
:10F730008A8782E38B872BE030E0F3C18A818139AD
:10F7400041F0823941F0803911F48FE005C080E04A
:10F7500003C082E001C08AE01A828B8344C0772410
:10F76000739482C08D81882311F48EE12CC0813086
:10F7700011F081E028C088E926C01A82E1E0F0E0BB
:10F7800089E08093570084918B831C8224E030E0D1
:10F79000C8C18B81803589F48C81883039F4E2E0EE
:10F7A000F0E089E08093570084910DC0E0E0F0E044
:10F7B00089E080935700849106C0E3E0F0E089E09F
:10F7C0008093570084911A82DFCF8D81836C99E0FA
:10F7D000E1E0F0E0082E90935700E89507B600FCB2
:10F7E000FDCF1A821B8223E030E09BC180EC8A832C
:10F7F000CE5CDE4F188219821A821B82C253D1401E
:10F800008EC18A8190E0A0E0B0E0582F44273327D2
:10F8100022278B8190E0A0E0B0E0DC0199278827C7
:10F82000282B392B4A2B5B2B8D8190E0A0E0B0E098
:10F83000282B392B4A2B5B2B8C8190E0A0E0B0E089
:10F84000BA2FA92F982F8827282B392B4A2B5B2BCF
:10F85000220F331F441F551FC05EDE4F288339839C
:10F860004A835B83C052D1401A8259C13A81C95C34
:10F87000DE4F3883C753D140CA5CDE4F1882C6536F
